{
	"contracts/ERC720.sol": {
		"Goraya": {
			"abi": [
				{
					"inputs": [],
					"stateMutability": "nonpayable",
					"type": "constructor"
				},
				{
					"inputs": [],
					"name": "ERC721EnumerableForbiddenBatchMint",
					"type": "error"
				},
				{
					"inputs": [
						{
							"internalType": "address",
							"name": "sender",
							"type": "address"
						},
						{
							"internalType": "uint256",
							"name": "tokenId",
							"type": "uint256"
						},
						{
							"internalType": "address",
							"name": "owner",
							"type": "address"
						}
					],
					"name": "ERC721IncorrectOwner",
					"type": "error"
				},
				{
					"inputs": [
						{
							"internalType": "address",
							"name": "operator",
							"type": "address"
						},
						{
							"internalType": "uint256",
							"name": "tokenId",
							"type": "uint256"
						}
					],
					"name": "ERC721InsufficientApproval",
					"type": "error"
				},
				{
					"inputs": [
						{
							"internalType": "address",
							"name": "approver",
							"type": "address"
						}
					],
					"name": "ERC721InvalidApprover",
					"type": "error"
				},
				{
					"inputs": [
						{
							"internalType": "address",
							"name": "operator",
							"type": "address"
						}
					],
					"name": "ERC721InvalidOperator",
					"type": "error"
				},
				{
					"inputs": [
						{
							"internalType": "address",
							"name": "owner",
							"type": "address"
						}
					],
					"name": "ERC721InvalidOwner",
					"type": "error"
				},
				{
					"inputs": [
						{
							"internalType": "address",
							"name": "receiver",
							"type": "address"
						}
					],
					"name": "ERC721InvalidReceiver",
					"type": "error"
				},
				{
					"inputs": [
						{
							"internalType": "address",
							"name": "sender",
							"type": "address"
						}
					],
					"name": "ERC721InvalidSender",
					"type": "error"
				},
				{
					"inputs": [
						{
							"internalType": "uint256",
							"name": "tokenId",
							"type": "uint256"
						}
					],
					"name": "ERC721NonexistentToken",
					"type": "error"
				},
				{
					"inputs": [
						{
							"internalType": "address",
							"name": "owner",
							"type": "address"
						},
						{
							"internalType": "uint256",
							"name": "index",
							"type": "uint256"
						}
					],
					"name": "ERC721OutOfBoundsIndex",
					"type": "error"
				},
				{
					"inputs": [],
					"name": "EnforcedPause",
					"type": "error"
				},
				{
					"inputs": [],
					"name": "ExpectedPause",
					"type": "error"
				},
				{
					"inputs": [
						{
							"internalType": "address",
							"name": "owner",
							"type": "address"
						}
					],
					"name": "OwnableInvalidOwner",
					"type": "error"
				},
				{
					"inputs": [
						{
							"internalType": "address",
							"name": "account",
							"type": "address"
						}
					],
					"name": "OwnableUnauthorizedAccount",
					"type": "error"
				},
				{
					"anonymous": false,
					"inputs": [
						{
							"indexed": true,
							"internalType": "address",
							"name": "owner",
							"type": "address"
						},
						{
							"indexed": true,
							"internalType": "address",
							"name": "approved",
							"type": "address"
						},
						{
							"indexed": true,
							"internalType": "uint256",
							"name": "tokenId",
							"type": "uint256"
						}
					],
					"name": "Approval",
					"type": "event"
				},
				{
					"anonymous": false,
					"inputs": [
						{
							"indexed": true,
							"internalType": "address",
							"name": "owner",
							"type": "address"
						},
						{
							"indexed": true,
							"internalType": "address",
							"name": "operator",
							"type": "address"
						},
						{
							"indexed": false,
							"internalType": "bool",
							"name": "approved",
							"type": "bool"
						}
					],
					"name": "ApprovalForAll",
					"type": "event"
				},
				{
					"anonymous": false,
					"inputs": [
						{
							"indexed": true,
							"internalType": "address",
							"name": "previousOwner",
							"type": "address"
						},
						{
							"indexed": true,
							"internalType": "address",
							"name": "newOwner",
							"type": "address"
						}
					],
					"name": "OwnershipTransferred",
					"type": "event"
				},
				{
					"anonymous": false,
					"inputs": [
						{
							"indexed": false,
							"internalType": "address",
							"name": "account",
							"type": "address"
						}
					],
					"name": "Paused",
					"type": "event"
				},
				{
					"anonymous": false,
					"inputs": [
						{
							"indexed": true,
							"internalType": "address",
							"name": "from",
							"type": "address"
						},
						{
							"indexed": true,
							"internalType": "address",
							"name": "to",
							"type": "address"
						},
						{
							"indexed": true,
							"internalType": "uint256",
							"name": "tokenId",
							"type": "uint256"
						}
					],
					"name": "Transfer",
					"type": "event"
				},
				{
					"anonymous": false,
					"inputs": [
						{
							"indexed": false,
							"internalType": "address",
							"name": "account",
							"type": "address"
						}
					],
					"name": "Unpaused",
					"type": "event"
				},
				{
					"inputs": [
						{
							"internalType": "address",
							"name": "",
							"type": "address"
						}
					],
					"name": "allowList",
					"outputs": [
						{
							"internalType": "bool",
							"name": "",
							"type": "bool"
						}
					],
					"stateMutability": "view",
					"type": "function"
				},
				{
					"inputs": [],
					"name": "allowListMint",
					"outputs": [],
					"stateMutability": "payable",
					"type": "function"
				},
				{
					"inputs": [
						{
							"internalType": "address",
							"name": "to",
							"type": "address"
						},
						{
							"internalType": "uint256",
							"name": "tokenId",
							"type": "uint256"
						}
					],
					"name": "approve",
					"outputs": [],
					"stateMutability": "nonpayable",
					"type": "function"
				},
				{
					"inputs": [
						{
							"internalType": "address",
							"name": "owner",
							"type": "address"
						}
					],
					"name": "balanceOf",
					"outputs": [
						{
							"internalType": "uint256",
							"name": "",
							"type": "uint256"
						}
					],
					"stateMutability": "view",
					"type": "function"
				},
				{
					"inputs": [
						{
							"internalType": "bool",
							"name": "_publicMintOpen",
							"type": "bool"
						},
						{
							"internalType": "bool",
							"name": "_allowListMintOpen",
							"type": "bool"
						}
					],
					"name": "editMintWindows",
					"outputs": [],
					"stateMutability": "nonpayable",
					"type": "function"
				},
				{
					"inputs": [
						{
							"internalType": "uint256",
							"name": "tokenId",
							"type": "uint256"
						}
					],
					"name": "getApproved",
					"outputs": [
						{
							"internalType": "address",
							"name": "",
							"type": "address"
						}
					],
					"stateMutability": "view",
					"type": "function"
				},
				{
					"inputs": [
						{
							"internalType": "address",
							"name": "owner",
							"type": "address"
						},
						{
							"internalType": "address",
							"name": "operator",
							"type": "address"
						}
					],
					"name": "isApprovedForAll",
					"outputs": [
						{
							"internalType": "bool",
							"name": "",
							"type": "bool"
						}
					],
					"stateMutability": "view",
					"type": "function"
				},
				{
					"inputs": [],
					"name": "maxSupply",
					"outputs": [
						{
							"internalType": "uint256",
							"name": "",
							"type": "uint256"
						}
					],
					"stateMutability": "view",
					"type": "function"
				},
				{
					"inputs": [],
					"name": "name",
					"outputs": [
						{
							"internalType": "string",
							"name": "",
							"type": "string"
						}
					],
					"stateMutability": "view",
					"type": "function"
				},
				{
					"inputs": [],
					"name": "owner",
					"outputs": [
						{
							"internalType": "address",
							"name": "",
							"type": "address"
						}
					],
					"stateMutability": "view",
					"type": "function"
				},
				{
					"inputs": [
						{
							"internalType": "uint256",
							"name": "tokenId",
							"type": "uint256"
						}
					],
					"name": "ownerOf",
					"outputs": [
						{
							"internalType": "address",
							"name": "",
							"type": "address"
						}
					],
					"stateMutability": "view",
					"type": "function"
				},
				{
					"inputs": [],
					"name": "pause",
					"outputs": [],
					"stateMutability": "nonpayable",
					"type": "function"
				},
				{
					"inputs": [],
					"name": "paused",
					"outputs": [
						{
							"internalType": "bool",
							"name": "",
							"type": "bool"
						}
					],
					"stateMutability": "view",
					"type": "function"
				},
				{
					"inputs": [],
					"name": "publicMint",
					"outputs": [],
					"stateMutability": "payable",
					"type": "function"
				},
				{
					"inputs": [],
					"name": "renounceOwnership",
					"outputs": [],
					"stateMutability": "nonpayable",
					"type": "function"
				},
				{
					"inputs": [
						{
							"internalType": "address",
							"name": "from",
							"type": "address"
						},
						{
							"internalType": "address",
							"name": "to",
							"type": "address"
						},
						{
							"internalType": "uint256",
							"name": "tokenId",
							"type": "uint256"
						}
					],
					"name": "safeTransferFrom",
					"outputs": [],
					"stateMutability": "nonpayable",
					"type": "function"
				},
				{
					"inputs": [
						{
							"internalType": "address",
							"name": "from",
							"type": "address"
						},
						{
							"internalType": "address",
							"name": "to",
							"type": "address"
						},
						{
							"internalType": "uint256",
							"name": "tokenId",
							"type": "uint256"
						},
						{
							"internalType": "bytes",
							"name": "data",
							"type": "bytes"
						}
					],
					"name": "safeTransferFrom",
					"outputs": [],
					"stateMutability": "nonpayable",
					"type": "function"
				},
				{
					"inputs": [
						{
							"internalType": "address[]",
							"name": "addresses",
							"type": "address[]"
						}
					],
					"name": "setAllowList",
					"outputs": [],
					"stateMutability": "nonpayable",
					"type": "function"
				},
				{
					"inputs": [
						{
							"internalType": "address",
							"name": "operator",
							"type": "address"
						},
						{
							"internalType": "bool",
							"name": "approved",
							"type": "bool"
						}
					],
					"name": "setApprovalForAll",
					"outputs": [],
					"stateMutability": "nonpayable",
					"type": "function"
				},
				{
					"inputs": [
						{
							"internalType": "bytes4",
							"name": "interfaceId",
							"type": "bytes4"
						}
					],
					"name": "supportsInterface",
					"outputs": [
						{
							"internalType": "bool",
							"name": "",
							"type": "bool"
						}
					],
					"stateMutability": "view",
					"type": "function"
				},
				{
					"inputs": [],
					"name": "symbol",
					"outputs": [
						{
							"internalType": "string",
							"name": "",
							"type": "string"
						}
					],
					"stateMutability": "view",
					"type": "function"
				},
				{
					"inputs": [
						{
							"internalType": "uint256",
							"name": "index",
							"type": "uint256"
						}
					],
					"name": "tokenByIndex",
					"outputs": [
						{
							"internalType": "uint256",
							"name": "",
							"type": "uint256"
						}
					],
					"stateMutability": "view",
					"type": "function"
				},
				{
					"inputs": [
						{
							"internalType": "address",
							"name": "owner",
							"type": "address"
						},
						{
							"internalType": "uint256",
							"name": "index",
							"type": "uint256"
						}
					],
					"name": "tokenOfOwnerByIndex",
					"outputs": [
						{
							"internalType": "uint256",
							"name": "",
							"type": "uint256"
						}
					],
					"stateMutability": "view",
					"type": "function"
				},
				{
					"inputs": [
						{
							"internalType": "uint256",
							"name": "tokenId",
							"type": "uint256"
						}
					],
					"name": "tokenURI",
					"outputs": [
						{
							"internalType": "string",
							"name": "",
							"type": "string"
						}
					],
					"stateMutability": "view",
					"type": "function"
				},
				{
					"inputs": [],
					"name": "totalSupply",
					"outputs": [
						{
							"internalType": "uint256",
							"name": "",
							"type": "uint256"
						}
					],
					"stateMutability": "view",
					"type": "function"
				},
				{
					"inputs": [
						{
							"internalType": "address",
							"name": "from",
							"type": "address"
						},
						{
							"internalType": "address",
							"name": "to",
							"type": "address"
						},
						{
							"internalType": "uint256",
							"name": "tokenId",
							"type": "uint256"
						}
					],
					"name": "transferFrom",
					"outputs": [],
					"stateMutability": "nonpayable",
					"type": "function"
				},
				{
					"inputs": [
						{
							"internalType": "address",
							"name": "newOwner",
							"type": "address"
						}
					],
					"name": "transferOwnership",
					"outputs": [],
					"stateMutability": "nonpayable",
					"type": "function"
				},
				{
					"inputs": [],
					"name": "unpause",
					"outputs": [],
					"stateMutability": "nonpayable",
					"type": "function"
				},
				{
					"inputs": [
						{
							"internalType": "address",
							"name": "_address",
							"type": "address"
						}
					],
					"name": "withdraw",
					"outputs": [],
					"stateMutability": "nonpayable",
					"type": "function"
				}
			],
			"devdoc": {
				"errors": {
					"ERC721EnumerableForbiddenBatchMint()": [
						{
							"details": "Batch mint is not allowed."
						}
					],
					"ERC721IncorrectOwner(address,uint256,address)": [
						{
							"details": "Indicates an error related to the ownership over a particular token. Used in transfers.",
							"params": {
								"owner": "Address of the current owner of a token.",
								"sender": "Address whose tokens are being transferred.",
								"tokenId": "Identifier number of a token."
							}
						}
					],
					"ERC721InsufficientApproval(address,uint256)": [
						{
							"details": "Indicates a failure with the `operator`’s approval. Used in transfers.",
							"params": {
								"operator": "Address that may be allowed to operate on tokens without being their owner.",
								"tokenId": "Identifier number of a token."
							}
						}
					],
					"ERC721InvalidApprover(address)": [
						{
							"details": "Indicates a failure with the `approver` of a token to be approved. Used in approvals.",
							"params": {
								"approver": "Address initiating an approval operation."
							}
						}
					],
					"ERC721InvalidOperator(address)": [
						{
							"details": "Indicates a failure with the `operator` to be approved. Used in approvals.",
							"params": {
								"operator": "Address that may be allowed to operate on tokens without being their owner."
							}
						}
					],
					"ERC721InvalidOwner(address)": [
						{
							"details": "Indicates that an address can't be an owner. For example, `address(0)` is a forbidden owner in EIP-20. Used in balance queries.",
							"params": {
								"owner": "Address of the current owner of a token."
							}
						}
					],
					"ERC721InvalidReceiver(address)": [
						{
							"details": "Indicates a failure with the token `receiver`. Used in transfers.",
							"params": {
								"receiver": "Address to which tokens are being transferred."
							}
						}
					],
					"ERC721InvalidSender(address)": [
						{
							"details": "Indicates a failure with the token `sender`. Used in transfers.",
							"params": {
								"sender": "Address whose tokens are being transferred."
							}
						}
					],
					"ERC721NonexistentToken(uint256)": [
						{
							"details": "Indicates a `tokenId` whose `owner` is the zero address.",
							"params": {
								"tokenId": "Identifier number of a token."
							}
						}
					],
					"ERC721OutOfBoundsIndex(address,uint256)": [
						{
							"details": "An `owner`'s token query was out of bounds for `index`. NOTE: The owner being `address(0)` indicates a global out of bounds index."
						}
					],
					"EnforcedPause()": [
						{
							"details": "The operation failed because the contract is paused."
						}
					],
					"ExpectedPause()": [
						{
							"details": "The operation failed because the contract is not paused."
						}
					],
					"OwnableInvalidOwner(address)": [
						{
							"details": "The owner is not a valid owner account. (eg. `address(0)`)"
						}
					],
					"OwnableUnauthorizedAccount(address)": [
						{
							"details": "The caller account is not authorized to perform an operation."
						}
					]
				},
				"events": {
					"Approval(address,address,uint256)": {
						"details": "Emitted when `owner` enables `approved` to manage the `tokenId` token."
					},
					"ApprovalForAll(address,address,bool)": {
						"details": "Emitted when `owner` enables or disables (`approved`) `operator` to manage all of its assets."
					},
					"Paused(address)": {
						"details": "Emitted when the pause is triggered by `account`."
					},
					"Transfer(address,address,uint256)": {
						"details": "Emitted when `tokenId` token is transferred from `from` to `to`."
					},
					"Unpaused(address)": {
						"details": "Emitted when the pause is lifted by `account`."
					}
				},
				"kind": "dev",
				"methods": {
					"approve(address,uint256)": {
						"details": "See {IERC721-approve}."
					},
					"balanceOf(address)": {
						"details": "See {IERC721-balanceOf}."
					},
					"getApproved(uint256)": {
						"details": "See {IERC721-getApproved}."
					},
					"isApprovedForAll(address,address)": {
						"details": "See {IERC721-isApprovedForAll}."
					},
					"name()": {
						"details": "See {IERC721Metadata-name}."
					},
					"owner()": {
						"details": "Returns the address of the current owner."
					},
					"ownerOf(uint256)": {
						"details": "See {IERC721-ownerOf}."
					},
					"paused()": {
						"details": "Returns true if the contract is paused, and false otherwise."
					},
					"renounceOwnership()": {
						"details": "Leaves the contract without owner. It will not be possible to call `onlyOwner` functions. Can only be called by the current owner. NOTE: Renouncing ownership will leave the contract without an owner, thereby disabling any functionality that is only available to the owner."
					},
					"safeTransferFrom(address,address,uint256)": {
						"details": "See {IERC721-safeTransferFrom}."
					},
					"safeTransferFrom(address,address,uint256,bytes)": {
						"details": "See {IERC721-safeTransferFrom}."
					},
					"setApprovalForAll(address,bool)": {
						"details": "See {IERC721-setApprovalForAll}."
					},
					"symbol()": {
						"details": "See {IERC721Metadata-symbol}."
					},
					"tokenByIndex(uint256)": {
						"details": "See {IERC721Enumerable-tokenByIndex}."
					},
					"tokenOfOwnerByIndex(address,uint256)": {
						"details": "See {IERC721Enumerable-tokenOfOwnerByIndex}."
					},
					"tokenURI(uint256)": {
						"details": "See {IERC721Metadata-tokenURI}."
					},
					"totalSupply()": {
						"details": "See {IERC721Enumerable-totalSupply}."
					},
					"transferFrom(address,address,uint256)": {
						"details": "See {IERC721-transferFrom}."
					},
					"transferOwnership(address)": {
						"details": "Transfers ownership of the contract to a new account (`newOwner`). Can only be called by the current owner."
					}
				},
				"version": 1
			},
			"evm": {
				"assembly": "    /* \"contracts/ERC720.sol\":375:2892  contract Goraya is ERC721, ERC721Enumerable, ERC721Pausable, Ownable {... */\n  mstore(0x40, 0x80)\n    /* \"contracts/ERC720.sol\":511:515  2000 */\n  0x07d0\n    /* \"contracts/ERC720.sol\":484:515  uint256 public maxSupply = 2000 */\n  0x0c\n  sstore\n    /* \"contracts/ERC720.sol\":592:597  false */\n  0x00\n    /* \"contracts/ERC720.sol\":570:597  bool publicMintOpen = false */\n  0x0e\n  exp(0x0100, 0x00)\n  dup2\n  sload\n  dup2\n  0xff\n  mul\n  not\n  and\n  swap1\n  dup4\n  iszero\n  iszero\n  mul\n  or\n  swap1\n  sstore\n  pop\n    /* \"contracts/ERC720.sol\":628:633  false */\n  0x00\n    /* \"contracts/ERC720.sol\":603:633  bool allowListMintOpen = false */\n  0x0e\n  exp(0x0100, 0x01)\n  dup2\n  sload\n  dup2\n  0xff\n  mul\n  not\n  and\n  swap1\n  dup4\n  iszero\n  iszero\n  mul\n  or\n  swap1\n  sstore\n  pop\n    /* \"contracts/ERC720.sol\":640:700  constructor() ERC721(\"Goraya\", \"GRY\") Ownable(msg.sender) {} */\n  callvalue\n  dup1\n  iszero\n  tag_1\n  jumpi\n  0x00\n  dup1\n  revert\ntag_1:\n  pop\n    /* \"contracts/ERC720.sol\":686:696  msg.sender */\n  caller\n    /* \"@openzeppelin/contracts/token/ERC721/ERC721.sol\":1381:1494  constructor(string memory name_, string memory symbol_) {... */\n  mload(0x40)\n  dup1\n  0x40\n  add\n  0x40\n  mstore\n  dup1\n  0x06\n  dup2\n  mstore\n  0x20\n  add\n  0x476f726179610000000000000000000000000000000000000000000000000000\n  dup2\n  mstore\n  pop\n  mload(0x40)\n  dup1\n  0x40\n  add\n  0x40\n  mstore\n  dup1\n  0x03\n  dup2\n  mstore\n  0x20\n  add\n  0x4752590000000000000000000000000000000000000000000000000000000000\n  dup2\n  mstore\n  pop\n    /* \"@openzeppelin/contracts/token/ERC721/ERC721.sol\":1455:1460  name_ */\n  dup2\n    /* \"@openzeppelin/contracts/token/ERC721/ERC721.sol\":1447:1452  _name */\n  0x00\n    /* \"@openzeppelin/contracts/token/ERC721/ERC721.sol\":1447:1460  _name = name_ */\n  swap1\n  dup2\n  tag_7\n  swap2\n  swap1\n  tag_8\n  jump\t// in\ntag_7:\n  pop\n    /* \"@openzeppelin/contracts/token/ERC721/ERC721.sol\":1480:1487  symbol_ */\n  dup1\n    /* \"@openzeppelin/contracts/token/ERC721/ERC721.sol\":1470:1477  _symbol */\n  0x01\n    /* \"@openzeppelin/contracts/token/ERC721/ERC721.sol\":1470:1487  _symbol = symbol_ */\n  swap1\n  dup2\n  tag_9\n  swap2\n  swap1\n  tag_8\n  jump\t// in\ntag_9:\n  pop\n    /* \"@openzeppelin/contracts/token/ERC721/ERC721.sol\":1381:1494  constructor(string memory name_, string memory symbol_) {... */\n  pop\n  pop\n    /* \"@openzeppelin/contracts/utils/Pausable.sol\":1241:1246  false */\n  0x00\n    /* \"@openzeppelin/contracts/utils/Pausable.sol\":1231:1238  _paused */\n  0x0a\n  0x00\n    /* \"@openzeppelin/contracts/utils/Pausable.sol\":1231:1246  _paused = false */\n  0x0100\n  exp\n  dup2\n  sload\n  dup2\n  0xff\n  mul\n  not\n  and\n  swap1\n  dup4\n  iszero\n  iszero\n  mul\n  or\n  swap1\n  sstore\n  pop\n    /* \"@openzeppelin/contracts/access/Ownable.sol\":1297:1298  0 */\n  0x00\n    /* \"@openzeppelin/contracts/access/Ownable.sol\":1273:1299  initialOwner == address(0) */\n  0xffffffffffffffffffffffffffffffffffffffff\n  and\n    /* \"@openzeppelin/contracts/access/Ownable.sol\":1273:1285  initialOwner */\n  dup2\n    /* \"@openzeppelin/contracts/access/Ownable.sol\":1273:1299  initialOwner == address(0) */\n  0xffffffffffffffffffffffffffffffffffffffff\n  and\n  sub\n    /* \"@openzeppelin/contracts/access/Ownable.sol\":1269:1364  if (initialOwner == address(0)) {... */\n  tag_12\n  jumpi\n    /* \"@openzeppelin/contracts/access/Ownable.sol\":1350:1351  0 */\n  0x00\n    /* \"@openzeppelin/contracts/access/Ownable.sol\":1322:1353  OwnableInvalidOwner(address(0)) */\n  mload(0x40)\n  0x1e4fbdf700000000000000000000000000000000000000000000000000000000\n  dup2\n  mstore\n  0x04\n  add\n  tag_13\n  swap2\n  swap1\n  tag_14\n  jump\t// in\ntag_13:\n  mload(0x40)\n  dup1\n  swap2\n  sub\n  swap1\n  revert\n    /* \"@openzeppelin/contracts/access/Ownable.sol\":1269:1364  if (initialOwner == address(0)) {... */\ntag_12:\n    /* \"@openzeppelin/contracts/access/Ownable.sol\":1373:1405  _transferOwnership(initialOwner) */\n  tag_15\n    /* \"@openzeppelin/contracts/access/Ownable.sol\":1392:1404  initialOwner */\n  dup2\n    /* \"@openzeppelin/contracts/access/Ownable.sol\":1373:1391  _transferOwnership */\n  shl(0x20, tag_16)\n    /* \"@openzeppelin/contracts/access/Ownable.sol\":1373:1405  _transferOwnership(initialOwner) */\n  0x20\n  shr\n  jump\t// in\ntag_15:\n    /* \"@openzeppelin/contracts/access/Ownable.sol\":1225:1412  constructor(address initialOwner) {... */\n  pop\n    /* \"contracts/ERC720.sol\":375:2892  contract Goraya is ERC721, ERC721Enumerable, ERC721Pausable, Ownable {... */\n  jump(tag_18)\n    /* \"@openzeppelin/contracts/access/Ownable.sol\":2912:3099  function _transferOwnership(address newOwner) internal virtual {... */\ntag_16:\n    /* \"@openzeppelin/contracts/access/Ownable.sol\":2985:3001  address oldOwner */\n  0x00\n    /* \"@openzeppelin/contracts/access/Ownable.sol\":3004:3010  _owner */\n  0x0a\n  0x01\n  swap1\n  sload\n  swap1\n  0x0100\n  exp\n  swap1\n  div\n  0xffffffffffffffffffffffffffffffffffffffff\n  and\n    /* \"@openzeppelin/contracts/access/Ownable.sol\":2985:3010  address oldOwner = _owner */\n  swap1\n  pop\n    /* \"@openzeppelin/contracts/access/Ownable.sol\":3029:3037  newOwner */\n  dup2\n    /* \"@openzeppelin/contracts/access/Ownable.sol\":3020:3026  _owner */\n  0x0a\n  0x01\n    /* \"@openzeppelin/contracts/access/Ownable.sol\":3020:3037  _owner = newOwner */\n  0x0100\n  exp\n  dup2\n  sload\n  dup2\n  0xffffffffffffffffffffffffffffffffffffffff\n  mul\n  not\n  and\n  swap1\n  dup4\n  0xffffffffffffffffffffffffffffffffffffffff\n  and\n  mul\n  or\n  swap1\n  sstore\n  pop\n    /* \"@openzeppelin/contracts/access/Ownable.sol\":3083:3091  newOwner */\n  dup2\n    /* \"@openzeppelin/contracts/access/Ownable.sol\":3052:3092  OwnershipTransferred(oldOwner, newOwner) */\n  0xffffffffffffffffffffffffffffffffffffffff\n  and\n    /* \"@openzeppelin/contracts/access/Ownable.sol\":3073:3081  oldOwner */\n  dup2\n    /* \"@openzeppelin/contracts/access/Ownable.sol\":3052:3092  OwnershipTransferred(oldOwner, newOwner) */\n  0xffffffffffffffffffffffffffffffffffffffff\n  and\n  0x8be0079c531659141344cd1fd0a4f28419497f9722a3daafe3b4186f6b6457e0\n  mload(0x40)\n  mload(0x40)\n  dup1\n  swap2\n  sub\n  swap1\n  log3\n    /* \"@openzeppelin/contracts/access/Ownable.sol\":2975:3099  {... */\n  pop\n    /* \"@openzeppelin/contracts/access/Ownable.sol\":2912:3099  function _transferOwnership(address newOwner) internal virtual {... */\n  pop\n  jump\t// out\n    /* \"#utility.yul\":7:106   */\ntag_20:\n    /* \"#utility.yul\":59:65   */\n  0x00\n    /* \"#utility.yul\":93:98   */\n  dup2\n    /* \"#utility.yul\":87:99   */\n  mload\n    /* \"#utility.yul\":77:99   */\n  swap1\n  pop\n    /* \"#utility.yul\":7:106   */\n  swap2\n  swap1\n  pop\n  jump\t// out\n    /* \"#utility.yul\":112:292   */\ntag_21:\n    /* \"#utility.yul\":160:237   */\n  0x4e487b7100000000000000000000000000000000000000000000000000000000\n    /* \"#utility.yul\":157:158   */\n  0x00\n    /* \"#utility.yul\":150:238   */\n  mstore\n    /* \"#utility.yul\":257:261   */\n  0x41\n    /* \"#utility.yul\":254:255   */\n  0x04\n    /* \"#utility.yul\":247:262   */\n  mstore\n    /* \"#utility.yul\":281:285   */\n  0x24\n    /* \"#utility.yul\":278:279   */\n  0x00\n    /* \"#utility.yul\":271:286   */\n  revert\n    /* \"#utility.yul\":298:478   */\ntag_22:\n    /* \"#utility.yul\":346:423   */\n  0x4e487b7100000000000000000000000000000000000000000000000000000000\n    /* \"#utility.yul\":343:344   */\n  0x00\n    /* \"#utility.yul\":336:424   */\n  mstore\n    /* \"#utility.yul\":443:447   */\n  0x22\n    /* \"#utility.yul\":440:441   */\n  0x04\n    /* \"#utility.yul\":433:448   */\n  mstore\n    /* \"#utility.yul\":467:471   */\n  0x24\n    /* \"#utility.yul\":464:465   */\n  0x00\n    /* \"#utility.yul\":457:472   */\n  revert\n    /* \"#utility.yul\":484:804   */\ntag_23:\n    /* \"#utility.yul\":528:534   */\n  0x00\n    /* \"#utility.yul\":565:566   */\n  0x02\n    /* \"#utility.yul\":559:563   */\n  dup3\n    /* \"#utility.yul\":555:567   */\n  div\n    /* \"#utility.yul\":545:567   */\n  swap1\n  pop\n    /* \"#utility.yul\":612:613   */\n  0x01\n    /* \"#utility.yul\":606:610   */\n  dup3\n    /* \"#utility.yul\":602:614   */\n  and\n    /* \"#utility.yul\":633:651   */\n  dup1\n    /* \"#utility.yul\":623:704   */\n  tag_48\n  jumpi\n    /* \"#utility.yul\":689:693   */\n  0x7f\n    /* \"#utility.yul\":681:687   */\n  dup3\n    /* \"#utility.yul\":677:694   */\n  and\n    /* \"#utility.yul\":667:694   */\n  swap2\n  pop\n    /* \"#utility.yul\":623:704   */\ntag_48:\n    /* \"#utility.yul\":751:753   */\n  0x20\n    /* \"#utility.yul\":743:749   */\n  dup3\n    /* \"#utility.yul\":740:754   */\n  lt\n    /* \"#utility.yul\":720:738   */\n  dup2\n    /* \"#utility.yul\":717:755   */\n  sub\n    /* \"#utility.yul\":714:798   */\n  tag_49\n  jumpi\n    /* \"#utility.yul\":770:788   */\n  tag_50\n  tag_22\n  jump\t// in\ntag_50:\n    /* \"#utility.yul\":714:798   */\ntag_49:\n    /* \"#utility.yul\":535:804   */\n  pop\n    /* \"#utility.yul\":484:804   */\n  swap2\n  swap1\n  pop\n  jump\t// out\n    /* \"#utility.yul\":810:951   */\ntag_24:\n    /* \"#utility.yul\":859:863   */\n  0x00\n    /* \"#utility.yul\":882:885   */\n  dup2\n    /* \"#utility.yul\":874:885   */\n  swap1\n  pop\n    /* \"#utility.yul\":905:908   */\n  dup2\n    /* \"#utility.yul\":902:903   */\n  0x00\n    /* \"#utility.yul\":895:909   */\n  mstore\n    /* \"#utility.yul\":939:943   */\n  0x20\n    /* \"#utility.yul\":936:937   */\n  0x00\n    /* \"#utility.yul\":926:944   */\n  keccak256\n    /* \"#utility.yul\":918:944   */\n  swap1\n  pop\n    /* \"#utility.yul\":810:951   */\n  swap2\n  swap1\n  pop\n  jump\t// out\n    /* \"#utility.yul\":957:1050   */\ntag_25:\n    /* \"#utility.yul\":994:1000   */\n  0x00\n    /* \"#utility.yul\":1041:1043   */\n  0x20\n    /* \"#utility.yul\":1036:1038   */\n  0x1f\n    /* \"#utility.yul\":1029:1034   */\n  dup4\n    /* \"#utility.yul\":1025:1039   */\n  add\n    /* \"#utility.yul\":1021:1044   */\n  div\n    /* \"#utility.yul\":1011:1044   */\n  swap1\n  pop\n    /* \"#utility.yul\":957:1050   */\n  swap2\n  swap1\n  pop\n  jump\t// out\n    /* \"#utility.yul\":1056:1163   */\ntag_26:\n    /* \"#utility.yul\":1100:1108   */\n  0x00\n    /* \"#utility.yul\":1150:1155   */\n  dup3\n    /* \"#utility.yul\":1144:1148   */\n  dup3\n    /* \"#utility.yul\":1140:1156   */\n  shl\n    /* \"#utility.yul\":1119:1156   */\n  swap1\n  pop\n    /* \"#utility.yul\":1056:1163   */\n  swap3\n  swap2\n  pop\n  pop\n  jump\t// out\n    /* \"#utility.yul\":1169:1562   */\ntag_27:\n    /* \"#utility.yul\":1238:1244   */\n  0x00\n    /* \"#utility.yul\":1288:1289   */\n  0x08\n    /* \"#utility.yul\":1276:1286   */\n  dup4\n    /* \"#utility.yul\":1272:1290   */\n  mul\n    /* \"#utility.yul\":1311:1408   */\n  tag_55\n    /* \"#utility.yul\":1341:1407   */\n  0xffffffffffffffffffffffffffffffffffffffffffffffffffffffffffffffff\n    /* \"#utility.yul\":1330:1339   */\n  dup3\n    /* \"#utility.yul\":1311:1408   */\n  tag_26\n  jump\t// in\ntag_55:\n    /* \"#utility.yul\":1429:1468   */\n  tag_56\n    /* \"#utility.yul\":1459:1467   */\n  dup7\n    /* \"#utility.yul\":1448:1457   */\n  dup4\n    /* \"#utility.yul\":1429:1468   */\n  tag_26\n  jump\t// in\ntag_56:\n    /* \"#utility.yul\":1417:1468   */\n  swap6\n  pop\n    /* \"#utility.yul\":1501:1505   */\n  dup1\n    /* \"#utility.yul\":1497:1506   */\n  not\n    /* \"#utility.yul\":1490:1495   */\n  dup5\n    /* \"#utility.yul\":1486:1507   */\n  and\n    /* \"#utility.yul\":1477:1507   */\n  swap4\n  pop\n    /* \"#utility.yul\":1550:1554   */\n  dup1\n    /* \"#utility.yul\":1540:1548   */\n  dup7\n    /* \"#utility.yul\":1536:1555   */\n  and\n    /* \"#utility.yul\":1529:1534   */\n  dup5\n    /* \"#utility.yul\":1526:1556   */\n  or\n    /* \"#utility.yul\":1516:1556   */\n  swap3\n  pop\n    /* \"#utility.yul\":1245:1562   */\n  pop\n  pop\n    /* \"#utility.yul\":1169:1562   */\n  swap4\n  swap3\n  pop\n  pop\n  pop\n  jump\t// out\n    /* \"#utility.yul\":1568:1645   */\ntag_28:\n    /* \"#utility.yul\":1605:1612   */\n  0x00\n    /* \"#utility.yul\":1634:1639   */\n  dup2\n    /* \"#utility.yul\":1623:1639   */\n  swap1\n  pop\n    /* \"#utility.yul\":1568:1645   */\n  swap2\n  swap1\n  pop\n  jump\t// out\n    /* \"#utility.yul\":1651:1711   */\ntag_29:\n    /* \"#utility.yul\":1679:1682   */\n  0x00\n    /* \"#utility.yul\":1700:1705   */\n  dup2\n    /* \"#utility.yul\":1693:1705   */\n  swap1\n  pop\n    /* \"#utility.yul\":1651:1711   */\n  swap2\n  swap1\n  pop\n  jump\t// out\n    /* \"#utility.yul\":1717:1859   */\ntag_30:\n    /* \"#utility.yul\":1767:1776   */\n  0x00\n    /* \"#utility.yul\":1800:1853   */\n  tag_60\n    /* \"#utility.yul\":1818:1852   */\n  tag_61\n    /* \"#utility.yul\":1827:1851   */\n  tag_62\n    /* \"#utility.yul\":1845:1850   */\n  dup5\n    /* \"#utility.yul\":1827:1851   */\n  tag_28\n  jump\t// in\ntag_62:\n    /* \"#utility.yul\":1818:1852   */\n  tag_29\n  jump\t// in\ntag_61:\n    /* \"#utility.yul\":1800:1853   */\n  tag_28\n  jump\t// in\ntag_60:\n    /* \"#utility.yul\":1787:1853   */\n  swap1\n  pop\n    /* \"#utility.yul\":1717:1859   */\n  swap2\n  swap1\n  pop\n  jump\t// out\n    /* \"#utility.yul\":1865:1940   */\ntag_31:\n    /* \"#utility.yul\":1908:1911   */\n  0x00\n    /* \"#utility.yul\":1929:1934   */\n  dup2\n    /* \"#utility.yul\":1922:1934   */\n  swap1\n  pop\n    /* \"#utility.yul\":1865:1940   */\n  swap2\n  swap1\n  pop\n  jump\t// out\n    /* \"#utility.yul\":1946:2215   */\ntag_32:\n    /* \"#utility.yul\":2056:2095   */\n  tag_65\n    /* \"#utility.yul\":2087:2094   */\n  dup4\n    /* \"#utility.yul\":2056:2095   */\n  tag_30\n  jump\t// in\ntag_65:\n    /* \"#utility.yul\":2117:2208   */\n  tag_66\n    /* \"#utility.yul\":2166:2207   */\n  tag_67\n    /* \"#utility.yul\":2190:2206   */\n  dup3\n    /* \"#utility.yul\":2166:2207   */\n  tag_31\n  jump\t// in\ntag_67:\n    /* \"#utility.yul\":2158:2164   */\n  dup5\n    /* \"#utility.yul\":2151:2155   */\n  dup5\n    /* \"#utility.yul\":2145:2156   */\n  sload\n    /* \"#utility.yul\":2117:2208   */\n  tag_27\n  jump\t// in\ntag_66:\n    /* \"#utility.yul\":2111:2115   */\n  dup3\n    /* \"#utility.yul\":2104:2209   */\n  sstore\n    /* \"#utility.yul\":2022:2215   */\n  pop\n    /* \"#utility.yul\":1946:2215   */\n  pop\n  pop\n  pop\n  jump\t// out\n    /* \"#utility.yul\":2221:2294   */\ntag_33:\n    /* \"#utility.yul\":2266:2269   */\n  0x00\n    /* \"#utility.yul\":2221:2294   */\n  swap1\n  jump\t// out\n    /* \"#utility.yul\":2300:2489   */\ntag_34:\n    /* \"#utility.yul\":2377:2409   */\n  tag_70\n  tag_33\n  jump\t// in\ntag_70:\n    /* \"#utility.yul\":2418:2483   */\n  tag_71\n    /* \"#utility.yul\":2476:2482   */\n  dup2\n    /* \"#utility.yul\":2468:2474   */\n  dup5\n    /* \"#utility.yul\":2462:2466   */\n  dup5\n    /* \"#utility.yul\":2418:2483   */\n  tag_32\n  jump\t// in\ntag_71:\n    /* \"#utility.yul\":2353:2489   */\n  pop\n    /* \"#utility.yul\":2300:2489   */\n  pop\n  pop\n  jump\t// out\n    /* \"#utility.yul\":2495:2681   */\ntag_35:\n    /* \"#utility.yul\":2555:2675   */\ntag_73:\n    /* \"#utility.yul\":2572:2575   */\n  dup2\n    /* \"#utility.yul\":2565:2570   */\n  dup2\n    /* \"#utility.yul\":2562:2576   */\n  lt\n    /* \"#utility.yul\":2555:2675   */\n  iszero\n  tag_75\n  jumpi\n    /* \"#utility.yul\":2626:2665   */\n  tag_76\n    /* \"#utility.yul\":2663:2664   */\n  0x00\n    /* \"#utility.yul\":2656:2661   */\n  dup3\n    /* \"#utility.yul\":2626:2665   */\n  tag_34\n  jump\t// in\ntag_76:\n    /* \"#utility.yul\":2599:2600   */\n  0x01\n    /* \"#utility.yul\":2592:2597   */\n  dup2\n    /* \"#utility.yul\":2588:2601   */\n  add\n    /* \"#utility.yul\":2579:2601   */\n  swap1\n  pop\n    /* \"#utility.yul\":2555:2675   */\n  jump(tag_73)\ntag_75:\n    /* \"#utility.yul\":2495:2681   */\n  pop\n  pop\n  jump\t// out\n    /* \"#utility.yul\":2687:3230   */\ntag_36:\n    /* \"#utility.yul\":2788:2790   */\n  0x1f\n    /* \"#utility.yul\":2783:2786   */\n  dup3\n    /* \"#utility.yul\":2780:2791   */\n  gt\n    /* \"#utility.yul\":2777:3223   */\n  iszero\n  tag_78\n  jumpi\n    /* \"#utility.yul\":2822:2860   */\n  tag_79\n    /* \"#utility.yul\":2854:2859   */\n  dup2\n    /* \"#utility.yul\":2822:2860   */\n  tag_24\n  jump\t// in\ntag_79:\n    /* \"#utility.yul\":2906:2935   */\n  tag_80\n    /* \"#utility.yul\":2924:2934   */\n  dup5\n    /* \"#utility.yul\":2906:2935   */\n  tag_25\n  jump\t// in\ntag_80:\n    /* \"#utility.yul\":2896:2904   */\n  dup2\n    /* \"#utility.yul\":2892:2936   */\n  add\n    /* \"#utility.yul\":3089:3091   */\n  0x20\n    /* \"#utility.yul\":3077:3087   */\n  dup6\n    /* \"#utility.yul\":3074:3092   */\n  lt\n    /* \"#utility.yul\":3071:3120   */\n  iszero\n  tag_81\n  jumpi\n    /* \"#utility.yul\":3110:3118   */\n  dup2\n    /* \"#utility.yul\":3095:3118   */\n  swap1\n  pop\n    /* \"#utility.yul\":3071:3120   */\ntag_81:\n    /* \"#utility.yul\":3133:3213   */\n  tag_82\n    /* \"#utility.yul\":3189:3211   */\n  tag_83\n    /* \"#utility.yul\":3207:3210   */\n  dup6\n    /* \"#utility.yul\":3189:3211   */\n  tag_25\n  jump\t// in\ntag_83:\n    /* \"#utility.yul\":3179:3187   */\n  dup4\n    /* \"#utility.yul\":3175:3212   */\n  add\n    /* \"#utility.yul\":3162:3173   */\n  dup3\n    /* \"#utility.yul\":3133:3213   */\n  tag_35\n  jump\t// in\ntag_82:\n    /* \"#utility.yul\":2792:3223   */\n  pop\n  pop\n    /* \"#utility.yul\":2777:3223   */\ntag_78:\n    /* \"#utility.yul\":2687:3230   */\n  pop\n  pop\n  pop\n  jump\t// out\n    /* \"#utility.yul\":3236:3353   */\ntag_37:\n    /* \"#utility.yul\":3290:3298   */\n  0x00\n    /* \"#utility.yul\":3340:3345   */\n  dup3\n    /* \"#utility.yul\":3334:3338   */\n  dup3\n    /* \"#utility.yul\":3330:3346   */\n  shr\n    /* \"#utility.yul\":3309:3346   */\n  swap1\n  pop\n    /* \"#utility.yul\":3236:3353   */\n  swap3\n  swap2\n  pop\n  pop\n  jump\t// out\n    /* \"#utility.yul\":3359:3528   */\ntag_38:\n    /* \"#utility.yul\":3403:3409   */\n  0x00\n    /* \"#utility.yul\":3436:3487   */\n  tag_86\n    /* \"#utility.yul\":3484:3485   */\n  0x00\n    /* \"#utility.yul\":3480:3486   */\n  not\n    /* \"#utility.yul\":3472:3477   */\n  dup5\n    /* \"#utility.yul\":3469:3470   */\n  0x08\n    /* \"#utility.yul\":3465:3478   */\n  mul\n    /* \"#utility.yul\":3436:3487   */\n  tag_37\n  jump\t// in\ntag_86:\n    /* \"#utility.yul\":3432:3488   */\n  not\n    /* \"#utility.yul\":3517:3521   */\n  dup1\n    /* \"#utility.yul\":3511:3515   */\n  dup4\n    /* \"#utility.yul\":3507:3522   */\n  and\n    /* \"#utility.yul\":3497:3522   */\n  swap2\n  pop\n    /* \"#utility.yul\":3410:3528   */\n  pop\n    /* \"#utility.yul\":3359:3528   */\n  swap3\n  swap2\n  pop\n  pop\n  jump\t// out\n    /* \"#utility.yul\":3533:3828   */\ntag_39:\n    /* \"#utility.yul\":3609:3613   */\n  0x00\n    /* \"#utility.yul\":3755:3784   */\n  tag_88\n    /* \"#utility.yul\":3780:3783   */\n  dup4\n    /* \"#utility.yul\":3774:3778   */\n  dup4\n    /* \"#utility.yul\":3755:3784   */\n  tag_38\n  jump\t// in\ntag_88:\n    /* \"#utility.yul\":3747:3784   */\n  swap2\n  pop\n    /* \"#utility.yul\":3817:3820   */\n  dup3\n    /* \"#utility.yul\":3814:3815   */\n  0x02\n    /* \"#utility.yul\":3810:3821   */\n  mul\n    /* \"#utility.yul\":3804:3808   */\n  dup3\n    /* \"#utility.yul\":3801:3822   */\n  or\n    /* \"#utility.yul\":3793:3822   */\n  swap1\n  pop\n    /* \"#utility.yul\":3533:3828   */\n  swap3\n  swap2\n  pop\n  pop\n  jump\t// out\n    /* \"#utility.yul\":3833:5228   */\ntag_8:\n    /* \"#utility.yul\":3950:3987   */\n  tag_90\n    /* \"#utility.yul\":3983:3986   */\n  dup3\n    /* \"#utility.yul\":3950:3987   */\n  tag_20\n  jump\t// in\ntag_90:\n    /* \"#utility.yul\":4052:4070   */\n  0xffffffffffffffff\n    /* \"#utility.yul\":4044:4050   */\n  dup2\n    /* \"#utility.yul\":4041:4071   */\n  gt\n    /* \"#utility.yul\":4038:4094   */\n  iszero\n  tag_91\n  jumpi\n    /* \"#utility.yul\":4074:4092   */\n  tag_92\n  tag_21\n  jump\t// in\ntag_92:\n    /* \"#utility.yul\":4038:4094   */\ntag_91:\n    /* \"#utility.yul\":4118:4156   */\n  tag_93\n    /* \"#utility.yul\":4150:4154   */\n  dup3\n    /* \"#utility.yul\":4144:4155   */\n  sload\n    /* \"#utility.yul\":4118:4156   */\n  tag_23\n  jump\t// in\ntag_93:\n    /* \"#utility.yul\":4203:4270   */\n  tag_94\n    /* \"#utility.yul\":4263:4269   */\n  dup3\n    /* \"#utility.yul\":4255:4261   */\n  dup3\n    /* \"#utility.yul\":4249:4253   */\n  dup6\n    /* \"#utility.yul\":4203:4270   */\n  tag_36\n  jump\t// in\ntag_94:\n    /* \"#utility.yul\":4297:4298   */\n  0x00\n    /* \"#utility.yul\":4321:4325   */\n  0x20\n    /* \"#utility.yul\":4308:4325   */\n  swap1\n  pop\n    /* \"#utility.yul\":4353:4355   */\n  0x1f\n    /* \"#utility.yul\":4345:4351   */\n  dup4\n    /* \"#utility.yul\":4342:4356   */\n  gt\n    /* \"#utility.yul\":4370:4371   */\n  0x01\n    /* \"#utility.yul\":4365:4983   */\n  dup2\n  eq\n  tag_96\n  jumpi\n    /* \"#utility.yul\":5027:5028   */\n  0x00\n    /* \"#utility.yul\":5044:5050   */\n  dup5\n    /* \"#utility.yul\":5041:5118   */\n  iszero\n  tag_97\n  jumpi\n    /* \"#utility.yul\":5093:5102   */\n  dup3\n    /* \"#utility.yul\":5088:5091   */\n  dup8\n    /* \"#utility.yul\":5084:5103   */\n  add\n    /* \"#utility.yul\":5078:5104   */\n  mload\n    /* \"#utility.yul\":5069:5104   */\n  swap1\n  pop\n    /* \"#utility.yul\":5041:5118   */\ntag_97:\n    /* \"#utility.yul\":5144:5211   */\n  tag_98\n    /* \"#utility.yul\":5204:5210   */\n  dup6\n    /* \"#utility.yul\":5197:5202   */\n  dup3\n    /* \"#utility.yul\":5144:5211   */\n  tag_39\n  jump\t// in\ntag_98:\n    /* \"#utility.yul\":5138:5142   */\n  dup7\n    /* \"#utility.yul\":5131:5212   */\n  sstore\n    /* \"#utility.yul\":5000:5222   */\n  pop\n    /* \"#utility.yul\":4335:5222   */\n  jump(tag_95)\n    /* \"#utility.yul\":4365:4983   */\ntag_96:\n    /* \"#utility.yul\":4417:4421   */\n  0x1f\n    /* \"#utility.yul\":4413:4422   */\n  not\n    /* \"#utility.yul\":4405:4411   */\n  dup5\n    /* \"#utility.yul\":4401:4423   */\n  and\n    /* \"#utility.yul\":4451:4488   */\n  tag_99\n    /* \"#utility.yul\":4483:4487   */\n  dup7\n    /* \"#utility.yul\":4451:4488   */\n  tag_24\n  jump\t// in\ntag_99:\n    /* \"#utility.yul\":4510:4511   */\n  0x00\n    /* \"#utility.yul\":4524:4732   */\ntag_100:\n    /* \"#utility.yul\":4538:4545   */\n  dup3\n    /* \"#utility.yul\":4535:4536   */\n  dup2\n    /* \"#utility.yul\":4532:4546   */\n  lt\n    /* \"#utility.yul\":4524:4732   */\n  iszero\n  tag_102\n  jumpi\n    /* \"#utility.yul\":4617:4626   */\n  dup5\n    /* \"#utility.yul\":4612:4615   */\n  dup10\n    /* \"#utility.yul\":4608:4627   */\n  add\n    /* \"#utility.yul\":4602:4628   */\n  mload\n    /* \"#utility.yul\":4594:4600   */\n  dup3\n    /* \"#utility.yul\":4587:4629   */\n  sstore\n    /* \"#utility.yul\":4668:4669   */\n  0x01\n    /* \"#utility.yul\":4660:4666   */\n  dup3\n    /* \"#utility.yul\":4656:4670   */\n  add\n    /* \"#utility.yul\":4646:4670   */\n  swap2\n  pop\n    /* \"#utility.yul\":4715:4717   */\n  0x20\n    /* \"#utility.yul\":4704:4713   */\n  dup6\n    /* \"#utility.yul\":4700:4718   */\n  add\n    /* \"#utility.yul\":4687:4718   */\n  swap5\n  pop\n    /* \"#utility.yul\":4561:4565   */\n  0x20\n    /* \"#utility.yul\":4558:4559   */\n  dup2\n    /* \"#utility.yul\":4554:4566   */\n  add\n    /* \"#utility.yul\":4549:4566   */\n  swap1\n  pop\n    /* \"#utility.yul\":4524:4732   */\n  jump(tag_100)\ntag_102:\n    /* \"#utility.yul\":4760:4766   */\n  dup7\n    /* \"#utility.yul\":4751:4758   */\n  dup4\n    /* \"#utility.yul\":4748:4767   */\n  lt\n    /* \"#utility.yul\":4745:4924   */\n  iszero\n  tag_103\n  jumpi\n    /* \"#utility.yul\":4818:4827   */\n  dup5\n    /* \"#utility.yul\":4813:4816   */\n  dup10\n    /* \"#utility.yul\":4809:4828   */\n  add\n    /* \"#utility.yul\":4803:4829   */\n  mload\n    /* \"#utility.yul\":4861:4909   */\n  tag_104\n    /* \"#utility.yul\":4903:4907   */\n  0x1f\n    /* \"#utility.yul\":4895:4901   */\n  dup10\n    /* \"#utility.yul\":4891:4908   */\n  and\n    /* \"#utility.yul\":4880:4889   */\n  dup3\n    /* \"#utility.yul\":4861:4909   */\n  tag_38\n  jump\t// in\ntag_104:\n    /* \"#utility.yul\":4853:4859   */\n  dup4\n    /* \"#utility.yul\":4846:4910   */\n  sstore\n    /* \"#utility.yul\":4768:4924   */\n  pop\n    /* \"#utility.yul\":4745:4924   */\ntag_103:\n    /* \"#utility.yul\":4970:4971   */\n  0x01\n    /* \"#utility.yul\":4966:4967   */\n  0x02\n    /* \"#utility.yul\":4958:4964   */\n  dup9\n    /* \"#utility.yul\":4954:4968   */\n  mul\n    /* \"#utility.yul\":4950:4972   */\n  add\n    /* \"#utility.yul\":4944:4948   */\n  dup9\n    /* \"#utility.yul\":4937:4973   */\n  sstore\n    /* \"#utility.yul\":4372:4983   */\n  pop\n  pop\n  pop\n    /* \"#utility.yul\":4335:5222   */\ntag_95:\n  pop\n    /* \"#utility.yul\":3925:5228   */\n  pop\n  pop\n  pop\n    /* \"#utility.yul\":3833:5228   */\n  pop\n  pop\n  jump\t// out\n    /* \"#utility.yul\":5234:5360   */\ntag_40:\n    /* \"#utility.yul\":5271:5278   */\n  0x00\n    /* \"#utility.yul\":5311:5353   */\n  0xffffffffffffffffffffffffffffffffffffffff\n    /* \"#utility.yul\":5304:5309   */\n  dup3\n    /* \"#utility.yul\":5300:5354   */\n  and\n    /* \"#utility.yul\":5289:5354   */\n  swap1\n  pop\n    /* \"#utility.yul\":5234:5360   */\n  swap2\n  swap1\n  pop\n  jump\t// out\n    /* \"#utility.yul\":5366:5462   */\ntag_41:\n    /* \"#utility.yul\":5403:5410   */\n  0x00\n    /* \"#utility.yul\":5432:5456   */\n  tag_107\n    /* \"#utility.yul\":5450:5455   */\n  dup3\n    /* \"#utility.yul\":5432:5456   */\n  tag_40\n  jump\t// in\ntag_107:\n    /* \"#utility.yul\":5421:5456   */\n  swap1\n  pop\n    /* \"#utility.yul\":5366:5462   */\n  swap2\n  swap1\n  pop\n  jump\t// out\n    /* \"#utility.yul\":5468:5586   */\ntag_42:\n    /* \"#utility.yul\":5555:5579   */\n  tag_109\n    /* \"#utility.yul\":5573:5578   */\n  dup2\n    /* \"#utility.yul\":5555:5579   */\n  tag_41\n  jump\t// in\ntag_109:\n    /* \"#utility.yul\":5550:5553   */\n  dup3\n    /* \"#utility.yul\":5543:5580   */\n  mstore\n    /* \"#utility.yul\":5468:5586   */\n  pop\n  pop\n  jump\t// out\n    /* \"#utility.yul\":5592:5814   */\ntag_14:\n    /* \"#utility.yul\":5685:5689   */\n  0x00\n    /* \"#utility.yul\":5723:5725   */\n  0x20\n    /* \"#utility.yul\":5712:5721   */\n  dup3\n    /* \"#utility.yul\":5708:5726   */\n  add\n    /* \"#utility.yul\":5700:5726   */\n  swap1\n  pop\n    /* \"#utility.yul\":5736:5807   */\n  tag_111\n    /* \"#utility.yul\":5804:5805   */\n  0x00\n    /* \"#utility.yul\":5793:5802   */\n  dup4\n    /* \"#utility.yul\":5789:5806   */\n  add\n    /* \"#utility.yul\":5780:5786   */\n  dup5\n    /* \"#utility.yul\":5736:5807   */\n  tag_42\n  jump\t// in\ntag_111:\n    /* \"#utility.yul\":5592:5814   */\n  swap3\n  swap2\n  pop\n  pop\n  jump\t// out\n    /* \"contracts/ERC720.sol\":375:2892  contract Goraya is ERC721, ERC721Enumerable, ERC721Pausable, Ownable {... */\ntag_18:\n  dataSize(sub_0)\n  dup1\n  dataOffset(sub_0)\n  0x00\n  codecopy\n  0x00\n  return\nstop\n\nsub_0: assembly {\n        /* \"contracts/ERC720.sol\":375:2892  contract Goraya is ERC721, ERC721Enumerable, ERC721Pausable, Ownable {... */\n      mstore(0x40, 0x80)\n      jumpi(tag_1, lt(calldatasize, 0x04))\n      shr(0xe0, calldataload(0x00))\n      dup1\n      0x51cff8d9\n      gt\n      tag_31\n      jumpi\n      dup1\n      0x8da5cb5b\n      gt\n      tag_32\n      jumpi\n      dup1\n      0xc87b56dd\n      gt\n      tag_33\n      jumpi\n      dup1\n      0xc87b56dd\n      eq\n      tag_27\n      jumpi\n      dup1\n      0xd5abeb01\n      eq\n      tag_28\n      jumpi\n      dup1\n      0xe985e9c5\n      eq\n      tag_29\n      jumpi\n      dup1\n      0xf2fde38b\n      eq\n      tag_30\n      jumpi\n      jump(tag_1)\n    tag_33:\n      dup1\n      0x8da5cb5b\n      eq\n      tag_23\n      jumpi\n      dup1\n      0x95d89b41\n      eq\n      tag_24\n      jumpi\n      dup1\n      0xa22cb465\n      eq\n      tag_25\n      jumpi\n      dup1\n      0xb88d4fde\n      eq\n      tag_26\n      jumpi\n      jump(tag_1)\n    tag_32:\n      dup1\n      0x6447c35d\n      gt\n      tag_34\n      jumpi\n      dup1\n      0x6447c35d\n      eq\n      tag_19\n      jumpi\n      dup1\n      0x70a08231\n      eq\n      tag_20\n      jumpi\n      dup1\n      0x715018a6\n      eq\n      tag_21\n      jumpi\n      dup1\n      0x8456cb59\n      eq\n      tag_22\n      jumpi\n      jump(tag_1)\n    tag_34:\n      dup1\n      0x51cff8d9\n      eq\n      tag_16\n      jumpi\n      dup1\n      0x5c975abb\n      eq\n      tag_17\n      jumpi\n      dup1\n      0x6352211e\n      eq\n      tag_18\n      jumpi\n      jump(tag_1)\n    tag_31:\n      dup1\n      0x26092b83\n      gt\n      tag_35\n      jumpi\n      dup1\n      0x2f745c59\n      gt\n      tag_36\n      jumpi\n      dup1\n      0x2f745c59\n      eq\n      tag_12\n      jumpi\n      dup1\n      0x3f4ba83a\n      eq\n      tag_13\n      jumpi\n      dup1\n      0x42842e0e\n      eq\n      tag_14\n      jumpi\n      dup1\n      0x4f6ccce7\n      eq\n      tag_15\n      jumpi\n      jump(tag_1)\n    tag_36:\n      dup1\n      0x26092b83\n      eq\n      tag_9\n      jumpi\n      dup1\n      0x2848aeaf\n      eq\n      tag_10\n      jumpi\n      dup1\n      0x2f48de79\n      eq\n      tag_11\n      jumpi\n      jump(tag_1)\n    tag_35:\n      dup1\n      0x095ea7b3\n      gt\n      tag_37\n      jumpi\n      dup1\n      0x095ea7b3\n      eq\n      tag_5\n      jumpi\n      dup1\n      0x102a6a73\n      eq\n      tag_6\n      jumpi\n      dup1\n      0x18160ddd\n      eq\n      tag_7\n      jumpi\n      dup1\n      0x23b872dd\n      eq\n      tag_8\n      jumpi\n      jump(tag_1)\n    tag_37:\n      dup1\n      0x01ffc9a7\n      eq\n      tag_2\n      jumpi\n      dup1\n      0x06fdde03\n      eq\n      tag_3\n      jumpi\n      dup1\n      0x081812fc\n      eq\n      tag_4\n      jumpi\n    tag_1:\n      0x00\n      dup1\n      revert\n        /* \"contracts/ERC720.sol\":2685:2890  function supportsInterface(bytes4 interfaceId)... */\n    tag_2:\n      callvalue\n      dup1\n      iszero\n      tag_38\n      jumpi\n      0x00\n      dup1\n      revert\n    tag_38:\n      pop\n      tag_39\n      0x04\n      dup1\n      calldatasize\n      sub\n      dup2\n      add\n      swap1\n      tag_40\n      swap2\n      swap1\n      tag_41\n      jump\t// in\n    tag_40:\n      tag_42\n      jump\t// in\n    tag_39:\n      mload(0x40)\n      tag_43\n      swap2\n      swap1\n      tag_44\n      jump\t// in\n    tag_43:\n      mload(0x40)\n      dup1\n      swap2\n      sub\n      swap1\n      return\n        /* \"@openzeppelin/contracts/token/ERC721/ERC721.sol\":2365:2454  function name() public view virtual returns (string memory) {... */\n    tag_3:\n      callvalue\n      dup1\n      iszero\n      tag_45\n      jumpi\n      0x00\n      dup1\n      revert\n    tag_45:\n      pop\n      tag_46\n      tag_47\n      jump\t// in\n    tag_46:\n      mload(0x40)\n      tag_48\n      swap2\n      swap1\n      tag_49\n      jump\t// in\n    tag_48:\n      mload(0x40)\n      dup1\n      swap2\n      sub\n      swap1\n      return\n        /* \"@openzeppelin/contracts/token/ERC721/ERC721.sol\":3497:3651  function getApproved(uint256 tokenId) public view virtual returns (address) {... */\n    tag_4:\n      callvalue\n      dup1\n      iszero\n      tag_50\n      jumpi\n      0x00\n      dup1\n      revert\n    tag_50:\n      pop\n      tag_51\n      0x04\n      dup1\n      calldatasize\n      sub\n      dup2\n      add\n      swap1\n      tag_52\n      swap2\n      swap1\n      tag_53\n      jump\t// in\n    tag_52:\n      tag_54\n      jump\t// in\n    tag_51:\n      mload(0x40)\n      tag_55\n      swap2\n      swap1\n      tag_56\n      jump\t// in\n    tag_55:\n      mload(0x40)\n      dup1\n      swap2\n      sub\n      swap1\n      return\n        /* \"@openzeppelin/contracts/token/ERC721/ERC721.sol\":3323:3436  function approve(address to, uint256 tokenId) public virtual {... */\n    tag_5:\n      callvalue\n      dup1\n      iszero\n      tag_57\n      jumpi\n      0x00\n      dup1\n      revert\n    tag_57:\n      pop\n      tag_58\n      0x04\n      dup1\n      calldatasize\n      sub\n      dup2\n      add\n      swap1\n      tag_59\n      swap2\n      swap1\n      tag_60\n      jump\t// in\n    tag_59:\n      tag_61\n      jump\t// in\n    tag_58:\n      stop\n        /* \"contracts/ERC720.sol\":1598:1852  function allowListMint() public payable {... */\n    tag_6:\n      tag_62\n      tag_63\n      jump\t// in\n    tag_62:\n      stop\n        /* \"@openzeppelin/contracts/token/ERC721/extensions/ERC721Enumerable.sol\":2062:2164  function totalSupply() public view virtual returns (uint256) {... */\n    tag_7:\n      callvalue\n      dup1\n      iszero\n      tag_64\n      jumpi\n      0x00\n      dup1\n      revert\n    tag_64:\n      pop\n      tag_65\n      tag_66\n      jump\t// in\n    tag_65:\n      mload(0x40)\n      tag_67\n      swap2\n      swap1\n      tag_68\n      jump\t// in\n    tag_67:\n      mload(0x40)\n      dup1\n      swap2\n      sub\n      swap1\n      return\n        /* \"@openzeppelin/contracts/token/ERC721/ERC721.sol\":4143:4721  function transferFrom(address from, address to, uint256 tokenId) public virtual {... */\n    tag_8:\n      callvalue\n      dup1\n      iszero\n      tag_69\n      jumpi\n      0x00\n      dup1\n      revert\n    tag_69:\n      pop\n      tag_70\n      0x04\n      dup1\n      calldatasize\n      sub\n      dup2\n      add\n      swap1\n      tag_71\n      swap2\n      swap1\n      tag_72\n      jump\t// in\n    tag_71:\n      tag_73\n      jump\t// in\n    tag_70:\n      stop\n        /* \"contracts/ERC720.sol\":1403:1592  function publicMint() public payable {... */\n    tag_9:\n      tag_74\n      tag_75\n      jump\t// in\n    tag_74:\n      stop\n        /* \"contracts/ERC720.sol\":521:563  mapping (address => bool) public allowList */\n    tag_10:\n      callvalue\n      dup1\n      iszero\n      tag_76\n      jumpi\n      0x00\n      dup1\n      revert\n    tag_76:\n      pop\n      tag_77\n      0x04\n      dup1\n      calldatasize\n      sub\n      dup2\n      add\n      swap1\n      tag_78\n      swap2\n      swap1\n      tag_79\n      jump\t// in\n    tag_78:\n      tag_80\n      jump\t// in\n    tag_77:\n      mload(0x40)\n      tag_81\n      swap2\n      swap1\n      tag_44\n      jump\t// in\n    tag_81:\n      mload(0x40)\n      dup1\n      swap2\n      sub\n      swap1\n      return\n        /* \"contracts/ERC720.sol\":993:1201  function editMintWindows(bool _publicMintOpen, bool _allowListMintOpen)... */\n    tag_11:\n      callvalue\n      dup1\n      iszero\n      tag_82\n      jumpi\n      0x00\n      dup1\n      revert\n    tag_82:\n      pop\n      tag_83\n      0x04\n      dup1\n      calldatasize\n      sub\n      dup2\n      add\n      swap1\n      tag_84\n      swap2\n      swap1\n      tag_85\n      jump\t// in\n    tag_84:\n      tag_86\n      jump\t// in\n    tag_83:\n      stop\n        /* \"@openzeppelin/contracts/token/ERC721/extensions/ERC721Enumerable.sol\":1736:1991  function tokenOfOwnerByIndex(address owner, uint256 index) public view virtual returns (uint256) {... */\n    tag_12:\n      callvalue\n      dup1\n      iszero\n      tag_87\n      jumpi\n      0x00\n      dup1\n      revert\n    tag_87:\n      pop\n      tag_88\n      0x04\n      dup1\n      calldatasize\n      sub\n      dup2\n      add\n      swap1\n      tag_89\n      swap2\n      swap1\n      tag_60\n      jump\t// in\n    tag_89:\n      tag_90\n      jump\t// in\n    tag_88:\n      mload(0x40)\n      tag_91\n      swap2\n      swap1\n      tag_68\n      jump\t// in\n    tag_91:\n      mload(0x40)\n      dup1\n      swap2\n      sub\n      swap1\n      return\n        /* \"contracts/ERC720.sol\":924:987  function unpause() public onlyOwner {... */\n    tag_13:\n      callvalue\n      dup1\n      iszero\n      tag_92\n      jumpi\n      0x00\n      dup1\n      revert\n    tag_92:\n      pop\n      tag_93\n      tag_94\n      jump\t// in\n    tag_93:\n      stop\n        /* \"@openzeppelin/contracts/token/ERC721/ERC721.sol\":4787:4919  function safeTransferFrom(address from, address to, uint256 tokenId) public {... */\n    tag_14:\n      callvalue\n      dup1\n      iszero\n      tag_95\n      jumpi\n      0x00\n      dup1\n      revert\n    tag_95:\n      pop\n      tag_96\n      0x04\n      dup1\n      calldatasize\n      sub\n      dup2\n      add\n      swap1\n      tag_97\n      swap2\n      swap1\n      tag_72\n      jump\t// in\n    tag_97:\n      tag_98\n      jump\t// in\n    tag_96:\n      stop\n        /* \"@openzeppelin/contracts/token/ERC721/extensions/ERC721Enumerable.sol\":2236:2462  function tokenByIndex(uint256 index) public view virtual returns (uint256) {... */\n    tag_15:\n      callvalue\n      dup1\n      iszero\n      tag_99\n      jumpi\n      0x00\n      dup1\n      revert\n    tag_99:\n      pop\n      tag_100\n      0x04\n      dup1\n      calldatasize\n      sub\n      dup2\n      add\n      swap1\n      tag_101\n      swap2\n      swap1\n      tag_53\n      jump\t// in\n    tag_101:\n      tag_102\n      jump\t// in\n    tag_100:\n      mload(0x40)\n      tag_103\n      swap2\n      swap1\n      tag_68\n      jump\t// in\n    tag_103:\n      mload(0x40)\n      dup1\n      swap2\n      sub\n      swap1\n      return\n        /* \"contracts/ERC720.sol\":2049:2170  function withdraw(address _address) external onlyOwner {... */\n    tag_16:\n      callvalue\n      dup1\n      iszero\n      tag_104\n      jumpi\n      0x00\n      dup1\n      revert\n    tag_104:\n      pop\n      tag_105\n      0x04\n      dup1\n      calldatasize\n      sub\n      dup2\n      add\n      swap1\n      tag_106\n      swap2\n      swap1\n      tag_79\n      jump\t// in\n    tag_106:\n      tag_107\n      jump\t// in\n    tag_105:\n      stop\n        /* \"@openzeppelin/contracts/utils/Pausable.sol\":1850:1934  function paused() public view virtual returns (bool) {... */\n    tag_17:\n      callvalue\n      dup1\n      iszero\n      tag_108\n      jumpi\n      0x00\n      dup1\n      revert\n    tag_108:\n      pop\n      tag_109\n      tag_110\n      jump\t// in\n    tag_109:\n      mload(0x40)\n      tag_111\n      swap2\n      swap1\n      tag_44\n      jump\t// in\n    tag_111:\n      mload(0x40)\n      dup1\n      swap2\n      sub\n      swap1\n      return\n        /* \"@openzeppelin/contracts/token/ERC721/ERC721.sol\":2185:2303  function ownerOf(uint256 tokenId) public view virtual returns (address) {... */\n    tag_18:\n      callvalue\n      dup1\n      iszero\n      tag_112\n      jumpi\n      0x00\n      dup1\n      revert\n    tag_112:\n      pop\n      tag_113\n      0x04\n      dup1\n      calldatasize\n      sub\n      dup2\n      add\n      swap1\n      tag_114\n      swap2\n      swap1\n      tag_53\n      jump\t// in\n    tag_114:\n      tag_115\n      jump\t// in\n    tag_113:\n      mload(0x40)\n      tag_116\n      swap2\n      swap1\n      tag_56\n      jump\t// in\n    tag_116:\n      mload(0x40)\n      dup1\n      swap2\n      sub\n      swap1\n      return\n        /* \"contracts/ERC720.sol\":1207:1397  function setAllowList(address[] calldata addresses) external onlyOwner {... */\n    tag_19:\n      callvalue\n      dup1\n      iszero\n      tag_117\n      jumpi\n      0x00\n      dup1\n      revert\n    tag_117:\n      pop\n      tag_118\n      0x04\n      dup1\n      calldatasize\n      sub\n      dup2\n      add\n      swap1\n      tag_119\n      swap2\n      swap1\n      tag_120\n      jump\t// in\n    tag_119:\n      tag_121\n      jump\t// in\n    tag_118:\n      stop\n        /* \"@openzeppelin/contracts/token/ERC721/ERC721.sol\":1920:2128  function balanceOf(address owner) public view virtual returns (uint256) {... */\n    tag_20:\n      callvalue\n      dup1\n      iszero\n      tag_122\n      jumpi\n      0x00\n      dup1\n      revert\n    tag_122:\n      pop\n      tag_123\n      0x04\n      dup1\n      calldatasize\n      sub\n      dup2\n      add\n      swap1\n      tag_124\n      swap2\n      swap1\n      tag_79\n      jump\t// in\n    tag_124:\n      tag_125\n      jump\t// in\n    tag_123:\n      mload(0x40)\n      tag_126\n      swap2\n      swap1\n      tag_68\n      jump\t// in\n    tag_126:\n      mload(0x40)\n      dup1\n      swap2\n      sub\n      swap1\n      return\n        /* \"@openzeppelin/contracts/access/Ownable.sol\":2293:2394  function renounceOwnership() public virtual onlyOwner {... */\n    tag_21:\n      callvalue\n      dup1\n      iszero\n      tag_127\n      jumpi\n      0x00\n      dup1\n      revert\n    tag_127:\n      pop\n      tag_128\n      tag_129\n      jump\t// in\n    tag_128:\n      stop\n        /* \"contracts/ERC720.sol\":859:918  function pause() public onlyOwner {... */\n    tag_22:\n      callvalue\n      dup1\n      iszero\n      tag_130\n      jumpi\n      0x00\n      dup1\n      revert\n    tag_130:\n      pop\n      tag_131\n      tag_132\n      jump\t// in\n    tag_131:\n      stop\n        /* \"@openzeppelin/contracts/access/Ownable.sol\":1638:1723  function owner() public view virtual returns (address) {... */\n    tag_23:\n      callvalue\n      dup1\n      iszero\n      tag_133\n      jumpi\n      0x00\n      dup1\n      revert\n    tag_133:\n      pop\n      tag_134\n      tag_135\n      jump\t// in\n    tag_134:\n      mload(0x40)\n      tag_136\n      swap2\n      swap1\n      tag_56\n      jump\t// in\n    tag_136:\n      mload(0x40)\n      dup1\n      swap2\n      sub\n      swap1\n      return\n        /* \"@openzeppelin/contracts/token/ERC721/ERC721.sol\":2518:2611  function symbol() public view virtual returns (string memory) {... */\n    tag_24:\n      callvalue\n      dup1\n      iszero\n      tag_137\n      jumpi\n      0x00\n      dup1\n      revert\n    tag_137:\n      pop\n      tag_138\n      tag_139\n      jump\t// in\n    tag_138:\n      mload(0x40)\n      tag_140\n      swap2\n      swap1\n      tag_49\n      jump\t// in\n    tag_140:\n      mload(0x40)\n      dup1\n      swap2\n      sub\n      swap1\n      return\n        /* \"@openzeppelin/contracts/token/ERC721/ERC721.sol\":3718:3862  function setApprovalForAll(address operator, bool approved) public virtual {... */\n    tag_25:\n      callvalue\n      dup1\n      iszero\n      tag_141\n      jumpi\n      0x00\n      dup1\n      revert\n    tag_141:\n      pop\n      tag_142\n      0x04\n      dup1\n      calldatasize\n      sub\n      dup2\n      add\n      swap1\n      tag_143\n      swap2\n      swap1\n      tag_144\n      jump\t// in\n    tag_143:\n      tag_145\n      jump\t// in\n    tag_142:\n      stop\n        /* \"@openzeppelin/contracts/token/ERC721/ERC721.sol\":4985:5193  function safeTransferFrom(address from, address to, uint256 tokenId, bytes memory data) public virtual {... */\n    tag_26:\n      callvalue\n      dup1\n      iszero\n      tag_146\n      jumpi\n      0x00\n      dup1\n      revert\n    tag_146:\n      pop\n      tag_147\n      0x04\n      dup1\n      calldatasize\n      sub\n      dup2\n      add\n      swap1\n      tag_148\n      swap2\n      swap1\n      tag_149\n      jump\t// in\n    tag_148:\n      tag_150\n      jump\t// in\n    tag_147:\n      stop\n        /* \"@openzeppelin/contracts/token/ERC721/ERC721.sol\":2677:2932  function tokenURI(uint256 tokenId) public view virtual returns (string memory) {... */\n    tag_27:\n      callvalue\n      dup1\n      iszero\n      tag_151\n      jumpi\n      0x00\n      dup1\n      revert\n    tag_151:\n      pop\n      tag_152\n      0x04\n      dup1\n      calldatasize\n      sub\n      dup2\n      add\n      swap1\n      tag_153\n      swap2\n      swap1\n      tag_53\n      jump\t// in\n    tag_153:\n      tag_154\n      jump\t// in\n    tag_152:\n      mload(0x40)\n      tag_155\n      swap2\n      swap1\n      tag_49\n      jump\t// in\n    tag_155:\n      mload(0x40)\n      dup1\n      swap2\n      sub\n      swap1\n      return\n        /* \"contracts/ERC720.sol\":484:515  uint256 public maxSupply = 2000 */\n    tag_28:\n      callvalue\n      dup1\n      iszero\n      tag_156\n      jumpi\n      0x00\n      dup1\n      revert\n    tag_156:\n      pop\n      tag_157\n      tag_158\n      jump\t// in\n    tag_157:\n      mload(0x40)\n      tag_159\n      swap2\n      swap1\n      tag_68\n      jump\t// in\n    tag_159:\n      mload(0x40)\n      dup1\n      swap2\n      sub\n      swap1\n      return\n        /* \"@openzeppelin/contracts/token/ERC721/ERC721.sol\":3928:4081  function isApprovedForAll(address owner, address operator) public view virtual returns (bool) {... */\n    tag_29:\n      callvalue\n      dup1\n      iszero\n      tag_160\n      jumpi\n      0x00\n      dup1\n      revert\n    tag_160:\n      pop\n      tag_161\n      0x04\n      dup1\n      calldatasize\n      sub\n      dup2\n      add\n      swap1\n      tag_162\n      swap2\n      swap1\n      tag_163\n      jump\t// in\n    tag_162:\n      tag_164\n      jump\t// in\n    tag_161:\n      mload(0x40)\n      tag_165\n      swap2\n      swap1\n      tag_44\n      jump\t// in\n    tag_165:\n      mload(0x40)\n      dup1\n      swap2\n      sub\n      swap1\n      return\n        /* \"@openzeppelin/contracts/access/Ownable.sol\":2543:2758  function transferOwnership(address newOwner) public virtual onlyOwner {... */\n    tag_30:\n      callvalue\n      dup1\n      iszero\n      tag_166\n      jumpi\n      0x00\n      dup1\n      revert\n    tag_166:\n      pop\n      tag_167\n      0x04\n      dup1\n      calldatasize\n      sub\n      dup2\n      add\n      swap1\n      tag_168\n      swap2\n      swap1\n      tag_79\n      jump\t// in\n    tag_168:\n      tag_169\n      jump\t// in\n    tag_167:\n      stop\n        /* \"contracts/ERC720.sol\":2685:2890  function supportsInterface(bytes4 interfaceId)... */\n    tag_42:\n        /* \"contracts/ERC720.sol\":2820:2824  bool */\n      0x00\n        /* \"contracts/ERC720.sol\":2847:2883  super.supportsInterface(interfaceId) */\n      tag_171\n        /* \"contracts/ERC720.sol\":2871:2882  interfaceId */\n      dup3\n        /* \"contracts/ERC720.sol\":2847:2870  super.supportsInterface */\n      tag_172\n        /* \"contracts/ERC720.sol\":2847:2883  super.supportsInterface(interfaceId) */\n      jump\t// in\n    tag_171:\n        /* \"contracts/ERC720.sol\":2840:2883  return super.supportsInterface(interfaceId) */\n      swap1\n      pop\n        /* \"contracts/ERC720.sol\":2685:2890  function supportsInterface(bytes4 interfaceId)... */\n      swap2\n      swap1\n      pop\n      jump\t// out\n        /* \"@openzeppelin/contracts/token/ERC721/ERC721.sol\":2365:2454  function name() public view virtual returns (string memory) {... */\n    tag_47:\n        /* \"@openzeppelin/contracts/token/ERC721/ERC721.sol\":2410:2423  string memory */\n      0x60\n        /* \"@openzeppelin/contracts/token/ERC721/ERC721.sol\":2442:2447  _name */\n      0x00\n        /* \"@openzeppelin/contracts/token/ERC721/ERC721.sol\":2435:2447  return _name */\n      dup1\n      sload\n      tag_174\n      swap1\n      tag_175\n      jump\t// in\n    tag_174:\n      dup1\n      0x1f\n      add\n      0x20\n      dup1\n      swap2\n      div\n      mul\n      0x20\n      add\n      mload(0x40)\n      swap1\n      dup2\n      add\n      0x40\n      mstore\n      dup1\n      swap3\n      swap2\n      swap1\n      dup2\n      dup2\n      mstore\n      0x20\n      add\n      dup3\n      dup1\n      sload\n      tag_176\n      swap1\n      tag_175\n      jump\t// in\n    tag_176:\n      dup1\n      iszero\n      tag_177\n      jumpi\n      dup1\n      0x1f\n      lt\n      tag_178\n      jumpi\n      0x0100\n      dup1\n      dup4\n      sload\n      div\n      mul\n      dup4\n      mstore\n      swap2\n      0x20\n      add\n      swap2\n      jump(tag_177)\n    tag_178:\n      dup3\n      add\n      swap2\n      swap1\n      0x00\n      mstore\n      keccak256(0x00, 0x20)\n      swap1\n    tag_179:\n      dup2\n      sload\n      dup2\n      mstore\n      swap1\n      0x01\n      add\n      swap1\n      0x20\n      add\n      dup1\n      dup4\n      gt\n      tag_179\n      jumpi\n      dup3\n      swap1\n      sub\n      0x1f\n      and\n      dup3\n      add\n      swap2\n    tag_177:\n      pop\n      pop\n      pop\n      pop\n      pop\n      swap1\n      pop\n        /* \"@openzeppelin/contracts/token/ERC721/ERC721.sol\":2365:2454  function name() public view virtual returns (string memory) {... */\n      swap1\n      jump\t// out\n        /* \"@openzeppelin/contracts/token/ERC721/ERC721.sol\":3497:3651  function getApproved(uint256 tokenId) public view virtual returns (address) {... */\n    tag_54:\n        /* \"@openzeppelin/contracts/token/ERC721/ERC721.sol\":3564:3571  address */\n      0x00\n        /* \"@openzeppelin/contracts/token/ERC721/ERC721.sol\":3583:3605  _requireOwned(tokenId) */\n      tag_181\n        /* \"@openzeppelin/contracts/token/ERC721/ERC721.sol\":3597:3604  tokenId */\n      dup3\n        /* \"@openzeppelin/contracts/token/ERC721/ERC721.sol\":3583:3596  _requireOwned */\n      tag_182\n        /* \"@openzeppelin/contracts/token/ERC721/ERC721.sol\":3583:3605  _requireOwned(tokenId) */\n      jump\t// in\n    tag_181:\n      pop\n        /* \"@openzeppelin/contracts/token/ERC721/ERC721.sol\":3623:3644  _getApproved(tokenId) */\n      tag_183\n        /* \"@openzeppelin/contracts/token/ERC721/ERC721.sol\":3636:3643  tokenId */\n      dup3\n        /* \"@openzeppelin/contracts/token/ERC721/ERC721.sol\":3623:3635  _getApproved */\n      tag_184\n        /* \"@openzeppelin/contracts/token/ERC721/ERC721.sol\":3623:3644  _getApproved(tokenId) */\n      jump\t// in\n    tag_183:\n        /* \"@openzeppelin/contracts/token/ERC721/ERC721.sol\":3616:3644  return _getApproved(tokenId) */\n      swap1\n      pop\n        /* \"@openzeppelin/contracts/token/ERC721/ERC721.sol\":3497:3651  function getApproved(uint256 tokenId) public view virtual returns (address) {... */\n      swap2\n      swap1\n      pop\n      jump\t// out\n        /* \"@openzeppelin/contracts/token/ERC721/ERC721.sol\":3323:3436  function approve(address to, uint256 tokenId) public virtual {... */\n    tag_61:\n        /* \"@openzeppelin/contracts/token/ERC721/ERC721.sol\":3394:3429  _approve(to, tokenId, _msgSender()) */\n      tag_186\n        /* \"@openzeppelin/contracts/token/ERC721/ERC721.sol\":3403:3405  to */\n      dup3\n        /* \"@openzeppelin/contracts/token/ERC721/ERC721.sol\":3407:3414  tokenId */\n      dup3\n        /* \"@openzeppelin/contracts/token/ERC721/ERC721.sol\":3416:3428  _msgSender() */\n      tag_187\n        /* \"@openzeppelin/contracts/token/ERC721/ERC721.sol\":3416:3426  _msgSender */\n      tag_188\n        /* \"@openzeppelin/contracts/token/ERC721/ERC721.sol\":3416:3428  _msgSender() */\n      jump\t// in\n    tag_187:\n        /* \"@openzeppelin/contracts/token/ERC721/ERC721.sol\":3394:3402  _approve */\n      tag_189\n        /* \"@openzeppelin/contracts/token/ERC721/ERC721.sol\":3394:3429  _approve(to, tokenId, _msgSender()) */\n      jump\t// in\n    tag_186:\n        /* \"@openzeppelin/contracts/token/ERC721/ERC721.sol\":3323:3436  function approve(address to, uint256 tokenId) public virtual {... */\n      pop\n      pop\n      jump\t// out\n        /* \"contracts/ERC720.sol\":1598:1852  function allowListMint() public payable {... */\n    tag_63:\n        /* \"contracts/ERC720.sol\":1656:1673  allowListMintOpen */\n      0x0e\n      0x01\n      swap1\n      sload\n      swap1\n      0x0100\n      exp\n      swap1\n      div\n      0xff\n      and\n        /* \"contracts/ERC720.sol\":1648:1704  require(allowListMintOpen, \"allowList mint is not open\") */\n      tag_191\n      jumpi\n      mload(0x40)\n      0x08c379a000000000000000000000000000000000000000000000000000000000\n      dup2\n      mstore\n      0x04\n      add\n      tag_192\n      swap1\n      tag_193\n      jump\t// in\n    tag_192:\n      mload(0x40)\n      dup1\n      swap2\n      sub\n      swap1\n      revert\n    tag_191:\n        /* \"contracts/ERC720.sol\":1722:1731  allowList */\n      0x0d\n        /* \"contracts/ERC720.sol\":1722:1743  allowList[msg.sender] */\n      0x00\n        /* \"contracts/ERC720.sol\":1732:1742  msg.sender */\n      caller\n        /* \"contracts/ERC720.sol\":1722:1743  allowList[msg.sender] */\n      0xffffffffffffffffffffffffffffffffffffffff\n      and\n      0xffffffffffffffffffffffffffffffffffffffff\n      and\n      dup2\n      mstore\n      0x20\n      add\n      swap1\n      dup2\n      mstore\n      0x20\n      add\n      0x00\n      keccak256\n      0x00\n      swap1\n      sload\n      swap1\n      0x0100\n      exp\n      swap1\n      div\n      0xff\n      and\n        /* \"contracts/ERC720.sol\":1714:1759  require(allowList[msg.sender], \"Not Allowed\") */\n      tag_194\n      jumpi\n      mload(0x40)\n      0x08c379a000000000000000000000000000000000000000000000000000000000\n      dup2\n      mstore\n      0x04\n      add\n      tag_195\n      swap1\n      tag_196\n      jump\t// in\n    tag_195:\n      mload(0x40)\n      dup1\n      swap2\n      sub\n      swap1\n      revert\n    tag_194:\n        /* \"contracts/ERC720.sol\":1790:1801  0.001 ether */\n      0x038d7ea4c68000\n        /* \"contracts/ERC720.sol\":1777:1786  msg.value */\n      callvalue\n        /* \"contracts/ERC720.sol\":1777:1801  msg.value == 0.001 ether */\n      eq\n        /* \"contracts/ERC720.sol\":1769:1822  require(msg.value == 0.001 ether, \"Not Enough Value\") */\n      tag_197\n      jumpi\n      mload(0x40)\n      0x08c379a000000000000000000000000000000000000000000000000000000000\n      dup2\n      mstore\n      0x04\n      add\n      tag_198\n      swap1\n      tag_199\n      jump\t// in\n    tag_198:\n      mload(0x40)\n      dup1\n      swap2\n      sub\n      swap1\n      revert\n    tag_197:\n        /* \"contracts/ERC720.sol\":1831:1845  internalMint() */\n      tag_200\n        /* \"contracts/ERC720.sol\":1831:1843  internalMint */\n      tag_201\n        /* \"contracts/ERC720.sol\":1831:1845  internalMint() */\n      jump\t// in\n    tag_200:\n        /* \"contracts/ERC720.sol\":1598:1852  function allowListMint() public payable {... */\n      jump\t// out\n        /* \"@openzeppelin/contracts/token/ERC721/extensions/ERC721Enumerable.sol\":2062:2164  function totalSupply() public view virtual returns (uint256) {... */\n    tag_66:\n        /* \"@openzeppelin/contracts/token/ERC721/extensions/ERC721Enumerable.sol\":2114:2121  uint256 */\n      0x00\n        /* \"@openzeppelin/contracts/token/ERC721/extensions/ERC721Enumerable.sol\":2140:2150  _allTokens */\n      0x08\n        /* \"@openzeppelin/contracts/token/ERC721/extensions/ERC721Enumerable.sol\":2140:2157  _allTokens.length */\n      dup1\n      sload\n      swap1\n      pop\n        /* \"@openzeppelin/contracts/token/ERC721/extensions/ERC721Enumerable.sol\":2133:2157  return _allTokens.length */\n      swap1\n      pop\n        /* \"@openzeppelin/contracts/token/ERC721/extensions/ERC721Enumerable.sol\":2062:2164  function totalSupply() public view virtual returns (uint256) {... */\n      swap1\n      jump\t// out\n        /* \"@openzeppelin/contracts/token/ERC721/ERC721.sol\":4143:4721  function transferFrom(address from, address to, uint256 tokenId) public virtual {... */\n    tag_73:\n        /* \"@openzeppelin/contracts/token/ERC721/ERC721.sol\":4251:4252  0 */\n      0x00\n        /* \"@openzeppelin/contracts/token/ERC721/ERC721.sol\":4237:4253  to == address(0) */\n      0xffffffffffffffffffffffffffffffffffffffff\n      and\n        /* \"@openzeppelin/contracts/token/ERC721/ERC721.sol\":4237:4239  to */\n      dup3\n        /* \"@openzeppelin/contracts/token/ERC721/ERC721.sol\":4237:4253  to == address(0) */\n      0xffffffffffffffffffffffffffffffffffffffff\n      and\n      sub\n        /* \"@openzeppelin/contracts/token/ERC721/ERC721.sol\":4233:4320  if (to == address(0)) {... */\n      tag_204\n      jumpi\n        /* \"@openzeppelin/contracts/token/ERC721/ERC721.sol\":4306:4307  0 */\n      0x00\n        /* \"@openzeppelin/contracts/token/ERC721/ERC721.sol\":4276:4309  ERC721InvalidReceiver(address(0)) */\n      mload(0x40)\n      0x64a0ae9200000000000000000000000000000000000000000000000000000000\n      dup2\n      mstore\n      0x04\n      add\n      tag_205\n      swap2\n      swap1\n      tag_56\n      jump\t// in\n    tag_205:\n      mload(0x40)\n      dup1\n      swap2\n      sub\n      swap1\n      revert\n        /* \"@openzeppelin/contracts/token/ERC721/ERC721.sol\":4233:4320  if (to == address(0)) {... */\n    tag_204:\n        /* \"@openzeppelin/contracts/token/ERC721/ERC721.sol\":4538:4559  address previousOwner */\n      0x00\n        /* \"@openzeppelin/contracts/token/ERC721/ERC721.sol\":4562:4596  _update(to, tokenId, _msgSender()) */\n      tag_206\n        /* \"@openzeppelin/contracts/token/ERC721/ERC721.sol\":4570:4572  to */\n      dup4\n        /* \"@openzeppelin/contracts/token/ERC721/ERC721.sol\":4574:4581  tokenId */\n      dup4\n        /* \"@openzeppelin/contracts/token/ERC721/ERC721.sol\":4583:4595  _msgSender() */\n      tag_207\n        /* \"@openzeppelin/contracts/token/ERC721/ERC721.sol\":4583:4593  _msgSender */\n      tag_188\n        /* \"@openzeppelin/contracts/token/ERC721/ERC721.sol\":4583:4595  _msgSender() */\n      jump\t// in\n    tag_207:\n        /* \"@openzeppelin/contracts/token/ERC721/ERC721.sol\":4562:4569  _update */\n      tag_208\n        /* \"@openzeppelin/contracts/token/ERC721/ERC721.sol\":4562:4596  _update(to, tokenId, _msgSender()) */\n      jump\t// in\n    tag_206:\n        /* \"@openzeppelin/contracts/token/ERC721/ERC721.sol\":4538:4596  address previousOwner = _update(to, tokenId, _msgSender()) */\n      swap1\n      pop\n        /* \"@openzeppelin/contracts/token/ERC721/ERC721.sol\":4627:4631  from */\n      dup4\n        /* \"@openzeppelin/contracts/token/ERC721/ERC721.sol\":4610:4631  previousOwner != from */\n      0xffffffffffffffffffffffffffffffffffffffff\n      and\n        /* \"@openzeppelin/contracts/token/ERC721/ERC721.sol\":4610:4623  previousOwner */\n      dup2\n        /* \"@openzeppelin/contracts/token/ERC721/ERC721.sol\":4610:4631  previousOwner != from */\n      0xffffffffffffffffffffffffffffffffffffffff\n      and\n      eq\n        /* \"@openzeppelin/contracts/token/ERC721/ERC721.sol\":4606:4715  if (previousOwner != from) {... */\n      tag_209\n      jumpi\n        /* \"@openzeppelin/contracts/token/ERC721/ERC721.sol\":4675:4679  from */\n      dup4\n        /* \"@openzeppelin/contracts/token/ERC721/ERC721.sol\":4681:4688  tokenId */\n      dup3\n        /* \"@openzeppelin/contracts/token/ERC721/ERC721.sol\":4690:4703  previousOwner */\n      dup3\n        /* \"@openzeppelin/contracts/token/ERC721/ERC721.sol\":4654:4704  ERC721IncorrectOwner(from, tokenId, previousOwner) */\n      mload(0x40)\n      0x64283d7b00000000000000000000000000000000000000000000000000000000\n      dup2\n      mstore\n      0x04\n      add\n      tag_210\n      swap4\n      swap3\n      swap2\n      swap1\n      tag_211\n      jump\t// in\n    tag_210:\n      mload(0x40)\n      dup1\n      swap2\n      sub\n      swap1\n      revert\n        /* \"@openzeppelin/contracts/token/ERC721/ERC721.sol\":4606:4715  if (previousOwner != from) {... */\n    tag_209:\n        /* \"@openzeppelin/contracts/token/ERC721/ERC721.sol\":4223:4721  {... */\n      pop\n        /* \"@openzeppelin/contracts/token/ERC721/ERC721.sol\":4143:4721  function transferFrom(address from, address to, uint256 tokenId) public virtual {... */\n      pop\n      pop\n      pop\n      jump\t// out\n        /* \"contracts/ERC720.sol\":1403:1592  function publicMint() public payable {... */\n    tag_75:\n        /* \"contracts/ERC720.sol\":1458:1472  publicMintOpen */\n      0x0e\n      0x00\n      swap1\n      sload\n      swap1\n      0x0100\n      exp\n      swap1\n      div\n      0xff\n      and\n        /* \"contracts/ERC720.sol\":1450:1499  require(publicMintOpen, \"publicMint is not open\") */\n      tag_213\n      jumpi\n      mload(0x40)\n      0x08c379a000000000000000000000000000000000000000000000000000000000\n      dup2\n      mstore\n      0x04\n      add\n      tag_214\n      swap1\n      tag_215\n      jump\t// in\n    tag_214:\n      mload(0x40)\n      dup1\n      swap2\n      sub\n      swap1\n      revert\n    tag_213:\n        /* \"contracts/ERC720.sol\":1530:1540  0.01 ether */\n      0x2386f26fc10000\n        /* \"contracts/ERC720.sol\":1517:1526  msg.value */\n      callvalue\n        /* \"contracts/ERC720.sol\":1517:1540  msg.value == 0.01 ether */\n      eq\n        /* \"contracts/ERC720.sol\":1509:1561  require(msg.value == 0.01 ether, \"Not Enough Value\") */\n      tag_216\n      jumpi\n      mload(0x40)\n      0x08c379a000000000000000000000000000000000000000000000000000000000\n      dup2\n      mstore\n      0x04\n      add\n      tag_217\n      swap1\n      tag_199\n      jump\t// in\n    tag_217:\n      mload(0x40)\n      dup1\n      swap2\n      sub\n      swap1\n      revert\n    tag_216:\n        /* \"contracts/ERC720.sol\":1571:1585  internalMint() */\n      tag_218\n        /* \"contracts/ERC720.sol\":1571:1583  internalMint */\n      tag_201\n        /* \"contracts/ERC720.sol\":1571:1585  internalMint() */\n      jump\t// in\n    tag_218:\n        /* \"contracts/ERC720.sol\":1403:1592  function publicMint() public payable {... */\n      jump\t// out\n        /* \"contracts/ERC720.sol\":521:563  mapping (address => bool) public allowList */\n    tag_80:\n      mstore(0x20, 0x0d)\n      dup1\n      0x00\n      mstore\n      keccak256(0x00, 0x40)\n      0x00\n      swap2\n      pop\n      sload\n      swap1\n      0x0100\n      exp\n      swap1\n      div\n      0xff\n      and\n      dup2\n      jump\t// out\n        /* \"contracts/ERC720.sol\":993:1201  function editMintWindows(bool _publicMintOpen, bool _allowListMintOpen)... */\n    tag_86:\n        /* \"@openzeppelin/contracts/access/Ownable.sol\":1531:1544  _checkOwner() */\n      tag_220\n        /* \"@openzeppelin/contracts/access/Ownable.sol\":1531:1542  _checkOwner */\n      tag_221\n        /* \"@openzeppelin/contracts/access/Ownable.sol\":1531:1544  _checkOwner() */\n      jump\t// in\n    tag_220:\n        /* \"contracts/ERC720.sol\":1131:1146  _publicMintOpen */\n      dup2\n        /* \"contracts/ERC720.sol\":1114:1128  publicMintOpen */\n      0x0e\n      0x00\n        /* \"contracts/ERC720.sol\":1114:1146  publicMintOpen = _publicMintOpen */\n      0x0100\n      exp\n      dup2\n      sload\n      dup2\n      0xff\n      mul\n      not\n      and\n      swap1\n      dup4\n      iszero\n      iszero\n      mul\n      or\n      swap1\n      sstore\n      pop\n        /* \"contracts/ERC720.sol\":1176:1194  _allowListMintOpen */\n      dup1\n        /* \"contracts/ERC720.sol\":1156:1173  allowListMintOpen */\n      0x0e\n      0x01\n        /* \"contracts/ERC720.sol\":1156:1194  allowListMintOpen = _allowListMintOpen */\n      0x0100\n      exp\n      dup2\n      sload\n      dup2\n      0xff\n      mul\n      not\n      and\n      swap1\n      dup4\n      iszero\n      iszero\n      mul\n      or\n      swap1\n      sstore\n      pop\n        /* \"contracts/ERC720.sol\":993:1201  function editMintWindows(bool _publicMintOpen, bool _allowListMintOpen)... */\n      pop\n      pop\n      jump\t// out\n        /* \"@openzeppelin/contracts/token/ERC721/extensions/ERC721Enumerable.sol\":1736:1991  function tokenOfOwnerByIndex(address owner, uint256 index) public view virtual returns (uint256) {... */\n    tag_90:\n        /* \"@openzeppelin/contracts/token/ERC721/extensions/ERC721Enumerable.sol\":1824:1831  uint256 */\n      0x00\n        /* \"@openzeppelin/contracts/token/ERC721/extensions/ERC721Enumerable.sol\":1856:1872  balanceOf(owner) */\n      tag_224\n        /* \"@openzeppelin/contracts/token/ERC721/extensions/ERC721Enumerable.sol\":1866:1871  owner */\n      dup4\n        /* \"@openzeppelin/contracts/token/ERC721/extensions/ERC721Enumerable.sol\":1856:1865  balanceOf */\n      tag_125\n        /* \"@openzeppelin/contracts/token/ERC721/extensions/ERC721Enumerable.sol\":1856:1872  balanceOf(owner) */\n      jump\t// in\n    tag_224:\n        /* \"@openzeppelin/contracts/token/ERC721/extensions/ERC721Enumerable.sol\":1847:1852  index */\n      dup3\n        /* \"@openzeppelin/contracts/token/ERC721/extensions/ERC721Enumerable.sol\":1847:1872  index >= balanceOf(owner) */\n      lt\n        /* \"@openzeppelin/contracts/token/ERC721/extensions/ERC721Enumerable.sol\":1843:1942  if (index >= balanceOf(owner)) {... */\n      tag_225\n      jumpi\n        /* \"@openzeppelin/contracts/token/ERC721/extensions/ERC721Enumerable.sol\":1918:1923  owner */\n      dup3\n        /* \"@openzeppelin/contracts/token/ERC721/extensions/ERC721Enumerable.sol\":1925:1930  index */\n      dup3\n        /* \"@openzeppelin/contracts/token/ERC721/extensions/ERC721Enumerable.sol\":1895:1931  ERC721OutOfBoundsIndex(owner, index) */\n      mload(0x40)\n      0xa57d13dc00000000000000000000000000000000000000000000000000000000\n      dup2\n      mstore\n      0x04\n      add\n      tag_226\n      swap3\n      swap2\n      swap1\n      tag_227\n      jump\t// in\n    tag_226:\n      mload(0x40)\n      dup1\n      swap2\n      sub\n      swap1\n      revert\n        /* \"@openzeppelin/contracts/token/ERC721/extensions/ERC721Enumerable.sol\":1843:1942  if (index >= balanceOf(owner)) {... */\n    tag_225:\n        /* \"@openzeppelin/contracts/token/ERC721/extensions/ERC721Enumerable.sol\":1958:1970  _ownedTokens */\n      0x06\n        /* \"@openzeppelin/contracts/token/ERC721/extensions/ERC721Enumerable.sol\":1958:1977  _ownedTokens[owner] */\n      0x00\n        /* \"@openzeppelin/contracts/token/ERC721/extensions/ERC721Enumerable.sol\":1971:1976  owner */\n      dup5\n        /* \"@openzeppelin/contracts/token/ERC721/extensions/ERC721Enumerable.sol\":1958:1977  _ownedTokens[owner] */\n      0xffffffffffffffffffffffffffffffffffffffff\n      and\n      0xffffffffffffffffffffffffffffffffffffffff\n      and\n      dup2\n      mstore\n      0x20\n      add\n      swap1\n      dup2\n      mstore\n      0x20\n      add\n      0x00\n      keccak256\n        /* \"@openzeppelin/contracts/token/ERC721/extensions/ERC721Enumerable.sol\":1958:1984  _ownedTokens[owner][index] */\n      0x00\n        /* \"@openzeppelin/contracts/token/ERC721/extensions/ERC721Enumerable.sol\":1978:1983  index */\n      dup4\n        /* \"@openzeppelin/contracts/token/ERC721/extensions/ERC721Enumerable.sol\":1958:1984  _ownedTokens[owner][index] */\n      dup2\n      mstore\n      0x20\n      add\n      swap1\n      dup2\n      mstore\n      0x20\n      add\n      0x00\n      keccak256\n      sload\n        /* \"@openzeppelin/contracts/token/ERC721/extensions/ERC721Enumerable.sol\":1951:1984  return _ownedTokens[owner][index] */\n      swap1\n      pop\n        /* \"@openzeppelin/contracts/token/ERC721/extensions/ERC721Enumerable.sol\":1736:1991  function tokenOfOwnerByIndex(address owner, uint256 index) public view virtual returns (uint256) {... */\n      swap3\n      swap2\n      pop\n      pop\n      jump\t// out\n        /* \"contracts/ERC720.sol\":924:987  function unpause() public onlyOwner {... */\n    tag_94:\n        /* \"@openzeppelin/contracts/access/Ownable.sol\":1531:1544  _checkOwner() */\n      tag_229\n        /* \"@openzeppelin/contracts/access/Ownable.sol\":1531:1542  _checkOwner */\n      tag_221\n        /* \"@openzeppelin/contracts/access/Ownable.sol\":1531:1544  _checkOwner() */\n      jump\t// in\n    tag_229:\n        /* \"contracts/ERC720.sol\":970:980  _unpause() */\n      tag_231\n        /* \"contracts/ERC720.sol\":970:978  _unpause */\n      tag_232\n        /* \"contracts/ERC720.sol\":970:980  _unpause() */\n      jump\t// in\n    tag_231:\n        /* \"contracts/ERC720.sol\":924:987  function unpause() public onlyOwner {... */\n      jump\t// out\n        /* \"@openzeppelin/contracts/token/ERC721/ERC721.sol\":4787:4919  function safeTransferFrom(address from, address to, uint256 tokenId) public {... */\n    tag_98:\n        /* \"@openzeppelin/contracts/token/ERC721/ERC721.sol\":4873:4912  safeTransferFrom(from, to, tokenId, \"\") */\n      tag_234\n        /* \"@openzeppelin/contracts/token/ERC721/ERC721.sol\":4890:4894  from */\n      dup4\n        /* \"@openzeppelin/contracts/token/ERC721/ERC721.sol\":4896:4898  to */\n      dup4\n        /* \"@openzeppelin/contracts/token/ERC721/ERC721.sol\":4900:4907  tokenId */\n      dup4\n        /* \"@openzeppelin/contracts/token/ERC721/ERC721.sol\":4873:4912  safeTransferFrom(from, to, tokenId, \"\") */\n      mload(0x40)\n      dup1\n      0x20\n      add\n      0x40\n      mstore\n      dup1\n      0x00\n      dup2\n      mstore\n      pop\n        /* \"@openzeppelin/contracts/token/ERC721/ERC721.sol\":4873:4889  safeTransferFrom */\n      tag_150\n        /* \"@openzeppelin/contracts/token/ERC721/ERC721.sol\":4873:4912  safeTransferFrom(from, to, tokenId, \"\") */\n      jump\t// in\n    tag_234:\n        /* \"@openzeppelin/contracts/token/ERC721/ERC721.sol\":4787:4919  function safeTransferFrom(address from, address to, uint256 tokenId) public {... */\n      pop\n      pop\n      pop\n      jump\t// out\n        /* \"@openzeppelin/contracts/token/ERC721/extensions/ERC721Enumerable.sol\":2236:2462  function tokenByIndex(uint256 index) public view virtual returns (uint256) {... */\n    tag_102:\n        /* \"@openzeppelin/contracts/token/ERC721/extensions/ERC721Enumerable.sol\":2302:2309  uint256 */\n      0x00\n        /* \"@openzeppelin/contracts/token/ERC721/extensions/ERC721Enumerable.sol\":2334:2347  totalSupply() */\n      tag_236\n        /* \"@openzeppelin/contracts/token/ERC721/extensions/ERC721Enumerable.sol\":2334:2345  totalSupply */\n      tag_66\n        /* \"@openzeppelin/contracts/token/ERC721/extensions/ERC721Enumerable.sol\":2334:2347  totalSupply() */\n      jump\t// in\n    tag_236:\n        /* \"@openzeppelin/contracts/token/ERC721/extensions/ERC721Enumerable.sol\":2325:2330  index */\n      dup3\n        /* \"@openzeppelin/contracts/token/ERC721/extensions/ERC721Enumerable.sol\":2325:2347  index >= totalSupply() */\n      lt\n        /* \"@openzeppelin/contracts/token/ERC721/extensions/ERC721Enumerable.sol\":2321:2422  if (index >= totalSupply()) {... */\n      tag_237\n      jumpi\n        /* \"@openzeppelin/contracts/token/ERC721/extensions/ERC721Enumerable.sol\":2401:2402  0 */\n      0x00\n        /* \"@openzeppelin/contracts/token/ERC721/extensions/ERC721Enumerable.sol\":2405:2410  index */\n      dup3\n        /* \"@openzeppelin/contracts/token/ERC721/extensions/ERC721Enumerable.sol\":2370:2411  ERC721OutOfBoundsIndex(address(0), index) */\n      mload(0x40)\n      0xa57d13dc00000000000000000000000000000000000000000000000000000000\n      dup2\n      mstore\n      0x04\n      add\n      tag_238\n      swap3\n      swap2\n      swap1\n      tag_227\n      jump\t// in\n    tag_238:\n      mload(0x40)\n      dup1\n      swap2\n      sub\n      swap1\n      revert\n        /* \"@openzeppelin/contracts/token/ERC721/extensions/ERC721Enumerable.sol\":2321:2422  if (index >= totalSupply()) {... */\n    tag_237:\n        /* \"@openzeppelin/contracts/token/ERC721/extensions/ERC721Enumerable.sol\":2438:2448  _allTokens */\n      0x08\n        /* \"@openzeppelin/contracts/token/ERC721/extensions/ERC721Enumerable.sol\":2449:2454  index */\n      dup3\n        /* \"@openzeppelin/contracts/token/ERC721/extensions/ERC721Enumerable.sol\":2438:2455  _allTokens[index] */\n      dup2\n      sload\n      dup2\n      lt\n      tag_239\n      jumpi\n      tag_240\n      tag_241\n      jump\t// in\n    tag_240:\n    tag_239:\n      swap1\n      0x00\n      mstore\n      keccak256(0x00, 0x20)\n      add\n      sload\n        /* \"@openzeppelin/contracts/token/ERC721/extensions/ERC721Enumerable.sol\":2431:2455  return _allTokens[index] */\n      swap1\n      pop\n        /* \"@openzeppelin/contracts/token/ERC721/extensions/ERC721Enumerable.sol\":2236:2462  function tokenByIndex(uint256 index) public view virtual returns (uint256) {... */\n      swap2\n      swap1\n      pop\n      jump\t// out\n        /* \"contracts/ERC720.sol\":2049:2170  function withdraw(address _address) external onlyOwner {... */\n    tag_107:\n        /* \"@openzeppelin/contracts/access/Ownable.sol\":1531:1544  _checkOwner() */\n      tag_244\n        /* \"@openzeppelin/contracts/access/Ownable.sol\":1531:1542  _checkOwner */\n      tag_221\n        /* \"@openzeppelin/contracts/access/Ownable.sol\":1531:1544  _checkOwner() */\n      jump\t// in\n    tag_244:\n        /* \"contracts/ERC720.sol\":2122:2130  _address */\n      dup1\n        /* \"contracts/ERC720.sol\":2114:2140  payable(_address).transfer */\n      0xffffffffffffffffffffffffffffffffffffffff\n      and\n        /* \"contracts/ERC720.sol\":2114:2163  payable(_address).transfer(address(this).balance) */\n      0x08fc\n        /* \"contracts/ERC720.sol\":2141:2162  address(this).balance */\n      selfbalance\n        /* \"contracts/ERC720.sol\":2114:2163  payable(_address).transfer(address(this).balance) */\n      swap1\n      dup2\n      iszero\n      mul\n      swap1\n      mload(0x40)\n      0x00\n      mload(0x40)\n      dup1\n      dup4\n      sub\n      dup2\n      dup6\n      dup9\n      dup9\n      call\n      swap4\n      pop\n      pop\n      pop\n      pop\n      iszero\n      dup1\n      iszero\n      tag_247\n      jumpi\n      returndatasize\n      0x00\n      dup1\n      returndatacopy\n      revert(0x00, returndatasize)\n    tag_247:\n      pop\n        /* \"contracts/ERC720.sol\":2049:2170  function withdraw(address _address) external onlyOwner {... */\n      pop\n      jump\t// out\n        /* \"@openzeppelin/contracts/utils/Pausable.sol\":1850:1934  function paused() public view virtual returns (bool) {... */\n    tag_110:\n        /* \"@openzeppelin/contracts/utils/Pausable.sol\":1897:1901  bool */\n      0x00\n        /* \"@openzeppelin/contracts/utils/Pausable.sol\":1920:1927  _paused */\n      0x0a\n      0x00\n      swap1\n      sload\n      swap1\n      0x0100\n      exp\n      swap1\n      div\n      0xff\n      and\n        /* \"@openzeppelin/contracts/utils/Pausable.sol\":1913:1927  return _paused */\n      swap1\n      pop\n        /* \"@openzeppelin/contracts/utils/Pausable.sol\":1850:1934  function paused() public view virtual returns (bool) {... */\n      swap1\n      jump\t// out\n        /* \"@openzeppelin/contracts/token/ERC721/ERC721.sol\":2185:2303  function ownerOf(uint256 tokenId) public view virtual returns (address) {... */\n    tag_115:\n        /* \"@openzeppelin/contracts/token/ERC721/ERC721.sol\":2248:2255  address */\n      0x00\n        /* \"@openzeppelin/contracts/token/ERC721/ERC721.sol\":2274:2296  _requireOwned(tokenId) */\n      tag_250\n        /* \"@openzeppelin/contracts/token/ERC721/ERC721.sol\":2288:2295  tokenId */\n      dup3\n        /* \"@openzeppelin/contracts/token/ERC721/ERC721.sol\":2274:2287  _requireOwned */\n      tag_182\n        /* \"@openzeppelin/contracts/token/ERC721/ERC721.sol\":2274:2296  _requireOwned(tokenId) */\n      jump\t// in\n    tag_250:\n        /* \"@openzeppelin/contracts/token/ERC721/ERC721.sol\":2267:2296  return _requireOwned(tokenId) */\n      swap1\n      pop\n        /* \"@openzeppelin/contracts/token/ERC721/ERC721.sol\":2185:2303  function ownerOf(uint256 tokenId) public view virtual returns (address) {... */\n      swap2\n      swap1\n      pop\n      jump\t// out\n        /* \"contracts/ERC720.sol\":1207:1397  function setAllowList(address[] calldata addresses) external onlyOwner {... */\n    tag_121:\n        /* \"@openzeppelin/contracts/access/Ownable.sol\":1531:1544  _checkOwner() */\n      tag_252\n        /* \"@openzeppelin/contracts/access/Ownable.sol\":1531:1542  _checkOwner */\n      tag_221\n        /* \"@openzeppelin/contracts/access/Ownable.sol\":1531:1544  _checkOwner() */\n      jump\t// in\n    tag_252:\n        /* \"contracts/ERC720.sol\":1293:1299  uint i */\n      0x00\n        /* \"contracts/ERC720.sol\":1288:1391  for (uint i=0; i<addresses.length; i++) ... */\n    tag_254:\n        /* \"contracts/ERC720.sol\":1305:1314  addresses */\n      dup3\n      dup3\n        /* \"contracts/ERC720.sol\":1305:1321  addresses.length */\n      swap1\n      pop\n        /* \"contracts/ERC720.sol\":1303:1304  i */\n      dup2\n        /* \"contracts/ERC720.sol\":1303:1321  i<addresses.length */\n      lt\n        /* \"contracts/ERC720.sol\":1288:1391  for (uint i=0; i<addresses.length; i++) ... */\n      iszero\n      tag_255\n      jumpi\n        /* \"contracts/ERC720.sol\":1376:1380  true */\n      0x01\n        /* \"contracts/ERC720.sol\":1351:1360  allowList */\n      0x0d\n        /* \"contracts/ERC720.sol\":1351:1374  allowList[addresses[i]] */\n      0x00\n        /* \"contracts/ERC720.sol\":1361:1370  addresses */\n      dup6\n      dup6\n        /* \"contracts/ERC720.sol\":1371:1372  i */\n      dup6\n        /* \"contracts/ERC720.sol\":1361:1373  addresses[i] */\n      dup2\n      dup2\n      lt\n      tag_257\n      jumpi\n      tag_258\n      tag_241\n      jump\t// in\n    tag_258:\n    tag_257:\n      swap1\n      pop\n      0x20\n      mul\n      add\n      0x20\n      dup2\n      add\n      swap1\n      tag_259\n      swap2\n      swap1\n      tag_79\n      jump\t// in\n    tag_259:\n        /* \"contracts/ERC720.sol\":1351:1374  allowList[addresses[i]] */\n      0xffffffffffffffffffffffffffffffffffffffff\n      and\n      0xffffffffffffffffffffffffffffffffffffffff\n      and\n      dup2\n      mstore\n      0x20\n      add\n      swap1\n      dup2\n      mstore\n      0x20\n      add\n      0x00\n      keccak256\n      0x00\n        /* \"contracts/ERC720.sol\":1351:1380  allowList[addresses[i]]= true */\n      0x0100\n      exp\n      dup2\n      sload\n      dup2\n      0xff\n      mul\n      not\n      and\n      swap1\n      dup4\n      iszero\n      iszero\n      mul\n      or\n      swap1\n      sstore\n      pop\n        /* \"contracts/ERC720.sol\":1323:1326  i++ */\n      dup1\n      dup1\n      0x01\n      add\n      swap2\n      pop\n      pop\n        /* \"contracts/ERC720.sol\":1288:1391  for (uint i=0; i<addresses.length; i++) ... */\n      jump(tag_254)\n    tag_255:\n      pop\n        /* \"contracts/ERC720.sol\":1207:1397  function setAllowList(address[] calldata addresses) external onlyOwner {... */\n      pop\n      pop\n      jump\t// out\n        /* \"@openzeppelin/contracts/token/ERC721/ERC721.sol\":1920:2128  function balanceOf(address owner) public view virtual returns (uint256) {... */\n    tag_125:\n        /* \"@openzeppelin/contracts/token/ERC721/ERC721.sol\":1983:1990  uint256 */\n      0x00\n        /* \"@openzeppelin/contracts/token/ERC721/ERC721.sol\":2023:2024  0 */\n      dup1\n        /* \"@openzeppelin/contracts/token/ERC721/ERC721.sol\":2006:2025  owner == address(0) */\n      0xffffffffffffffffffffffffffffffffffffffff\n      and\n        /* \"@openzeppelin/contracts/token/ERC721/ERC721.sol\":2006:2011  owner */\n      dup3\n        /* \"@openzeppelin/contracts/token/ERC721/ERC721.sol\":2006:2025  owner == address(0) */\n      0xffffffffffffffffffffffffffffffffffffffff\n      and\n      sub\n        /* \"@openzeppelin/contracts/token/ERC721/ERC721.sol\":2002:2089  if (owner == address(0)) {... */\n      tag_261\n      jumpi\n        /* \"@openzeppelin/contracts/token/ERC721/ERC721.sol\":2075:2076  0 */\n      0x00\n        /* \"@openzeppelin/contracts/token/ERC721/ERC721.sol\":2048:2078  ERC721InvalidOwner(address(0)) */\n      mload(0x40)\n      0x89c62b6400000000000000000000000000000000000000000000000000000000\n      dup2\n      mstore\n      0x04\n      add\n      tag_262\n      swap2\n      swap1\n      tag_56\n      jump\t// in\n    tag_262:\n      mload(0x40)\n      dup1\n      swap2\n      sub\n      swap1\n      revert\n        /* \"@openzeppelin/contracts/token/ERC721/ERC721.sol\":2002:2089  if (owner == address(0)) {... */\n    tag_261:\n        /* \"@openzeppelin/contracts/token/ERC721/ERC721.sol\":2105:2114  _balances */\n      0x03\n        /* \"@openzeppelin/contracts/token/ERC721/ERC721.sol\":2105:2121  _balances[owner] */\n      0x00\n        /* \"@openzeppelin/contracts/token/ERC721/ERC721.sol\":2115:2120  owner */\n      dup4\n        /* \"@openzeppelin/contracts/token/ERC721/ERC721.sol\":2105:2121  _balances[owner] */\n      0xffffffffffffffffffffffffffffffffffffffff\n      and\n      0xffffffffffffffffffffffffffffffffffffffff\n      and\n      dup2\n      mstore\n      0x20\n      add\n      swap1\n      dup2\n      mstore\n      0x20\n      add\n      0x00\n      keccak256\n      sload\n        /* \"@openzeppelin/contracts/token/ERC721/ERC721.sol\":2098:2121  return _balances[owner] */\n      swap1\n      pop\n        /* \"@openzeppelin/contracts/token/ERC721/ERC721.sol\":1920:2128  function balanceOf(address owner) public view virtual returns (uint256) {... */\n      swap2\n      swap1\n      pop\n      jump\t// out\n        /* \"@openzeppelin/contracts/access/Ownable.sol\":2293:2394  function renounceOwnership() public virtual onlyOwner {... */\n    tag_129:\n        /* \"@openzeppelin/contracts/access/Ownable.sol\":1531:1544  _checkOwner() */\n      tag_264\n        /* \"@openzeppelin/contracts/access/Ownable.sol\":1531:1542  _checkOwner */\n      tag_221\n        /* \"@openzeppelin/contracts/access/Ownable.sol\":1531:1544  _checkOwner() */\n      jump\t// in\n    tag_264:\n        /* \"@openzeppelin/contracts/access/Ownable.sol\":2357:2387  _transferOwnership(address(0)) */\n      tag_266\n        /* \"@openzeppelin/contracts/access/Ownable.sol\":2384:2385  0 */\n      0x00\n        /* \"@openzeppelin/contracts/access/Ownable.sol\":2357:2375  _transferOwnership */\n      tag_267\n        /* \"@openzeppelin/contracts/access/Ownable.sol\":2357:2387  _transferOwnership(address(0)) */\n      jump\t// in\n    tag_266:\n        /* \"@openzeppelin/contracts/access/Ownable.sol\":2293:2394  function renounceOwnership() public virtual onlyOwner {... */\n      jump\t// out\n        /* \"contracts/ERC720.sol\":859:918  function pause() public onlyOwner {... */\n    tag_132:\n        /* \"@openzeppelin/contracts/access/Ownable.sol\":1531:1544  _checkOwner() */\n      tag_269\n        /* \"@openzeppelin/contracts/access/Ownable.sol\":1531:1542  _checkOwner */\n      tag_221\n        /* \"@openzeppelin/contracts/access/Ownable.sol\":1531:1544  _checkOwner() */\n      jump\t// in\n    tag_269:\n        /* \"contracts/ERC720.sol\":903:911  _pause() */\n      tag_271\n        /* \"contracts/ERC720.sol\":903:909  _pause */\n      tag_272\n        /* \"contracts/ERC720.sol\":903:911  _pause() */\n      jump\t// in\n    tag_271:\n        /* \"contracts/ERC720.sol\":859:918  function pause() public onlyOwner {... */\n      jump\t// out\n        /* \"@openzeppelin/contracts/access/Ownable.sol\":1638:1723  function owner() public view virtual returns (address) {... */\n    tag_135:\n        /* \"@openzeppelin/contracts/access/Ownable.sol\":1684:1691  address */\n      0x00\n        /* \"@openzeppelin/contracts/access/Ownable.sol\":1710:1716  _owner */\n      0x0a\n      0x01\n      swap1\n      sload\n      swap1\n      0x0100\n      exp\n      swap1\n      div\n      0xffffffffffffffffffffffffffffffffffffffff\n      and\n        /* \"@openzeppelin/contracts/access/Ownable.sol\":1703:1716  return _owner */\n      swap1\n      pop\n        /* \"@openzeppelin/contracts/access/Ownable.sol\":1638:1723  function owner() public view virtual returns (address) {... */\n      swap1\n      jump\t// out\n        /* \"@openzeppelin/contracts/token/ERC721/ERC721.sol\":2518:2611  function symbol() public view virtual returns (string memory) {... */\n    tag_139:\n        /* \"@openzeppelin/contracts/token/ERC721/ERC721.sol\":2565:2578  string memory */\n      0x60\n        /* \"@openzeppelin/contracts/token/ERC721/ERC721.sol\":2597:2604  _symbol */\n      0x01\n        /* \"@openzeppelin/contracts/token/ERC721/ERC721.sol\":2590:2604  return _symbol */\n      dup1\n      sload\n      tag_275\n      swap1\n      tag_175\n      jump\t// in\n    tag_275:\n      dup1\n      0x1f\n      add\n      0x20\n      dup1\n      swap2\n      div\n      mul\n      0x20\n      add\n      mload(0x40)\n      swap1\n      dup2\n      add\n      0x40\n      mstore\n      dup1\n      swap3\n      swap2\n      swap1\n      dup2\n      dup2\n      mstore\n      0x20\n      add\n      dup3\n      dup1\n      sload\n      tag_276\n      swap1\n      tag_175\n      jump\t// in\n    tag_276:\n      dup1\n      iszero\n      tag_277\n      jumpi\n      dup1\n      0x1f\n      lt\n      tag_278\n      jumpi\n      0x0100\n      dup1\n      dup4\n      sload\n      div\n      mul\n      dup4\n      mstore\n      swap2\n      0x20\n      add\n      swap2\n      jump(tag_277)\n    tag_278:\n      dup3\n      add\n      swap2\n      swap1\n      0x00\n      mstore\n      keccak256(0x00, 0x20)\n      swap1\n    tag_279:\n      dup2\n      sload\n      dup2\n      mstore\n      swap1\n      0x01\n      add\n      swap1\n      0x20\n      add\n      dup1\n      dup4\n      gt\n      tag_279\n      jumpi\n      dup3\n      swap1\n      sub\n      0x1f\n      and\n      dup3\n      add\n      swap2\n    tag_277:\n      pop\n      pop\n      pop\n      pop\n      pop\n      swap1\n      pop\n        /* \"@openzeppelin/contracts/token/ERC721/ERC721.sol\":2518:2611  function symbol() public view virtual returns (string memory) {... */\n      swap1\n      jump\t// out\n        /* \"@openzeppelin/contracts/token/ERC721/ERC721.sol\":3718:3862  function setApprovalForAll(address operator, bool approved) public virtual {... */\n    tag_145:\n        /* \"@openzeppelin/contracts/token/ERC721/ERC721.sol\":3803:3855  _setApprovalForAll(_msgSender(), operator, approved) */\n      tag_281\n        /* \"@openzeppelin/contracts/token/ERC721/ERC721.sol\":3822:3834  _msgSender() */\n      tag_282\n        /* \"@openzeppelin/contracts/token/ERC721/ERC721.sol\":3822:3832  _msgSender */\n      tag_188\n        /* \"@openzeppelin/contracts/token/ERC721/ERC721.sol\":3822:3834  _msgSender() */\n      jump\t// in\n    tag_282:\n        /* \"@openzeppelin/contracts/token/ERC721/ERC721.sol\":3836:3844  operator */\n      dup4\n        /* \"@openzeppelin/contracts/token/ERC721/ERC721.sol\":3846:3854  approved */\n      dup4\n        /* \"@openzeppelin/contracts/token/ERC721/ERC721.sol\":3803:3821  _setApprovalForAll */\n      tag_283\n        /* \"@openzeppelin/contracts/token/ERC721/ERC721.sol\":3803:3855  _setApprovalForAll(_msgSender(), operator, approved) */\n      jump\t// in\n    tag_281:\n        /* \"@openzeppelin/contracts/token/ERC721/ERC721.sol\":3718:3862  function setApprovalForAll(address operator, bool approved) public virtual {... */\n      pop\n      pop\n      jump\t// out\n        /* \"@openzeppelin/contracts/token/ERC721/ERC721.sol\":4985:5193  function safeTransferFrom(address from, address to, uint256 tokenId, bytes memory data) public virtual {... */\n    tag_150:\n        /* \"@openzeppelin/contracts/token/ERC721/ERC721.sol\":5098:5129  transferFrom(from, to, tokenId) */\n      tag_285\n        /* \"@openzeppelin/contracts/token/ERC721/ERC721.sol\":5111:5115  from */\n      dup5\n        /* \"@openzeppelin/contracts/token/ERC721/ERC721.sol\":5117:5119  to */\n      dup5\n        /* \"@openzeppelin/contracts/token/ERC721/ERC721.sol\":5121:5128  tokenId */\n      dup5\n        /* \"@openzeppelin/contracts/token/ERC721/ERC721.sol\":5098:5110  transferFrom */\n      tag_73\n        /* \"@openzeppelin/contracts/token/ERC721/ERC721.sol\":5098:5129  transferFrom(from, to, tokenId) */\n      jump\t// in\n    tag_285:\n        /* \"@openzeppelin/contracts/token/ERC721/ERC721.sol\":5139:5186  _checkOnERC721Received(from, to, tokenId, data) */\n      tag_286\n        /* \"@openzeppelin/contracts/token/ERC721/ERC721.sol\":5162:5166  from */\n      dup5\n        /* \"@openzeppelin/contracts/token/ERC721/ERC721.sol\":5168:5170  to */\n      dup5\n        /* \"@openzeppelin/contracts/token/ERC721/ERC721.sol\":5172:5179  tokenId */\n      dup5\n        /* \"@openzeppelin/contracts/token/ERC721/ERC721.sol\":5181:5185  data */\n      dup5\n        /* \"@openzeppelin/contracts/token/ERC721/ERC721.sol\":5139:5161  _checkOnERC721Received */\n      tag_287\n        /* \"@openzeppelin/contracts/token/ERC721/ERC721.sol\":5139:5186  _checkOnERC721Received(from, to, tokenId, data) */\n      jump\t// in\n    tag_286:\n        /* \"@openzeppelin/contracts/token/ERC721/ERC721.sol\":4985:5193  function safeTransferFrom(address from, address to, uint256 tokenId, bytes memory data) public virtual {... */\n      pop\n      pop\n      pop\n      pop\n      jump\t// out\n        /* \"@openzeppelin/contracts/token/ERC721/ERC721.sol\":2677:2932  function tokenURI(uint256 tokenId) public view virtual returns (string memory) {... */\n    tag_154:\n        /* \"@openzeppelin/contracts/token/ERC721/ERC721.sol\":2741:2754  string memory */\n      0x60\n        /* \"@openzeppelin/contracts/token/ERC721/ERC721.sol\":2766:2788  _requireOwned(tokenId) */\n      tag_289\n        /* \"@openzeppelin/contracts/token/ERC721/ERC721.sol\":2780:2787  tokenId */\n      dup3\n        /* \"@openzeppelin/contracts/token/ERC721/ERC721.sol\":2766:2779  _requireOwned */\n      tag_182\n        /* \"@openzeppelin/contracts/token/ERC721/ERC721.sol\":2766:2788  _requireOwned(tokenId) */\n      jump\t// in\n    tag_289:\n      pop\n        /* \"@openzeppelin/contracts/token/ERC721/ERC721.sol\":2799:2820  string memory baseURI */\n      0x00\n        /* \"@openzeppelin/contracts/token/ERC721/ERC721.sol\":2823:2833  _baseURI() */\n      tag_290\n        /* \"@openzeppelin/contracts/token/ERC721/ERC721.sol\":2823:2831  _baseURI */\n      tag_291\n        /* \"@openzeppelin/contracts/token/ERC721/ERC721.sol\":2823:2833  _baseURI() */\n      jump\t// in\n    tag_290:\n        /* \"@openzeppelin/contracts/token/ERC721/ERC721.sol\":2799:2833  string memory baseURI = _baseURI() */\n      swap1\n      pop\n        /* \"@openzeppelin/contracts/token/ERC721/ERC721.sol\":2874:2875  0 */\n      0x00\n        /* \"@openzeppelin/contracts/token/ERC721/ERC721.sol\":2856:2863  baseURI */\n      dup2\n        /* \"@openzeppelin/contracts/token/ERC721/ERC721.sol\":2850:2871  bytes(baseURI).length */\n      mload\n        /* \"@openzeppelin/contracts/token/ERC721/ERC721.sol\":2850:2875  bytes(baseURI).length > 0 */\n      gt\n        /* \"@openzeppelin/contracts/token/ERC721/ERC721.sol\":2850:2925  bytes(baseURI).length > 0 ? string.concat(baseURI, tokenId.toString()) : \"\" */\n      tag_292\n      jumpi\n      mload(0x40)\n      dup1\n      0x20\n      add\n      0x40\n      mstore\n      dup1\n      0x00\n      dup2\n      mstore\n      pop\n      jump(tag_293)\n    tag_292:\n        /* \"@openzeppelin/contracts/token/ERC721/ERC721.sol\":2892:2899  baseURI */\n      dup1\n        /* \"@openzeppelin/contracts/token/ERC721/ERC721.sol\":2901:2919  tokenId.toString() */\n      tag_294\n        /* \"@openzeppelin/contracts/token/ERC721/ERC721.sol\":2901:2908  tokenId */\n      dup5\n        /* \"@openzeppelin/contracts/token/ERC721/ERC721.sol\":2901:2917  tokenId.toString */\n      tag_295\n        /* \"@openzeppelin/contracts/token/ERC721/ERC721.sol\":2901:2919  tokenId.toString() */\n      jump\t// in\n    tag_294:\n        /* \"@openzeppelin/contracts/token/ERC721/ERC721.sol\":2878:2920  string.concat(baseURI, tokenId.toString()) */\n      add(0x20, mload(0x40))\n      tag_296\n      swap3\n      swap2\n      swap1\n      tag_297\n      jump\t// in\n    tag_296:\n      mload(0x40)\n      0x20\n      dup2\n      dup4\n      sub\n      sub\n      dup2\n      mstore\n      swap1\n      0x40\n      mstore\n        /* \"@openzeppelin/contracts/token/ERC721/ERC721.sol\":2850:2925  bytes(baseURI).length > 0 ? string.concat(baseURI, tokenId.toString()) : \"\" */\n    tag_293:\n        /* \"@openzeppelin/contracts/token/ERC721/ERC721.sol\":2843:2925  return bytes(baseURI).length > 0 ? string.concat(baseURI, tokenId.toString()) : \"\" */\n      swap2\n      pop\n      pop\n        /* \"@openzeppelin/contracts/token/ERC721/ERC721.sol\":2677:2932  function tokenURI(uint256 tokenId) public view virtual returns (string memory) {... */\n      swap2\n      swap1\n      pop\n      jump\t// out\n        /* \"contracts/ERC720.sol\":484:515  uint256 public maxSupply = 2000 */\n    tag_158:\n      sload(0x0c)\n      dup2\n      jump\t// out\n        /* \"@openzeppelin/contracts/token/ERC721/ERC721.sol\":3928:4081  function isApprovedForAll(address owner, address operator) public view virtual returns (bool) {... */\n    tag_164:\n        /* \"@openzeppelin/contracts/token/ERC721/ERC721.sol\":4016:4020  bool */\n      0x00\n        /* \"@openzeppelin/contracts/token/ERC721/ERC721.sol\":4039:4057  _operatorApprovals */\n      0x05\n        /* \"@openzeppelin/contracts/token/ERC721/ERC721.sol\":4039:4064  _operatorApprovals[owner] */\n      0x00\n        /* \"@openzeppelin/contracts/token/ERC721/ERC721.sol\":4058:4063  owner */\n      dup5\n        /* \"@openzeppelin/contracts/token/ERC721/ERC721.sol\":4039:4064  _operatorApprovals[owner] */\n      0xffffffffffffffffffffffffffffffffffffffff\n      and\n      0xffffffffffffffffffffffffffffffffffffffff\n      and\n      dup2\n      mstore\n      0x20\n      add\n      swap1\n      dup2\n      mstore\n      0x20\n      add\n      0x00\n      keccak256\n        /* \"@openzeppelin/contracts/token/ERC721/ERC721.sol\":4039:4074  _operatorApprovals[owner][operator] */\n      0x00\n        /* \"@openzeppelin/contracts/token/ERC721/ERC721.sol\":4065:4073  operator */\n      dup4\n        /* \"@openzeppelin/contracts/token/ERC721/ERC721.sol\":4039:4074  _operatorApprovals[owner][operator] */\n      0xffffffffffffffffffffffffffffffffffffffff\n      and\n      0xffffffffffffffffffffffffffffffffffffffff\n      and\n      dup2\n      mstore\n      0x20\n      add\n      swap1\n      dup2\n      mstore\n      0x20\n      add\n      0x00\n      keccak256\n      0x00\n      swap1\n      sload\n      swap1\n      0x0100\n      exp\n      swap1\n      div\n      0xff\n      and\n        /* \"@openzeppelin/contracts/token/ERC721/ERC721.sol\":4032:4074  return _operatorApprovals[owner][operator] */\n      swap1\n      pop\n        /* \"@openzeppelin/contracts/token/ERC721/ERC721.sol\":3928:4081  function isApprovedForAll(address owner, address operator) public view virtual returns (bool) {... */\n      swap3\n      swap2\n      pop\n      pop\n      jump\t// out\n        /* \"@openzeppelin/contracts/access/Ownable.sol\":2543:2758  function transferOwnership(address newOwner) public virtual onlyOwner {... */\n    tag_169:\n        /* \"@openzeppelin/contracts/access/Ownable.sol\":1531:1544  _checkOwner() */\n      tag_300\n        /* \"@openzeppelin/contracts/access/Ownable.sol\":1531:1542  _checkOwner */\n      tag_221\n        /* \"@openzeppelin/contracts/access/Ownable.sol\":1531:1544  _checkOwner() */\n      jump\t// in\n    tag_300:\n        /* \"@openzeppelin/contracts/access/Ownable.sol\":2647:2648  0 */\n      0x00\n        /* \"@openzeppelin/contracts/access/Ownable.sol\":2627:2649  newOwner == address(0) */\n      0xffffffffffffffffffffffffffffffffffffffff\n      and\n        /* \"@openzeppelin/contracts/access/Ownable.sol\":2627:2635  newOwner */\n      dup2\n        /* \"@openzeppelin/contracts/access/Ownable.sol\":2627:2649  newOwner == address(0) */\n      0xffffffffffffffffffffffffffffffffffffffff\n      and\n      sub\n        /* \"@openzeppelin/contracts/access/Ownable.sol\":2623:2714  if (newOwner == address(0)) {... */\n      tag_302\n      jumpi\n        /* \"@openzeppelin/contracts/access/Ownable.sol\":2700:2701  0 */\n      0x00\n        /* \"@openzeppelin/contracts/access/Ownable.sol\":2672:2703  OwnableInvalidOwner(address(0)) */\n      mload(0x40)\n      0x1e4fbdf700000000000000000000000000000000000000000000000000000000\n      dup2\n      mstore\n      0x04\n      add\n      tag_303\n      swap2\n      swap1\n      tag_56\n      jump\t// in\n    tag_303:\n      mload(0x40)\n      dup1\n      swap2\n      sub\n      swap1\n      revert\n        /* \"@openzeppelin/contracts/access/Ownable.sol\":2623:2714  if (newOwner == address(0)) {... */\n    tag_302:\n        /* \"@openzeppelin/contracts/access/Ownable.sol\":2723:2751  _transferOwnership(newOwner) */\n      tag_304\n        /* \"@openzeppelin/contracts/access/Ownable.sol\":2742:2750  newOwner */\n      dup2\n        /* \"@openzeppelin/contracts/access/Ownable.sol\":2723:2741  _transferOwnership */\n      tag_267\n        /* \"@openzeppelin/contracts/access/Ownable.sol\":2723:2751  _transferOwnership(newOwner) */\n      jump\t// in\n    tag_304:\n        /* \"@openzeppelin/contracts/access/Ownable.sol\":2543:2758  function transferOwnership(address newOwner) public virtual onlyOwner {... */\n      pop\n      jump\t// out\n        /* \"@openzeppelin/contracts/token/ERC721/extensions/ERC721Enumerable.sol\":1435:1657  function supportsInterface(bytes4 interfaceId) public view virtual override(IERC165, ERC721) returns (bool) {... */\n    tag_172:\n        /* \"@openzeppelin/contracts/token/ERC721/extensions/ERC721Enumerable.sol\":1537:1541  bool */\n      0x00\n        /* \"@openzeppelin/contracts/token/ERC721/extensions/ERC721Enumerable.sol\":1575:1610  type(IERC721Enumerable).interfaceId */\n      0x780e9d6300000000000000000000000000000000000000000000000000000000\n        /* \"@openzeppelin/contracts/token/ERC721/extensions/ERC721Enumerable.sol\":1560:1610  interfaceId == type(IERC721Enumerable).interfaceId */\n      not(0xffffffffffffffffffffffffffffffffffffffffffffffffffffffff)\n      and\n        /* \"@openzeppelin/contracts/token/ERC721/extensions/ERC721Enumerable.sol\":1560:1571  interfaceId */\n      dup3\n        /* \"@openzeppelin/contracts/token/ERC721/extensions/ERC721Enumerable.sol\":1560:1610  interfaceId == type(IERC721Enumerable).interfaceId */\n      not(0xffffffffffffffffffffffffffffffffffffffffffffffffffffffff)\n      and\n      eq\n        /* \"@openzeppelin/contracts/token/ERC721/extensions/ERC721Enumerable.sol\":1560:1650  interfaceId == type(IERC721Enumerable).interfaceId || super.supportsInterface(interfaceId) */\n      dup1\n      tag_306\n      jumpi\n      pop\n        /* \"@openzeppelin/contracts/token/ERC721/extensions/ERC721Enumerable.sol\":1614:1650  super.supportsInterface(interfaceId) */\n      tag_307\n        /* \"@openzeppelin/contracts/token/ERC721/extensions/ERC721Enumerable.sol\":1638:1649  interfaceId */\n      dup3\n        /* \"@openzeppelin/contracts/token/ERC721/extensions/ERC721Enumerable.sol\":1614:1637  super.supportsInterface */\n      tag_308\n        /* \"@openzeppelin/contracts/token/ERC721/extensions/ERC721Enumerable.sol\":1614:1650  super.supportsInterface(interfaceId) */\n      jump\t// in\n    tag_307:\n        /* \"@openzeppelin/contracts/token/ERC721/extensions/ERC721Enumerable.sol\":1560:1650  interfaceId == type(IERC721Enumerable).interfaceId || super.supportsInterface(interfaceId) */\n    tag_306:\n        /* \"@openzeppelin/contracts/token/ERC721/extensions/ERC721Enumerable.sol\":1553:1650  return interfaceId == type(IERC721Enumerable).interfaceId || super.supportsInterface(interfaceId) */\n      swap1\n      pop\n        /* \"@openzeppelin/contracts/token/ERC721/extensions/ERC721Enumerable.sol\":1435:1657  function supportsInterface(bytes4 interfaceId) public view virtual override(IERC165, ERC721) returns (bool) {... */\n      swap2\n      swap1\n      pop\n      jump\t// out\n        /* \"@openzeppelin/contracts/token/ERC721/ERC721.sol\":16138:16379  function _requireOwned(uint256 tokenId) internal view returns (address) {... */\n    tag_182:\n        /* \"@openzeppelin/contracts/token/ERC721/ERC721.sol\":16201:16208  address */\n      0x00\n        /* \"@openzeppelin/contracts/token/ERC721/ERC721.sol\":16220:16233  address owner */\n      dup1\n        /* \"@openzeppelin/contracts/token/ERC721/ERC721.sol\":16236:16253  _ownerOf(tokenId) */\n      tag_310\n        /* \"@openzeppelin/contracts/token/ERC721/ERC721.sol\":16245:16252  tokenId */\n      dup4\n        /* \"@openzeppelin/contracts/token/ERC721/ERC721.sol\":16236:16244  _ownerOf */\n      tag_311\n        /* \"@openzeppelin/contracts/token/ERC721/ERC721.sol\":16236:16253  _ownerOf(tokenId) */\n      jump\t// in\n    tag_310:\n        /* \"@openzeppelin/contracts/token/ERC721/ERC721.sol\":16220:16253  address owner = _ownerOf(tokenId) */\n      swap1\n      pop\n        /* \"@openzeppelin/contracts/token/ERC721/ERC721.sol\":16284:16285  0 */\n      0x00\n        /* \"@openzeppelin/contracts/token/ERC721/ERC721.sol\":16267:16286  owner == address(0) */\n      0xffffffffffffffffffffffffffffffffffffffff\n      and\n        /* \"@openzeppelin/contracts/token/ERC721/ERC721.sol\":16267:16272  owner */\n      dup2\n        /* \"@openzeppelin/contracts/token/ERC721/ERC721.sol\":16267:16286  owner == address(0) */\n      0xffffffffffffffffffffffffffffffffffffffff\n      and\n      sub\n        /* \"@openzeppelin/contracts/token/ERC721/ERC721.sol\":16263:16351  if (owner == address(0)) {... */\n      tag_312\n      jumpi\n        /* \"@openzeppelin/contracts/token/ERC721/ERC721.sol\":16332:16339  tokenId */\n      dup3\n        /* \"@openzeppelin/contracts/token/ERC721/ERC721.sol\":16309:16340  ERC721NonexistentToken(tokenId) */\n      mload(0x40)\n      0x7e27328900000000000000000000000000000000000000000000000000000000\n      dup2\n      mstore\n      0x04\n      add\n      tag_313\n      swap2\n      swap1\n      tag_68\n      jump\t// in\n    tag_313:\n      mload(0x40)\n      dup1\n      swap2\n      sub\n      swap1\n      revert\n        /* \"@openzeppelin/contracts/token/ERC721/ERC721.sol\":16263:16351  if (owner == address(0)) {... */\n    tag_312:\n        /* \"@openzeppelin/contracts/token/ERC721/ERC721.sol\":16367:16372  owner */\n      dup1\n        /* \"@openzeppelin/contracts/token/ERC721/ERC721.sol\":16360:16372  return owner */\n      swap2\n      pop\n      pop\n        /* \"@openzeppelin/contracts/token/ERC721/ERC721.sol\":16138:16379  function _requireOwned(uint256 tokenId) internal view returns (address) {... */\n      swap2\n      swap1\n      pop\n      jump\t// out\n        /* \"@openzeppelin/contracts/token/ERC721/ERC721.sol\":5938:6065  function _getApproved(uint256 tokenId) internal view virtual returns (address) {... */\n    tag_184:\n        /* \"@openzeppelin/contracts/token/ERC721/ERC721.sol\":6008:6015  address */\n      0x00\n        /* \"@openzeppelin/contracts/token/ERC721/ERC721.sol\":6034:6049  _tokenApprovals */\n      0x04\n        /* \"@openzeppelin/contracts/token/ERC721/ERC721.sol\":6034:6058  _tokenApprovals[tokenId] */\n      0x00\n        /* \"@openzeppelin/contracts/token/ERC721/ERC721.sol\":6050:6057  tokenId */\n      dup4\n        /* \"@openzeppelin/contracts/token/ERC721/ERC721.sol\":6034:6058  _tokenApprovals[tokenId] */\n      dup2\n      mstore\n      0x20\n      add\n      swap1\n      dup2\n      mstore\n      0x20\n      add\n      0x00\n      keccak256\n      0x00\n      swap1\n      sload\n      swap1\n      0x0100\n      exp\n      swap1\n      div\n      0xffffffffffffffffffffffffffffffffffffffff\n      and\n        /* \"@openzeppelin/contracts/token/ERC721/ERC721.sol\":6027:6058  return _tokenApprovals[tokenId] */\n      swap1\n      pop\n        /* \"@openzeppelin/contracts/token/ERC721/ERC721.sol\":5938:6065  function _getApproved(uint256 tokenId) internal view virtual returns (address) {... */\n      swap2\n      swap1\n      pop\n      jump\t// out\n        /* \"@openzeppelin/contracts/utils/Context.sol\":656:752  function _msgSender() internal view virtual returns (address) {... */\n    tag_188:\n        /* \"@openzeppelin/contracts/utils/Context.sol\":709:716  address */\n      0x00\n        /* \"@openzeppelin/contracts/utils/Context.sol\":735:745  msg.sender */\n      caller\n        /* \"@openzeppelin/contracts/utils/Context.sol\":728:745  return msg.sender */\n      swap1\n      pop\n        /* \"@openzeppelin/contracts/utils/Context.sol\":656:752  function _msgSender() internal view virtual returns (address) {... */\n      swap1\n      jump\t// out\n        /* \"@openzeppelin/contracts/token/ERC721/ERC721.sol\":14418:14538  function _approve(address to, uint256 tokenId, address auth) internal {... */\n    tag_189:\n        /* \"@openzeppelin/contracts/token/ERC721/ERC721.sol\":14498:14531  _approve(to, tokenId, auth, true) */\n      tag_317\n        /* \"@openzeppelin/contracts/token/ERC721/ERC721.sol\":14507:14509  to */\n      dup4\n        /* \"@openzeppelin/contracts/token/ERC721/ERC721.sol\":14511:14518  tokenId */\n      dup4\n        /* \"@openzeppelin/contracts/token/ERC721/ERC721.sol\":14520:14524  auth */\n      dup4\n        /* \"@openzeppelin/contracts/token/ERC721/ERC721.sol\":14526:14530  true */\n      0x01\n        /* \"@openzeppelin/contracts/token/ERC721/ERC721.sol\":14498:14506  _approve */\n      tag_318\n        /* \"@openzeppelin/contracts/token/ERC721/ERC721.sol\":14498:14531  _approve(to, tokenId, auth, true) */\n      jump\t// in\n    tag_317:\n        /* \"@openzeppelin/contracts/token/ERC721/ERC721.sol\":14418:14538  function _approve(address to, uint256 tokenId, address auth) internal {... */\n      pop\n      pop\n      pop\n      jump\t// out\n        /* \"contracts/ERC720.sol\":1858:2042  function internalMint() internal  {... */\n    tag_201:\n        /* \"contracts/ERC720.sol\":1926:1935  maxSupply */\n      sload(0x0c)\n        /* \"contracts/ERC720.sol\":1910:1923  totalSupply() */\n      tag_320\n        /* \"contracts/ERC720.sol\":1910:1921  totalSupply */\n      tag_66\n        /* \"contracts/ERC720.sol\":1910:1923  totalSupply() */\n      jump\t// in\n    tag_320:\n        /* \"contracts/ERC720.sol\":1910:1935  totalSupply() < maxSupply */\n      lt\n        /* \"contracts/ERC720.sol\":1902:1953  require(totalSupply() < maxSupply, \"We Sold Out!!\") */\n      tag_321\n      jumpi\n      mload(0x40)\n      0x08c379a000000000000000000000000000000000000000000000000000000000\n      dup2\n      mstore\n      0x04\n      add\n      tag_322\n      swap1\n      tag_323\n      jump\t// in\n    tag_322:\n      mload(0x40)\n      dup1\n      swap2\n      sub\n      swap1\n      revert\n    tag_321:\n        /* \"contracts/ERC720.sol\":1963:1978  uint256 tokenId */\n      0x00\n        /* \"contracts/ERC720.sol\":1981:1993  _nextTokenId */\n      0x0b\n      0x00\n        /* \"contracts/ERC720.sol\":1981:1995  _nextTokenId++ */\n      dup2\n      sload\n      dup1\n      swap3\n      swap2\n      swap1\n      tag_324\n      swap1\n      tag_325\n      jump\t// in\n    tag_324:\n      swap2\n      swap1\n      pop\n      sstore\n        /* \"contracts/ERC720.sol\":1963:1995  uint256 tokenId = _nextTokenId++ */\n      swap1\n      pop\n        /* \"contracts/ERC720.sol\":2005:2035  _safeMint(msg.sender, tokenId) */\n      tag_326\n        /* \"contracts/ERC720.sol\":2015:2025  msg.sender */\n      caller\n        /* \"contracts/ERC720.sol\":2027:2034  tokenId */\n      dup3\n        /* \"contracts/ERC720.sol\":2005:2014  _safeMint */\n      tag_327\n        /* \"contracts/ERC720.sol\":2005:2035  _safeMint(msg.sender, tokenId) */\n      jump\t// in\n    tag_326:\n        /* \"contracts/ERC720.sol\":1892:2042  {... */\n      pop\n        /* \"contracts/ERC720.sol\":1858:2042  function internalMint() internal  {... */\n      jump\t// out\n        /* \"contracts/ERC720.sol\":2244:2496  function _update(... */\n    tag_208:\n        /* \"contracts/ERC720.sol\":2427:2434  address */\n      0x00\n        /* \"contracts/ERC720.sol\":2457:2489  super._update(to, tokenId, auth) */\n      tag_329\n        /* \"contracts/ERC720.sol\":2471:2473  to */\n      dup5\n        /* \"contracts/ERC720.sol\":2475:2482  tokenId */\n      dup5\n        /* \"contracts/ERC720.sol\":2484:2488  auth */\n      dup5\n        /* \"contracts/ERC720.sol\":2457:2470  super._update */\n      tag_330\n        /* \"contracts/ERC720.sol\":2457:2489  super._update(to, tokenId, auth) */\n      jump\t// in\n    tag_329:\n        /* \"contracts/ERC720.sol\":2450:2489  return super._update(to, tokenId, auth) */\n      swap1\n      pop\n        /* \"contracts/ERC720.sol\":2244:2496  function _update(... */\n      swap4\n      swap3\n      pop\n      pop\n      pop\n      jump\t// out\n        /* \"@openzeppelin/contracts/access/Ownable.sol\":1796:1958  function _checkOwner() internal view virtual {... */\n    tag_221:\n        /* \"@openzeppelin/contracts/access/Ownable.sol\":1866:1878  _msgSender() */\n      tag_332\n        /* \"@openzeppelin/contracts/access/Ownable.sol\":1866:1876  _msgSender */\n      tag_188\n        /* \"@openzeppelin/contracts/access/Ownable.sol\":1866:1878  _msgSender() */\n      jump\t// in\n    tag_332:\n        /* \"@openzeppelin/contracts/access/Ownable.sol\":1855:1878  owner() != _msgSender() */\n      0xffffffffffffffffffffffffffffffffffffffff\n      and\n        /* \"@openzeppelin/contracts/access/Ownable.sol\":1855:1862  owner() */\n      tag_333\n        /* \"@openzeppelin/contracts/access/Ownable.sol\":1855:1860  owner */\n      tag_135\n        /* \"@openzeppelin/contracts/access/Ownable.sol\":1855:1862  owner() */\n      jump\t// in\n    tag_333:\n        /* \"@openzeppelin/contracts/access/Ownable.sol\":1855:1878  owner() != _msgSender() */\n      0xffffffffffffffffffffffffffffffffffffffff\n      and\n      eq\n        /* \"@openzeppelin/contracts/access/Ownable.sol\":1851:1952  if (owner() != _msgSender()) {... */\n      tag_334\n      jumpi\n        /* \"@openzeppelin/contracts/access/Ownable.sol\":1928:1940  _msgSender() */\n      tag_335\n        /* \"@openzeppelin/contracts/access/Ownable.sol\":1928:1938  _msgSender */\n      tag_188\n        /* \"@openzeppelin/contracts/access/Ownable.sol\":1928:1940  _msgSender() */\n      jump\t// in\n    tag_335:\n        /* \"@openzeppelin/contracts/access/Ownable.sol\":1901:1941  OwnableUnauthorizedAccount(_msgSender()) */\n      mload(0x40)\n      0x118cdaa700000000000000000000000000000000000000000000000000000000\n      dup2\n      mstore\n      0x04\n      add\n      tag_336\n      swap2\n      swap1\n      tag_56\n      jump\t// in\n    tag_336:\n      mload(0x40)\n      dup1\n      swap2\n      sub\n      swap1\n      revert\n        /* \"@openzeppelin/contracts/access/Ownable.sol\":1851:1952  if (owner() != _msgSender()) {... */\n    tag_334:\n        /* \"@openzeppelin/contracts/access/Ownable.sol\":1796:1958  function _checkOwner() internal view virtual {... */\n      jump\t// out\n        /* \"@openzeppelin/contracts/utils/Pausable.sol\":2710:2827  function _unpause() internal virtual whenPaused {... */\n    tag_232:\n        /* \"@openzeppelin/contracts/utils/Pausable.sol\":1721:1737  _requirePaused() */\n      tag_338\n        /* \"@openzeppelin/contracts/utils/Pausable.sol\":1721:1735  _requirePaused */\n      tag_339\n        /* \"@openzeppelin/contracts/utils/Pausable.sol\":1721:1737  _requirePaused() */\n      jump\t// in\n    tag_338:\n        /* \"@openzeppelin/contracts/utils/Pausable.sol\":2778:2783  false */\n      0x00\n        /* \"@openzeppelin/contracts/utils/Pausable.sol\":2768:2775  _paused */\n      0x0a\n      0x00\n        /* \"@openzeppelin/contracts/utils/Pausable.sol\":2768:2783  _paused = false */\n      0x0100\n      exp\n      dup2\n      sload\n      dup2\n      0xff\n      mul\n      not\n      and\n      swap1\n      dup4\n      iszero\n      iszero\n      mul\n      or\n      swap1\n      sstore\n      pop\n        /* \"@openzeppelin/contracts/utils/Pausable.sol\":2798:2820  Unpaused(_msgSender()) */\n      0x5db9ee0a495bf2e6ff9c91a7834c1ba4fdd244a5e8aa4e537bd38aeae4b073aa\n        /* \"@openzeppelin/contracts/utils/Pausable.sol\":2807:2819  _msgSender() */\n      tag_341\n        /* \"@openzeppelin/contracts/utils/Pausable.sol\":2807:2817  _msgSender */\n      tag_188\n        /* \"@openzeppelin/contracts/utils/Pausable.sol\":2807:2819  _msgSender() */\n      jump\t// in\n    tag_341:\n        /* \"@openzeppelin/contracts/utils/Pausable.sol\":2798:2820  Unpaused(_msgSender()) */\n      mload(0x40)\n      tag_342\n      swap2\n      swap1\n      tag_56\n      jump\t// in\n    tag_342:\n      mload(0x40)\n      dup1\n      swap2\n      sub\n      swap1\n      log1\n        /* \"@openzeppelin/contracts/utils/Pausable.sol\":2710:2827  function _unpause() internal virtual whenPaused {... */\n      jump\t// out\n        /* \"@openzeppelin/contracts/access/Ownable.sol\":2912:3099  function _transferOwnership(address newOwner) internal virtual {... */\n    tag_267:\n        /* \"@openzeppelin/contracts/access/Ownable.sol\":2985:3001  address oldOwner */\n      0x00\n        /* \"@openzeppelin/contracts/access/Ownable.sol\":3004:3010  _owner */\n      0x0a\n      0x01\n      swap1\n      sload\n      swap1\n      0x0100\n      exp\n      swap1\n      div\n      0xffffffffffffffffffffffffffffffffffffffff\n      and\n        /* \"@openzeppelin/contracts/access/Ownable.sol\":2985:3010  address oldOwner = _owner */\n      swap1\n      pop\n        /* \"@openzeppelin/contracts/access/Ownable.sol\":3029:3037  newOwner */\n      dup2\n        /* \"@openzeppelin/contracts/access/Ownable.sol\":3020:3026  _owner */\n      0x0a\n      0x01\n        /* \"@openzeppelin/contracts/access/Ownable.sol\":3020:3037  _owner = newOwner */\n      0x0100\n      exp\n      dup2\n      sload\n      dup2\n      0xffffffffffffffffffffffffffffffffffffffff\n      mul\n      not\n      and\n      swap1\n      dup4\n      0xffffffffffffffffffffffffffffffffffffffff\n      and\n      mul\n      or\n      swap1\n      sstore\n      pop\n        /* \"@openzeppelin/contracts/access/Ownable.sol\":3083:3091  newOwner */\n      dup2\n        /* \"@openzeppelin/contracts/access/Ownable.sol\":3052:3092  OwnershipTransferred(oldOwner, newOwner) */\n      0xffffffffffffffffffffffffffffffffffffffff\n      and\n        /* \"@openzeppelin/contracts/access/Ownable.sol\":3073:3081  oldOwner */\n      dup2\n        /* \"@openzeppelin/contracts/access/Ownable.sol\":3052:3092  OwnershipTransferred(oldOwner, newOwner) */\n      0xffffffffffffffffffffffffffffffffffffffff\n      and\n      0x8be0079c531659141344cd1fd0a4f28419497f9722a3daafe3b4186f6b6457e0\n      mload(0x40)\n      mload(0x40)\n      dup1\n      swap2\n      sub\n      swap1\n      log3\n        /* \"@openzeppelin/contracts/access/Ownable.sol\":2975:3099  {... */\n      pop\n        /* \"@openzeppelin/contracts/access/Ownable.sol\":2912:3099  function _transferOwnership(address newOwner) internal virtual {... */\n      pop\n      jump\t// out\n        /* \"@openzeppelin/contracts/utils/Pausable.sol\":2463:2578  function _pause() internal virtual whenNotPaused {... */\n    tag_272:\n        /* \"@openzeppelin/contracts/utils/Pausable.sol\":1474:1493  _requireNotPaused() */\n      tag_345\n        /* \"@openzeppelin/contracts/utils/Pausable.sol\":1474:1491  _requireNotPaused */\n      tag_346\n        /* \"@openzeppelin/contracts/utils/Pausable.sol\":1474:1493  _requireNotPaused() */\n      jump\t// in\n    tag_345:\n        /* \"@openzeppelin/contracts/utils/Pausable.sol\":2532:2536  true */\n      0x01\n        /* \"@openzeppelin/contracts/utils/Pausable.sol\":2522:2529  _paused */\n      0x0a\n      0x00\n        /* \"@openzeppelin/contracts/utils/Pausable.sol\":2522:2536  _paused = true */\n      0x0100\n      exp\n      dup2\n      sload\n      dup2\n      0xff\n      mul\n      not\n      and\n      swap1\n      dup4\n      iszero\n      iszero\n      mul\n      or\n      swap1\n      sstore\n      pop\n        /* \"@openzeppelin/contracts/utils/Pausable.sol\":2551:2571  Paused(_msgSender()) */\n      0x62e78cea01bee320cd4e420270b5ea74000d11b0c9f74754ebdbfc544b05a258\n        /* \"@openzeppelin/contracts/utils/Pausable.sol\":2558:2570  _msgSender() */\n      tag_348\n        /* \"@openzeppelin/contracts/utils/Pausable.sol\":2558:2568  _msgSender */\n      tag_188\n        /* \"@openzeppelin/contracts/utils/Pausable.sol\":2558:2570  _msgSender() */\n      jump\t// in\n    tag_348:\n        /* \"@openzeppelin/contracts/utils/Pausable.sol\":2551:2571  Paused(_msgSender()) */\n      mload(0x40)\n      tag_349\n      swap2\n      swap1\n      tag_56\n      jump\t// in\n    tag_349:\n      mload(0x40)\n      dup1\n      swap2\n      sub\n      swap1\n      log1\n        /* \"@openzeppelin/contracts/utils/Pausable.sol\":2463:2578  function _pause() internal virtual whenNotPaused {... */\n      jump\t// out\n        /* \"@openzeppelin/contracts/token/ERC721/ERC721.sol\":15591:15903  function _setApprovalForAll(address owner, address operator, bool approved) internal virtual {... */\n    tag_283:\n        /* \"@openzeppelin/contracts/token/ERC721/ERC721.sol\":15718:15719  0 */\n      0x00\n        /* \"@openzeppelin/contracts/token/ERC721/ERC721.sol\":15698:15720  operator == address(0) */\n      0xffffffffffffffffffffffffffffffffffffffff\n      and\n        /* \"@openzeppelin/contracts/token/ERC721/ERC721.sol\":15698:15706  operator */\n      dup3\n        /* \"@openzeppelin/contracts/token/ERC721/ERC721.sol\":15698:15720  operator == address(0) */\n      0xffffffffffffffffffffffffffffffffffffffff\n      and\n      sub\n        /* \"@openzeppelin/contracts/token/ERC721/ERC721.sol\":15694:15785  if (operator == address(0)) {... */\n      tag_351\n      jumpi\n        /* \"@openzeppelin/contracts/token/ERC721/ERC721.sol\":15765:15773  operator */\n      dup2\n        /* \"@openzeppelin/contracts/token/ERC721/ERC721.sol\":15743:15774  ERC721InvalidOperator(operator) */\n      mload(0x40)\n      0x5b08ba1800000000000000000000000000000000000000000000000000000000\n      dup2\n      mstore\n      0x04\n      add\n      tag_352\n      swap2\n      swap1\n      tag_56\n      jump\t// in\n    tag_352:\n      mload(0x40)\n      dup1\n      swap2\n      sub\n      swap1\n      revert\n        /* \"@openzeppelin/contracts/token/ERC721/ERC721.sol\":15694:15785  if (operator == address(0)) {... */\n    tag_351:\n        /* \"@openzeppelin/contracts/token/ERC721/ERC721.sol\":15832:15840  approved */\n      dup1\n        /* \"@openzeppelin/contracts/token/ERC721/ERC721.sol\":15794:15812  _operatorApprovals */\n      0x05\n        /* \"@openzeppelin/contracts/token/ERC721/ERC721.sol\":15794:15819  _operatorApprovals[owner] */\n      0x00\n        /* \"@openzeppelin/contracts/token/ERC721/ERC721.sol\":15813:15818  owner */\n      dup6\n        /* \"@openzeppelin/contracts/token/ERC721/ERC721.sol\":15794:15819  _operatorApprovals[owner] */\n      0xffffffffffffffffffffffffffffffffffffffff\n      and\n      0xffffffffffffffffffffffffffffffffffffffff\n      and\n      dup2\n      mstore\n      0x20\n      add\n      swap1\n      dup2\n      mstore\n      0x20\n      add\n      0x00\n      keccak256\n        /* \"@openzeppelin/contracts/token/ERC721/ERC721.sol\":15794:15829  _operatorApprovals[owner][operator] */\n      0x00\n        /* \"@openzeppelin/contracts/token/ERC721/ERC721.sol\":15820:15828  operator */\n      dup5\n        /* \"@openzeppelin/contracts/token/ERC721/ERC721.sol\":15794:15829  _operatorApprovals[owner][operator] */\n      0xffffffffffffffffffffffffffffffffffffffff\n      and\n      0xffffffffffffffffffffffffffffffffffffffff\n      and\n      dup2\n      mstore\n      0x20\n      add\n      swap1\n      dup2\n      mstore\n      0x20\n      add\n      0x00\n      keccak256\n      0x00\n        /* \"@openzeppelin/contracts/token/ERC721/ERC721.sol\":15794:15840  _operatorApprovals[owner][operator] = approved */\n      0x0100\n      exp\n      dup2\n      sload\n      dup2\n      0xff\n      mul\n      not\n      and\n      swap1\n      dup4\n      iszero\n      iszero\n      mul\n      or\n      swap1\n      sstore\n      pop\n        /* \"@openzeppelin/contracts/token/ERC721/ERC721.sol\":15877:15885  operator */\n      dup2\n        /* \"@openzeppelin/contracts/token/ERC721/ERC721.sol\":15855:15896  ApprovalForAll(owner, operator, approved) */\n      0xffffffffffffffffffffffffffffffffffffffff\n      and\n        /* \"@openzeppelin/contracts/token/ERC721/ERC721.sol\":15870:15875  owner */\n      dup4\n        /* \"@openzeppelin/contracts/token/ERC721/ERC721.sol\":15855:15896  ApprovalForAll(owner, operator, approved) */\n      0xffffffffffffffffffffffffffffffffffffffff\n      and\n      0x17307eab39ab6107e8899845ad3d59bd9653f200f220920489ca2b5937696c31\n        /* \"@openzeppelin/contracts/token/ERC721/ERC721.sol\":15887:15895  approved */\n      dup4\n        /* \"@openzeppelin/contracts/token/ERC721/ERC721.sol\":15855:15896  ApprovalForAll(owner, operator, approved) */\n      mload(0x40)\n      tag_353\n      swap2\n      swap1\n      tag_44\n      jump\t// in\n    tag_353:\n      mload(0x40)\n      dup1\n      swap2\n      sub\n      swap1\n      log3\n        /* \"@openzeppelin/contracts/token/ERC721/ERC721.sol\":15591:15903  function _setApprovalForAll(address owner, address operator, bool approved) internal virtual {... */\n      pop\n      pop\n      pop\n      jump\t// out\n        /* \"@openzeppelin/contracts/token/ERC721/ERC721.sol\":16918:17700  function _checkOnERC721Received(address from, address to, uint256 tokenId, bytes memory data) private {... */\n    tag_287:\n        /* \"@openzeppelin/contracts/token/ERC721/ERC721.sol\":17051:17052  0 */\n      0x00\n        /* \"@openzeppelin/contracts/token/ERC721/ERC721.sol\":17034:17036  to */\n      dup4\n        /* \"@openzeppelin/contracts/token/ERC721/ERC721.sol\":17034:17048  to.code.length */\n      0xffffffffffffffffffffffffffffffffffffffff\n      and\n      extcodesize\n        /* \"@openzeppelin/contracts/token/ERC721/ERC721.sol\":17034:17052  to.code.length > 0 */\n      gt\n        /* \"@openzeppelin/contracts/token/ERC721/ERC721.sol\":17030:17694  if (to.code.length > 0) {... */\n      iszero\n      tag_355\n      jumpi\n        /* \"@openzeppelin/contracts/token/ERC721/ERC721.sol\":17088:17090  to */\n      dup3\n        /* \"@openzeppelin/contracts/token/ERC721/ERC721.sol\":17072:17108  IERC721Receiver(to).onERC721Received */\n      0xffffffffffffffffffffffffffffffffffffffff\n      and\n      0x150b7a02\n        /* \"@openzeppelin/contracts/token/ERC721/ERC721.sol\":17109:17121  _msgSender() */\n      tag_356\n        /* \"@openzeppelin/contracts/token/ERC721/ERC721.sol\":17109:17119  _msgSender */\n      tag_188\n        /* \"@openzeppelin/contracts/token/ERC721/ERC721.sol\":17109:17121  _msgSender() */\n      jump\t// in\n    tag_356:\n        /* \"@openzeppelin/contracts/token/ERC721/ERC721.sol\":17123:17127  from */\n      dup7\n        /* \"@openzeppelin/contracts/token/ERC721/ERC721.sol\":17129:17136  tokenId */\n      dup6\n        /* \"@openzeppelin/contracts/token/ERC721/ERC721.sol\":17138:17142  data */\n      dup6\n        /* \"@openzeppelin/contracts/token/ERC721/ERC721.sol\":17072:17143  IERC721Receiver(to).onERC721Received(_msgSender(), from, tokenId, data) */\n      mload(0x40)\n      dup6\n      0xffffffff\n      and\n      0xe0\n      shl\n      dup2\n      mstore\n      0x04\n      add\n      tag_357\n      swap5\n      swap4\n      swap3\n      swap2\n      swap1\n      tag_358\n      jump\t// in\n    tag_357:\n      0x20\n      mload(0x40)\n      dup1\n      dup4\n      sub\n      dup2\n      0x00\n      dup8\n      gas\n      call\n      swap3\n      pop\n      pop\n      pop\n      dup1\n      iszero\n      tag_359\n      jumpi\n      pop\n      mload(0x40)\n      returndatasize\n      not(0x1f)\n      0x1f\n      dup3\n      add\n      and\n      dup3\n      add\n      dup1\n      0x40\n      mstore\n      pop\n      dup2\n      add\n      swap1\n      tag_360\n      swap2\n      swap1\n      tag_361\n      jump\t// in\n    tag_360:\n      0x01\n    tag_359:\n        /* \"@openzeppelin/contracts/token/ERC721/ERC721.sol\":17068:17684  try IERC721Receiver(to).onERC721Received(_msgSender(), from, tokenId, data) returns (bytes4 retval) {... */\n      tag_362\n      jumpi\n      returndatasize\n      dup1\n      0x00\n      dup2\n      eq\n      tag_367\n      jumpi\n      mload(0x40)\n      swap2\n      pop\n      and(add(returndatasize, 0x3f), not(0x1f))\n      dup3\n      add\n      0x40\n      mstore\n      returndatasize\n      dup3\n      mstore\n      returndatasize\n      0x00\n      0x20\n      dup5\n      add\n      returndatacopy\n      jump(tag_366)\n    tag_367:\n      0x60\n      swap2\n      pop\n    tag_366:\n      pop\n        /* \"@openzeppelin/contracts/token/ERC721/ERC721.sol\":17398:17399  0 */\n      0x00\n        /* \"@openzeppelin/contracts/token/ERC721/ERC721.sol\":17381:17387  reason */\n      dup2\n        /* \"@openzeppelin/contracts/token/ERC721/ERC721.sol\":17381:17394  reason.length */\n      mload\n        /* \"@openzeppelin/contracts/token/ERC721/ERC721.sol\":17381:17399  reason.length == 0 */\n      sub\n        /* \"@openzeppelin/contracts/token/ERC721/ERC721.sol\":17377:17670  if (reason.length == 0) {... */\n      tag_368\n      jumpi\n        /* \"@openzeppelin/contracts/token/ERC721/ERC721.sol\":17452:17454  to */\n      dup4\n        /* \"@openzeppelin/contracts/token/ERC721/ERC721.sol\":17430:17455  ERC721InvalidReceiver(to) */\n      mload(0x40)\n      0x64a0ae9200000000000000000000000000000000000000000000000000000000\n      dup2\n      mstore\n      0x04\n      add\n      tag_369\n      swap2\n      swap1\n      tag_56\n      jump\t// in\n    tag_369:\n      mload(0x40)\n      dup1\n      swap2\n      sub\n      swap1\n      revert\n        /* \"@openzeppelin/contracts/token/ERC721/ERC721.sol\":17377:17670  if (reason.length == 0) {... */\n    tag_368:\n        /* \"@openzeppelin/contracts/token/ERC721/ERC721.sol\":17622:17628  reason */\n      dup1\n        /* \"@openzeppelin/contracts/token/ERC721/ERC721.sol\":17616:17629  mload(reason) */\n      mload\n        /* \"@openzeppelin/contracts/token/ERC721/ERC721.sol\":17607:17613  reason */\n      dup2\n        /* \"@openzeppelin/contracts/token/ERC721/ERC721.sol\":17603:17605  32 */\n      0x20\n        /* \"@openzeppelin/contracts/token/ERC721/ERC721.sol\":17599:17614  add(32, reason) */\n      add\n        /* \"@openzeppelin/contracts/token/ERC721/ERC721.sol\":17592:17630  revert(add(32, reason), mload(reason)) */\n      revert\n        /* \"@openzeppelin/contracts/token/ERC721/ERC721.sol\":17068:17684  try IERC721Receiver(to).onERC721Received(_msgSender(), from, tokenId, data) returns (bytes4 retval) {... */\n    tag_362:\n        /* \"@openzeppelin/contracts/token/ERC721/ERC721.sol\":17200:17241  IERC721Receiver.onERC721Received.selector */\n      shl(0xe0, 0x150b7a02)\n        /* \"@openzeppelin/contracts/token/ERC721/ERC721.sol\":17190:17241  retval != IERC721Receiver.onERC721Received.selector */\n      not(0xffffffffffffffffffffffffffffffffffffffffffffffffffffffff)\n      and\n        /* \"@openzeppelin/contracts/token/ERC721/ERC721.sol\":17190:17196  retval */\n      dup2\n        /* \"@openzeppelin/contracts/token/ERC721/ERC721.sol\":17190:17241  retval != IERC721Receiver.onERC721Received.selector */\n      not(0xffffffffffffffffffffffffffffffffffffffffffffffffffffffff)\n      and\n      eq\n        /* \"@openzeppelin/contracts/token/ERC721/ERC721.sol\":17186:17316  if (retval != IERC721Receiver.onERC721Received.selector) {... */\n      tag_372\n      jumpi\n        /* \"@openzeppelin/contracts/token/ERC721/ERC721.sol\":17294:17296  to */\n      dup4\n        /* \"@openzeppelin/contracts/token/ERC721/ERC721.sol\":17272:17297  ERC721InvalidReceiver(to) */\n      mload(0x40)\n      0x64a0ae9200000000000000000000000000000000000000000000000000000000\n      dup2\n      mstore\n      0x04\n      add\n      tag_373\n      swap2\n      swap1\n      tag_56\n      jump\t// in\n    tag_373:\n      mload(0x40)\n      dup1\n      swap2\n      sub\n      swap1\n      revert\n        /* \"@openzeppelin/contracts/token/ERC721/ERC721.sol\":17186:17316  if (retval != IERC721Receiver.onERC721Received.selector) {... */\n    tag_372:\n        /* \"@openzeppelin/contracts/token/ERC721/ERC721.sol\":17144:17330  returns (bytes4 retval) {... */\n      pop\n        /* \"@openzeppelin/contracts/token/ERC721/ERC721.sol\":17030:17694  if (to.code.length > 0) {... */\n    tag_355:\n        /* \"@openzeppelin/contracts/token/ERC721/ERC721.sol\":16918:17700  function _checkOnERC721Received(address from, address to, uint256 tokenId, bytes memory data) private {... */\n      pop\n      pop\n      pop\n      pop\n      jump\t// out\n        /* \"contracts/ERC720.sol\":706:853  function _baseURI() internal pure override returns (string memory) {... */\n    tag_291:\n        /* \"contracts/ERC720.sol\":758:771  string memory */\n      0x60\n        /* \"contracts/ERC720.sol\":783:846  return \"ipfs://QmbseRTJWSsLfhsiWwuB2R7EtN93TxfoaMz1S5FXtsFEUB/\" */\n      mload(0x40)\n      dup1\n      0x60\n      add\n      0x40\n      mstore\n      dup1\n      0x36\n      dup2\n      mstore\n      0x20\n      add\n      data_bad8c5b7513efa3484aff4751176e1559e99e0aac6100695fa19afecc4f7431d\n      0x36\n      swap2\n      codecopy\n      swap1\n      pop\n        /* \"contracts/ERC720.sol\":706:853  function _baseURI() internal pure override returns (string memory) {... */\n      swap1\n      jump\t// out\n        /* \"@openzeppelin/contracts/utils/Strings.sol\":637:1335  function toString(uint256 value) internal pure returns (string memory) {... */\n    tag_295:\n        /* \"@openzeppelin/contracts/utils/Strings.sol\":693:706  string memory */\n      0x60\n        /* \"@openzeppelin/contracts/utils/Strings.sol\":742:756  uint256 length */\n      0x00\n        /* \"@openzeppelin/contracts/utils/Strings.sol\":779:780  1 */\n      0x01\n        /* \"@openzeppelin/contracts/utils/Strings.sol\":759:776  Math.log10(value) */\n      tag_376\n        /* \"@openzeppelin/contracts/utils/Strings.sol\":770:775  value */\n      dup5\n        /* \"@openzeppelin/contracts/utils/Strings.sol\":759:769  Math.log10 */\n      tag_377\n        /* \"@openzeppelin/contracts/utils/Strings.sol\":759:776  Math.log10(value) */\n      jump\t// in\n    tag_376:\n        /* \"@openzeppelin/contracts/utils/Strings.sol\":759:780  Math.log10(value) + 1 */\n      add\n        /* \"@openzeppelin/contracts/utils/Strings.sol\":742:780  uint256 length = Math.log10(value) + 1 */\n      swap1\n      pop\n        /* \"@openzeppelin/contracts/utils/Strings.sol\":794:814  string memory buffer */\n      0x00\n        /* \"@openzeppelin/contracts/utils/Strings.sol\":828:834  length */\n      dup2\n        /* \"@openzeppelin/contracts/utils/Strings.sol\":817:835  new string(length) */\n      0xffffffffffffffff\n      dup2\n      gt\n      iszero\n      tag_378\n      jumpi\n      tag_379\n      tag_380\n      jump\t// in\n    tag_379:\n    tag_378:\n      mload(0x40)\n      swap1\n      dup1\n      dup3\n      mstore\n      dup1\n      0x1f\n      add\n      not(0x1f)\n      and\n      0x20\n      add\n      dup3\n      add\n      0x40\n      mstore\n      dup1\n      iszero\n      tag_381\n      jumpi\n      dup2\n      0x20\n      add\n      0x01\n      dup3\n      mul\n      dup1\n      calldatasize\n      dup4\n      calldatacopy\n      dup1\n      dup3\n      add\n      swap2\n      pop\n      pop\n      swap1\n      pop\n    tag_381:\n      pop\n        /* \"@openzeppelin/contracts/utils/Strings.sol\":794:835  string memory buffer = new string(length) */\n      swap1\n      pop\n        /* \"@openzeppelin/contracts/utils/Strings.sol\":849:860  uint256 ptr */\n      0x00\n        /* \"@openzeppelin/contracts/utils/Strings.sol\":975:981  length */\n      dup3\n        /* \"@openzeppelin/contracts/utils/Strings.sol\":971:973  32 */\n      0x20\n        /* \"@openzeppelin/contracts/utils/Strings.sol\":967:982  add(32, length) */\n      add\n        /* \"@openzeppelin/contracts/utils/Strings.sol\":959:965  buffer */\n      dup3\n        /* \"@openzeppelin/contracts/utils/Strings.sol\":955:983  add(buffer, add(32, length)) */\n      add\n        /* \"@openzeppelin/contracts/utils/Strings.sol\":948:983  ptr := add(buffer, add(32, length)) */\n      swap1\n      pop\n        /* \"@openzeppelin/contracts/utils/Strings.sol\":1010:1292  while (true) {... */\n    tag_382:\n        /* \"@openzeppelin/contracts/utils/Strings.sol\":1017:1021  true */\n      0x01\n        /* \"@openzeppelin/contracts/utils/Strings.sol\":1010:1292  while (true) {... */\n      iszero\n      tag_383\n      jumpi\n        /* \"@openzeppelin/contracts/utils/Strings.sol\":1041:1046  ptr-- */\n      dup1\n      dup1\n      0x01\n      swap1\n      sub\n      swap2\n      pop\n      pop\n        /* \"@openzeppelin/contracts/utils/Strings.sol\":1180:1190  HEX_DIGITS */\n      0x3031323334353637383961626364656600000000000000000000000000000000\n        /* \"@openzeppelin/contracts/utils/Strings.sol\":1175:1177  10 */\n      0x0a\n        /* \"@openzeppelin/contracts/utils/Strings.sol\":1168:1173  value */\n      dup7\n        /* \"@openzeppelin/contracts/utils/Strings.sol\":1164:1178  mod(value, 10) */\n      mod\n        /* \"@openzeppelin/contracts/utils/Strings.sol\":1159:1191  byte(mod(value, 10), HEX_DIGITS) */\n      byte\n        /* \"@openzeppelin/contracts/utils/Strings.sol\":1154:1157  ptr */\n      dup2\n        /* \"@openzeppelin/contracts/utils/Strings.sol\":1146:1192  mstore8(ptr, byte(mod(value, 10), HEX_DIGITS)) */\n      mstore8\n        /* \"@openzeppelin/contracts/utils/Strings.sol\":1236:1238  10 */\n      0x0a\n        /* \"@openzeppelin/contracts/utils/Strings.sol\":1227:1238  value /= 10 */\n      dup6\n      dup2\n      tag_384\n      jumpi\n      tag_385\n      tag_386\n      jump\t// in\n    tag_385:\n    tag_384:\n      div\n      swap5\n      pop\n        /* \"@openzeppelin/contracts/utils/Strings.sol\":1269:1270  0 */\n      0x00\n        /* \"@openzeppelin/contracts/utils/Strings.sol\":1260:1265  value */\n      dup6\n        /* \"@openzeppelin/contracts/utils/Strings.sol\":1260:1270  value == 0 */\n      sub\n        /* \"@openzeppelin/contracts/utils/Strings.sol\":1010:1292  while (true) {... */\n      tag_382\n        /* \"@openzeppelin/contracts/utils/Strings.sol\":1256:1277  if (value == 0) break */\n      jumpi\n        /* \"@openzeppelin/contracts/utils/Strings.sol\":1010:1292  while (true) {... */\n    tag_383:\n        /* \"@openzeppelin/contracts/utils/Strings.sol\":1312:1318  buffer */\n      dup2\n        /* \"@openzeppelin/contracts/utils/Strings.sol\":1305:1318  return buffer */\n      swap4\n      pop\n      pop\n      pop\n      pop\n        /* \"@openzeppelin/contracts/utils/Strings.sol\":637:1335  function toString(uint256 value) internal pure returns (string memory) {... */\n      swap2\n      swap1\n      pop\n      jump\t// out\n        /* \"@openzeppelin/contracts/token/ERC721/ERC721.sol\":1561:1861  function supportsInterface(bytes4 interfaceId) public view virtual override(ERC165, IERC165) returns (bool) {... */\n    tag_308:\n        /* \"@openzeppelin/contracts/token/ERC721/ERC721.sol\":1663:1667  bool */\n      0x00\n        /* \"@openzeppelin/contracts/token/ERC721/ERC721.sol\":1713:1738  type(IERC721).interfaceId */\n      0x80ac58cd00000000000000000000000000000000000000000000000000000000\n        /* \"@openzeppelin/contracts/token/ERC721/ERC721.sol\":1698:1738  interfaceId == type(IERC721).interfaceId */\n      not(0xffffffffffffffffffffffffffffffffffffffffffffffffffffffff)\n      and\n        /* \"@openzeppelin/contracts/token/ERC721/ERC721.sol\":1698:1709  interfaceId */\n      dup3\n        /* \"@openzeppelin/contracts/token/ERC721/ERC721.sol\":1698:1738  interfaceId == type(IERC721).interfaceId */\n      not(0xffffffffffffffffffffffffffffffffffffffffffffffffffffffff)\n      and\n      eq\n        /* \"@openzeppelin/contracts/token/ERC721/ERC721.sol\":1698:1802  interfaceId == type(IERC721).interfaceId ||... */\n      dup1\n      tag_389\n      jumpi\n      pop\n        /* \"@openzeppelin/contracts/token/ERC721/ERC721.sol\":1769:1802  type(IERC721Metadata).interfaceId */\n      0x5b5e139f00000000000000000000000000000000000000000000000000000000\n        /* \"@openzeppelin/contracts/token/ERC721/ERC721.sol\":1754:1802  interfaceId == type(IERC721Metadata).interfaceId */\n      not(0xffffffffffffffffffffffffffffffffffffffffffffffffffffffff)\n      and\n        /* \"@openzeppelin/contracts/token/ERC721/ERC721.sol\":1754:1765  interfaceId */\n      dup3\n        /* \"@openzeppelin/contracts/token/ERC721/ERC721.sol\":1754:1802  interfaceId == type(IERC721Metadata).interfaceId */\n      not(0xffffffffffffffffffffffffffffffffffffffffffffffffffffffff)\n      and\n      eq\n        /* \"@openzeppelin/contracts/token/ERC721/ERC721.sol\":1698:1802  interfaceId == type(IERC721).interfaceId ||... */\n    tag_389:\n        /* \"@openzeppelin/contracts/token/ERC721/ERC721.sol\":1698:1854  interfaceId == type(IERC721).interfaceId ||... */\n      dup1\n      tag_390\n      jumpi\n      pop\n        /* \"@openzeppelin/contracts/token/ERC721/ERC721.sol\":1818:1854  super.supportsInterface(interfaceId) */\n      tag_391\n        /* \"@openzeppelin/contracts/token/ERC721/ERC721.sol\":1842:1853  interfaceId */\n      dup3\n        /* \"@openzeppelin/contracts/token/ERC721/ERC721.sol\":1818:1841  super.supportsInterface */\n      tag_392\n        /* \"@openzeppelin/contracts/token/ERC721/ERC721.sol\":1818:1854  super.supportsInterface(interfaceId) */\n      jump\t// in\n    tag_391:\n        /* \"@openzeppelin/contracts/token/ERC721/ERC721.sol\":1698:1854  interfaceId == type(IERC721).interfaceId ||... */\n    tag_390:\n        /* \"@openzeppelin/contracts/token/ERC721/ERC721.sol\":1679:1854  return... */\n      swap1\n      pop\n        /* \"@openzeppelin/contracts/token/ERC721/ERC721.sol\":1561:1861  function supportsInterface(bytes4 interfaceId) public view virtual override(ERC165, IERC165) returns (bool) {... */\n      swap2\n      swap1\n      pop\n      jump\t// out\n        /* \"@openzeppelin/contracts/token/ERC721/ERC721.sol\":5707:5822  function _ownerOf(uint256 tokenId) internal view virtual returns (address) {... */\n    tag_311:\n        /* \"@openzeppelin/contracts/token/ERC721/ERC721.sol\":5773:5780  address */\n      0x00\n        /* \"@openzeppelin/contracts/token/ERC721/ERC721.sol\":5799:5806  _owners */\n      0x02\n        /* \"@openzeppelin/contracts/token/ERC721/ERC721.sol\":5799:5815  _owners[tokenId] */\n      0x00\n        /* \"@openzeppelin/contracts/token/ERC721/ERC721.sol\":5807:5814  tokenId */\n      dup4\n        /* \"@openzeppelin/contracts/token/ERC721/ERC721.sol\":5799:5815  _owners[tokenId] */\n      dup2\n      mstore\n      0x20\n      add\n      swap1\n      dup2\n      mstore\n      0x20\n      add\n      0x00\n      keccak256\n      0x00\n      swap1\n      sload\n      swap1\n      0x0100\n      exp\n      swap1\n      div\n      0xffffffffffffffffffffffffffffffffffffffff\n      and\n        /* \"@openzeppelin/contracts/token/ERC721/ERC721.sol\":5792:5815  return _owners[tokenId] */\n      swap1\n      pop\n        /* \"@openzeppelin/contracts/token/ERC721/ERC721.sol\":5707:5822  function _ownerOf(uint256 tokenId) internal view virtual returns (address) {... */\n      swap2\n      swap1\n      pop\n      jump\t// out\n        /* \"@openzeppelin/contracts/token/ERC721/ERC721.sol\":14720:15382  function _approve(address to, uint256 tokenId, address auth, bool emitEvent) internal virtual {... */\n    tag_318:\n        /* \"@openzeppelin/contracts/token/ERC721/ERC721.sol\":14880:14889  emitEvent */\n      dup1\n        /* \"@openzeppelin/contracts/token/ERC721/ERC721.sol\":14880:14911  emitEvent || auth != address(0) */\n      dup1\n      tag_395\n      jumpi\n      pop\n        /* \"@openzeppelin/contracts/token/ERC721/ERC721.sol\":14909:14910  0 */\n      0x00\n        /* \"@openzeppelin/contracts/token/ERC721/ERC721.sol\":14893:14911  auth != address(0) */\n      0xffffffffffffffffffffffffffffffffffffffff\n      and\n        /* \"@openzeppelin/contracts/token/ERC721/ERC721.sol\":14893:14897  auth */\n      dup3\n        /* \"@openzeppelin/contracts/token/ERC721/ERC721.sol\":14893:14911  auth != address(0) */\n      0xffffffffffffffffffffffffffffffffffffffff\n      and\n      eq\n      iszero\n        /* \"@openzeppelin/contracts/token/ERC721/ERC721.sol\":14880:14911  emitEvent || auth != address(0) */\n    tag_395:\n        /* \"@openzeppelin/contracts/token/ERC721/ERC721.sol\":14876:15336  if (emitEvent || auth != address(0)) {... */\n      iszero\n      tag_396\n      jumpi\n        /* \"@openzeppelin/contracts/token/ERC721/ERC721.sol\":14927:14940  address owner */\n      0x00\n        /* \"@openzeppelin/contracts/token/ERC721/ERC721.sol\":14943:14965  _requireOwned(tokenId) */\n      tag_397\n        /* \"@openzeppelin/contracts/token/ERC721/ERC721.sol\":14957:14964  tokenId */\n      dup5\n        /* \"@openzeppelin/contracts/token/ERC721/ERC721.sol\":14943:14956  _requireOwned */\n      tag_182\n        /* \"@openzeppelin/contracts/token/ERC721/ERC721.sol\":14943:14965  _requireOwned(tokenId) */\n      jump\t// in\n    tag_397:\n        /* \"@openzeppelin/contracts/token/ERC721/ERC721.sol\":14927:14965  address owner = _requireOwned(tokenId) */\n      swap1\n      pop\n        /* \"@openzeppelin/contracts/token/ERC721/ERC721.sol\":15109:15110  0 */\n      0x00\n        /* \"@openzeppelin/contracts/token/ERC721/ERC721.sol\":15093:15111  auth != address(0) */\n      0xffffffffffffffffffffffffffffffffffffffff\n      and\n        /* \"@openzeppelin/contracts/token/ERC721/ERC721.sol\":15093:15097  auth */\n      dup4\n        /* \"@openzeppelin/contracts/token/ERC721/ERC721.sol\":15093:15111  auth != address(0) */\n      0xffffffffffffffffffffffffffffffffffffffff\n      and\n      eq\n      iszero\n        /* \"@openzeppelin/contracts/token/ERC721/ERC721.sol\":15093:15128  auth != address(0) && owner != auth */\n      dup1\n      iszero\n      tag_398\n      jumpi\n      pop\n        /* \"@openzeppelin/contracts/token/ERC721/ERC721.sol\":15124:15128  auth */\n      dup3\n        /* \"@openzeppelin/contracts/token/ERC721/ERC721.sol\":15115:15128  owner != auth */\n      0xffffffffffffffffffffffffffffffffffffffff\n      and\n        /* \"@openzeppelin/contracts/token/ERC721/ERC721.sol\":15115:15120  owner */\n      dup2\n        /* \"@openzeppelin/contracts/token/ERC721/ERC721.sol\":15115:15128  owner != auth */\n      0xffffffffffffffffffffffffffffffffffffffff\n      and\n      eq\n      iszero\n        /* \"@openzeppelin/contracts/token/ERC721/ERC721.sol\":15093:15128  auth != address(0) && owner != auth */\n    tag_398:\n        /* \"@openzeppelin/contracts/token/ERC721/ERC721.sol\":15093:15162  auth != address(0) && owner != auth && !isApprovedForAll(owner, auth) */\n      dup1\n      iszero\n      tag_399\n      jumpi\n      pop\n        /* \"@openzeppelin/contracts/token/ERC721/ERC721.sol\":15133:15162  isApprovedForAll(owner, auth) */\n      tag_400\n        /* \"@openzeppelin/contracts/token/ERC721/ERC721.sol\":15150:15155  owner */\n      dup2\n        /* \"@openzeppelin/contracts/token/ERC721/ERC721.sol\":15157:15161  auth */\n      dup5\n        /* \"@openzeppelin/contracts/token/ERC721/ERC721.sol\":15133:15149  isApprovedForAll */\n      tag_164\n        /* \"@openzeppelin/contracts/token/ERC721/ERC721.sol\":15133:15162  isApprovedForAll(owner, auth) */\n      jump\t// in\n    tag_400:\n        /* \"@openzeppelin/contracts/token/ERC721/ERC721.sol\":15132:15162  !isApprovedForAll(owner, auth) */\n      iszero\n        /* \"@openzeppelin/contracts/token/ERC721/ERC721.sol\":15093:15162  auth != address(0) && owner != auth && !isApprovedForAll(owner, auth) */\n    tag_399:\n        /* \"@openzeppelin/contracts/token/ERC721/ERC721.sol\":15089:15231  if (auth != address(0) && owner != auth && !isApprovedForAll(owner, auth)) {... */\n      iszero\n      tag_401\n      jumpi\n        /* \"@openzeppelin/contracts/token/ERC721/ERC721.sol\":15211:15215  auth */\n      dup3\n        /* \"@openzeppelin/contracts/token/ERC721/ERC721.sol\":15189:15216  ERC721InvalidApprover(auth) */\n      mload(0x40)\n      0xa9fbf51f00000000000000000000000000000000000000000000000000000000\n      dup2\n      mstore\n      0x04\n      add\n      tag_402\n      swap2\n      swap1\n      tag_56\n      jump\t// in\n    tag_402:\n      mload(0x40)\n      dup1\n      swap2\n      sub\n      swap1\n      revert\n        /* \"@openzeppelin/contracts/token/ERC721/ERC721.sol\":15089:15231  if (auth != address(0) && owner != auth && !isApprovedForAll(owner, auth)) {... */\n    tag_401:\n        /* \"@openzeppelin/contracts/token/ERC721/ERC721.sol\":15249:15258  emitEvent */\n      dup2\n        /* \"@openzeppelin/contracts/token/ERC721/ERC721.sol\":15245:15326  if (emitEvent) {... */\n      iszero\n      tag_403\n      jumpi\n        /* \"@openzeppelin/contracts/token/ERC721/ERC721.sol\":15303:15310  tokenId */\n      dup4\n        /* \"@openzeppelin/contracts/token/ERC721/ERC721.sol\":15299:15301  to */\n      dup6\n        /* \"@openzeppelin/contracts/token/ERC721/ERC721.sol\":15283:15311  Approval(owner, to, tokenId) */\n      0xffffffffffffffffffffffffffffffffffffffff\n      and\n        /* \"@openzeppelin/contracts/token/ERC721/ERC721.sol\":15292:15297  owner */\n      dup3\n        /* \"@openzeppelin/contracts/token/ERC721/ERC721.sol\":15283:15311  Approval(owner, to, tokenId) */\n      0xffffffffffffffffffffffffffffffffffffffff\n      and\n      0x8c5be1e5ebec7d5bd14f71427d1e84f3dd0314c0f7b2291e5b200ac8c7c3b925\n      mload(0x40)\n      mload(0x40)\n      dup1\n      swap2\n      sub\n      swap1\n      log4\n        /* \"@openzeppelin/contracts/token/ERC721/ERC721.sol\":15245:15326  if (emitEvent) {... */\n    tag_403:\n        /* \"@openzeppelin/contracts/token/ERC721/ERC721.sol\":14913:15336  {... */\n      pop\n        /* \"@openzeppelin/contracts/token/ERC721/ERC721.sol\":14876:15336  if (emitEvent || auth != address(0)) {... */\n    tag_396:\n        /* \"@openzeppelin/contracts/token/ERC721/ERC721.sol\":15373:15375  to */\n      dup4\n        /* \"@openzeppelin/contracts/token/ERC721/ERC721.sol\":15346:15361  _tokenApprovals */\n      0x04\n        /* \"@openzeppelin/contracts/token/ERC721/ERC721.sol\":15346:15370  _tokenApprovals[tokenId] */\n      0x00\n        /* \"@openzeppelin/contracts/token/ERC721/ERC721.sol\":15362:15369  tokenId */\n      dup6\n        /* \"@openzeppelin/contracts/token/ERC721/ERC721.sol\":15346:15370  _tokenApprovals[tokenId] */\n      dup2\n      mstore\n      0x20\n      add\n      swap1\n      dup2\n      mstore\n      0x20\n      add\n      0x00\n      keccak256\n      0x00\n        /* \"@openzeppelin/contracts/token/ERC721/ERC721.sol\":15346:15375  _tokenApprovals[tokenId] = to */\n      0x0100\n      exp\n      dup2\n      sload\n      dup2\n      0xffffffffffffffffffffffffffffffffffffffff\n      mul\n      not\n      and\n      swap1\n      dup4\n      0xffffffffffffffffffffffffffffffffffffffff\n      and\n      mul\n      or\n      swap1\n      sstore\n      pop\n        /* \"@openzeppelin/contracts/token/ERC721/ERC721.sol\":14720:15382  function _approve(address to, uint256 tokenId, address auth, bool emitEvent) internal virtual {... */\n      pop\n      pop\n      pop\n      pop\n      jump\t// out\n        /* \"@openzeppelin/contracts/token/ERC721/ERC721.sol\":10633:10733  function _safeMint(address to, uint256 tokenId) internal {... */\n    tag_327:\n        /* \"@openzeppelin/contracts/token/ERC721/ERC721.sol\":10700:10726  _safeMint(to, tokenId, \"\") */\n      tag_405\n        /* \"@openzeppelin/contracts/token/ERC721/ERC721.sol\":10710:10712  to */\n      dup3\n        /* \"@openzeppelin/contracts/token/ERC721/ERC721.sol\":10714:10721  tokenId */\n      dup3\n        /* \"@openzeppelin/contracts/token/ERC721/ERC721.sol\":10700:10726  _safeMint(to, tokenId, \"\") */\n      mload(0x40)\n      dup1\n      0x20\n      add\n      0x40\n      mstore\n      dup1\n      0x00\n      dup2\n      mstore\n      pop\n        /* \"@openzeppelin/contracts/token/ERC721/ERC721.sol\":10700:10709  _safeMint */\n      tag_406\n        /* \"@openzeppelin/contracts/token/ERC721/ERC721.sol\":10700:10726  _safeMint(to, tokenId, \"\") */\n      jump\t// in\n    tag_405:\n        /* \"@openzeppelin/contracts/token/ERC721/ERC721.sol\":10633:10733  function _safeMint(address to, uint256 tokenId) internal {... */\n      pop\n      pop\n      jump\t// out\n        /* \"@openzeppelin/contracts/token/ERC721/extensions/ERC721Pausable.sol\":1120:1324  function _update(... */\n    tag_330:\n        /* \"@openzeppelin/contracts/token/ERC721/extensions/ERC721Pausable.sol\":1259:1266  address */\n      0x00\n        /* \"@openzeppelin/contracts/utils/Pausable.sol\":1474:1493  _requireNotPaused() */\n      tag_408\n        /* \"@openzeppelin/contracts/utils/Pausable.sol\":1474:1491  _requireNotPaused */\n      tag_346\n        /* \"@openzeppelin/contracts/utils/Pausable.sol\":1474:1493  _requireNotPaused() */\n      jump\t// in\n    tag_408:\n        /* \"@openzeppelin/contracts/token/ERC721/extensions/ERC721Pausable.sol\":1285:1317  super._update(to, tokenId, auth) */\n      tag_410\n        /* \"@openzeppelin/contracts/token/ERC721/extensions/ERC721Pausable.sol\":1299:1301  to */\n      dup5\n        /* \"@openzeppelin/contracts/token/ERC721/extensions/ERC721Pausable.sol\":1303:1310  tokenId */\n      dup5\n        /* \"@openzeppelin/contracts/token/ERC721/extensions/ERC721Pausable.sol\":1312:1316  auth */\n      dup5\n        /* \"@openzeppelin/contracts/token/ERC721/extensions/ERC721Pausable.sol\":1285:1298  super._update */\n      tag_411\n        /* \"@openzeppelin/contracts/token/ERC721/extensions/ERC721Pausable.sol\":1285:1317  super._update(to, tokenId, auth) */\n      jump\t// in\n    tag_410:\n        /* \"@openzeppelin/contracts/token/ERC721/extensions/ERC721Pausable.sol\":1278:1317  return super._update(to, tokenId, auth) */\n      swap1\n      pop\n        /* \"@openzeppelin/contracts/token/ERC721/extensions/ERC721Pausable.sol\":1120:1324  function _update(... */\n      swap4\n      swap3\n      pop\n      pop\n      pop\n      jump\t// out\n        /* \"@openzeppelin/contracts/utils/Pausable.sol\":2202:2328  function _requirePaused() internal view virtual {... */\n    tag_339:\n        /* \"@openzeppelin/contracts/utils/Pausable.sol\":2265:2273  paused() */\n      tag_413\n        /* \"@openzeppelin/contracts/utils/Pausable.sol\":2265:2271  paused */\n      tag_110\n        /* \"@openzeppelin/contracts/utils/Pausable.sol\":2265:2273  paused() */\n      jump\t// in\n    tag_413:\n        /* \"@openzeppelin/contracts/utils/Pausable.sol\":2260:2322  if (!paused()) {... */\n      tag_414\n      jumpi\n        /* \"@openzeppelin/contracts/utils/Pausable.sol\":2296:2311  ExpectedPause() */\n      mload(0x40)\n      0x8dfc202b00000000000000000000000000000000000000000000000000000000\n      dup2\n      mstore\n      0x04\n      add\n      mload(0x40)\n      dup1\n      swap2\n      sub\n      swap1\n      revert\n        /* \"@openzeppelin/contracts/utils/Pausable.sol\":2260:2322  if (!paused()) {... */\n    tag_414:\n        /* \"@openzeppelin/contracts/utils/Pausable.sol\":2202:2328  function _requirePaused() internal view virtual {... */\n      jump\t// out\n        /* \"@openzeppelin/contracts/utils/Pausable.sol\":2002:2130  function _requireNotPaused() internal view virtual {... */\n    tag_346:\n        /* \"@openzeppelin/contracts/utils/Pausable.sol\":2067:2075  paused() */\n      tag_416\n        /* \"@openzeppelin/contracts/utils/Pausable.sol\":2067:2073  paused */\n      tag_110\n        /* \"@openzeppelin/contracts/utils/Pausable.sol\":2067:2075  paused() */\n      jump\t// in\n    tag_416:\n        /* \"@openzeppelin/contracts/utils/Pausable.sol\":2063:2124  if (paused()) {... */\n      iszero\n      tag_417\n      jumpi\n        /* \"@openzeppelin/contracts/utils/Pausable.sol\":2098:2113  EnforcedPause() */\n      mload(0x40)\n      0xd93c066500000000000000000000000000000000000000000000000000000000\n      dup2\n      mstore\n      0x04\n      add\n      mload(0x40)\n      dup1\n      swap2\n      sub\n      swap1\n      revert\n        /* \"@openzeppelin/contracts/utils/Pausable.sol\":2063:2124  if (paused()) {... */\n    tag_417:\n        /* \"@openzeppelin/contracts/utils/Pausable.sol\":2002:2130  function _requireNotPaused() internal view virtual {... */\n      jump\t// out\n        /* \"@openzeppelin/contracts/utils/math/Math.sol\":12214:13130  function log10(uint256 value) internal pure returns (uint256) {... */\n    tag_377:\n        /* \"@openzeppelin/contracts/utils/math/Math.sol\":12267:12274  uint256 */\n      0x00\n        /* \"@openzeppelin/contracts/utils/math/Math.sol\":12286:12300  uint256 result */\n      dup1\n        /* \"@openzeppelin/contracts/utils/math/Math.sol\":12303:12304  0 */\n      0x00\n        /* \"@openzeppelin/contracts/utils/math/Math.sol\":12286:12304  uint256 result = 0 */\n      swap1\n      pop\n        /* \"@openzeppelin/contracts/utils/math/Math.sol\":12351:12359  10 ** 64 */\n      0x184f03e93ff9f4daa797ed6e38ed64bf6a1f010000000000000000\n        /* \"@openzeppelin/contracts/utils/math/Math.sol\":12342:12347  value */\n      dup4\n        /* \"@openzeppelin/contracts/utils/math/Math.sol\":12342:12359  value >= 10 ** 64 */\n      lt\n        /* \"@openzeppelin/contracts/utils/math/Math.sol\":12338:12441  if (value >= 10 ** 64) {... */\n      tag_419\n      jumpi\n        /* \"@openzeppelin/contracts/utils/math/Math.sol\":12388:12396  10 ** 64 */\n      0x184f03e93ff9f4daa797ed6e38ed64bf6a1f010000000000000000\n        /* \"@openzeppelin/contracts/utils/math/Math.sol\":12379:12396  value /= 10 ** 64 */\n      dup4\n      dup2\n      tag_420\n      jumpi\n      tag_421\n      tag_386\n      jump\t// in\n    tag_421:\n    tag_420:\n      div\n      swap3\n      pop\n        /* \"@openzeppelin/contracts/utils/math/Math.sol\":12424:12426  64 */\n      0x40\n        /* \"@openzeppelin/contracts/utils/math/Math.sol\":12414:12426  result += 64 */\n      dup2\n      add\n      swap1\n      pop\n        /* \"@openzeppelin/contracts/utils/math/Math.sol\":12338:12441  if (value >= 10 ** 64) {... */\n    tag_419:\n        /* \"@openzeppelin/contracts/utils/math/Math.sol\":12467:12475  10 ** 32 */\n      0x04ee2d6d415b85acef8100000000\n        /* \"@openzeppelin/contracts/utils/math/Math.sol\":12458:12463  value */\n      dup4\n        /* \"@openzeppelin/contracts/utils/math/Math.sol\":12458:12475  value >= 10 ** 32 */\n      lt\n        /* \"@openzeppelin/contracts/utils/math/Math.sol\":12454:12557  if (value >= 10 ** 32) {... */\n      tag_422\n      jumpi\n        /* \"@openzeppelin/contracts/utils/math/Math.sol\":12504:12512  10 ** 32 */\n      0x04ee2d6d415b85acef8100000000\n        /* \"@openzeppelin/contracts/utils/math/Math.sol\":12495:12512  value /= 10 ** 32 */\n      dup4\n      dup2\n      tag_423\n      jumpi\n      tag_424\n      tag_386\n      jump\t// in\n    tag_424:\n    tag_423:\n      div\n      swap3\n      pop\n        /* \"@openzeppelin/contracts/utils/math/Math.sol\":12540:12542  32 */\n      0x20\n        /* \"@openzeppelin/contracts/utils/math/Math.sol\":12530:12542  result += 32 */\n      dup2\n      add\n      swap1\n      pop\n        /* \"@openzeppelin/contracts/utils/math/Math.sol\":12454:12557  if (value >= 10 ** 32) {... */\n    tag_422:\n        /* \"@openzeppelin/contracts/utils/math/Math.sol\":12583:12591  10 ** 16 */\n      0x2386f26fc10000\n        /* \"@openzeppelin/contracts/utils/math/Math.sol\":12574:12579  value */\n      dup4\n        /* \"@openzeppelin/contracts/utils/math/Math.sol\":12574:12591  value >= 10 ** 16 */\n      lt\n        /* \"@openzeppelin/contracts/utils/math/Math.sol\":12570:12673  if (value >= 10 ** 16) {... */\n      tag_425\n      jumpi\n        /* \"@openzeppelin/contracts/utils/math/Math.sol\":12620:12628  10 ** 16 */\n      0x2386f26fc10000\n        /* \"@openzeppelin/contracts/utils/math/Math.sol\":12611:12628  value /= 10 ** 16 */\n      dup4\n      dup2\n      tag_426\n      jumpi\n      tag_427\n      tag_386\n      jump\t// in\n    tag_427:\n    tag_426:\n      div\n      swap3\n      pop\n        /* \"@openzeppelin/contracts/utils/math/Math.sol\":12656:12658  16 */\n      0x10\n        /* \"@openzeppelin/contracts/utils/math/Math.sol\":12646:12658  result += 16 */\n      dup2\n      add\n      swap1\n      pop\n        /* \"@openzeppelin/contracts/utils/math/Math.sol\":12570:12673  if (value >= 10 ** 16) {... */\n    tag_425:\n        /* \"@openzeppelin/contracts/utils/math/Math.sol\":12699:12706  10 ** 8 */\n      0x05f5e100\n        /* \"@openzeppelin/contracts/utils/math/Math.sol\":12690:12695  value */\n      dup4\n        /* \"@openzeppelin/contracts/utils/math/Math.sol\":12690:12706  value >= 10 ** 8 */\n      lt\n        /* \"@openzeppelin/contracts/utils/math/Math.sol\":12686:12786  if (value >= 10 ** 8) {... */\n      tag_428\n      jumpi\n        /* \"@openzeppelin/contracts/utils/math/Math.sol\":12735:12742  10 ** 8 */\n      0x05f5e100\n        /* \"@openzeppelin/contracts/utils/math/Math.sol\":12726:12742  value /= 10 ** 8 */\n      dup4\n      dup2\n      tag_429\n      jumpi\n      tag_430\n      tag_386\n      jump\t// in\n    tag_430:\n    tag_429:\n      div\n      swap3\n      pop\n        /* \"@openzeppelin/contracts/utils/math/Math.sol\":12770:12771  8 */\n      0x08\n        /* \"@openzeppelin/contracts/utils/math/Math.sol\":12760:12771  result += 8 */\n      dup2\n      add\n      swap1\n      pop\n        /* \"@openzeppelin/contracts/utils/math/Math.sol\":12686:12786  if (value >= 10 ** 8) {... */\n    tag_428:\n        /* \"@openzeppelin/contracts/utils/math/Math.sol\":12812:12819  10 ** 4 */\n      0x2710\n        /* \"@openzeppelin/contracts/utils/math/Math.sol\":12803:12808  value */\n      dup4\n        /* \"@openzeppelin/contracts/utils/math/Math.sol\":12803:12819  value >= 10 ** 4 */\n      lt\n        /* \"@openzeppelin/contracts/utils/math/Math.sol\":12799:12899  if (value >= 10 ** 4) {... */\n      tag_431\n      jumpi\n        /* \"@openzeppelin/contracts/utils/math/Math.sol\":12848:12855  10 ** 4 */\n      0x2710\n        /* \"@openzeppelin/contracts/utils/math/Math.sol\":12839:12855  value /= 10 ** 4 */\n      dup4\n      dup2\n      tag_432\n      jumpi\n      tag_433\n      tag_386\n      jump\t// in\n    tag_433:\n    tag_432:\n      div\n      swap3\n      pop\n        /* \"@openzeppelin/contracts/utils/math/Math.sol\":12883:12884  4 */\n      0x04\n        /* \"@openzeppelin/contracts/utils/math/Math.sol\":12873:12884  result += 4 */\n      dup2\n      add\n      swap1\n      pop\n        /* \"@openzeppelin/contracts/utils/math/Math.sol\":12799:12899  if (value >= 10 ** 4) {... */\n    tag_431:\n        /* \"@openzeppelin/contracts/utils/math/Math.sol\":12925:12932  10 ** 2 */\n      0x64\n        /* \"@openzeppelin/contracts/utils/math/Math.sol\":12916:12921  value */\n      dup4\n        /* \"@openzeppelin/contracts/utils/math/Math.sol\":12916:12932  value >= 10 ** 2 */\n      lt\n        /* \"@openzeppelin/contracts/utils/math/Math.sol\":12912:13012  if (value >= 10 ** 2) {... */\n      tag_434\n      jumpi\n        /* \"@openzeppelin/contracts/utils/math/Math.sol\":12961:12968  10 ** 2 */\n      0x64\n        /* \"@openzeppelin/contracts/utils/math/Math.sol\":12952:12968  value /= 10 ** 2 */\n      dup4\n      dup2\n      tag_435\n      jumpi\n      tag_436\n      tag_386\n      jump\t// in\n    tag_436:\n    tag_435:\n      div\n      swap3\n      pop\n        /* \"@openzeppelin/contracts/utils/math/Math.sol\":12996:12997  2 */\n      0x02\n        /* \"@openzeppelin/contracts/utils/math/Math.sol\":12986:12997  result += 2 */\n      dup2\n      add\n      swap1\n      pop\n        /* \"@openzeppelin/contracts/utils/math/Math.sol\":12912:13012  if (value >= 10 ** 2) {... */\n    tag_434:\n        /* \"@openzeppelin/contracts/utils/math/Math.sol\":13038:13045  10 ** 1 */\n      0x0a\n        /* \"@openzeppelin/contracts/utils/math/Math.sol\":13029:13034  value */\n      dup4\n        /* \"@openzeppelin/contracts/utils/math/Math.sol\":13029:13045  value >= 10 ** 1 */\n      lt\n        /* \"@openzeppelin/contracts/utils/math/Math.sol\":13025:13091  if (value >= 10 ** 1) {... */\n      tag_437\n      jumpi\n        /* \"@openzeppelin/contracts/utils/math/Math.sol\":13075:13076  1 */\n      0x01\n        /* \"@openzeppelin/contracts/utils/math/Math.sol\":13065:13076  result += 1 */\n      dup2\n      add\n      swap1\n      pop\n        /* \"@openzeppelin/contracts/utils/math/Math.sol\":13025:13091  if (value >= 10 ** 1) {... */\n    tag_437:\n        /* \"@openzeppelin/contracts/utils/math/Math.sol\":13117:13123  result */\n      dup1\n        /* \"@openzeppelin/contracts/utils/math/Math.sol\":13110:13123  return result */\n      swap2\n      pop\n      pop\n        /* \"@openzeppelin/contracts/utils/math/Math.sol\":12214:13130  function log10(uint256 value) internal pure returns (uint256) {... */\n      swap2\n      swap1\n      pop\n      jump\t// out\n        /* \"@openzeppelin/contracts/utils/introspection/ERC165.sol\":762:908  function supportsInterface(bytes4 interfaceId) public view virtual returns (bool) {... */\n    tag_392:\n        /* \"@openzeppelin/contracts/utils/introspection/ERC165.sol\":838:842  bool */\n      0x00\n        /* \"@openzeppelin/contracts/utils/introspection/ERC165.sol\":876:901  type(IERC165).interfaceId */\n      0x01ffc9a700000000000000000000000000000000000000000000000000000000\n        /* \"@openzeppelin/contracts/utils/introspection/ERC165.sol\":861:901  interfaceId == type(IERC165).interfaceId */\n      not(0xffffffffffffffffffffffffffffffffffffffffffffffffffffffff)\n      and\n        /* \"@openzeppelin/contracts/utils/introspection/ERC165.sol\":861:872  interfaceId */\n      dup3\n        /* \"@openzeppelin/contracts/utils/introspection/ERC165.sol\":861:901  interfaceId == type(IERC165).interfaceId */\n      not(0xffffffffffffffffffffffffffffffffffffffffffffffffffffffff)\n      and\n      eq\n        /* \"@openzeppelin/contracts/utils/introspection/ERC165.sol\":854:901  return interfaceId == type(IERC165).interfaceId */\n      swap1\n      pop\n        /* \"@openzeppelin/contracts/utils/introspection/ERC165.sol\":762:908  function supportsInterface(bytes4 interfaceId) public view virtual returns (bool) {... */\n      swap2\n      swap1\n      pop\n      jump\t// out\n        /* \"@openzeppelin/contracts/token/ERC721/ERC721.sol\":10954:11136  function _safeMint(address to, uint256 tokenId, bytes memory data) internal virtual {... */\n    tag_406:\n        /* \"@openzeppelin/contracts/token/ERC721/ERC721.sol\":11048:11066  _mint(to, tokenId) */\n      tag_440\n        /* \"@openzeppelin/contracts/token/ERC721/ERC721.sol\":11054:11056  to */\n      dup4\n        /* \"@openzeppelin/contracts/token/ERC721/ERC721.sol\":11058:11065  tokenId */\n      dup4\n        /* \"@openzeppelin/contracts/token/ERC721/ERC721.sol\":11048:11053  _mint */\n      tag_441\n        /* \"@openzeppelin/contracts/token/ERC721/ERC721.sol\":11048:11066  _mint(to, tokenId) */\n      jump\t// in\n    tag_440:\n        /* \"@openzeppelin/contracts/token/ERC721/ERC721.sol\":11076:11129  _checkOnERC721Received(address(0), to, tokenId, data) */\n      tag_442\n        /* \"@openzeppelin/contracts/token/ERC721/ERC721.sol\":11107:11108  0 */\n      0x00\n        /* \"@openzeppelin/contracts/token/ERC721/ERC721.sol\":11111:11113  to */\n      dup5\n        /* \"@openzeppelin/contracts/token/ERC721/ERC721.sol\":11115:11122  tokenId */\n      dup5\n        /* \"@openzeppelin/contracts/token/ERC721/ERC721.sol\":11124:11128  data */\n      dup5\n        /* \"@openzeppelin/contracts/token/ERC721/ERC721.sol\":11076:11098  _checkOnERC721Received */\n      tag_287\n        /* \"@openzeppelin/contracts/token/ERC721/ERC721.sol\":11076:11129  _checkOnERC721Received(address(0), to, tokenId, data) */\n      jump\t// in\n    tag_442:\n        /* \"@openzeppelin/contracts/token/ERC721/ERC721.sol\":10954:11136  function _safeMint(address to, uint256 tokenId, bytes memory data) internal virtual {... */\n      pop\n      pop\n      pop\n      jump\t// out\n        /* \"@openzeppelin/contracts/token/ERC721/extensions/ERC721Enumerable.sol\":2518:3143  function _update(address to, uint256 tokenId, address auth) internal virtual override returns (address) {... */\n    tag_411:\n        /* \"@openzeppelin/contracts/token/ERC721/extensions/ERC721Enumerable.sol\":2613:2620  address */\n      0x00\n        /* \"@openzeppelin/contracts/token/ERC721/extensions/ERC721Enumerable.sol\":2632:2653  address previousOwner */\n      dup1\n        /* \"@openzeppelin/contracts/token/ERC721/extensions/ERC721Enumerable.sol\":2656:2688  super._update(to, tokenId, auth) */\n      tag_444\n        /* \"@openzeppelin/contracts/token/ERC721/extensions/ERC721Enumerable.sol\":2670:2672  to */\n      dup6\n        /* \"@openzeppelin/contracts/token/ERC721/extensions/ERC721Enumerable.sol\":2674:2681  tokenId */\n      dup6\n        /* \"@openzeppelin/contracts/token/ERC721/extensions/ERC721Enumerable.sol\":2683:2687  auth */\n      dup6\n        /* \"@openzeppelin/contracts/token/ERC721/extensions/ERC721Enumerable.sol\":2656:2669  super._update */\n      tag_445\n        /* \"@openzeppelin/contracts/token/ERC721/extensions/ERC721Enumerable.sol\":2656:2688  super._update(to, tokenId, auth) */\n      jump\t// in\n    tag_444:\n        /* \"@openzeppelin/contracts/token/ERC721/extensions/ERC721Enumerable.sol\":2632:2688  address previousOwner = super._update(to, tokenId, auth) */\n      swap1\n      pop\n        /* \"@openzeppelin/contracts/token/ERC721/extensions/ERC721Enumerable.sol\":2728:2729  0 */\n      0x00\n        /* \"@openzeppelin/contracts/token/ERC721/extensions/ERC721Enumerable.sol\":2703:2730  previousOwner == address(0) */\n      0xffffffffffffffffffffffffffffffffffffffff\n      and\n        /* \"@openzeppelin/contracts/token/ERC721/extensions/ERC721Enumerable.sol\":2703:2716  previousOwner */\n      dup2\n        /* \"@openzeppelin/contracts/token/ERC721/extensions/ERC721Enumerable.sol\":2703:2730  previousOwner == address(0) */\n      0xffffffffffffffffffffffffffffffffffffffff\n      and\n      sub\n        /* \"@openzeppelin/contracts/token/ERC721/extensions/ERC721Enumerable.sol\":2699:2909  if (previousOwner == address(0)) {... */\n      tag_446\n      jumpi\n        /* \"@openzeppelin/contracts/token/ERC721/extensions/ERC721Enumerable.sol\":2746:2786  _addTokenToAllTokensEnumeration(tokenId) */\n      tag_447\n        /* \"@openzeppelin/contracts/token/ERC721/extensions/ERC721Enumerable.sol\":2778:2785  tokenId */\n      dup5\n        /* \"@openzeppelin/contracts/token/ERC721/extensions/ERC721Enumerable.sol\":2746:2777  _addTokenToAllTokensEnumeration */\n      tag_448\n        /* \"@openzeppelin/contracts/token/ERC721/extensions/ERC721Enumerable.sol\":2746:2786  _addTokenToAllTokensEnumeration(tokenId) */\n      jump\t// in\n    tag_447:\n        /* \"@openzeppelin/contracts/token/ERC721/extensions/ERC721Enumerable.sol\":2699:2909  if (previousOwner == address(0)) {... */\n      jump(tag_449)\n    tag_446:\n        /* \"@openzeppelin/contracts/token/ERC721/extensions/ERC721Enumerable.sol\":2824:2826  to */\n      dup5\n        /* \"@openzeppelin/contracts/token/ERC721/extensions/ERC721Enumerable.sol\":2807:2826  previousOwner != to */\n      0xffffffffffffffffffffffffffffffffffffffff\n      and\n        /* \"@openzeppelin/contracts/token/ERC721/extensions/ERC721Enumerable.sol\":2807:2820  previousOwner */\n      dup2\n        /* \"@openzeppelin/contracts/token/ERC721/extensions/ERC721Enumerable.sol\":2807:2826  previousOwner != to */\n      0xffffffffffffffffffffffffffffffffffffffff\n      and\n      eq\n        /* \"@openzeppelin/contracts/token/ERC721/extensions/ERC721Enumerable.sol\":2803:2909  if (previousOwner != to) {... */\n      tag_450\n      jumpi\n        /* \"@openzeppelin/contracts/token/ERC721/extensions/ERC721Enumerable.sol\":2842:2898  _removeTokenFromOwnerEnumeration(previousOwner, tokenId) */\n      tag_451\n        /* \"@openzeppelin/contracts/token/ERC721/extensions/ERC721Enumerable.sol\":2875:2888  previousOwner */\n      dup2\n        /* \"@openzeppelin/contracts/token/ERC721/extensions/ERC721Enumerable.sol\":2890:2897  tokenId */\n      dup6\n        /* \"@openzeppelin/contracts/token/ERC721/extensions/ERC721Enumerable.sol\":2842:2874  _removeTokenFromOwnerEnumeration */\n      tag_452\n        /* \"@openzeppelin/contracts/token/ERC721/extensions/ERC721Enumerable.sol\":2842:2898  _removeTokenFromOwnerEnumeration(previousOwner, tokenId) */\n      jump\t// in\n    tag_451:\n        /* \"@openzeppelin/contracts/token/ERC721/extensions/ERC721Enumerable.sol\":2803:2909  if (previousOwner != to) {... */\n    tag_450:\n        /* \"@openzeppelin/contracts/token/ERC721/extensions/ERC721Enumerable.sol\":2699:2909  if (previousOwner == address(0)) {... */\n    tag_449:\n        /* \"@openzeppelin/contracts/token/ERC721/extensions/ERC721Enumerable.sol\":2936:2937  0 */\n      0x00\n        /* \"@openzeppelin/contracts/token/ERC721/extensions/ERC721Enumerable.sol\":2922:2938  to == address(0) */\n      0xffffffffffffffffffffffffffffffffffffffff\n      and\n        /* \"@openzeppelin/contracts/token/ERC721/extensions/ERC721Enumerable.sol\":2922:2924  to */\n      dup6\n        /* \"@openzeppelin/contracts/token/ERC721/extensions/ERC721Enumerable.sol\":2922:2938  to == address(0) */\n      0xffffffffffffffffffffffffffffffffffffffff\n      and\n      sub\n        /* \"@openzeppelin/contracts/token/ERC721/extensions/ERC721Enumerable.sol\":2918:3106  if (to == address(0)) {... */\n      tag_453\n      jumpi\n        /* \"@openzeppelin/contracts/token/ERC721/extensions/ERC721Enumerable.sol\":2954:2999  _removeTokenFromAllTokensEnumeration(tokenId) */\n      tag_454\n        /* \"@openzeppelin/contracts/token/ERC721/extensions/ERC721Enumerable.sol\":2991:2998  tokenId */\n      dup5\n        /* \"@openzeppelin/contracts/token/ERC721/extensions/ERC721Enumerable.sol\":2954:2990  _removeTokenFromAllTokensEnumeration */\n      tag_455\n        /* \"@openzeppelin/contracts/token/ERC721/extensions/ERC721Enumerable.sol\":2954:2999  _removeTokenFromAllTokensEnumeration(tokenId) */\n      jump\t// in\n    tag_454:\n        /* \"@openzeppelin/contracts/token/ERC721/extensions/ERC721Enumerable.sol\":2918:3106  if (to == address(0)) {... */\n      jump(tag_456)\n    tag_453:\n        /* \"@openzeppelin/contracts/token/ERC721/extensions/ERC721Enumerable.sol\":3037:3039  to */\n      dup5\n        /* \"@openzeppelin/contracts/token/ERC721/extensions/ERC721Enumerable.sol\":3020:3039  previousOwner != to */\n      0xffffffffffffffffffffffffffffffffffffffff\n      and\n        /* \"@openzeppelin/contracts/token/ERC721/extensions/ERC721Enumerable.sol\":3020:3033  previousOwner */\n      dup2\n        /* \"@openzeppelin/contracts/token/ERC721/extensions/ERC721Enumerable.sol\":3020:3039  previousOwner != to */\n      0xffffffffffffffffffffffffffffffffffffffff\n      and\n      eq\n        /* \"@openzeppelin/contracts/token/ERC721/extensions/ERC721Enumerable.sol\":3016:3106  if (previousOwner != to) {... */\n      tag_457\n      jumpi\n        /* \"@openzeppelin/contracts/token/ERC721/extensions/ERC721Enumerable.sol\":3055:3095  _addTokenToOwnerEnumeration(to, tokenId) */\n      tag_458\n        /* \"@openzeppelin/contracts/token/ERC721/extensions/ERC721Enumerable.sol\":3083:3085  to */\n      dup6\n        /* \"@openzeppelin/contracts/token/ERC721/extensions/ERC721Enumerable.sol\":3087:3094  tokenId */\n      dup6\n        /* \"@openzeppelin/contracts/token/ERC721/extensions/ERC721Enumerable.sol\":3055:3082  _addTokenToOwnerEnumeration */\n      tag_459\n        /* \"@openzeppelin/contracts/token/ERC721/extensions/ERC721Enumerable.sol\":3055:3095  _addTokenToOwnerEnumeration(to, tokenId) */\n      jump\t// in\n    tag_458:\n        /* \"@openzeppelin/contracts/token/ERC721/extensions/ERC721Enumerable.sol\":3016:3106  if (previousOwner != to) {... */\n    tag_457:\n        /* \"@openzeppelin/contracts/token/ERC721/extensions/ERC721Enumerable.sol\":2918:3106  if (to == address(0)) {... */\n    tag_456:\n        /* \"@openzeppelin/contracts/token/ERC721/extensions/ERC721Enumerable.sol\":3123:3136  previousOwner */\n      dup1\n        /* \"@openzeppelin/contracts/token/ERC721/extensions/ERC721Enumerable.sol\":3116:3136  return previousOwner */\n      swap2\n      pop\n      pop\n        /* \"@openzeppelin/contracts/token/ERC721/extensions/ERC721Enumerable.sol\":2518:3143  function _update(address to, uint256 tokenId, address auth) internal virtual override returns (address) {... */\n      swap4\n      swap3\n      pop\n      pop\n      pop\n      jump\t// out\n        /* \"@openzeppelin/contracts/token/ERC721/ERC721.sol\":9955:10282  function _mint(address to, uint256 tokenId) internal {... */\n    tag_441:\n        /* \"@openzeppelin/contracts/token/ERC721/ERC721.sol\":10036:10037  0 */\n      0x00\n        /* \"@openzeppelin/contracts/token/ERC721/ERC721.sol\":10022:10038  to == address(0) */\n      0xffffffffffffffffffffffffffffffffffffffff\n      and\n        /* \"@openzeppelin/contracts/token/ERC721/ERC721.sol\":10022:10024  to */\n      dup3\n        /* \"@openzeppelin/contracts/token/ERC721/ERC721.sol\":10022:10038  to == address(0) */\n      0xffffffffffffffffffffffffffffffffffffffff\n      and\n      sub\n        /* \"@openzeppelin/contracts/token/ERC721/ERC721.sol\":10018:10105  if (to == address(0)) {... */\n      tag_461\n      jumpi\n        /* \"@openzeppelin/contracts/token/ERC721/ERC721.sol\":10091:10092  0 */\n      0x00\n        /* \"@openzeppelin/contracts/token/ERC721/ERC721.sol\":10061:10094  ERC721InvalidReceiver(address(0)) */\n      mload(0x40)\n      0x64a0ae9200000000000000000000000000000000000000000000000000000000\n      dup2\n      mstore\n      0x04\n      add\n      tag_462\n      swap2\n      swap1\n      tag_56\n      jump\t// in\n    tag_462:\n      mload(0x40)\n      dup1\n      swap2\n      sub\n      swap1\n      revert\n        /* \"@openzeppelin/contracts/token/ERC721/ERC721.sol\":10018:10105  if (to == address(0)) {... */\n    tag_461:\n        /* \"@openzeppelin/contracts/token/ERC721/ERC721.sol\":10114:10135  address previousOwner */\n      0x00\n        /* \"@openzeppelin/contracts/token/ERC721/ERC721.sol\":10138:10170  _update(to, tokenId, address(0)) */\n      tag_463\n        /* \"@openzeppelin/contracts/token/ERC721/ERC721.sol\":10146:10148  to */\n      dup4\n        /* \"@openzeppelin/contracts/token/ERC721/ERC721.sol\":10150:10157  tokenId */\n      dup4\n        /* \"@openzeppelin/contracts/token/ERC721/ERC721.sol\":10167:10168  0 */\n      0x00\n        /* \"@openzeppelin/contracts/token/ERC721/ERC721.sol\":10138:10145  _update */\n      tag_208\n        /* \"@openzeppelin/contracts/token/ERC721/ERC721.sol\":10138:10170  _update(to, tokenId, address(0)) */\n      jump\t// in\n    tag_463:\n        /* \"@openzeppelin/contracts/token/ERC721/ERC721.sol\":10114:10170  address previousOwner = _update(to, tokenId, address(0)) */\n      swap1\n      pop\n        /* \"@openzeppelin/contracts/token/ERC721/ERC721.sol\":10209:10210  0 */\n      0x00\n        /* \"@openzeppelin/contracts/token/ERC721/ERC721.sol\":10184:10211  previousOwner != address(0) */\n      0xffffffffffffffffffffffffffffffffffffffff\n      and\n        /* \"@openzeppelin/contracts/token/ERC721/ERC721.sol\":10184:10197  previousOwner */\n      dup2\n        /* \"@openzeppelin/contracts/token/ERC721/ERC721.sol\":10184:10211  previousOwner != address(0) */\n      0xffffffffffffffffffffffffffffffffffffffff\n      and\n      eq\n        /* \"@openzeppelin/contracts/token/ERC721/ERC721.sol\":10180:10276  if (previousOwner != address(0)) {... */\n      tag_464\n      jumpi\n        /* \"@openzeppelin/contracts/token/ERC721/ERC721.sol\":10262:10263  0 */\n      0x00\n        /* \"@openzeppelin/contracts/token/ERC721/ERC721.sol\":10234:10265  ERC721InvalidSender(address(0)) */\n      mload(0x40)\n      0x73c6ac6e00000000000000000000000000000000000000000000000000000000\n      dup2\n      mstore\n      0x04\n      add\n      tag_465\n      swap2\n      swap1\n      tag_56\n      jump\t// in\n    tag_465:\n      mload(0x40)\n      dup1\n      swap2\n      sub\n      swap1\n      revert\n        /* \"@openzeppelin/contracts/token/ERC721/ERC721.sol\":10180:10276  if (previousOwner != address(0)) {... */\n    tag_464:\n        /* \"@openzeppelin/contracts/token/ERC721/ERC721.sol\":10008:10282  {... */\n      pop\n        /* \"@openzeppelin/contracts/token/ERC721/ERC721.sol\":9955:10282  function _mint(address to, uint256 tokenId) internal {... */\n      pop\n      pop\n      jump\t// out\n        /* \"@openzeppelin/contracts/token/ERC721/ERC721.sol\":8838:9633  function _update(address to, uint256 tokenId, address auth) internal virtual returns (address) {... */\n    tag_445:\n        /* \"@openzeppelin/contracts/token/ERC721/ERC721.sol\":8924:8931  address */\n      0x00\n        /* \"@openzeppelin/contracts/token/ERC721/ERC721.sol\":8943:8955  address from */\n      dup1\n        /* \"@openzeppelin/contracts/token/ERC721/ERC721.sol\":8958:8975  _ownerOf(tokenId) */\n      tag_467\n        /* \"@openzeppelin/contracts/token/ERC721/ERC721.sol\":8967:8974  tokenId */\n      dup5\n        /* \"@openzeppelin/contracts/token/ERC721/ERC721.sol\":8958:8966  _ownerOf */\n      tag_311\n        /* \"@openzeppelin/contracts/token/ERC721/ERC721.sol\":8958:8975  _ownerOf(tokenId) */\n      jump\t// in\n    tag_467:\n        /* \"@openzeppelin/contracts/token/ERC721/ERC721.sol\":8943:8975  address from = _ownerOf(tokenId) */\n      swap1\n      pop\n        /* \"@openzeppelin/contracts/token/ERC721/ERC721.sol\":9051:9052  0 */\n      0x00\n        /* \"@openzeppelin/contracts/token/ERC721/ERC721.sol\":9035:9053  auth != address(0) */\n      0xffffffffffffffffffffffffffffffffffffffff\n      and\n        /* \"@openzeppelin/contracts/token/ERC721/ERC721.sol\":9035:9039  auth */\n      dup4\n        /* \"@openzeppelin/contracts/token/ERC721/ERC721.sol\":9035:9053  auth != address(0) */\n      0xffffffffffffffffffffffffffffffffffffffff\n      and\n      eq\n        /* \"@openzeppelin/contracts/token/ERC721/ERC721.sol\":9031:9117  if (auth != address(0)) {... */\n      tag_468\n      jumpi\n        /* \"@openzeppelin/contracts/token/ERC721/ERC721.sol\":9069:9106  _checkAuthorized(from, auth, tokenId) */\n      tag_469\n        /* \"@openzeppelin/contracts/token/ERC721/ERC721.sol\":9086:9090  from */\n      dup2\n        /* \"@openzeppelin/contracts/token/ERC721/ERC721.sol\":9092:9096  auth */\n      dup5\n        /* \"@openzeppelin/contracts/token/ERC721/ERC721.sol\":9098:9105  tokenId */\n      dup7\n        /* \"@openzeppelin/contracts/token/ERC721/ERC721.sol\":9069:9085  _checkAuthorized */\n      tag_470\n        /* \"@openzeppelin/contracts/token/ERC721/ERC721.sol\":9069:9106  _checkAuthorized(from, auth, tokenId) */\n      jump\t// in\n    tag_469:\n        /* \"@openzeppelin/contracts/token/ERC721/ERC721.sol\":9031:9117  if (auth != address(0)) {... */\n    tag_468:\n        /* \"@openzeppelin/contracts/token/ERC721/ERC721.sol\":9177:9178  0 */\n      0x00\n        /* \"@openzeppelin/contracts/token/ERC721/ERC721.sol\":9161:9179  from != address(0) */\n      0xffffffffffffffffffffffffffffffffffffffff\n      and\n        /* \"@openzeppelin/contracts/token/ERC721/ERC721.sol\":9161:9165  from */\n      dup2\n        /* \"@openzeppelin/contracts/token/ERC721/ERC721.sol\":9161:9179  from != address(0) */\n      0xffffffffffffffffffffffffffffffffffffffff\n      and\n      eq\n        /* \"@openzeppelin/contracts/token/ERC721/ERC721.sol\":9157:9413  if (from != address(0)) {... */\n      tag_471\n      jumpi\n        /* \"@openzeppelin/contracts/token/ERC721/ERC721.sol\":9277:9325  _approve(address(0), tokenId, address(0), false) */\n      tag_472\n        /* \"@openzeppelin/contracts/token/ERC721/ERC721.sol\":9294:9295  0 */\n      0x00\n        /* \"@openzeppelin/contracts/token/ERC721/ERC721.sol\":9298:9305  tokenId */\n      dup6\n        /* \"@openzeppelin/contracts/token/ERC721/ERC721.sol\":9315:9316  0 */\n      0x00\n        /* \"@openzeppelin/contracts/token/ERC721/ERC721.sol\":9319:9324  false */\n      dup1\n        /* \"@openzeppelin/contracts/token/ERC721/ERC721.sol\":9277:9285  _approve */\n      tag_318\n        /* \"@openzeppelin/contracts/token/ERC721/ERC721.sol\":9277:9325  _approve(address(0), tokenId, address(0), false) */\n      jump\t// in\n    tag_472:\n        /* \"@openzeppelin/contracts/token/ERC721/ERC721.sol\":9387:9388  1 */\n      0x01\n        /* \"@openzeppelin/contracts/token/ERC721/ERC721.sol\":9368:9377  _balances */\n      0x03\n        /* \"@openzeppelin/contracts/token/ERC721/ERC721.sol\":9368:9383  _balances[from] */\n      0x00\n        /* \"@openzeppelin/contracts/token/ERC721/ERC721.sol\":9378:9382  from */\n      dup4\n        /* \"@openzeppelin/contracts/token/ERC721/ERC721.sol\":9368:9383  _balances[from] */\n      0xffffffffffffffffffffffffffffffffffffffff\n      and\n      0xffffffffffffffffffffffffffffffffffffffff\n      and\n      dup2\n      mstore\n      0x20\n      add\n      swap1\n      dup2\n      mstore\n      0x20\n      add\n      0x00\n      keccak256\n      0x00\n        /* \"@openzeppelin/contracts/token/ERC721/ERC721.sol\":9368:9388  _balances[from] -= 1 */\n      dup3\n      dup3\n      sload\n      sub\n      swap3\n      pop\n      pop\n      dup2\n      swap1\n      sstore\n      pop\n        /* \"@openzeppelin/contracts/token/ERC721/ERC721.sol\":9157:9413  if (from != address(0)) {... */\n    tag_471:\n        /* \"@openzeppelin/contracts/token/ERC721/ERC721.sol\":9441:9442  0 */\n      0x00\n        /* \"@openzeppelin/contracts/token/ERC721/ERC721.sol\":9427:9443  to != address(0) */\n      0xffffffffffffffffffffffffffffffffffffffff\n      and\n        /* \"@openzeppelin/contracts/token/ERC721/ERC721.sol\":9427:9429  to */\n      dup6\n        /* \"@openzeppelin/contracts/token/ERC721/ERC721.sol\":9427:9443  to != address(0) */\n      0xffffffffffffffffffffffffffffffffffffffff\n      and\n      eq\n        /* \"@openzeppelin/contracts/token/ERC721/ERC721.sol\":9423:9530  if (to != address(0)) {... */\n      tag_473\n      jumpi\n        /* \"@openzeppelin/contracts/token/ERC721/ERC721.sol\":9504:9505  1 */\n      0x01\n        /* \"@openzeppelin/contracts/token/ERC721/ERC721.sol\":9487:9496  _balances */\n      0x03\n        /* \"@openzeppelin/contracts/token/ERC721/ERC721.sol\":9487:9500  _balances[to] */\n      0x00\n        /* \"@openzeppelin/contracts/token/ERC721/ERC721.sol\":9497:9499  to */\n      dup8\n        /* \"@openzeppelin/contracts/token/ERC721/ERC721.sol\":9487:9500  _balances[to] */\n      0xffffffffffffffffffffffffffffffffffffffff\n      and\n      0xffffffffffffffffffffffffffffffffffffffff\n      and\n      dup2\n      mstore\n      0x20\n      add\n      swap1\n      dup2\n      mstore\n      0x20\n      add\n      0x00\n      keccak256\n      0x00\n        /* \"@openzeppelin/contracts/token/ERC721/ERC721.sol\":9487:9505  _balances[to] += 1 */\n      dup3\n      dup3\n      sload\n      add\n      swap3\n      pop\n      pop\n      dup2\n      swap1\n      sstore\n      pop\n        /* \"@openzeppelin/contracts/token/ERC721/ERC721.sol\":9423:9530  if (to != address(0)) {... */\n    tag_473:\n        /* \"@openzeppelin/contracts/token/ERC721/ERC721.sol\":9559:9561  to */\n      dup5\n        /* \"@openzeppelin/contracts/token/ERC721/ERC721.sol\":9540:9547  _owners */\n      0x02\n        /* \"@openzeppelin/contracts/token/ERC721/ERC721.sol\":9540:9556  _owners[tokenId] */\n      0x00\n        /* \"@openzeppelin/contracts/token/ERC721/ERC721.sol\":9548:9555  tokenId */\n      dup7\n        /* \"@openzeppelin/contracts/token/ERC721/ERC721.sol\":9540:9556  _owners[tokenId] */\n      dup2\n      mstore\n      0x20\n      add\n      swap1\n      dup2\n      mstore\n      0x20\n      add\n      0x00\n      keccak256\n      0x00\n        /* \"@openzeppelin/contracts/token/ERC721/ERC721.sol\":9540:9561  _owners[tokenId] = to */\n      0x0100\n      exp\n      dup2\n      sload\n      dup2\n      0xffffffffffffffffffffffffffffffffffffffff\n      mul\n      not\n      and\n      swap1\n      dup4\n      0xffffffffffffffffffffffffffffffffffffffff\n      and\n      mul\n      or\n      swap1\n      sstore\n      pop\n        /* \"@openzeppelin/contracts/token/ERC721/ERC721.sol\":9596:9603  tokenId */\n      dup4\n        /* \"@openzeppelin/contracts/token/ERC721/ERC721.sol\":9592:9594  to */\n      dup6\n        /* \"@openzeppelin/contracts/token/ERC721/ERC721.sol\":9577:9604  Transfer(from, to, tokenId) */\n      0xffffffffffffffffffffffffffffffffffffffff\n      and\n        /* \"@openzeppelin/contracts/token/ERC721/ERC721.sol\":9586:9590  from */\n      dup3\n        /* \"@openzeppelin/contracts/token/ERC721/ERC721.sol\":9577:9604  Transfer(from, to, tokenId) */\n      0xffffffffffffffffffffffffffffffffffffffff\n      and\n      0xddf252ad1be2c89b69c2b068fc378daa952ba7f163c4a11628f55a4df523b3ef\n      mload(0x40)\n      mload(0x40)\n      dup1\n      swap2\n      sub\n      swap1\n      log4\n        /* \"@openzeppelin/contracts/token/ERC721/ERC721.sol\":9622:9626  from */\n      dup1\n        /* \"@openzeppelin/contracts/token/ERC721/ERC721.sol\":9615:9626  return from */\n      swap2\n      pop\n      pop\n        /* \"@openzeppelin/contracts/token/ERC721/ERC721.sol\":8838:9633  function _update(address to, uint256 tokenId, address auth) internal virtual returns (address) {... */\n      swap4\n      swap3\n      pop\n      pop\n      pop\n      jump\t// out\n        /* \"@openzeppelin/contracts/token/ERC721/extensions/ERC721Enumerable.sol\":3846:4007  function _addTokenToAllTokensEnumeration(uint256 tokenId) private {... */\n    tag_448:\n        /* \"@openzeppelin/contracts/token/ERC721/extensions/ERC721Enumerable.sol\":3949:3959  _allTokens */\n      0x08\n        /* \"@openzeppelin/contracts/token/ERC721/extensions/ERC721Enumerable.sol\":3949:3966  _allTokens.length */\n      dup1\n      sload\n      swap1\n      pop\n        /* \"@openzeppelin/contracts/token/ERC721/extensions/ERC721Enumerable.sol\":3922:3937  _allTokensIndex */\n      0x09\n        /* \"@openzeppelin/contracts/token/ERC721/extensions/ERC721Enumerable.sol\":3922:3946  _allTokensIndex[tokenId] */\n      0x00\n        /* \"@openzeppelin/contracts/token/ERC721/extensions/ERC721Enumerable.sol\":3938:3945  tokenId */\n      dup4\n        /* \"@openzeppelin/contracts/token/ERC721/extensions/ERC721Enumerable.sol\":3922:3946  _allTokensIndex[tokenId] */\n      dup2\n      mstore\n      0x20\n      add\n      swap1\n      dup2\n      mstore\n      0x20\n      add\n      0x00\n      keccak256\n        /* \"@openzeppelin/contracts/token/ERC721/extensions/ERC721Enumerable.sol\":3922:3966  _allTokensIndex[tokenId] = _allTokens.length */\n      dup2\n      swap1\n      sstore\n      pop\n        /* \"@openzeppelin/contracts/token/ERC721/extensions/ERC721Enumerable.sol\":3976:3986  _allTokens */\n      0x08\n        /* \"@openzeppelin/contracts/token/ERC721/extensions/ERC721Enumerable.sol\":3992:3999  tokenId */\n      dup2\n        /* \"@openzeppelin/contracts/token/ERC721/extensions/ERC721Enumerable.sol\":3976:4000  _allTokens.push(tokenId) */\n      swap1\n      dup1\n      0x01\n      dup2\n      sload\n      add\n      dup1\n      dup3\n      sstore\n      dup1\n      swap2\n      pop\n      pop\n      0x01\n      swap1\n      sub\n      swap1\n      0x00\n      mstore\n      keccak256(0x00, 0x20)\n      add\n      0x00\n      swap1\n      swap2\n      swap1\n      swap2\n      swap1\n      swap2\n      pop\n      sstore\n        /* \"@openzeppelin/contracts/token/ERC721/extensions/ERC721Enumerable.sol\":3846:4007  function _addTokenToAllTokensEnumeration(uint256 tokenId) private {... */\n      pop\n      jump\t// out\n        /* \"@openzeppelin/contracts/token/ERC721/extensions/ERC721Enumerable.sol\":4624:5583  function _removeTokenFromOwnerEnumeration(address from, uint256 tokenId) private {... */\n    tag_452:\n        /* \"@openzeppelin/contracts/token/ERC721/extensions/ERC721Enumerable.sol\":4886:4908  uint256 lastTokenIndex */\n      0x00\n        /* \"@openzeppelin/contracts/token/ERC721/extensions/ERC721Enumerable.sol\":4911:4926  balanceOf(from) */\n      tag_477\n        /* \"@openzeppelin/contracts/token/ERC721/extensions/ERC721Enumerable.sol\":4921:4925  from */\n      dup4\n        /* \"@openzeppelin/contracts/token/ERC721/extensions/ERC721Enumerable.sol\":4911:4920  balanceOf */\n      tag_125\n        /* \"@openzeppelin/contracts/token/ERC721/extensions/ERC721Enumerable.sol\":4911:4926  balanceOf(from) */\n      jump\t// in\n    tag_477:\n        /* \"@openzeppelin/contracts/token/ERC721/extensions/ERC721Enumerable.sol\":4886:4926  uint256 lastTokenIndex = balanceOf(from) */\n      swap1\n      pop\n        /* \"@openzeppelin/contracts/token/ERC721/extensions/ERC721Enumerable.sol\":4936:4954  uint256 tokenIndex */\n      0x00\n        /* \"@openzeppelin/contracts/token/ERC721/extensions/ERC721Enumerable.sol\":4957:4974  _ownedTokensIndex */\n      0x07\n        /* \"@openzeppelin/contracts/token/ERC721/extensions/ERC721Enumerable.sol\":4957:4983  _ownedTokensIndex[tokenId] */\n      0x00\n        /* \"@openzeppelin/contracts/token/ERC721/extensions/ERC721Enumerable.sol\":4975:4982  tokenId */\n      dup5\n        /* \"@openzeppelin/contracts/token/ERC721/extensions/ERC721Enumerable.sol\":4957:4983  _ownedTokensIndex[tokenId] */\n      dup2\n      mstore\n      0x20\n      add\n      swap1\n      dup2\n      mstore\n      0x20\n      add\n      0x00\n      keccak256\n      sload\n        /* \"@openzeppelin/contracts/token/ERC721/extensions/ERC721Enumerable.sol\":4936:4983  uint256 tokenIndex = _ownedTokensIndex[tokenId] */\n      swap1\n      pop\n        /* \"@openzeppelin/contracts/token/ERC721/extensions/ERC721Enumerable.sol\":5101:5115  lastTokenIndex */\n      dup2\n        /* \"@openzeppelin/contracts/token/ERC721/extensions/ERC721Enumerable.sol\":5087:5097  tokenIndex */\n      dup2\n        /* \"@openzeppelin/contracts/token/ERC721/extensions/ERC721Enumerable.sol\":5087:5115  tokenIndex != lastTokenIndex */\n      eq\n        /* \"@openzeppelin/contracts/token/ERC721/extensions/ERC721Enumerable.sol\":5083:5406  if (tokenIndex != lastTokenIndex) {... */\n      tag_478\n      jumpi\n        /* \"@openzeppelin/contracts/token/ERC721/extensions/ERC721Enumerable.sol\":5131:5150  uint256 lastTokenId */\n      0x00\n        /* \"@openzeppelin/contracts/token/ERC721/extensions/ERC721Enumerable.sol\":5153:5165  _ownedTokens */\n      0x06\n        /* \"@openzeppelin/contracts/token/ERC721/extensions/ERC721Enumerable.sol\":5153:5171  _ownedTokens[from] */\n      0x00\n        /* \"@openzeppelin/contracts/token/ERC721/extensions/ERC721Enumerable.sol\":5166:5170  from */\n      dup7\n        /* \"@openzeppelin/contracts/token/ERC721/extensions/ERC721Enumerable.sol\":5153:5171  _ownedTokens[from] */\n      0xffffffffffffffffffffffffffffffffffffffff\n      and\n      0xffffffffffffffffffffffffffffffffffffffff\n      and\n      dup2\n      mstore\n      0x20\n      add\n      swap1\n      dup2\n      mstore\n      0x20\n      add\n      0x00\n      keccak256\n        /* \"@openzeppelin/contracts/token/ERC721/extensions/ERC721Enumerable.sol\":5153:5187  _ownedTokens[from][lastTokenIndex] */\n      0x00\n        /* \"@openzeppelin/contracts/token/ERC721/extensions/ERC721Enumerable.sol\":5172:5186  lastTokenIndex */\n      dup5\n        /* \"@openzeppelin/contracts/token/ERC721/extensions/ERC721Enumerable.sol\":5153:5187  _ownedTokens[from][lastTokenIndex] */\n      dup2\n      mstore\n      0x20\n      add\n      swap1\n      dup2\n      mstore\n      0x20\n      add\n      0x00\n      keccak256\n      sload\n        /* \"@openzeppelin/contracts/token/ERC721/extensions/ERC721Enumerable.sol\":5131:5187  uint256 lastTokenId = _ownedTokens[from][lastTokenIndex] */\n      swap1\n      pop\n        /* \"@openzeppelin/contracts/token/ERC721/extensions/ERC721Enumerable.sol\":5235:5246  lastTokenId */\n      dup1\n        /* \"@openzeppelin/contracts/token/ERC721/extensions/ERC721Enumerable.sol\":5202:5214  _ownedTokens */\n      0x06\n        /* \"@openzeppelin/contracts/token/ERC721/extensions/ERC721Enumerable.sol\":5202:5220  _ownedTokens[from] */\n      0x00\n        /* \"@openzeppelin/contracts/token/ERC721/extensions/ERC721Enumerable.sol\":5215:5219  from */\n      dup8\n        /* \"@openzeppelin/contracts/token/ERC721/extensions/ERC721Enumerable.sol\":5202:5220  _ownedTokens[from] */\n      0xffffffffffffffffffffffffffffffffffffffff\n      and\n      0xffffffffffffffffffffffffffffffffffffffff\n      and\n      dup2\n      mstore\n      0x20\n      add\n      swap1\n      dup2\n      mstore\n      0x20\n      add\n      0x00\n      keccak256\n        /* \"@openzeppelin/contracts/token/ERC721/extensions/ERC721Enumerable.sol\":5202:5232  _ownedTokens[from][tokenIndex] */\n      0x00\n        /* \"@openzeppelin/contracts/token/ERC721/extensions/ERC721Enumerable.sol\":5221:5231  tokenIndex */\n      dup5\n        /* \"@openzeppelin/contracts/token/ERC721/extensions/ERC721Enumerable.sol\":5202:5232  _ownedTokens[from][tokenIndex] */\n      dup2\n      mstore\n      0x20\n      add\n      swap1\n      dup2\n      mstore\n      0x20\n      add\n      0x00\n      keccak256\n        /* \"@openzeppelin/contracts/token/ERC721/extensions/ERC721Enumerable.sol\":5202:5246  _ownedTokens[from][tokenIndex] = lastTokenId */\n      dup2\n      swap1\n      sstore\n      pop\n        /* \"@openzeppelin/contracts/token/ERC721/extensions/ERC721Enumerable.sol\":5351:5361  tokenIndex */\n      dup2\n        /* \"@openzeppelin/contracts/token/ERC721/extensions/ERC721Enumerable.sol\":5318:5335  _ownedTokensIndex */\n      0x07\n        /* \"@openzeppelin/contracts/token/ERC721/extensions/ERC721Enumerable.sol\":5318:5348  _ownedTokensIndex[lastTokenId] */\n      0x00\n        /* \"@openzeppelin/contracts/token/ERC721/extensions/ERC721Enumerable.sol\":5336:5347  lastTokenId */\n      dup4\n        /* \"@openzeppelin/contracts/token/ERC721/extensions/ERC721Enumerable.sol\":5318:5348  _ownedTokensIndex[lastTokenId] */\n      dup2\n      mstore\n      0x20\n      add\n      swap1\n      dup2\n      mstore\n      0x20\n      add\n      0x00\n      keccak256\n        /* \"@openzeppelin/contracts/token/ERC721/extensions/ERC721Enumerable.sol\":5318:5361  _ownedTokensIndex[lastTokenId] = tokenIndex */\n      dup2\n      swap1\n      sstore\n      pop\n        /* \"@openzeppelin/contracts/token/ERC721/extensions/ERC721Enumerable.sol\":5117:5406  {... */\n      pop\n        /* \"@openzeppelin/contracts/token/ERC721/extensions/ERC721Enumerable.sol\":5083:5406  if (tokenIndex != lastTokenIndex) {... */\n    tag_478:\n        /* \"@openzeppelin/contracts/token/ERC721/extensions/ERC721Enumerable.sol\":5499:5516  _ownedTokensIndex */\n      0x07\n        /* \"@openzeppelin/contracts/token/ERC721/extensions/ERC721Enumerable.sol\":5499:5525  _ownedTokensIndex[tokenId] */\n      0x00\n        /* \"@openzeppelin/contracts/token/ERC721/extensions/ERC721Enumerable.sol\":5517:5524  tokenId */\n      dup5\n        /* \"@openzeppelin/contracts/token/ERC721/extensions/ERC721Enumerable.sol\":5499:5525  _ownedTokensIndex[tokenId] */\n      dup2\n      mstore\n      0x20\n      add\n      swap1\n      dup2\n      mstore\n      0x20\n      add\n      0x00\n      keccak256\n        /* \"@openzeppelin/contracts/token/ERC721/extensions/ERC721Enumerable.sol\":5492:5525  delete _ownedTokensIndex[tokenId] */\n      0x00\n      swap1\n      sstore\n        /* \"@openzeppelin/contracts/token/ERC721/extensions/ERC721Enumerable.sol\":5542:5554  _ownedTokens */\n      0x06\n        /* \"@openzeppelin/contracts/token/ERC721/extensions/ERC721Enumerable.sol\":5542:5560  _ownedTokens[from] */\n      0x00\n        /* \"@openzeppelin/contracts/token/ERC721/extensions/ERC721Enumerable.sol\":5555:5559  from */\n      dup6\n        /* \"@openzeppelin/contracts/token/ERC721/extensions/ERC721Enumerable.sol\":5542:5560  _ownedTokens[from] */\n      0xffffffffffffffffffffffffffffffffffffffff\n      and\n      0xffffffffffffffffffffffffffffffffffffffff\n      and\n      dup2\n      mstore\n      0x20\n      add\n      swap1\n      dup2\n      mstore\n      0x20\n      add\n      0x00\n      keccak256\n        /* \"@openzeppelin/contracts/token/ERC721/extensions/ERC721Enumerable.sol\":5542:5576  _ownedTokens[from][lastTokenIndex] */\n      0x00\n        /* \"@openzeppelin/contracts/token/ERC721/extensions/ERC721Enumerable.sol\":5561:5575  lastTokenIndex */\n      dup4\n        /* \"@openzeppelin/contracts/token/ERC721/extensions/ERC721Enumerable.sol\":5542:5576  _ownedTokens[from][lastTokenIndex] */\n      dup2\n      mstore\n      0x20\n      add\n      swap1\n      dup2\n      mstore\n      0x20\n      add\n      0x00\n      keccak256\n        /* \"@openzeppelin/contracts/token/ERC721/extensions/ERC721Enumerable.sol\":5535:5576  delete _ownedTokens[from][lastTokenIndex] */\n      0x00\n      swap1\n      sstore\n        /* \"@openzeppelin/contracts/token/ERC721/extensions/ERC721Enumerable.sol\":4705:5583  {... */\n      pop\n      pop\n        /* \"@openzeppelin/contracts/token/ERC721/extensions/ERC721Enumerable.sol\":4624:5583  function _removeTokenFromOwnerEnumeration(address from, uint256 tokenId) private {... */\n      pop\n      pop\n      jump\t// out\n        /* \"@openzeppelin/contracts/token/ERC721/extensions/ERC721Enumerable.sol\":5871:6932  function _removeTokenFromAllTokensEnumeration(uint256 tokenId) private {... */\n    tag_455:\n        /* \"@openzeppelin/contracts/token/ERC721/extensions/ERC721Enumerable.sol\":6120:6142  uint256 lastTokenIndex */\n      0x00\n        /* \"@openzeppelin/contracts/token/ERC721/extensions/ERC721Enumerable.sol\":6165:6166  1 */\n      0x01\n        /* \"@openzeppelin/contracts/token/ERC721/extensions/ERC721Enumerable.sol\":6145:6155  _allTokens */\n      0x08\n        /* \"@openzeppelin/contracts/token/ERC721/extensions/ERC721Enumerable.sol\":6145:6162  _allTokens.length */\n      dup1\n      sload\n      swap1\n      pop\n        /* \"@openzeppelin/contracts/token/ERC721/extensions/ERC721Enumerable.sol\":6145:6166  _allTokens.length - 1 */\n      tag_480\n      swap2\n      swap1\n      tag_481\n      jump\t// in\n    tag_480:\n        /* \"@openzeppelin/contracts/token/ERC721/extensions/ERC721Enumerable.sol\":6120:6166  uint256 lastTokenIndex = _allTokens.length - 1 */\n      swap1\n      pop\n        /* \"@openzeppelin/contracts/token/ERC721/extensions/ERC721Enumerable.sol\":6176:6194  uint256 tokenIndex */\n      0x00\n        /* \"@openzeppelin/contracts/token/ERC721/extensions/ERC721Enumerable.sol\":6197:6212  _allTokensIndex */\n      0x09\n        /* \"@openzeppelin/contracts/token/ERC721/extensions/ERC721Enumerable.sol\":6197:6221  _allTokensIndex[tokenId] */\n      0x00\n        /* \"@openzeppelin/contracts/token/ERC721/extensions/ERC721Enumerable.sol\":6213:6220  tokenId */\n      dup5\n        /* \"@openzeppelin/contracts/token/ERC721/extensions/ERC721Enumerable.sol\":6197:6221  _allTokensIndex[tokenId] */\n      dup2\n      mstore\n      0x20\n      add\n      swap1\n      dup2\n      mstore\n      0x20\n      add\n      0x00\n      keccak256\n      sload\n        /* \"@openzeppelin/contracts/token/ERC721/extensions/ERC721Enumerable.sol\":6176:6221  uint256 tokenIndex = _allTokensIndex[tokenId] */\n      swap1\n      pop\n        /* \"@openzeppelin/contracts/token/ERC721/extensions/ERC721Enumerable.sol\":6543:6562  uint256 lastTokenId */\n      0x00\n        /* \"@openzeppelin/contracts/token/ERC721/extensions/ERC721Enumerable.sol\":6565:6575  _allTokens */\n      0x08\n        /* \"@openzeppelin/contracts/token/ERC721/extensions/ERC721Enumerable.sol\":6576:6590  lastTokenIndex */\n      dup4\n        /* \"@openzeppelin/contracts/token/ERC721/extensions/ERC721Enumerable.sol\":6565:6591  _allTokens[lastTokenIndex] */\n      dup2\n      sload\n      dup2\n      lt\n      tag_482\n      jumpi\n      tag_483\n      tag_241\n      jump\t// in\n    tag_483:\n    tag_482:\n      swap1\n      0x00\n      mstore\n      keccak256(0x00, 0x20)\n      add\n      sload\n        /* \"@openzeppelin/contracts/token/ERC721/extensions/ERC721Enumerable.sol\":6543:6591  uint256 lastTokenId = _allTokens[lastTokenIndex] */\n      swap1\n      pop\n        /* \"@openzeppelin/contracts/token/ERC721/extensions/ERC721Enumerable.sol\":6627:6638  lastTokenId */\n      dup1\n        /* \"@openzeppelin/contracts/token/ERC721/extensions/ERC721Enumerable.sol\":6602:6612  _allTokens */\n      0x08\n        /* \"@openzeppelin/contracts/token/ERC721/extensions/ERC721Enumerable.sol\":6613:6623  tokenIndex */\n      dup4\n        /* \"@openzeppelin/contracts/token/ERC721/extensions/ERC721Enumerable.sol\":6602:6624  _allTokens[tokenIndex] */\n      dup2\n      sload\n      dup2\n      lt\n      tag_485\n      jumpi\n      tag_486\n      tag_241\n      jump\t// in\n    tag_486:\n    tag_485:\n      swap1\n      0x00\n      mstore\n      keccak256(0x00, 0x20)\n      add\n        /* \"@openzeppelin/contracts/token/ERC721/extensions/ERC721Enumerable.sol\":6602:6638  _allTokens[tokenIndex] = lastTokenId */\n      dup2\n      swap1\n      sstore\n      pop\n        /* \"@openzeppelin/contracts/token/ERC721/extensions/ERC721Enumerable.sol\":6737:6747  tokenIndex */\n      dup2\n        /* \"@openzeppelin/contracts/token/ERC721/extensions/ERC721Enumerable.sol\":6706:6721  _allTokensIndex */\n      0x09\n        /* \"@openzeppelin/contracts/token/ERC721/extensions/ERC721Enumerable.sol\":6706:6734  _allTokensIndex[lastTokenId] */\n      0x00\n        /* \"@openzeppelin/contracts/token/ERC721/extensions/ERC721Enumerable.sol\":6722:6733  lastTokenId */\n      dup4\n        /* \"@openzeppelin/contracts/token/ERC721/extensions/ERC721Enumerable.sol\":6706:6734  _allTokensIndex[lastTokenId] */\n      dup2\n      mstore\n      0x20\n      add\n      swap1\n      dup2\n      mstore\n      0x20\n      add\n      0x00\n      keccak256\n        /* \"@openzeppelin/contracts/token/ERC721/extensions/ERC721Enumerable.sol\":6706:6747  _allTokensIndex[lastTokenId] = tokenIndex */\n      dup2\n      swap1\n      sstore\n      pop\n        /* \"@openzeppelin/contracts/token/ERC721/extensions/ERC721Enumerable.sol\":6875:6890  _allTokensIndex */\n      0x09\n        /* \"@openzeppelin/contracts/token/ERC721/extensions/ERC721Enumerable.sol\":6875:6899  _allTokensIndex[tokenId] */\n      0x00\n        /* \"@openzeppelin/contracts/token/ERC721/extensions/ERC721Enumerable.sol\":6891:6898  tokenId */\n      dup6\n        /* \"@openzeppelin/contracts/token/ERC721/extensions/ERC721Enumerable.sol\":6875:6899  _allTokensIndex[tokenId] */\n      dup2\n      mstore\n      0x20\n      add\n      swap1\n      dup2\n      mstore\n      0x20\n      add\n      0x00\n      keccak256\n        /* \"@openzeppelin/contracts/token/ERC721/extensions/ERC721Enumerable.sol\":6868:6899  delete _allTokensIndex[tokenId] */\n      0x00\n      swap1\n      sstore\n        /* \"@openzeppelin/contracts/token/ERC721/extensions/ERC721Enumerable.sol\":6909:6919  _allTokens */\n      0x08\n        /* \"@openzeppelin/contracts/token/ERC721/extensions/ERC721Enumerable.sol\":6909:6925  _allTokens.pop() */\n      dup1\n      sload\n      dup1\n      tag_488\n      jumpi\n      tag_489\n      tag_490\n      jump\t// in\n    tag_489:\n    tag_488:\n      0x01\n      swap1\n      sub\n      dup2\n      dup2\n      swap1\n      0x00\n      mstore\n      keccak256(0x00, 0x20)\n      add\n      0x00\n      swap1\n      sstore\n      swap1\n      sstore\n        /* \"@openzeppelin/contracts/token/ERC721/extensions/ERC721Enumerable.sol\":5942:6932  {... */\n      pop\n      pop\n      pop\n        /* \"@openzeppelin/contracts/token/ERC721/extensions/ERC721Enumerable.sol\":5871:6932  function _removeTokenFromAllTokensEnumeration(uint256 tokenId) private {... */\n      pop\n      jump\t// out\n        /* \"@openzeppelin/contracts/token/ERC721/extensions/ERC721Enumerable.sol\":3437:3651  function _addTokenToOwnerEnumeration(address to, uint256 tokenId) private {... */\n    tag_459:\n        /* \"@openzeppelin/contracts/token/ERC721/extensions/ERC721Enumerable.sol\":3521:3535  uint256 length */\n      0x00\n        /* \"@openzeppelin/contracts/token/ERC721/extensions/ERC721Enumerable.sol\":3554:3555  1 */\n      0x01\n        /* \"@openzeppelin/contracts/token/ERC721/extensions/ERC721Enumerable.sol\":3538:3551  balanceOf(to) */\n      tag_493\n        /* \"@openzeppelin/contracts/token/ERC721/extensions/ERC721Enumerable.sol\":3548:3550  to */\n      dup5\n        /* \"@openzeppelin/contracts/token/ERC721/extensions/ERC721Enumerable.sol\":3538:3547  balanceOf */\n      tag_125\n        /* \"@openzeppelin/contracts/token/ERC721/extensions/ERC721Enumerable.sol\":3538:3551  balanceOf(to) */\n      jump\t// in\n    tag_493:\n        /* \"@openzeppelin/contracts/token/ERC721/extensions/ERC721Enumerable.sol\":3538:3555  balanceOf(to) - 1 */\n      tag_494\n      swap2\n      swap1\n      tag_481\n      jump\t// in\n    tag_494:\n        /* \"@openzeppelin/contracts/token/ERC721/extensions/ERC721Enumerable.sol\":3521:3555  uint256 length = balanceOf(to) - 1 */\n      swap1\n      pop\n        /* \"@openzeppelin/contracts/token/ERC721/extensions/ERC721Enumerable.sol\":3592:3599  tokenId */\n      dup2\n        /* \"@openzeppelin/contracts/token/ERC721/extensions/ERC721Enumerable.sol\":3565:3577  _ownedTokens */\n      0x06\n        /* \"@openzeppelin/contracts/token/ERC721/extensions/ERC721Enumerable.sol\":3565:3581  _ownedTokens[to] */\n      0x00\n        /* \"@openzeppelin/contracts/token/ERC721/extensions/ERC721Enumerable.sol\":3578:3580  to */\n      dup6\n        /* \"@openzeppelin/contracts/token/ERC721/extensions/ERC721Enumerable.sol\":3565:3581  _ownedTokens[to] */\n      0xffffffffffffffffffffffffffffffffffffffff\n      and\n      0xffffffffffffffffffffffffffffffffffffffff\n      and\n      dup2\n      mstore\n      0x20\n      add\n      swap1\n      dup2\n      mstore\n      0x20\n      add\n      0x00\n      keccak256\n        /* \"@openzeppelin/contracts/token/ERC721/extensions/ERC721Enumerable.sol\":3565:3589  _ownedTokens[to][length] */\n      0x00\n        /* \"@openzeppelin/contracts/token/ERC721/extensions/ERC721Enumerable.sol\":3582:3588  length */\n      dup4\n        /* \"@openzeppelin/contracts/token/ERC721/extensions/ERC721Enumerable.sol\":3565:3589  _ownedTokens[to][length] */\n      dup2\n      mstore\n      0x20\n      add\n      swap1\n      dup2\n      mstore\n      0x20\n      add\n      0x00\n      keccak256\n        /* \"@openzeppelin/contracts/token/ERC721/extensions/ERC721Enumerable.sol\":3565:3599  _ownedTokens[to][length] = tokenId */\n      dup2\n      swap1\n      sstore\n      pop\n        /* \"@openzeppelin/contracts/token/ERC721/extensions/ERC721Enumerable.sol\":3638:3644  length */\n      dup1\n        /* \"@openzeppelin/contracts/token/ERC721/extensions/ERC721Enumerable.sol\":3609:3626  _ownedTokensIndex */\n      0x07\n        /* \"@openzeppelin/contracts/token/ERC721/extensions/ERC721Enumerable.sol\":3609:3635  _ownedTokensIndex[tokenId] */\n      0x00\n        /* \"@openzeppelin/contracts/token/ERC721/extensions/ERC721Enumerable.sol\":3627:3634  tokenId */\n      dup5\n        /* \"@openzeppelin/contracts/token/ERC721/extensions/ERC721Enumerable.sol\":3609:3635  _ownedTokensIndex[tokenId] */\n      dup2\n      mstore\n      0x20\n      add\n      swap1\n      dup2\n      mstore\n      0x20\n      add\n      0x00\n      keccak256\n        /* \"@openzeppelin/contracts/token/ERC721/extensions/ERC721Enumerable.sol\":3609:3644  _ownedTokensIndex[tokenId] = length */\n      dup2\n      swap1\n      sstore\n      pop\n        /* \"@openzeppelin/contracts/token/ERC721/extensions/ERC721Enumerable.sol\":3511:3651  {... */\n      pop\n        /* \"@openzeppelin/contracts/token/ERC721/extensions/ERC721Enumerable.sol\":3437:3651  function _addTokenToOwnerEnumeration(address to, uint256 tokenId) private {... */\n      pop\n      pop\n      jump\t// out\n        /* \"@openzeppelin/contracts/token/ERC721/ERC721.sol\":7082:7450  function _checkAuthorized(address owner, address spender, uint256 tokenId) internal view virtual {... */\n    tag_470:\n        /* \"@openzeppelin/contracts/token/ERC721/ERC721.sol\":7194:7232  _isAuthorized(owner, spender, tokenId) */\n      tag_496\n        /* \"@openzeppelin/contracts/token/ERC721/ERC721.sol\":7208:7213  owner */\n      dup4\n        /* \"@openzeppelin/contracts/token/ERC721/ERC721.sol\":7215:7222  spender */\n      dup4\n        /* \"@openzeppelin/contracts/token/ERC721/ERC721.sol\":7224:7231  tokenId */\n      dup4\n        /* \"@openzeppelin/contracts/token/ERC721/ERC721.sol\":7194:7207  _isAuthorized */\n      tag_497\n        /* \"@openzeppelin/contracts/token/ERC721/ERC721.sol\":7194:7232  _isAuthorized(owner, spender, tokenId) */\n      jump\t// in\n    tag_496:\n        /* \"@openzeppelin/contracts/token/ERC721/ERC721.sol\":7189:7444  if (!_isAuthorized(owner, spender, tokenId)) {... */\n      tag_498\n      jumpi\n        /* \"@openzeppelin/contracts/token/ERC721/ERC721.sol\":7269:7270  0 */\n      0x00\n        /* \"@openzeppelin/contracts/token/ERC721/ERC721.sol\":7252:7271  owner == address(0) */\n      0xffffffffffffffffffffffffffffffffffffffff\n      and\n        /* \"@openzeppelin/contracts/token/ERC721/ERC721.sol\":7252:7257  owner */\n      dup4\n        /* \"@openzeppelin/contracts/token/ERC721/ERC721.sol\":7252:7271  owner == address(0) */\n      0xffffffffffffffffffffffffffffffffffffffff\n      and\n      sub\n        /* \"@openzeppelin/contracts/token/ERC721/ERC721.sol\":7248:7434  if (owner == address(0)) {... */\n      tag_499\n      jumpi\n        /* \"@openzeppelin/contracts/token/ERC721/ERC721.sol\":7321:7328  tokenId */\n      dup1\n        /* \"@openzeppelin/contracts/token/ERC721/ERC721.sol\":7298:7329  ERC721NonexistentToken(tokenId) */\n      mload(0x40)\n      0x7e27328900000000000000000000000000000000000000000000000000000000\n      dup2\n      mstore\n      0x04\n      add\n      tag_500\n      swap2\n      swap1\n      tag_68\n      jump\t// in\n    tag_500:\n      mload(0x40)\n      dup1\n      swap2\n      sub\n      swap1\n      revert\n        /* \"@openzeppelin/contracts/token/ERC721/ERC721.sol\":7248:7434  if (owner == address(0)) {... */\n    tag_499:\n        /* \"@openzeppelin/contracts/token/ERC721/ERC721.sol\":7402:7409  spender */\n      dup2\n        /* \"@openzeppelin/contracts/token/ERC721/ERC721.sol\":7411:7418  tokenId */\n      dup2\n        /* \"@openzeppelin/contracts/token/ERC721/ERC721.sol\":7375:7419  ERC721InsufficientApproval(spender, tokenId) */\n      mload(0x40)\n      0x177e802f00000000000000000000000000000000000000000000000000000000\n      dup2\n      mstore\n      0x04\n      add\n      tag_502\n      swap3\n      swap2\n      swap1\n      tag_227\n      jump\t// in\n    tag_502:\n      mload(0x40)\n      dup1\n      swap2\n      sub\n      swap1\n      revert\n        /* \"@openzeppelin/contracts/token/ERC721/ERC721.sol\":7189:7444  if (!_isAuthorized(owner, spender, tokenId)) {... */\n    tag_498:\n        /* \"@openzeppelin/contracts/token/ERC721/ERC721.sol\":7082:7450  function _checkAuthorized(address owner, address spender, uint256 tokenId) internal view virtual {... */\n      pop\n      pop\n      pop\n      jump\t// out\n        /* \"@openzeppelin/contracts/token/ERC721/ERC721.sol\":6376:6648  function _isAuthorized(address owner, address spender, uint256 tokenId) internal view virtual returns (bool) {... */\n    tag_497:\n        /* \"@openzeppelin/contracts/token/ERC721/ERC721.sol\":6479:6483  bool */\n      0x00\n        /* \"@openzeppelin/contracts/token/ERC721/ERC721.sol\":6533:6534  0 */\n      dup1\n        /* \"@openzeppelin/contracts/token/ERC721/ERC721.sol\":6514:6535  spender != address(0) */\n      0xffffffffffffffffffffffffffffffffffffffff\n      and\n        /* \"@openzeppelin/contracts/token/ERC721/ERC721.sol\":6514:6521  spender */\n      dup4\n        /* \"@openzeppelin/contracts/token/ERC721/ERC721.sol\":6514:6535  spender != address(0) */\n      0xffffffffffffffffffffffffffffffffffffffff\n      and\n      eq\n      iszero\n        /* \"@openzeppelin/contracts/token/ERC721/ERC721.sol\":6514:6641  spender != address(0) &&... */\n      dup1\n      iszero\n      tag_504\n      jumpi\n      pop\n        /* \"@openzeppelin/contracts/token/ERC721/ERC721.sol\":6561:6568  spender */\n      dup3\n        /* \"@openzeppelin/contracts/token/ERC721/ERC721.sol\":6552:6568  owner == spender */\n      0xffffffffffffffffffffffffffffffffffffffff\n      and\n        /* \"@openzeppelin/contracts/token/ERC721/ERC721.sol\":6552:6557  owner */\n      dup5\n        /* \"@openzeppelin/contracts/token/ERC721/ERC721.sol\":6552:6568  owner == spender */\n      0xffffffffffffffffffffffffffffffffffffffff\n      and\n      eq\n        /* \"@openzeppelin/contracts/token/ERC721/ERC721.sol\":6552:6604  owner == spender || isApprovedForAll(owner, spender) */\n      dup1\n      tag_505\n      jumpi\n      pop\n        /* \"@openzeppelin/contracts/token/ERC721/ERC721.sol\":6572:6604  isApprovedForAll(owner, spender) */\n      tag_506\n        /* \"@openzeppelin/contracts/token/ERC721/ERC721.sol\":6589:6594  owner */\n      dup5\n        /* \"@openzeppelin/contracts/token/ERC721/ERC721.sol\":6596:6603  spender */\n      dup5\n        /* \"@openzeppelin/contracts/token/ERC721/ERC721.sol\":6572:6588  isApprovedForAll */\n      tag_164\n        /* \"@openzeppelin/contracts/token/ERC721/ERC721.sol\":6572:6604  isApprovedForAll(owner, spender) */\n      jump\t// in\n    tag_506:\n        /* \"@openzeppelin/contracts/token/ERC721/ERC721.sol\":6552:6604  owner == spender || isApprovedForAll(owner, spender) */\n    tag_505:\n        /* \"@openzeppelin/contracts/token/ERC721/ERC721.sol\":6552:6640  owner == spender || isApprovedForAll(owner, spender) || _getApproved(tokenId) == spender */\n      dup1\n      tag_507\n      jumpi\n      pop\n        /* \"@openzeppelin/contracts/token/ERC721/ERC721.sol\":6633:6640  spender */\n      dup3\n        /* \"@openzeppelin/contracts/token/ERC721/ERC721.sol\":6608:6640  _getApproved(tokenId) == spender */\n      0xffffffffffffffffffffffffffffffffffffffff\n      and\n        /* \"@openzeppelin/contracts/token/ERC721/ERC721.sol\":6608:6629  _getApproved(tokenId) */\n      tag_508\n        /* \"@openzeppelin/contracts/token/ERC721/ERC721.sol\":6621:6628  tokenId */\n      dup4\n        /* \"@openzeppelin/contracts/token/ERC721/ERC721.sol\":6608:6620  _getApproved */\n      tag_184\n        /* \"@openzeppelin/contracts/token/ERC721/ERC721.sol\":6608:6629  _getApproved(tokenId) */\n      jump\t// in\n    tag_508:\n        /* \"@openzeppelin/contracts/token/ERC721/ERC721.sol\":6608:6640  _getApproved(tokenId) == spender */\n      0xffffffffffffffffffffffffffffffffffffffff\n      and\n      eq\n        /* \"@openzeppelin/contracts/token/ERC721/ERC721.sol\":6552:6640  owner == spender || isApprovedForAll(owner, spender) || _getApproved(tokenId) == spender */\n    tag_507:\n        /* \"@openzeppelin/contracts/token/ERC721/ERC721.sol\":6514:6641  spender != address(0) &&... */\n    tag_504:\n        /* \"@openzeppelin/contracts/token/ERC721/ERC721.sol\":6495:6641  return... */\n      swap1\n      pop\n        /* \"@openzeppelin/contracts/token/ERC721/ERC721.sol\":6376:6648  function _isAuthorized(address owner, address spender, uint256 tokenId) internal view virtual returns (bool) {... */\n      swap4\n      swap3\n      pop\n      pop\n      pop\n      jump\t// out\n        /* \"#utility.yul\":7:82   */\n    tag_509:\n        /* \"#utility.yul\":40:46   */\n      0x00\n        /* \"#utility.yul\":73:75   */\n      0x40\n        /* \"#utility.yul\":67:76   */\n      mload\n        /* \"#utility.yul\":57:76   */\n      swap1\n      pop\n        /* \"#utility.yul\":7:82   */\n      swap1\n      jump\t// out\n        /* \"#utility.yul\":88:205   */\n    tag_510:\n        /* \"#utility.yul\":197:198   */\n      0x00\n        /* \"#utility.yul\":194:195   */\n      dup1\n        /* \"#utility.yul\":187:199   */\n      revert\n        /* \"#utility.yul\":211:328   */\n    tag_511:\n        /* \"#utility.yul\":320:321   */\n      0x00\n        /* \"#utility.yul\":317:318   */\n      dup1\n        /* \"#utility.yul\":310:322   */\n      revert\n        /* \"#utility.yul\":334:483   */\n    tag_512:\n        /* \"#utility.yul\":370:377   */\n      0x00\n        /* \"#utility.yul\":410:476   */\n      0xffffffff00000000000000000000000000000000000000000000000000000000\n        /* \"#utility.yul\":403:408   */\n      dup3\n        /* \"#utility.yul\":399:477   */\n      and\n        /* \"#utility.yul\":388:477   */\n      swap1\n      pop\n        /* \"#utility.yul\":334:483   */\n      swap2\n      swap1\n      pop\n      jump\t// out\n        /* \"#utility.yul\":489:609   */\n    tag_513:\n        /* \"#utility.yul\":561:584   */\n      tag_568\n        /* \"#utility.yul\":578:583   */\n      dup2\n        /* \"#utility.yul\":561:584   */\n      tag_512\n      jump\t// in\n    tag_568:\n        /* \"#utility.yul\":554:559   */\n      dup2\n        /* \"#utility.yul\":551:585   */\n      eq\n        /* \"#utility.yul\":541:603   */\n      tag_569\n      jumpi\n        /* \"#utility.yul\":599:600   */\n      0x00\n        /* \"#utility.yul\":596:597   */\n      dup1\n        /* \"#utility.yul\":589:601   */\n      revert\n        /* \"#utility.yul\":541:603   */\n    tag_569:\n        /* \"#utility.yul\":489:609   */\n      pop\n      jump\t// out\n        /* \"#utility.yul\":615:752   */\n    tag_514:\n        /* \"#utility.yul\":660:665   */\n      0x00\n        /* \"#utility.yul\":698:704   */\n      dup2\n        /* \"#utility.yul\":685:705   */\n      calldataload\n        /* \"#utility.yul\":676:705   */\n      swap1\n      pop\n        /* \"#utility.yul\":714:746   */\n      tag_571\n        /* \"#utility.yul\":740:745   */\n      dup2\n        /* \"#utility.yul\":714:746   */\n      tag_513\n      jump\t// in\n    tag_571:\n        /* \"#utility.yul\":615:752   */\n      swap3\n      swap2\n      pop\n      pop\n      jump\t// out\n        /* \"#utility.yul\":758:1085   */\n    tag_41:\n        /* \"#utility.yul\":816:822   */\n      0x00\n        /* \"#utility.yul\":865:867   */\n      0x20\n        /* \"#utility.yul\":853:862   */\n      dup3\n        /* \"#utility.yul\":844:851   */\n      dup5\n        /* \"#utility.yul\":840:863   */\n      sub\n        /* \"#utility.yul\":836:868   */\n      slt\n        /* \"#utility.yul\":833:952   */\n      iszero\n      tag_573\n      jumpi\n        /* \"#utility.yul\":871:950   */\n      tag_574\n      tag_510\n      jump\t// in\n    tag_574:\n        /* \"#utility.yul\":833:952   */\n    tag_573:\n        /* \"#utility.yul\":991:992   */\n      0x00\n        /* \"#utility.yul\":1016:1068   */\n      tag_575\n        /* \"#utility.yul\":1060:1067   */\n      dup5\n        /* \"#utility.yul\":1051:1057   */\n      dup3\n        /* \"#utility.yul\":1040:1049   */\n      dup6\n        /* \"#utility.yul\":1036:1058   */\n      add\n        /* \"#utility.yul\":1016:1068   */\n      tag_514\n      jump\t// in\n    tag_575:\n        /* \"#utility.yul\":1006:1068   */\n      swap2\n      pop\n        /* \"#utility.yul\":962:1078   */\n      pop\n        /* \"#utility.yul\":758:1085   */\n      swap3\n      swap2\n      pop\n      pop\n      jump\t// out\n        /* \"#utility.yul\":1091:1181   */\n    tag_515:\n        /* \"#utility.yul\":1125:1132   */\n      0x00\n        /* \"#utility.yul\":1168:1173   */\n      dup2\n        /* \"#utility.yul\":1161:1174   */\n      iszero\n        /* \"#utility.yul\":1154:1175   */\n      iszero\n        /* \"#utility.yul\":1143:1175   */\n      swap1\n      pop\n        /* \"#utility.yul\":1091:1181   */\n      swap2\n      swap1\n      pop\n      jump\t// out\n        /* \"#utility.yul\":1187:1296   */\n    tag_516:\n        /* \"#utility.yul\":1268:1289   */\n      tag_578\n        /* \"#utility.yul\":1283:1288   */\n      dup2\n        /* \"#utility.yul\":1268:1289   */\n      tag_515\n      jump\t// in\n    tag_578:\n        /* \"#utility.yul\":1263:1266   */\n      dup3\n        /* \"#utility.yul\":1256:1290   */\n      mstore\n        /* \"#utility.yul\":1187:1296   */\n      pop\n      pop\n      jump\t// out\n        /* \"#utility.yul\":1302:1512   */\n    tag_44:\n        /* \"#utility.yul\":1389:1393   */\n      0x00\n        /* \"#utility.yul\":1427:1429   */\n      0x20\n        /* \"#utility.yul\":1416:1425   */\n      dup3\n        /* \"#utility.yul\":1412:1430   */\n      add\n        /* \"#utility.yul\":1404:1430   */\n      swap1\n      pop\n        /* \"#utility.yul\":1440:1505   */\n      tag_580\n        /* \"#utility.yul\":1502:1503   */\n      0x00\n        /* \"#utility.yul\":1491:1500   */\n      dup4\n        /* \"#utility.yul\":1487:1504   */\n      add\n        /* \"#utility.yul\":1478:1484   */\n      dup5\n        /* \"#utility.yul\":1440:1505   */\n      tag_516\n      jump\t// in\n    tag_580:\n        /* \"#utility.yul\":1302:1512   */\n      swap3\n      swap2\n      pop\n      pop\n      jump\t// out\n        /* \"#utility.yul\":1518:1617   */\n    tag_517:\n        /* \"#utility.yul\":1570:1576   */\n      0x00\n        /* \"#utility.yul\":1604:1609   */\n      dup2\n        /* \"#utility.yul\":1598:1610   */\n      mload\n        /* \"#utility.yul\":1588:1610   */\n      swap1\n      pop\n        /* \"#utility.yul\":1518:1617   */\n      swap2\n      swap1\n      pop\n      jump\t// out\n        /* \"#utility.yul\":1623:1792   */\n    tag_518:\n        /* \"#utility.yul\":1707:1718   */\n      0x00\n        /* \"#utility.yul\":1741:1747   */\n      dup3\n        /* \"#utility.yul\":1736:1739   */\n      dup3\n        /* \"#utility.yul\":1729:1748   */\n      mstore\n        /* \"#utility.yul\":1781:1785   */\n      0x20\n        /* \"#utility.yul\":1776:1779   */\n      dup3\n        /* \"#utility.yul\":1772:1786   */\n      add\n        /* \"#utility.yul\":1757:1786   */\n      swap1\n      pop\n        /* \"#utility.yul\":1623:1792   */\n      swap3\n      swap2\n      pop\n      pop\n      jump\t// out\n        /* \"#utility.yul\":1798:1937   */\n    tag_519:\n        /* \"#utility.yul\":1887:1893   */\n      dup3\n        /* \"#utility.yul\":1882:1885   */\n      dup2\n        /* \"#utility.yul\":1877:1880   */\n      dup4\n        /* \"#utility.yul\":1871:1894   */\n      mcopy\n        /* \"#utility.yul\":1928:1929   */\n      0x00\n        /* \"#utility.yul\":1919:1925   */\n      dup4\n        /* \"#utility.yul\":1914:1917   */\n      dup4\n        /* \"#utility.yul\":1910:1926   */\n      add\n        /* \"#utility.yul\":1903:1930   */\n      mstore\n        /* \"#utility.yul\":1798:1937   */\n      pop\n      pop\n      pop\n      jump\t// out\n        /* \"#utility.yul\":1943:2045   */\n    tag_520:\n        /* \"#utility.yul\":1984:1990   */\n      0x00\n        /* \"#utility.yul\":2035:2037   */\n      0x1f\n        /* \"#utility.yul\":2031:2038   */\n      not\n        /* \"#utility.yul\":2026:2028   */\n      0x1f\n        /* \"#utility.yul\":2019:2024   */\n      dup4\n        /* \"#utility.yul\":2015:2029   */\n      add\n        /* \"#utility.yul\":2011:2039   */\n      and\n        /* \"#utility.yul\":2001:2039   */\n      swap1\n      pop\n        /* \"#utility.yul\":1943:2045   */\n      swap2\n      swap1\n      pop\n      jump\t// out\n        /* \"#utility.yul\":2051:2428   */\n    tag_521:\n        /* \"#utility.yul\":2139:2142   */\n      0x00\n        /* \"#utility.yul\":2167:2206   */\n      tag_586\n        /* \"#utility.yul\":2200:2205   */\n      dup3\n        /* \"#utility.yul\":2167:2206   */\n      tag_517\n      jump\t// in\n    tag_586:\n        /* \"#utility.yul\":2222:2293   */\n      tag_587\n        /* \"#utility.yul\":2286:2292   */\n      dup2\n        /* \"#utility.yul\":2281:2284   */\n      dup6\n        /* \"#utility.yul\":2222:2293   */\n      tag_518\n      jump\t// in\n    tag_587:\n        /* \"#utility.yul\":2215:2293   */\n      swap4\n      pop\n        /* \"#utility.yul\":2302:2367   */\n      tag_588\n        /* \"#utility.yul\":2360:2366   */\n      dup2\n        /* \"#utility.yul\":2355:2358   */\n      dup6\n        /* \"#utility.yul\":2348:2352   */\n      0x20\n        /* \"#utility.yul\":2341:2346   */\n      dup7\n        /* \"#utility.yul\":2337:2353   */\n      add\n        /* \"#utility.yul\":2302:2367   */\n      tag_519\n      jump\t// in\n    tag_588:\n        /* \"#utility.yul\":2392:2421   */\n      tag_589\n        /* \"#utility.yul\":2414:2420   */\n      dup2\n        /* \"#utility.yul\":2392:2421   */\n      tag_520\n      jump\t// in\n    tag_589:\n        /* \"#utility.yul\":2387:2390   */\n      dup5\n        /* \"#utility.yul\":2383:2422   */\n      add\n        /* \"#utility.yul\":2376:2422   */\n      swap2\n      pop\n        /* \"#utility.yul\":2143:2428   */\n      pop\n        /* \"#utility.yul\":2051:2428   */\n      swap3\n      swap2\n      pop\n      pop\n      jump\t// out\n        /* \"#utility.yul\":2434:2747   */\n    tag_49:\n        /* \"#utility.yul\":2547:2551   */\n      0x00\n        /* \"#utility.yul\":2585:2587   */\n      0x20\n        /* \"#utility.yul\":2574:2583   */\n      dup3\n        /* \"#utility.yul\":2570:2588   */\n      add\n        /* \"#utility.yul\":2562:2588   */\n      swap1\n      pop\n        /* \"#utility.yul\":2634:2643   */\n      dup2\n        /* \"#utility.yul\":2628:2632   */\n      dup2\n        /* \"#utility.yul\":2624:2644   */\n      sub\n        /* \"#utility.yul\":2620:2621   */\n      0x00\n        /* \"#utility.yul\":2609:2618   */\n      dup4\n        /* \"#utility.yul\":2605:2622   */\n      add\n        /* \"#utility.yul\":2598:2645   */\n      mstore\n        /* \"#utility.yul\":2662:2740   */\n      tag_591\n        /* \"#utility.yul\":2735:2739   */\n      dup2\n        /* \"#utility.yul\":2726:2732   */\n      dup5\n        /* \"#utility.yul\":2662:2740   */\n      tag_521\n      jump\t// in\n    tag_591:\n        /* \"#utility.yul\":2654:2740   */\n      swap1\n      pop\n        /* \"#utility.yul\":2434:2747   */\n      swap3\n      swap2\n      pop\n      pop\n      jump\t// out\n        /* \"#utility.yul\":2753:2830   */\n    tag_522:\n        /* \"#utility.yul\":2790:2797   */\n      0x00\n        /* \"#utility.yul\":2819:2824   */\n      dup2\n        /* \"#utility.yul\":2808:2824   */\n      swap1\n      pop\n        /* \"#utility.yul\":2753:2830   */\n      swap2\n      swap1\n      pop\n      jump\t// out\n        /* \"#utility.yul\":2836:2958   */\n    tag_523:\n        /* \"#utility.yul\":2909:2933   */\n      tag_594\n        /* \"#utility.yul\":2927:2932   */\n      dup2\n        /* \"#utility.yul\":2909:2933   */\n      tag_522\n      jump\t// in\n    tag_594:\n        /* \"#utility.yul\":2902:2907   */\n      dup2\n        /* \"#utility.yul\":2899:2934   */\n      eq\n        /* \"#utility.yul\":2889:2952   */\n      tag_595\n      jumpi\n        /* \"#utility.yul\":2948:2949   */\n      0x00\n        /* \"#utility.yul\":2945:2946   */\n      dup1\n        /* \"#utility.yul\":2938:2950   */\n      revert\n        /* \"#utility.yul\":2889:2952   */\n    tag_595:\n        /* \"#utility.yul\":2836:2958   */\n      pop\n      jump\t// out\n        /* \"#utility.yul\":2964:3103   */\n    tag_524:\n        /* \"#utility.yul\":3010:3015   */\n      0x00\n        /* \"#utility.yul\":3048:3054   */\n      dup2\n        /* \"#utility.yul\":3035:3055   */\n      calldataload\n        /* \"#utility.yul\":3026:3055   */\n      swap1\n      pop\n        /* \"#utility.yul\":3064:3097   */\n      tag_597\n        /* \"#utility.yul\":3091:3096   */\n      dup2\n        /* \"#utility.yul\":3064:3097   */\n      tag_523\n      jump\t// in\n    tag_597:\n        /* \"#utility.yul\":2964:3103   */\n      swap3\n      swap2\n      pop\n      pop\n      jump\t// out\n        /* \"#utility.yul\":3109:3438   */\n    tag_53:\n        /* \"#utility.yul\":3168:3174   */\n      0x00\n        /* \"#utility.yul\":3217:3219   */\n      0x20\n        /* \"#utility.yul\":3205:3214   */\n      dup3\n        /* \"#utility.yul\":3196:3203   */\n      dup5\n        /* \"#utility.yul\":3192:3215   */\n      sub\n        /* \"#utility.yul\":3188:3220   */\n      slt\n        /* \"#utility.yul\":3185:3304   */\n      iszero\n      tag_599\n      jumpi\n        /* \"#utility.yul\":3223:3302   */\n      tag_600\n      tag_510\n      jump\t// in\n    tag_600:\n        /* \"#utility.yul\":3185:3304   */\n    tag_599:\n        /* \"#utility.yul\":3343:3344   */\n      0x00\n        /* \"#utility.yul\":3368:3421   */\n      tag_601\n        /* \"#utility.yul\":3413:3420   */\n      dup5\n        /* \"#utility.yul\":3404:3410   */\n      dup3\n        /* \"#utility.yul\":3393:3402   */\n      dup6\n        /* \"#utility.yul\":3389:3411   */\n      add\n        /* \"#utility.yul\":3368:3421   */\n      tag_524\n      jump\t// in\n    tag_601:\n        /* \"#utility.yul\":3358:3421   */\n      swap2\n      pop\n        /* \"#utility.yul\":3314:3431   */\n      pop\n        /* \"#utility.yul\":3109:3438   */\n      swap3\n      swap2\n      pop\n      pop\n      jump\t// out\n        /* \"#utility.yul\":3444:3570   */\n    tag_525:\n        /* \"#utility.yul\":3481:3488   */\n      0x00\n        /* \"#utility.yul\":3521:3563   */\n      0xffffffffffffffffffffffffffffffffffffffff\n        /* \"#utility.yul\":3514:3519   */\n      dup3\n        /* \"#utility.yul\":3510:3564   */\n      and\n        /* \"#utility.yul\":3499:3564   */\n      swap1\n      pop\n        /* \"#utility.yul\":3444:3570   */\n      swap2\n      swap1\n      pop\n      jump\t// out\n        /* \"#utility.yul\":3576:3672   */\n    tag_526:\n        /* \"#utility.yul\":3613:3620   */\n      0x00\n        /* \"#utility.yul\":3642:3666   */\n      tag_604\n        /* \"#utility.yul\":3660:3665   */\n      dup3\n        /* \"#utility.yul\":3642:3666   */\n      tag_525\n      jump\t// in\n    tag_604:\n        /* \"#utility.yul\":3631:3666   */\n      swap1\n      pop\n        /* \"#utility.yul\":3576:3672   */\n      swap2\n      swap1\n      pop\n      jump\t// out\n        /* \"#utility.yul\":3678:3796   */\n    tag_527:\n        /* \"#utility.yul\":3765:3789   */\n      tag_606\n        /* \"#utility.yul\":3783:3788   */\n      dup2\n        /* \"#utility.yul\":3765:3789   */\n      tag_526\n      jump\t// in\n    tag_606:\n        /* \"#utility.yul\":3760:3763   */\n      dup3\n        /* \"#utility.yul\":3753:3790   */\n      mstore\n        /* \"#utility.yul\":3678:3796   */\n      pop\n      pop\n      jump\t// out\n        /* \"#utility.yul\":3802:4024   */\n    tag_56:\n        /* \"#utility.yul\":3895:3899   */\n      0x00\n        /* \"#utility.yul\":3933:3935   */\n      0x20\n        /* \"#utility.yul\":3922:3931   */\n      dup3\n        /* \"#utility.yul\":3918:3936   */\n      add\n        /* \"#utility.yul\":3910:3936   */\n      swap1\n      pop\n        /* \"#utility.yul\":3946:4017   */\n      tag_608\n        /* \"#utility.yul\":4014:4015   */\n      0x00\n        /* \"#utility.yul\":4003:4012   */\n      dup4\n        /* \"#utility.yul\":3999:4016   */\n      add\n        /* \"#utility.yul\":3990:3996   */\n      dup5\n        /* \"#utility.yul\":3946:4017   */\n      tag_527\n      jump\t// in\n    tag_608:\n        /* \"#utility.yul\":3802:4024   */\n      swap3\n      swap2\n      pop\n      pop\n      jump\t// out\n        /* \"#utility.yul\":4030:4152   */\n    tag_528:\n        /* \"#utility.yul\":4103:4127   */\n      tag_610\n        /* \"#utility.yul\":4121:4126   */\n      dup2\n        /* \"#utility.yul\":4103:4127   */\n      tag_526\n      jump\t// in\n    tag_610:\n        /* \"#utility.yul\":4096:4101   */\n      dup2\n        /* \"#utility.yul\":4093:4128   */\n      eq\n        /* \"#utility.yul\":4083:4146   */\n      tag_611\n      jumpi\n        /* \"#utility.yul\":4142:4143   */\n      0x00\n        /* \"#utility.yul\":4139:4140   */\n      dup1\n        /* \"#utility.yul\":4132:4144   */\n      revert\n        /* \"#utility.yul\":4083:4146   */\n    tag_611:\n        /* \"#utility.yul\":4030:4152   */\n      pop\n      jump\t// out\n        /* \"#utility.yul\":4158:4297   */\n    tag_529:\n        /* \"#utility.yul\":4204:4209   */\n      0x00\n        /* \"#utility.yul\":4242:4248   */\n      dup2\n        /* \"#utility.yul\":4229:4249   */\n      calldataload\n        /* \"#utility.yul\":4220:4249   */\n      swap1\n      pop\n        /* \"#utility.yul\":4258:4291   */\n      tag_613\n        /* \"#utility.yul\":4285:4290   */\n      dup2\n        /* \"#utility.yul\":4258:4291   */\n      tag_528\n      jump\t// in\n    tag_613:\n        /* \"#utility.yul\":4158:4297   */\n      swap3\n      swap2\n      pop\n      pop\n      jump\t// out\n        /* \"#utility.yul\":4303:4777   */\n    tag_60:\n        /* \"#utility.yul\":4371:4377   */\n      0x00\n        /* \"#utility.yul\":4379:4385   */\n      dup1\n        /* \"#utility.yul\":4428:4430   */\n      0x40\n        /* \"#utility.yul\":4416:4425   */\n      dup4\n        /* \"#utility.yul\":4407:4414   */\n      dup6\n        /* \"#utility.yul\":4403:4426   */\n      sub\n        /* \"#utility.yul\":4399:4431   */\n      slt\n        /* \"#utility.yul\":4396:4515   */\n      iszero\n      tag_615\n      jumpi\n        /* \"#utility.yul\":4434:4513   */\n      tag_616\n      tag_510\n      jump\t// in\n    tag_616:\n        /* \"#utility.yul\":4396:4515   */\n    tag_615:\n        /* \"#utility.yul\":4554:4555   */\n      0x00\n        /* \"#utility.yul\":4579:4632   */\n      tag_617\n        /* \"#utility.yul\":4624:4631   */\n      dup6\n        /* \"#utility.yul\":4615:4621   */\n      dup3\n        /* \"#utility.yul\":4604:4613   */\n      dup7\n        /* \"#utility.yul\":4600:4622   */\n      add\n        /* \"#utility.yul\":4579:4632   */\n      tag_529\n      jump\t// in\n    tag_617:\n        /* \"#utility.yul\":4569:4632   */\n      swap3\n      pop\n        /* \"#utility.yul\":4525:4642   */\n      pop\n        /* \"#utility.yul\":4681:4683   */\n      0x20\n        /* \"#utility.yul\":4707:4760   */\n      tag_618\n        /* \"#utility.yul\":4752:4759   */\n      dup6\n        /* \"#utility.yul\":4743:4749   */\n      dup3\n        /* \"#utility.yul\":4732:4741   */\n      dup7\n        /* \"#utility.yul\":4728:4750   */\n      add\n        /* \"#utility.yul\":4707:4760   */\n      tag_524\n      jump\t// in\n    tag_618:\n        /* \"#utility.yul\":4697:4760   */\n      swap2\n      pop\n        /* \"#utility.yul\":4652:4770   */\n      pop\n        /* \"#utility.yul\":4303:4777   */\n      swap3\n      pop\n      swap3\n      swap1\n      pop\n      jump\t// out\n        /* \"#utility.yul\":4783:4901   */\n    tag_530:\n        /* \"#utility.yul\":4870:4894   */\n      tag_620\n        /* \"#utility.yul\":4888:4893   */\n      dup2\n        /* \"#utility.yul\":4870:4894   */\n      tag_522\n      jump\t// in\n    tag_620:\n        /* \"#utility.yul\":4865:4868   */\n      dup3\n        /* \"#utility.yul\":4858:4895   */\n      mstore\n        /* \"#utility.yul\":4783:4901   */\n      pop\n      pop\n      jump\t// out\n        /* \"#utility.yul\":4907:5129   */\n    tag_68:\n        /* \"#utility.yul\":5000:5004   */\n      0x00\n        /* \"#utility.yul\":5038:5040   */\n      0x20\n        /* \"#utility.yul\":5027:5036   */\n      dup3\n        /* \"#utility.yul\":5023:5041   */\n      add\n        /* \"#utility.yul\":5015:5041   */\n      swap1\n      pop\n        /* \"#utility.yul\":5051:5122   */\n      tag_622\n        /* \"#utility.yul\":5119:5120   */\n      0x00\n        /* \"#utility.yul\":5108:5117   */\n      dup4\n        /* \"#utility.yul\":5104:5121   */\n      add\n        /* \"#utility.yul\":5095:5101   */\n      dup5\n        /* \"#utility.yul\":5051:5122   */\n      tag_530\n      jump\t// in\n    tag_622:\n        /* \"#utility.yul\":4907:5129   */\n      swap3\n      swap2\n      pop\n      pop\n      jump\t// out\n        /* \"#utility.yul\":5135:5754   */\n    tag_72:\n        /* \"#utility.yul\":5212:5218   */\n      0x00\n        /* \"#utility.yul\":5220:5226   */\n      dup1\n        /* \"#utility.yul\":5228:5234   */\n      0x00\n        /* \"#utility.yul\":5277:5279   */\n      0x60\n        /* \"#utility.yul\":5265:5274   */\n      dup5\n        /* \"#utility.yul\":5256:5263   */\n      dup7\n        /* \"#utility.yul\":5252:5275   */\n      sub\n        /* \"#utility.yul\":5248:5280   */\n      slt\n        /* \"#utility.yul\":5245:5364   */\n      iszero\n      tag_624\n      jumpi\n        /* \"#utility.yul\":5283:5362   */\n      tag_625\n      tag_510\n      jump\t// in\n    tag_625:\n        /* \"#utility.yul\":5245:5364   */\n    tag_624:\n        /* \"#utility.yul\":5403:5404   */\n      0x00\n        /* \"#utility.yul\":5428:5481   */\n      tag_626\n        /* \"#utility.yul\":5473:5480   */\n      dup7\n        /* \"#utility.yul\":5464:5470   */\n      dup3\n        /* \"#utility.yul\":5453:5462   */\n      dup8\n        /* \"#utility.yul\":5449:5471   */\n      add\n        /* \"#utility.yul\":5428:5481   */\n      tag_529\n      jump\t// in\n    tag_626:\n        /* \"#utility.yul\":5418:5481   */\n      swap4\n      pop\n        /* \"#utility.yul\":5374:5491   */\n      pop\n        /* \"#utility.yul\":5530:5532   */\n      0x20\n        /* \"#utility.yul\":5556:5609   */\n      tag_627\n        /* \"#utility.yul\":5601:5608   */\n      dup7\n        /* \"#utility.yul\":5592:5598   */\n      dup3\n        /* \"#utility.yul\":5581:5590   */\n      dup8\n        /* \"#utility.yul\":5577:5599   */\n      add\n        /* \"#utility.yul\":5556:5609   */\n      tag_529\n      jump\t// in\n    tag_627:\n        /* \"#utility.yul\":5546:5609   */\n      swap3\n      pop\n        /* \"#utility.yul\":5501:5619   */\n      pop\n        /* \"#utility.yul\":5658:5660   */\n      0x40\n        /* \"#utility.yul\":5684:5737   */\n      tag_628\n        /* \"#utility.yul\":5729:5736   */\n      dup7\n        /* \"#utility.yul\":5720:5726   */\n      dup3\n        /* \"#utility.yul\":5709:5718   */\n      dup8\n        /* \"#utility.yul\":5705:5727   */\n      add\n        /* \"#utility.yul\":5684:5737   */\n      tag_524\n      jump\t// in\n    tag_628:\n        /* \"#utility.yul\":5674:5737   */\n      swap2\n      pop\n        /* \"#utility.yul\":5629:5747   */\n      pop\n        /* \"#utility.yul\":5135:5754   */\n      swap3\n      pop\n      swap3\n      pop\n      swap3\n      jump\t// out\n        /* \"#utility.yul\":5760:6089   */\n    tag_79:\n        /* \"#utility.yul\":5819:5825   */\n      0x00\n        /* \"#utility.yul\":5868:5870   */\n      0x20\n        /* \"#utility.yul\":5856:5865   */\n      dup3\n        /* \"#utility.yul\":5847:5854   */\n      dup5\n        /* \"#utility.yul\":5843:5866   */\n      sub\n        /* \"#utility.yul\":5839:5871   */\n      slt\n        /* \"#utility.yul\":5836:5955   */\n      iszero\n      tag_630\n      jumpi\n        /* \"#utility.yul\":5874:5953   */\n      tag_631\n      tag_510\n      jump\t// in\n    tag_631:\n        /* \"#utility.yul\":5836:5955   */\n    tag_630:\n        /* \"#utility.yul\":5994:5995   */\n      0x00\n        /* \"#utility.yul\":6019:6072   */\n      tag_632\n        /* \"#utility.yul\":6064:6071   */\n      dup5\n        /* \"#utility.yul\":6055:6061   */\n      dup3\n        /* \"#utility.yul\":6044:6053   */\n      dup6\n        /* \"#utility.yul\":6040:6062   */\n      add\n        /* \"#utility.yul\":6019:6072   */\n      tag_529\n      jump\t// in\n    tag_632:\n        /* \"#utility.yul\":6009:6072   */\n      swap2\n      pop\n        /* \"#utility.yul\":5965:6082   */\n      pop\n        /* \"#utility.yul\":5760:6089   */\n      swap3\n      swap2\n      pop\n      pop\n      jump\t// out\n        /* \"#utility.yul\":6095:6211   */\n    tag_531:\n        /* \"#utility.yul\":6165:6186   */\n      tag_634\n        /* \"#utility.yul\":6180:6185   */\n      dup2\n        /* \"#utility.yul\":6165:6186   */\n      tag_515\n      jump\t// in\n    tag_634:\n        /* \"#utility.yul\":6158:6163   */\n      dup2\n        /* \"#utility.yul\":6155:6187   */\n      eq\n        /* \"#utility.yul\":6145:6205   */\n      tag_635\n      jumpi\n        /* \"#utility.yul\":6201:6202   */\n      0x00\n        /* \"#utility.yul\":6198:6199   */\n      dup1\n        /* \"#utility.yul\":6191:6203   */\n      revert\n        /* \"#utility.yul\":6145:6205   */\n    tag_635:\n        /* \"#utility.yul\":6095:6211   */\n      pop\n      jump\t// out\n        /* \"#utility.yul\":6217:6350   */\n    tag_532:\n        /* \"#utility.yul\":6260:6265   */\n      0x00\n        /* \"#utility.yul\":6298:6304   */\n      dup2\n        /* \"#utility.yul\":6285:6305   */\n      calldataload\n        /* \"#utility.yul\":6276:6305   */\n      swap1\n      pop\n        /* \"#utility.yul\":6314:6344   */\n      tag_637\n        /* \"#utility.yul\":6338:6343   */\n      dup2\n        /* \"#utility.yul\":6314:6344   */\n      tag_531\n      jump\t// in\n    tag_637:\n        /* \"#utility.yul\":6217:6350   */\n      swap3\n      swap2\n      pop\n      pop\n      jump\t// out\n        /* \"#utility.yul\":6356:6818   */\n    tag_85:\n        /* \"#utility.yul\":6418:6424   */\n      0x00\n        /* \"#utility.yul\":6426:6432   */\n      dup1\n        /* \"#utility.yul\":6475:6477   */\n      0x40\n        /* \"#utility.yul\":6463:6472   */\n      dup4\n        /* \"#utility.yul\":6454:6461   */\n      dup6\n        /* \"#utility.yul\":6450:6473   */\n      sub\n        /* \"#utility.yul\":6446:6478   */\n      slt\n        /* \"#utility.yul\":6443:6562   */\n      iszero\n      tag_639\n      jumpi\n        /* \"#utility.yul\":6481:6560   */\n      tag_640\n      tag_510\n      jump\t// in\n    tag_640:\n        /* \"#utility.yul\":6443:6562   */\n    tag_639:\n        /* \"#utility.yul\":6601:6602   */\n      0x00\n        /* \"#utility.yul\":6626:6676   */\n      tag_641\n        /* \"#utility.yul\":6668:6675   */\n      dup6\n        /* \"#utility.yul\":6659:6665   */\n      dup3\n        /* \"#utility.yul\":6648:6657   */\n      dup7\n        /* \"#utility.yul\":6644:6666   */\n      add\n        /* \"#utility.yul\":6626:6676   */\n      tag_532\n      jump\t// in\n    tag_641:\n        /* \"#utility.yul\":6616:6676   */\n      swap3\n      pop\n        /* \"#utility.yul\":6572:6686   */\n      pop\n        /* \"#utility.yul\":6725:6727   */\n      0x20\n        /* \"#utility.yul\":6751:6801   */\n      tag_642\n        /* \"#utility.yul\":6793:6800   */\n      dup6\n        /* \"#utility.yul\":6784:6790   */\n      dup3\n        /* \"#utility.yul\":6773:6782   */\n      dup7\n        /* \"#utility.yul\":6769:6791   */\n      add\n        /* \"#utility.yul\":6751:6801   */\n      tag_532\n      jump\t// in\n    tag_642:\n        /* \"#utility.yul\":6741:6801   */\n      swap2\n      pop\n        /* \"#utility.yul\":6696:6811   */\n      pop\n        /* \"#utility.yul\":6356:6818   */\n      swap3\n      pop\n      swap3\n      swap1\n      pop\n      jump\t// out\n        /* \"#utility.yul\":6824:6941   */\n    tag_533:\n        /* \"#utility.yul\":6933:6934   */\n      0x00\n        /* \"#utility.yul\":6930:6931   */\n      dup1\n        /* \"#utility.yul\":6923:6935   */\n      revert\n        /* \"#utility.yul\":6947:7064   */\n    tag_534:\n        /* \"#utility.yul\":7056:7057   */\n      0x00\n        /* \"#utility.yul\":7053:7054   */\n      dup1\n        /* \"#utility.yul\":7046:7058   */\n      revert\n        /* \"#utility.yul\":7070:7187   */\n    tag_535:\n        /* \"#utility.yul\":7179:7180   */\n      0x00\n        /* \"#utility.yul\":7176:7177   */\n      dup1\n        /* \"#utility.yul\":7169:7181   */\n      revert\n        /* \"#utility.yul\":7210:7778   */\n    tag_536:\n        /* \"#utility.yul\":7283:7291   */\n      0x00\n        /* \"#utility.yul\":7293:7299   */\n      dup1\n        /* \"#utility.yul\":7343:7346   */\n      dup4\n        /* \"#utility.yul\":7336:7340   */\n      0x1f\n        /* \"#utility.yul\":7328:7334   */\n      dup5\n        /* \"#utility.yul\":7324:7341   */\n      add\n        /* \"#utility.yul\":7320:7347   */\n      slt\n        /* \"#utility.yul\":7310:7432   */\n      tag_647\n      jumpi\n        /* \"#utility.yul\":7351:7430   */\n      tag_648\n      tag_533\n      jump\t// in\n    tag_648:\n        /* \"#utility.yul\":7310:7432   */\n    tag_647:\n        /* \"#utility.yul\":7464:7470   */\n      dup3\n        /* \"#utility.yul\":7451:7471   */\n      calldataload\n        /* \"#utility.yul\":7441:7471   */\n      swap1\n      pop\n        /* \"#utility.yul\":7494:7512   */\n      0xffffffffffffffff\n        /* \"#utility.yul\":7486:7492   */\n      dup2\n        /* \"#utility.yul\":7483:7513   */\n      gt\n        /* \"#utility.yul\":7480:7597   */\n      iszero\n      tag_649\n      jumpi\n        /* \"#utility.yul\":7516:7595   */\n      tag_650\n      tag_534\n      jump\t// in\n    tag_650:\n        /* \"#utility.yul\":7480:7597   */\n    tag_649:\n        /* \"#utility.yul\":7630:7634   */\n      0x20\n        /* \"#utility.yul\":7622:7628   */\n      dup4\n        /* \"#utility.yul\":7618:7635   */\n      add\n        /* \"#utility.yul\":7606:7635   */\n      swap2\n      pop\n        /* \"#utility.yul\":7684:7687   */\n      dup4\n        /* \"#utility.yul\":7676:7680   */\n      0x20\n        /* \"#utility.yul\":7668:7674   */\n      dup3\n        /* \"#utility.yul\":7664:7681   */\n      mul\n        /* \"#utility.yul\":7654:7662   */\n      dup4\n        /* \"#utility.yul\":7650:7682   */\n      add\n        /* \"#utility.yul\":7647:7688   */\n      gt\n        /* \"#utility.yul\":7644:7772   */\n      iszero\n      tag_651\n      jumpi\n        /* \"#utility.yul\":7691:7770   */\n      tag_652\n      tag_535\n      jump\t// in\n    tag_652:\n        /* \"#utility.yul\":7644:7772   */\n    tag_651:\n        /* \"#utility.yul\":7210:7778   */\n      swap3\n      pop\n      swap3\n      swap1\n      pop\n      jump\t// out\n        /* \"#utility.yul\":7784:8343   */\n    tag_120:\n        /* \"#utility.yul\":7870:7876   */\n      0x00\n        /* \"#utility.yul\":7878:7884   */\n      dup1\n        /* \"#utility.yul\":7927:7929   */\n      0x20\n        /* \"#utility.yul\":7915:7924   */\n      dup4\n        /* \"#utility.yul\":7906:7913   */\n      dup6\n        /* \"#utility.yul\":7902:7925   */\n      sub\n        /* \"#utility.yul\":7898:7930   */\n      slt\n        /* \"#utility.yul\":7895:8014   */\n      iszero\n      tag_654\n      jumpi\n        /* \"#utility.yul\":7933:8012   */\n      tag_655\n      tag_510\n      jump\t// in\n    tag_655:\n        /* \"#utility.yul\":7895:8014   */\n    tag_654:\n        /* \"#utility.yul\":8081:8082   */\n      0x00\n        /* \"#utility.yul\":8070:8079   */\n      dup4\n        /* \"#utility.yul\":8066:8083   */\n      add\n        /* \"#utility.yul\":8053:8084   */\n      calldataload\n        /* \"#utility.yul\":8111:8129   */\n      0xffffffffffffffff\n        /* \"#utility.yul\":8103:8109   */\n      dup2\n        /* \"#utility.yul\":8100:8130   */\n      gt\n        /* \"#utility.yul\":8097:8214   */\n      iszero\n      tag_656\n      jumpi\n        /* \"#utility.yul\":8133:8212   */\n      tag_657\n      tag_511\n      jump\t// in\n    tag_657:\n        /* \"#utility.yul\":8097:8214   */\n    tag_656:\n        /* \"#utility.yul\":8246:8326   */\n      tag_658\n        /* \"#utility.yul\":8318:8325   */\n      dup6\n        /* \"#utility.yul\":8309:8315   */\n      dup3\n        /* \"#utility.yul\":8298:8307   */\n      dup7\n        /* \"#utility.yul\":8294:8316   */\n      add\n        /* \"#utility.yul\":8246:8326   */\n      tag_536\n      jump\t// in\n    tag_658:\n        /* \"#utility.yul\":8228:8326   */\n      swap3\n      pop\n      swap3\n      pop\n        /* \"#utility.yul\":8024:8336   */\n      pop\n        /* \"#utility.yul\":7784:8343   */\n      swap3\n      pop\n      swap3\n      swap1\n      pop\n      jump\t// out\n        /* \"#utility.yul\":8349:8817   */\n    tag_144:\n        /* \"#utility.yul\":8414:8420   */\n      0x00\n        /* \"#utility.yul\":8422:8428   */\n      dup1\n        /* \"#utility.yul\":8471:8473   */\n      0x40\n        /* \"#utility.yul\":8459:8468   */\n      dup4\n        /* \"#utility.yul\":8450:8457   */\n      dup6\n        /* \"#utility.yul\":8446:8469   */\n      sub\n        /* \"#utility.yul\":8442:8474   */\n      slt\n        /* \"#utility.yul\":8439:8558   */\n      iszero\n      tag_660\n      jumpi\n        /* \"#utility.yul\":8477:8556   */\n      tag_661\n      tag_510\n      jump\t// in\n    tag_661:\n        /* \"#utility.yul\":8439:8558   */\n    tag_660:\n        /* \"#utility.yul\":8597:8598   */\n      0x00\n        /* \"#utility.yul\":8622:8675   */\n      tag_662\n        /* \"#utility.yul\":8667:8674   */\n      dup6\n        /* \"#utility.yul\":8658:8664   */\n      dup3\n        /* \"#utility.yul\":8647:8656   */\n      dup7\n        /* \"#utility.yul\":8643:8665   */\n      add\n        /* \"#utility.yul\":8622:8675   */\n      tag_529\n      jump\t// in\n    tag_662:\n        /* \"#utility.yul\":8612:8675   */\n      swap3\n      pop\n        /* \"#utility.yul\":8568:8685   */\n      pop\n        /* \"#utility.yul\":8724:8726   */\n      0x20\n        /* \"#utility.yul\":8750:8800   */\n      tag_663\n        /* \"#utility.yul\":8792:8799   */\n      dup6\n        /* \"#utility.yul\":8783:8789   */\n      dup3\n        /* \"#utility.yul\":8772:8781   */\n      dup7\n        /* \"#utility.yul\":8768:8790   */\n      add\n        /* \"#utility.yul\":8750:8800   */\n      tag_532\n      jump\t// in\n    tag_663:\n        /* \"#utility.yul\":8740:8800   */\n      swap2\n      pop\n        /* \"#utility.yul\":8695:8810   */\n      pop\n        /* \"#utility.yul\":8349:8817   */\n      swap3\n      pop\n      swap3\n      swap1\n      pop\n      jump\t// out\n        /* \"#utility.yul\":8823:8940   */\n    tag_537:\n        /* \"#utility.yul\":8932:8933   */\n      0x00\n        /* \"#utility.yul\":8929:8930   */\n      dup1\n        /* \"#utility.yul\":8922:8934   */\n      revert\n        /* \"#utility.yul\":8946:9126   */\n    tag_380:\n        /* \"#utility.yul\":8994:9071   */\n      0x4e487b7100000000000000000000000000000000000000000000000000000000\n        /* \"#utility.yul\":8991:8992   */\n      0x00\n        /* \"#utility.yul\":8984:9072   */\n      mstore\n        /* \"#utility.yul\":9091:9095   */\n      0x41\n        /* \"#utility.yul\":9088:9089   */\n      0x04\n        /* \"#utility.yul\":9081:9096   */\n      mstore\n        /* \"#utility.yul\":9115:9119   */\n      0x24\n        /* \"#utility.yul\":9112:9113   */\n      0x00\n        /* \"#utility.yul\":9105:9120   */\n      revert\n        /* \"#utility.yul\":9132:9413   */\n    tag_538:\n        /* \"#utility.yul\":9215:9242   */\n      tag_667\n        /* \"#utility.yul\":9237:9241   */\n      dup3\n        /* \"#utility.yul\":9215:9242   */\n      tag_520\n      jump\t// in\n    tag_667:\n        /* \"#utility.yul\":9207:9213   */\n      dup2\n        /* \"#utility.yul\":9203:9243   */\n      add\n        /* \"#utility.yul\":9345:9351   */\n      dup2\n        /* \"#utility.yul\":9333:9343   */\n      dup2\n        /* \"#utility.yul\":9330:9352   */\n      lt\n        /* \"#utility.yul\":9309:9327   */\n      0xffffffffffffffff\n        /* \"#utility.yul\":9297:9307   */\n      dup3\n        /* \"#utility.yul\":9294:9328   */\n      gt\n        /* \"#utility.yul\":9291:9353   */\n      or\n        /* \"#utility.yul\":9288:9376   */\n      iszero\n      tag_668\n      jumpi\n        /* \"#utility.yul\":9356:9374   */\n      tag_669\n      tag_380\n      jump\t// in\n    tag_669:\n        /* \"#utility.yul\":9288:9376   */\n    tag_668:\n        /* \"#utility.yul\":9396:9406   */\n      dup1\n        /* \"#utility.yul\":9392:9394   */\n      0x40\n        /* \"#utility.yul\":9385:9407   */\n      mstore\n        /* \"#utility.yul\":9175:9413   */\n      pop\n        /* \"#utility.yul\":9132:9413   */\n      pop\n      pop\n      jump\t// out\n        /* \"#utility.yul\":9419:9548   */\n    tag_539:\n        /* \"#utility.yul\":9453:9459   */\n      0x00\n        /* \"#utility.yul\":9480:9500   */\n      tag_671\n      tag_509\n      jump\t// in\n    tag_671:\n        /* \"#utility.yul\":9470:9500   */\n      swap1\n      pop\n        /* \"#utility.yul\":9509:9542   */\n      tag_672\n        /* \"#utility.yul\":9537:9541   */\n      dup3\n        /* \"#utility.yul\":9529:9535   */\n      dup3\n        /* \"#utility.yul\":9509:9542   */\n      tag_538\n      jump\t// in\n    tag_672:\n        /* \"#utility.yul\":9419:9548   */\n      swap2\n      swap1\n      pop\n      jump\t// out\n        /* \"#utility.yul\":9554:9861   */\n    tag_540:\n        /* \"#utility.yul\":9615:9619   */\n      0x00\n        /* \"#utility.yul\":9705:9723   */\n      0xffffffffffffffff\n        /* \"#utility.yul\":9697:9703   */\n      dup3\n        /* \"#utility.yul\":9694:9724   */\n      gt\n        /* \"#utility.yul\":9691:9747   */\n      iszero\n      tag_674\n      jumpi\n        /* \"#utility.yul\":9727:9745   */\n      tag_675\n      tag_380\n      jump\t// in\n    tag_675:\n        /* \"#utility.yul\":9691:9747   */\n    tag_674:\n        /* \"#utility.yul\":9765:9794   */\n      tag_676\n        /* \"#utility.yul\":9787:9793   */\n      dup3\n        /* \"#utility.yul\":9765:9794   */\n      tag_520\n      jump\t// in\n    tag_676:\n        /* \"#utility.yul\":9757:9794   */\n      swap1\n      pop\n        /* \"#utility.yul\":9849:9853   */\n      0x20\n        /* \"#utility.yul\":9843:9847   */\n      dup2\n        /* \"#utility.yul\":9839:9854   */\n      add\n        /* \"#utility.yul\":9831:9854   */\n      swap1\n      pop\n        /* \"#utility.yul\":9554:9861   */\n      swap2\n      swap1\n      pop\n      jump\t// out\n        /* \"#utility.yul\":9867:10015   */\n    tag_541:\n        /* \"#utility.yul\":9965:9971   */\n      dup3\n        /* \"#utility.yul\":9960:9963   */\n      dup2\n        /* \"#utility.yul\":9955:9958   */\n      dup4\n        /* \"#utility.yul\":9942:9972   */\n      calldatacopy\n        /* \"#utility.yul\":10006:10007   */\n      0x00\n        /* \"#utility.yul\":9997:10003   */\n      dup4\n        /* \"#utility.yul\":9992:9995   */\n      dup4\n        /* \"#utility.yul\":9988:10004   */\n      add\n        /* \"#utility.yul\":9981:10008   */\n      mstore\n        /* \"#utility.yul\":9867:10015   */\n      pop\n      pop\n      pop\n      jump\t// out\n        /* \"#utility.yul\":10021:10444   */\n    tag_542:\n        /* \"#utility.yul\":10098:10103   */\n      0x00\n        /* \"#utility.yul\":10123:10188   */\n      tag_679\n        /* \"#utility.yul\":10139:10187   */\n      tag_680\n        /* \"#utility.yul\":10180:10186   */\n      dup5\n        /* \"#utility.yul\":10139:10187   */\n      tag_540\n      jump\t// in\n    tag_680:\n        /* \"#utility.yul\":10123:10188   */\n      tag_539\n      jump\t// in\n    tag_679:\n        /* \"#utility.yul\":10114:10188   */\n      swap1\n      pop\n        /* \"#utility.yul\":10211:10217   */\n      dup3\n        /* \"#utility.yul\":10204:10209   */\n      dup2\n        /* \"#utility.yul\":10197:10218   */\n      mstore\n        /* \"#utility.yul\":10249:10253   */\n      0x20\n        /* \"#utility.yul\":10242:10247   */\n      dup2\n        /* \"#utility.yul\":10238:10254   */\n      add\n        /* \"#utility.yul\":10287:10290   */\n      dup5\n        /* \"#utility.yul\":10278:10284   */\n      dup5\n        /* \"#utility.yul\":10273:10276   */\n      dup5\n        /* \"#utility.yul\":10269:10285   */\n      add\n        /* \"#utility.yul\":10266:10291   */\n      gt\n        /* \"#utility.yul\":10263:10375   */\n      iszero\n      tag_681\n      jumpi\n        /* \"#utility.yul\":10294:10373   */\n      tag_682\n      tag_537\n      jump\t// in\n    tag_682:\n        /* \"#utility.yul\":10263:10375   */\n    tag_681:\n        /* \"#utility.yul\":10384:10438   */\n      tag_683\n        /* \"#utility.yul\":10431:10437   */\n      dup5\n        /* \"#utility.yul\":10426:10429   */\n      dup3\n        /* \"#utility.yul\":10421:10424   */\n      dup6\n        /* \"#utility.yul\":10384:10438   */\n      tag_541\n      jump\t// in\n    tag_683:\n        /* \"#utility.yul\":10104:10444   */\n      pop\n        /* \"#utility.yul\":10021:10444   */\n      swap4\n      swap3\n      pop\n      pop\n      pop\n      jump\t// out\n        /* \"#utility.yul\":10463:10801   */\n    tag_543:\n        /* \"#utility.yul\":10518:10523   */\n      0x00\n        /* \"#utility.yul\":10567:10570   */\n      dup3\n        /* \"#utility.yul\":10560:10564   */\n      0x1f\n        /* \"#utility.yul\":10552:10558   */\n      dup4\n        /* \"#utility.yul\":10548:10565   */\n      add\n        /* \"#utility.yul\":10544:10571   */\n      slt\n        /* \"#utility.yul\":10534:10656   */\n      tag_685\n      jumpi\n        /* \"#utility.yul\":10575:10654   */\n      tag_686\n      tag_533\n      jump\t// in\n    tag_686:\n        /* \"#utility.yul\":10534:10656   */\n    tag_685:\n        /* \"#utility.yul\":10692:10698   */\n      dup2\n        /* \"#utility.yul\":10679:10699   */\n      calldataload\n        /* \"#utility.yul\":10717:10795   */\n      tag_687\n        /* \"#utility.yul\":10791:10794   */\n      dup5\n        /* \"#utility.yul\":10783:10789   */\n      dup3\n        /* \"#utility.yul\":10776:10780   */\n      0x20\n        /* \"#utility.yul\":10768:10774   */\n      dup7\n        /* \"#utility.yul\":10764:10781   */\n      add\n        /* \"#utility.yul\":10717:10795   */\n      tag_542\n      jump\t// in\n    tag_687:\n        /* \"#utility.yul\":10708:10795   */\n      swap2\n      pop\n        /* \"#utility.yul\":10524:10801   */\n      pop\n        /* \"#utility.yul\":10463:10801   */\n      swap3\n      swap2\n      pop\n      pop\n      jump\t// out\n        /* \"#utility.yul\":10807:11750   */\n    tag_149:\n        /* \"#utility.yul\":10902:10908   */\n      0x00\n        /* \"#utility.yul\":10910:10916   */\n      dup1\n        /* \"#utility.yul\":10918:10924   */\n      0x00\n        /* \"#utility.yul\":10926:10932   */\n      dup1\n        /* \"#utility.yul\":10975:10978   */\n      0x80\n        /* \"#utility.yul\":10963:10972   */\n      dup6\n        /* \"#utility.yul\":10954:10961   */\n      dup8\n        /* \"#utility.yul\":10950:10973   */\n      sub\n        /* \"#utility.yul\":10946:10979   */\n      slt\n        /* \"#utility.yul\":10943:11063   */\n      iszero\n      tag_689\n      jumpi\n        /* \"#utility.yul\":10982:11061   */\n      tag_690\n      tag_510\n      jump\t// in\n    tag_690:\n        /* \"#utility.yul\":10943:11063   */\n    tag_689:\n        /* \"#utility.yul\":11102:11103   */\n      0x00\n        /* \"#utility.yul\":11127:11180   */\n      tag_691\n        /* \"#utility.yul\":11172:11179   */\n      dup8\n        /* \"#utility.yul\":11163:11169   */\n      dup3\n        /* \"#utility.yul\":11152:11161   */\n      dup9\n        /* \"#utility.yul\":11148:11170   */\n      add\n        /* \"#utility.yul\":11127:11180   */\n      tag_529\n      jump\t// in\n    tag_691:\n        /* \"#utility.yul\":11117:11180   */\n      swap5\n      pop\n        /* \"#utility.yul\":11073:11190   */\n      pop\n        /* \"#utility.yul\":11229:11231   */\n      0x20\n        /* \"#utility.yul\":11255:11308   */\n      tag_692\n        /* \"#utility.yul\":11300:11307   */\n      dup8\n        /* \"#utility.yul\":11291:11297   */\n      dup3\n        /* \"#utility.yul\":11280:11289   */\n      dup9\n        /* \"#utility.yul\":11276:11298   */\n      add\n        /* \"#utility.yul\":11255:11308   */\n      tag_529\n      jump\t// in\n    tag_692:\n        /* \"#utility.yul\":11245:11308   */\n      swap4\n      pop\n        /* \"#utility.yul\":11200:11318   */\n      pop\n        /* \"#utility.yul\":11357:11359   */\n      0x40\n        /* \"#utility.yul\":11383:11436   */\n      tag_693\n        /* \"#utility.yul\":11428:11435   */\n      dup8\n        /* \"#utility.yul\":11419:11425   */\n      dup3\n        /* \"#utility.yul\":11408:11417   */\n      dup9\n        /* \"#utility.yul\":11404:11426   */\n      add\n        /* \"#utility.yul\":11383:11436   */\n      tag_524\n      jump\t// in\n    tag_693:\n        /* \"#utility.yul\":11373:11436   */\n      swap3\n      pop\n        /* \"#utility.yul\":11328:11446   */\n      pop\n        /* \"#utility.yul\":11513:11515   */\n      0x60\n        /* \"#utility.yul\":11502:11511   */\n      dup6\n        /* \"#utility.yul\":11498:11516   */\n      add\n        /* \"#utility.yul\":11485:11517   */\n      calldataload\n        /* \"#utility.yul\":11544:11562   */\n      0xffffffffffffffff\n        /* \"#utility.yul\":11536:11542   */\n      dup2\n        /* \"#utility.yul\":11533:11563   */\n      gt\n        /* \"#utility.yul\":11530:11647   */\n      iszero\n      tag_694\n      jumpi\n        /* \"#utility.yul\":11566:11645   */\n      tag_695\n      tag_511\n      jump\t// in\n    tag_695:\n        /* \"#utility.yul\":11530:11647   */\n    tag_694:\n        /* \"#utility.yul\":11671:11733   */\n      tag_696\n        /* \"#utility.yul\":11725:11732   */\n      dup8\n        /* \"#utility.yul\":11716:11722   */\n      dup3\n        /* \"#utility.yul\":11705:11714   */\n      dup9\n        /* \"#utility.yul\":11701:11723   */\n      add\n        /* \"#utility.yul\":11671:11733   */\n      tag_543\n      jump\t// in\n    tag_696:\n        /* \"#utility.yul\":11661:11733   */\n      swap2\n      pop\n        /* \"#utility.yul\":11456:11743   */\n      pop\n        /* \"#utility.yul\":10807:11750   */\n      swap3\n      swap6\n      swap2\n      swap5\n      pop\n      swap3\n      pop\n      jump\t// out\n        /* \"#utility.yul\":11756:12230   */\n    tag_163:\n        /* \"#utility.yul\":11824:11830   */\n      0x00\n        /* \"#utility.yul\":11832:11838   */\n      dup1\n        /* \"#utility.yul\":11881:11883   */\n      0x40\n        /* \"#utility.yul\":11869:11878   */\n      dup4\n        /* \"#utility.yul\":11860:11867   */\n      dup6\n        /* \"#utility.yul\":11856:11879   */\n      sub\n        /* \"#utility.yul\":11852:11884   */\n      slt\n        /* \"#utility.yul\":11849:11968   */\n      iszero\n      tag_698\n      jumpi\n        /* \"#utility.yul\":11887:11966   */\n      tag_699\n      tag_510\n      jump\t// in\n    tag_699:\n        /* \"#utility.yul\":11849:11968   */\n    tag_698:\n        /* \"#utility.yul\":12007:12008   */\n      0x00\n        /* \"#utility.yul\":12032:12085   */\n      tag_700\n        /* \"#utility.yul\":12077:12084   */\n      dup6\n        /* \"#utility.yul\":12068:12074   */\n      dup3\n        /* \"#utility.yul\":12057:12066   */\n      dup7\n        /* \"#utility.yul\":12053:12075   */\n      add\n        /* \"#utility.yul\":12032:12085   */\n      tag_529\n      jump\t// in\n    tag_700:\n        /* \"#utility.yul\":12022:12085   */\n      swap3\n      pop\n        /* \"#utility.yul\":11978:12095   */\n      pop\n        /* \"#utility.yul\":12134:12136   */\n      0x20\n        /* \"#utility.yul\":12160:12213   */\n      tag_701\n        /* \"#utility.yul\":12205:12212   */\n      dup6\n        /* \"#utility.yul\":12196:12202   */\n      dup3\n        /* \"#utility.yul\":12185:12194   */\n      dup7\n        /* \"#utility.yul\":12181:12203   */\n      add\n        /* \"#utility.yul\":12160:12213   */\n      tag_529\n      jump\t// in\n    tag_701:\n        /* \"#utility.yul\":12150:12213   */\n      swap2\n      pop\n        /* \"#utility.yul\":12105:12223   */\n      pop\n        /* \"#utility.yul\":11756:12230   */\n      swap3\n      pop\n      swap3\n      swap1\n      pop\n      jump\t// out\n        /* \"#utility.yul\":12236:12416   */\n    tag_544:\n        /* \"#utility.yul\":12284:12361   */\n      0x4e487b7100000000000000000000000000000000000000000000000000000000\n        /* \"#utility.yul\":12281:12282   */\n      0x00\n        /* \"#utility.yul\":12274:12362   */\n      mstore\n        /* \"#utility.yul\":12381:12385   */\n      0x22\n        /* \"#utility.yul\":12378:12379   */\n      0x04\n        /* \"#utility.yul\":12371:12386   */\n      mstore\n        /* \"#utility.yul\":12405:12409   */\n      0x24\n        /* \"#utility.yul\":12402:12403   */\n      0x00\n        /* \"#utility.yul\":12395:12410   */\n      revert\n        /* \"#utility.yul\":12422:12742   */\n    tag_175:\n        /* \"#utility.yul\":12466:12472   */\n      0x00\n        /* \"#utility.yul\":12503:12504   */\n      0x02\n        /* \"#utility.yul\":12497:12501   */\n      dup3\n        /* \"#utility.yul\":12493:12505   */\n      div\n        /* \"#utility.yul\":12483:12505   */\n      swap1\n      pop\n        /* \"#utility.yul\":12550:12551   */\n      0x01\n        /* \"#utility.yul\":12544:12548   */\n      dup3\n        /* \"#utility.yul\":12540:12552   */\n      and\n        /* \"#utility.yul\":12571:12589   */\n      dup1\n        /* \"#utility.yul\":12561:12642   */\n      tag_704\n      jumpi\n        /* \"#utility.yul\":12627:12631   */\n      0x7f\n        /* \"#utility.yul\":12619:12625   */\n      dup3\n        /* \"#utility.yul\":12615:12632   */\n      and\n        /* \"#utility.yul\":12605:12632   */\n      swap2\n      pop\n        /* \"#utility.yul\":12561:12642   */\n    tag_704:\n        /* \"#utility.yul\":12689:12691   */\n      0x20\n        /* \"#utility.yul\":12681:12687   */\n      dup3\n        /* \"#utility.yul\":12678:12692   */\n      lt\n        /* \"#utility.yul\":12658:12676   */\n      dup2\n        /* \"#utility.yul\":12655:12693   */\n      sub\n        /* \"#utility.yul\":12652:12736   */\n      tag_705\n      jumpi\n        /* \"#utility.yul\":12708:12726   */\n      tag_706\n      tag_544\n      jump\t// in\n    tag_706:\n        /* \"#utility.yul\":12652:12736   */\n    tag_705:\n        /* \"#utility.yul\":12473:12742   */\n      pop\n        /* \"#utility.yul\":12422:12742   */\n      swap2\n      swap1\n      pop\n      jump\t// out\n        /* \"#utility.yul\":12748:12924   */\n    tag_545:\n        /* \"#utility.yul\":12888:12916   */\n      0x616c6c6f774c697374206d696e74206973206e6f74206f70656e000000000000\n        /* \"#utility.yul\":12884:12885   */\n      0x00\n        /* \"#utility.yul\":12876:12882   */\n      dup3\n        /* \"#utility.yul\":12872:12886   */\n      add\n        /* \"#utility.yul\":12865:12917   */\n      mstore\n        /* \"#utility.yul\":12748:12924   */\n      pop\n      jump\t// out\n        /* \"#utility.yul\":12930:13296   */\n    tag_546:\n        /* \"#utility.yul\":13072:13075   */\n      0x00\n        /* \"#utility.yul\":13093:13160   */\n      tag_709\n        /* \"#utility.yul\":13157:13159   */\n      0x1a\n        /* \"#utility.yul\":13152:13155   */\n      dup4\n        /* \"#utility.yul\":13093:13160   */\n      tag_518\n      jump\t// in\n    tag_709:\n        /* \"#utility.yul\":13086:13160   */\n      swap2\n      pop\n        /* \"#utility.yul\":13169:13262   */\n      tag_710\n        /* \"#utility.yul\":13258:13261   */\n      dup3\n        /* \"#utility.yul\":13169:13262   */\n      tag_545\n      jump\t// in\n    tag_710:\n        /* \"#utility.yul\":13287:13289   */\n      0x20\n        /* \"#utility.yul\":13282:13285   */\n      dup3\n        /* \"#utility.yul\":13278:13290   */\n      add\n        /* \"#utility.yul\":13271:13290   */\n      swap1\n      pop\n        /* \"#utility.yul\":12930:13296   */\n      swap2\n      swap1\n      pop\n      jump\t// out\n        /* \"#utility.yul\":13302:13721   */\n    tag_193:\n        /* \"#utility.yul\":13468:13472   */\n      0x00\n        /* \"#utility.yul\":13506:13508   */\n      0x20\n        /* \"#utility.yul\":13495:13504   */\n      dup3\n        /* \"#utility.yul\":13491:13509   */\n      add\n        /* \"#utility.yul\":13483:13509   */\n      swap1\n      pop\n        /* \"#utility.yul\":13555:13564   */\n      dup2\n        /* \"#utility.yul\":13549:13553   */\n      dup2\n        /* \"#utility.yul\":13545:13565   */\n      sub\n        /* \"#utility.yul\":13541:13542   */\n      0x00\n        /* \"#utility.yul\":13530:13539   */\n      dup4\n        /* \"#utility.yul\":13526:13543   */\n      add\n        /* \"#utility.yul\":13519:13566   */\n      mstore\n        /* \"#utility.yul\":13583:13714   */\n      tag_712\n        /* \"#utility.yul\":13709:13713   */\n      dup2\n        /* \"#utility.yul\":13583:13714   */\n      tag_546\n      jump\t// in\n    tag_712:\n        /* \"#utility.yul\":13575:13714   */\n      swap1\n      pop\n        /* \"#utility.yul\":13302:13721   */\n      swap2\n      swap1\n      pop\n      jump\t// out\n        /* \"#utility.yul\":13727:13888   */\n    tag_547:\n        /* \"#utility.yul\":13867:13880   */\n      0x4e6f7420416c6c6f776564000000000000000000000000000000000000000000\n        /* \"#utility.yul\":13863:13864   */\n      0x00\n        /* \"#utility.yul\":13855:13861   */\n      dup3\n        /* \"#utility.yul\":13851:13865   */\n      add\n        /* \"#utility.yul\":13844:13881   */\n      mstore\n        /* \"#utility.yul\":13727:13888   */\n      pop\n      jump\t// out\n        /* \"#utility.yul\":13894:14260   */\n    tag_548:\n        /* \"#utility.yul\":14036:14039   */\n      0x00\n        /* \"#utility.yul\":14057:14124   */\n      tag_715\n        /* \"#utility.yul\":14121:14123   */\n      0x0b\n        /* \"#utility.yul\":14116:14119   */\n      dup4\n        /* \"#utility.yul\":14057:14124   */\n      tag_518\n      jump\t// in\n    tag_715:\n        /* \"#utility.yul\":14050:14124   */\n      swap2\n      pop\n        /* \"#utility.yul\":14133:14226   */\n      tag_716\n        /* \"#utility.yul\":14222:14225   */\n      dup3\n        /* \"#utility.yul\":14133:14226   */\n      tag_547\n      jump\t// in\n    tag_716:\n        /* \"#utility.yul\":14251:14253   */\n      0x20\n        /* \"#utility.yul\":14246:14249   */\n      dup3\n        /* \"#utility.yul\":14242:14254   */\n      add\n        /* \"#utility.yul\":14235:14254   */\n      swap1\n      pop\n        /* \"#utility.yul\":13894:14260   */\n      swap2\n      swap1\n      pop\n      jump\t// out\n        /* \"#utility.yul\":14266:14685   */\n    tag_196:\n        /* \"#utility.yul\":14432:14436   */\n      0x00\n        /* \"#utility.yul\":14470:14472   */\n      0x20\n        /* \"#utility.yul\":14459:14468   */\n      dup3\n        /* \"#utility.yul\":14455:14473   */\n      add\n        /* \"#utility.yul\":14447:14473   */\n      swap1\n      pop\n        /* \"#utility.yul\":14519:14528   */\n      dup2\n        /* \"#utility.yul\":14513:14517   */\n      dup2\n        /* \"#utility.yul\":14509:14529   */\n      sub\n        /* \"#utility.yul\":14505:14506   */\n      0x00\n        /* \"#utility.yul\":14494:14503   */\n      dup4\n        /* \"#utility.yul\":14490:14507   */\n      add\n        /* \"#utility.yul\":14483:14530   */\n      mstore\n        /* \"#utility.yul\":14547:14678   */\n      tag_718\n        /* \"#utility.yul\":14673:14677   */\n      dup2\n        /* \"#utility.yul\":14547:14678   */\n      tag_548\n      jump\t// in\n    tag_718:\n        /* \"#utility.yul\":14539:14678   */\n      swap1\n      pop\n        /* \"#utility.yul\":14266:14685   */\n      swap2\n      swap1\n      pop\n      jump\t// out\n        /* \"#utility.yul\":14691:14857   */\n    tag_549:\n        /* \"#utility.yul\":14831:14849   */\n      0x4e6f7420456e6f7567682056616c756500000000000000000000000000000000\n        /* \"#utility.yul\":14827:14828   */\n      0x00\n        /* \"#utility.yul\":14819:14825   */\n      dup3\n        /* \"#utility.yul\":14815:14829   */\n      add\n        /* \"#utility.yul\":14808:14850   */\n      mstore\n        /* \"#utility.yul\":14691:14857   */\n      pop\n      jump\t// out\n        /* \"#utility.yul\":14863:15229   */\n    tag_550:\n        /* \"#utility.yul\":15005:15008   */\n      0x00\n        /* \"#utility.yul\":15026:15093   */\n      tag_721\n        /* \"#utility.yul\":15090:15092   */\n      0x10\n        /* \"#utility.yul\":15085:15088   */\n      dup4\n        /* \"#utility.yul\":15026:15093   */\n      tag_518\n      jump\t// in\n    tag_721:\n        /* \"#utility.yul\":15019:15093   */\n      swap2\n      pop\n        /* \"#utility.yul\":15102:15195   */\n      tag_722\n        /* \"#utility.yul\":15191:15194   */\n      dup3\n        /* \"#utility.yul\":15102:15195   */\n      tag_549\n      jump\t// in\n    tag_722:\n        /* \"#utility.yul\":15220:15222   */\n      0x20\n        /* \"#utility.yul\":15215:15218   */\n      dup3\n        /* \"#utility.yul\":15211:15223   */\n      add\n        /* \"#utility.yul\":15204:15223   */\n      swap1\n      pop\n        /* \"#utility.yul\":14863:15229   */\n      swap2\n      swap1\n      pop\n      jump\t// out\n        /* \"#utility.yul\":15235:15654   */\n    tag_199:\n        /* \"#utility.yul\":15401:15405   */\n      0x00\n        /* \"#utility.yul\":15439:15441   */\n      0x20\n        /* \"#utility.yul\":15428:15437   */\n      dup3\n        /* \"#utility.yul\":15424:15442   */\n      add\n        /* \"#utility.yul\":15416:15442   */\n      swap1\n      pop\n        /* \"#utility.yul\":15488:15497   */\n      dup2\n        /* \"#utility.yul\":15482:15486   */\n      dup2\n        /* \"#utility.yul\":15478:15498   */\n      sub\n        /* \"#utility.yul\":15474:15475   */\n      0x00\n        /* \"#utility.yul\":15463:15472   */\n      dup4\n        /* \"#utility.yul\":15459:15476   */\n      add\n        /* \"#utility.yul\":15452:15499   */\n      mstore\n        /* \"#utility.yul\":15516:15647   */\n      tag_724\n        /* \"#utility.yul\":15642:15646   */\n      dup2\n        /* \"#utility.yul\":15516:15647   */\n      tag_550\n      jump\t// in\n    tag_724:\n        /* \"#utility.yul\":15508:15647   */\n      swap1\n      pop\n        /* \"#utility.yul\":15235:15654   */\n      swap2\n      swap1\n      pop\n      jump\t// out\n        /* \"#utility.yul\":15660:16102   */\n    tag_211:\n        /* \"#utility.yul\":15809:15813   */\n      0x00\n        /* \"#utility.yul\":15847:15849   */\n      0x60\n        /* \"#utility.yul\":15836:15845   */\n      dup3\n        /* \"#utility.yul\":15832:15850   */\n      add\n        /* \"#utility.yul\":15824:15850   */\n      swap1\n      pop\n        /* \"#utility.yul\":15860:15931   */\n      tag_726\n        /* \"#utility.yul\":15928:15929   */\n      0x00\n        /* \"#utility.yul\":15917:15926   */\n      dup4\n        /* \"#utility.yul\":15913:15930   */\n      add\n        /* \"#utility.yul\":15904:15910   */\n      dup7\n        /* \"#utility.yul\":15860:15931   */\n      tag_527\n      jump\t// in\n    tag_726:\n        /* \"#utility.yul\":15941:16013   */\n      tag_727\n        /* \"#utility.yul\":16009:16011   */\n      0x20\n        /* \"#utility.yul\":15998:16007   */\n      dup4\n        /* \"#utility.yul\":15994:16012   */\n      add\n        /* \"#utility.yul\":15985:15991   */\n      dup6\n        /* \"#utility.yul\":15941:16013   */\n      tag_530\n      jump\t// in\n    tag_727:\n        /* \"#utility.yul\":16023:16095   */\n      tag_728\n        /* \"#utility.yul\":16091:16093   */\n      0x40\n        /* \"#utility.yul\":16080:16089   */\n      dup4\n        /* \"#utility.yul\":16076:16094   */\n      add\n        /* \"#utility.yul\":16067:16073   */\n      dup5\n        /* \"#utility.yul\":16023:16095   */\n      tag_527\n      jump\t// in\n    tag_728:\n        /* \"#utility.yul\":15660:16102   */\n      swap5\n      swap4\n      pop\n      pop\n      pop\n      pop\n      jump\t// out\n        /* \"#utility.yul\":16108:16280   */\n    tag_551:\n        /* \"#utility.yul\":16248:16272   */\n      0x7075626c69634d696e74206973206e6f74206f70656e00000000000000000000\n        /* \"#utility.yul\":16244:16245   */\n      0x00\n        /* \"#utility.yul\":16236:16242   */\n      dup3\n        /* \"#utility.yul\":16232:16246   */\n      add\n        /* \"#utility.yul\":16225:16273   */\n      mstore\n        /* \"#utility.yul\":16108:16280   */\n      pop\n      jump\t// out\n        /* \"#utility.yul\":16286:16652   */\n    tag_552:\n        /* \"#utility.yul\":16428:16431   */\n      0x00\n        /* \"#utility.yul\":16449:16516   */\n      tag_731\n        /* \"#utility.yul\":16513:16515   */\n      0x16\n        /* \"#utility.yul\":16508:16511   */\n      dup4\n        /* \"#utility.yul\":16449:16516   */\n      tag_518\n      jump\t// in\n    tag_731:\n        /* \"#utility.yul\":16442:16516   */\n      swap2\n      pop\n        /* \"#utility.yul\":16525:16618   */\n      tag_732\n        /* \"#utility.yul\":16614:16617   */\n      dup3\n        /* \"#utility.yul\":16525:16618   */\n      tag_551\n      jump\t// in\n    tag_732:\n        /* \"#utility.yul\":16643:16645   */\n      0x20\n        /* \"#utility.yul\":16638:16641   */\n      dup3\n        /* \"#utility.yul\":16634:16646   */\n      add\n        /* \"#utility.yul\":16627:16646   */\n      swap1\n      pop\n        /* \"#utility.yul\":16286:16652   */\n      swap2\n      swap1\n      pop\n      jump\t// out\n        /* \"#utility.yul\":16658:17077   */\n    tag_215:\n        /* \"#utility.yul\":16824:16828   */\n      0x00\n        /* \"#utility.yul\":16862:16864   */\n      0x20\n        /* \"#utility.yul\":16851:16860   */\n      dup3\n        /* \"#utility.yul\":16847:16865   */\n      add\n        /* \"#utility.yul\":16839:16865   */\n      swap1\n      pop\n        /* \"#utility.yul\":16911:16920   */\n      dup2\n        /* \"#utility.yul\":16905:16909   */\n      dup2\n        /* \"#utility.yul\":16901:16921   */\n      sub\n        /* \"#utility.yul\":16897:16898   */\n      0x00\n        /* \"#utility.yul\":16886:16895   */\n      dup4\n        /* \"#utility.yul\":16882:16899   */\n      add\n        /* \"#utility.yul\":16875:16922   */\n      mstore\n        /* \"#utility.yul\":16939:17070   */\n      tag_734\n        /* \"#utility.yul\":17065:17069   */\n      dup2\n        /* \"#utility.yul\":16939:17070   */\n      tag_552\n      jump\t// in\n    tag_734:\n        /* \"#utility.yul\":16931:17070   */\n      swap1\n      pop\n        /* \"#utility.yul\":16658:17077   */\n      swap2\n      swap1\n      pop\n      jump\t// out\n        /* \"#utility.yul\":17083:17415   */\n    tag_227:\n        /* \"#utility.yul\":17204:17208   */\n      0x00\n        /* \"#utility.yul\":17242:17244   */\n      0x40\n        /* \"#utility.yul\":17231:17240   */\n      dup3\n        /* \"#utility.yul\":17227:17245   */\n      add\n        /* \"#utility.yul\":17219:17245   */\n      swap1\n      pop\n        /* \"#utility.yul\":17255:17326   */\n      tag_736\n        /* \"#utility.yul\":17323:17324   */\n      0x00\n        /* \"#utility.yul\":17312:17321   */\n      dup4\n        /* \"#utility.yul\":17308:17325   */\n      add\n        /* \"#utility.yul\":17299:17305   */\n      dup6\n        /* \"#utility.yul\":17255:17326   */\n      tag_527\n      jump\t// in\n    tag_736:\n        /* \"#utility.yul\":17336:17408   */\n      tag_737\n        /* \"#utility.yul\":17404:17406   */\n      0x20\n        /* \"#utility.yul\":17393:17402   */\n      dup4\n        /* \"#utility.yul\":17389:17407   */\n      add\n        /* \"#utility.yul\":17380:17386   */\n      dup5\n        /* \"#utility.yul\":17336:17408   */\n      tag_530\n      jump\t// in\n    tag_737:\n        /* \"#utility.yul\":17083:17415   */\n      swap4\n      swap3\n      pop\n      pop\n      pop\n      jump\t// out\n        /* \"#utility.yul\":17421:17601   */\n    tag_241:\n        /* \"#utility.yul\":17469:17546   */\n      0x4e487b7100000000000000000000000000000000000000000000000000000000\n        /* \"#utility.yul\":17466:17467   */\n      0x00\n        /* \"#utility.yul\":17459:17547   */\n      mstore\n        /* \"#utility.yul\":17566:17570   */\n      0x32\n        /* \"#utility.yul\":17563:17564   */\n      0x04\n        /* \"#utility.yul\":17556:17571   */\n      mstore\n        /* \"#utility.yul\":17590:17594   */\n      0x24\n        /* \"#utility.yul\":17587:17588   */\n      0x00\n        /* \"#utility.yul\":17580:17595   */\n      revert\n        /* \"#utility.yul\":17607:17755   */\n    tag_553:\n        /* \"#utility.yul\":17709:17720   */\n      0x00\n        /* \"#utility.yul\":17746:17749   */\n      dup2\n        /* \"#utility.yul\":17731:17749   */\n      swap1\n      pop\n        /* \"#utility.yul\":17607:17755   */\n      swap3\n      swap2\n      pop\n      pop\n      jump\t// out\n        /* \"#utility.yul\":17761:18151   */\n    tag_554:\n        /* \"#utility.yul\":17867:17870   */\n      0x00\n        /* \"#utility.yul\":17895:17934   */\n      tag_741\n        /* \"#utility.yul\":17928:17933   */\n      dup3\n        /* \"#utility.yul\":17895:17934   */\n      tag_517\n      jump\t// in\n    tag_741:\n        /* \"#utility.yul\":17950:18039   */\n      tag_742\n        /* \"#utility.yul\":18032:18038   */\n      dup2\n        /* \"#utility.yul\":18027:18030   */\n      dup6\n        /* \"#utility.yul\":17950:18039   */\n      tag_553\n      jump\t// in\n    tag_742:\n        /* \"#utility.yul\":17943:18039   */\n      swap4\n      pop\n        /* \"#utility.yul\":18048:18113   */\n      tag_743\n        /* \"#utility.yul\":18106:18112   */\n      dup2\n        /* \"#utility.yul\":18101:18104   */\n      dup6\n        /* \"#utility.yul\":18094:18098   */\n      0x20\n        /* \"#utility.yul\":18087:18092   */\n      dup7\n        /* \"#utility.yul\":18083:18099   */\n      add\n        /* \"#utility.yul\":18048:18113   */\n      tag_519\n      jump\t// in\n    tag_743:\n        /* \"#utility.yul\":18138:18144   */\n      dup1\n        /* \"#utility.yul\":18133:18136   */\n      dup5\n        /* \"#utility.yul\":18129:18145   */\n      add\n        /* \"#utility.yul\":18122:18145   */\n      swap2\n      pop\n        /* \"#utility.yul\":17871:18151   */\n      pop\n        /* \"#utility.yul\":17761:18151   */\n      swap3\n      swap2\n      pop\n      pop\n      jump\t// out\n        /* \"#utility.yul\":18157:18592   */\n    tag_297:\n        /* \"#utility.yul\":18337:18340   */\n      0x00\n        /* \"#utility.yul\":18359:18454   */\n      tag_745\n        /* \"#utility.yul\":18450:18453   */\n      dup3\n        /* \"#utility.yul\":18441:18447   */\n      dup6\n        /* \"#utility.yul\":18359:18454   */\n      tag_554\n      jump\t// in\n    tag_745:\n        /* \"#utility.yul\":18352:18454   */\n      swap2\n      pop\n        /* \"#utility.yul\":18471:18566   */\n      tag_746\n        /* \"#utility.yul\":18562:18565   */\n      dup3\n        /* \"#utility.yul\":18553:18559   */\n      dup5\n        /* \"#utility.yul\":18471:18566   */\n      tag_554\n      jump\t// in\n    tag_746:\n        /* \"#utility.yul\":18464:18566   */\n      swap2\n      pop\n        /* \"#utility.yul\":18583:18586   */\n      dup2\n        /* \"#utility.yul\":18576:18586   */\n      swap1\n      pop\n        /* \"#utility.yul\":18157:18592   */\n      swap4\n      swap3\n      pop\n      pop\n      pop\n      jump\t// out\n        /* \"#utility.yul\":18598:18761   */\n    tag_555:\n        /* \"#utility.yul\":18738:18753   */\n      0x576520536f6c64204f7574212100000000000000000000000000000000000000\n        /* \"#utility.yul\":18734:18735   */\n      0x00\n        /* \"#utility.yul\":18726:18732   */\n      dup3\n        /* \"#utility.yul\":18722:18736   */\n      add\n        /* \"#utility.yul\":18715:18754   */\n      mstore\n        /* \"#utility.yul\":18598:18761   */\n      pop\n      jump\t// out\n        /* \"#utility.yul\":18767:19133   */\n    tag_556:\n        /* \"#utility.yul\":18909:18912   */\n      0x00\n        /* \"#utility.yul\":18930:18997   */\n      tag_749\n        /* \"#utility.yul\":18994:18996   */\n      0x0d\n        /* \"#utility.yul\":18989:18992   */\n      dup4\n        /* \"#utility.yul\":18930:18997   */\n      tag_518\n      jump\t// in\n    tag_749:\n        /* \"#utility.yul\":18923:18997   */\n      swap2\n      pop\n        /* \"#utility.yul\":19006:19099   */\n      tag_750\n        /* \"#utility.yul\":19095:19098   */\n      dup3\n        /* \"#utility.yul\":19006:19099   */\n      tag_555\n      jump\t// in\n    tag_750:\n        /* \"#utility.yul\":19124:19126   */\n      0x20\n        /* \"#utility.yul\":19119:19122   */\n      dup3\n        /* \"#utility.yul\":19115:19127   */\n      add\n        /* \"#utility.yul\":19108:19127   */\n      swap1\n      pop\n        /* \"#utility.yul\":18767:19133   */\n      swap2\n      swap1\n      pop\n      jump\t// out\n        /* \"#utility.yul\":19139:19558   */\n    tag_323:\n        /* \"#utility.yul\":19305:19309   */\n      0x00\n        /* \"#utility.yul\":19343:19345   */\n      0x20\n        /* \"#utility.yul\":19332:19341   */\n      dup3\n        /* \"#utility.yul\":19328:19346   */\n      add\n        /* \"#utility.yul\":19320:19346   */\n      swap1\n      pop\n        /* \"#utility.yul\":19392:19401   */\n      dup2\n        /* \"#utility.yul\":19386:19390   */\n      dup2\n        /* \"#utility.yul\":19382:19402   */\n      sub\n        /* \"#utility.yul\":19378:19379   */\n      0x00\n        /* \"#utility.yul\":19367:19376   */\n      dup4\n        /* \"#utility.yul\":19363:19380   */\n      add\n        /* \"#utility.yul\":19356:19403   */\n      mstore\n        /* \"#utility.yul\":19420:19551   */\n      tag_752\n        /* \"#utility.yul\":19546:19550   */\n      dup2\n        /* \"#utility.yul\":19420:19551   */\n      tag_556\n      jump\t// in\n    tag_752:\n        /* \"#utility.yul\":19412:19551   */\n      swap1\n      pop\n        /* \"#utility.yul\":19139:19558   */\n      swap2\n      swap1\n      pop\n      jump\t// out\n        /* \"#utility.yul\":19564:19744   */\n    tag_557:\n        /* \"#utility.yul\":19612:19689   */\n      0x4e487b7100000000000000000000000000000000000000000000000000000000\n        /* \"#utility.yul\":19609:19610   */\n      0x00\n        /* \"#utility.yul\":19602:19690   */\n      mstore\n        /* \"#utility.yul\":19709:19713   */\n      0x11\n        /* \"#utility.yul\":19706:19707   */\n      0x04\n        /* \"#utility.yul\":19699:19714   */\n      mstore\n        /* \"#utility.yul\":19733:19737   */\n      0x24\n        /* \"#utility.yul\":19730:19731   */\n      0x00\n        /* \"#utility.yul\":19723:19738   */\n      revert\n        /* \"#utility.yul\":19750:19983   */\n    tag_325:\n        /* \"#utility.yul\":19789:19792   */\n      0x00\n        /* \"#utility.yul\":19812:19836   */\n      tag_755\n        /* \"#utility.yul\":19830:19835   */\n      dup3\n        /* \"#utility.yul\":19812:19836   */\n      tag_522\n      jump\t// in\n    tag_755:\n        /* \"#utility.yul\":19803:19836   */\n      swap2\n      pop\n        /* \"#utility.yul\":19858:19924   */\n      0xffffffffffffffffffffffffffffffffffffffffffffffffffffffffffffffff\n        /* \"#utility.yul\":19851:19856   */\n      dup3\n        /* \"#utility.yul\":19848:19925   */\n      sub\n        /* \"#utility.yul\":19845:19948   */\n      tag_756\n      jumpi\n        /* \"#utility.yul\":19928:19946   */\n      tag_757\n      tag_557\n      jump\t// in\n    tag_757:\n        /* \"#utility.yul\":19845:19948   */\n    tag_756:\n        /* \"#utility.yul\":19975:19976   */\n      0x01\n        /* \"#utility.yul\":19968:19973   */\n      dup3\n        /* \"#utility.yul\":19964:19977   */\n      add\n        /* \"#utility.yul\":19957:19977   */\n      swap1\n      pop\n        /* \"#utility.yul\":19750:19983   */\n      swap2\n      swap1\n      pop\n      jump\t// out\n        /* \"#utility.yul\":19989:20087   */\n    tag_558:\n        /* \"#utility.yul\":20040:20046   */\n      0x00\n        /* \"#utility.yul\":20074:20079   */\n      dup2\n        /* \"#utility.yul\":20068:20080   */\n      mload\n        /* \"#utility.yul\":20058:20080   */\n      swap1\n      pop\n        /* \"#utility.yul\":19989:20087   */\n      swap2\n      swap1\n      pop\n      jump\t// out\n        /* \"#utility.yul\":20093:20261   */\n    tag_559:\n        /* \"#utility.yul\":20176:20187   */\n      0x00\n        /* \"#utility.yul\":20210:20216   */\n      dup3\n        /* \"#utility.yul\":20205:20208   */\n      dup3\n        /* \"#utility.yul\":20198:20217   */\n      mstore\n        /* \"#utility.yul\":20250:20254   */\n      0x20\n        /* \"#utility.yul\":20245:20248   */\n      dup3\n        /* \"#utility.yul\":20241:20255   */\n      add\n        /* \"#utility.yul\":20226:20255   */\n      swap1\n      pop\n        /* \"#utility.yul\":20093:20261   */\n      swap3\n      swap2\n      pop\n      pop\n      jump\t// out\n        /* \"#utility.yul\":20267:20640   */\n    tag_560:\n        /* \"#utility.yul\":20353:20356   */\n      0x00\n        /* \"#utility.yul\":20381:20419   */\n      tag_761\n        /* \"#utility.yul\":20413:20418   */\n      dup3\n        /* \"#utility.yul\":20381:20419   */\n      tag_558\n      jump\t// in\n    tag_761:\n        /* \"#utility.yul\":20435:20505   */\n      tag_762\n        /* \"#utility.yul\":20498:20504   */\n      dup2\n        /* \"#utility.yul\":20493:20496   */\n      dup6\n        /* \"#utility.yul\":20435:20505   */\n      tag_559\n      jump\t// in\n    tag_762:\n        /* \"#utility.yul\":20428:20505   */\n      swap4\n      pop\n        /* \"#utility.yul\":20514:20579   */\n      tag_763\n        /* \"#utility.yul\":20572:20578   */\n      dup2\n        /* \"#utility.yul\":20567:20570   */\n      dup6\n        /* \"#utility.yul\":20560:20564   */\n      0x20\n        /* \"#utility.yul\":20553:20558   */\n      dup7\n        /* \"#utility.yul\":20549:20565   */\n      add\n        /* \"#utility.yul\":20514:20579   */\n      tag_519\n      jump\t// in\n    tag_763:\n        /* \"#utility.yul\":20604:20633   */\n      tag_764\n        /* \"#utility.yul\":20626:20632   */\n      dup2\n        /* \"#utility.yul\":20604:20633   */\n      tag_520\n      jump\t// in\n    tag_764:\n        /* \"#utility.yul\":20599:20602   */\n      dup5\n        /* \"#utility.yul\":20595:20634   */\n      add\n        /* \"#utility.yul\":20588:20634   */\n      swap2\n      pop\n        /* \"#utility.yul\":20357:20640   */\n      pop\n        /* \"#utility.yul\":20267:20640   */\n      swap3\n      swap2\n      pop\n      pop\n      jump\t// out\n        /* \"#utility.yul\":20646:21286   */\n    tag_358:\n        /* \"#utility.yul\":20841:20845   */\n      0x00\n        /* \"#utility.yul\":20879:20882   */\n      0x80\n        /* \"#utility.yul\":20868:20877   */\n      dup3\n        /* \"#utility.yul\":20864:20883   */\n      add\n        /* \"#utility.yul\":20856:20883   */\n      swap1\n      pop\n        /* \"#utility.yul\":20893:20964   */\n      tag_766\n        /* \"#utility.yul\":20961:20962   */\n      0x00\n        /* \"#utility.yul\":20950:20959   */\n      dup4\n        /* \"#utility.yul\":20946:20963   */\n      add\n        /* \"#utility.yul\":20937:20943   */\n      dup8\n        /* \"#utility.yul\":20893:20964   */\n      tag_527\n      jump\t// in\n    tag_766:\n        /* \"#utility.yul\":20974:21046   */\n      tag_767\n        /* \"#utility.yul\":21042:21044   */\n      0x20\n        /* \"#utility.yul\":21031:21040   */\n      dup4\n        /* \"#utility.yul\":21027:21045   */\n      add\n        /* \"#utility.yul\":21018:21024   */\n      dup7\n        /* \"#utility.yul\":20974:21046   */\n      tag_527\n      jump\t// in\n    tag_767:\n        /* \"#utility.yul\":21056:21128   */\n      tag_768\n        /* \"#utility.yul\":21124:21126   */\n      0x40\n        /* \"#utility.yul\":21113:21122   */\n      dup4\n        /* \"#utility.yul\":21109:21127   */\n      add\n        /* \"#utility.yul\":21100:21106   */\n      dup6\n        /* \"#utility.yul\":21056:21128   */\n      tag_530\n      jump\t// in\n    tag_768:\n        /* \"#utility.yul\":21175:21184   */\n      dup2\n        /* \"#utility.yul\":21169:21173   */\n      dup2\n        /* \"#utility.yul\":21165:21185   */\n      sub\n        /* \"#utility.yul\":21160:21162   */\n      0x60\n        /* \"#utility.yul\":21149:21158   */\n      dup4\n        /* \"#utility.yul\":21145:21163   */\n      add\n        /* \"#utility.yul\":21138:21186   */\n      mstore\n        /* \"#utility.yul\":21203:21279   */\n      tag_769\n        /* \"#utility.yul\":21274:21278   */\n      dup2\n        /* \"#utility.yul\":21265:21271   */\n      dup5\n        /* \"#utility.yul\":21203:21279   */\n      tag_560\n      jump\t// in\n    tag_769:\n        /* \"#utility.yul\":21195:21279   */\n      swap1\n      pop\n        /* \"#utility.yul\":20646:21286   */\n      swap6\n      swap5\n      pop\n      pop\n      pop\n      pop\n      pop\n      jump\t// out\n        /* \"#utility.yul\":21292:21433   */\n    tag_561:\n        /* \"#utility.yul\":21348:21353   */\n      0x00\n        /* \"#utility.yul\":21379:21385   */\n      dup2\n        /* \"#utility.yul\":21373:21386   */\n      mload\n        /* \"#utility.yul\":21364:21386   */\n      swap1\n      pop\n        /* \"#utility.yul\":21395:21427   */\n      tag_771\n        /* \"#utility.yul\":21421:21426   */\n      dup2\n        /* \"#utility.yul\":21395:21427   */\n      tag_513\n      jump\t// in\n    tag_771:\n        /* \"#utility.yul\":21292:21433   */\n      swap3\n      swap2\n      pop\n      pop\n      jump\t// out\n        /* \"#utility.yul\":21439:21788   */\n    tag_361:\n        /* \"#utility.yul\":21508:21514   */\n      0x00\n        /* \"#utility.yul\":21557:21559   */\n      0x20\n        /* \"#utility.yul\":21545:21554   */\n      dup3\n        /* \"#utility.yul\":21536:21543   */\n      dup5\n        /* \"#utility.yul\":21532:21555   */\n      sub\n        /* \"#utility.yul\":21528:21560   */\n      slt\n        /* \"#utility.yul\":21525:21644   */\n      iszero\n      tag_773\n      jumpi\n        /* \"#utility.yul\":21563:21642   */\n      tag_774\n      tag_510\n      jump\t// in\n    tag_774:\n        /* \"#utility.yul\":21525:21644   */\n    tag_773:\n        /* \"#utility.yul\":21683:21684   */\n      0x00\n        /* \"#utility.yul\":21708:21771   */\n      tag_775\n        /* \"#utility.yul\":21763:21770   */\n      dup5\n        /* \"#utility.yul\":21754:21760   */\n      dup3\n        /* \"#utility.yul\":21743:21752   */\n      dup6\n        /* \"#utility.yul\":21739:21761   */\n      add\n        /* \"#utility.yul\":21708:21771   */\n      tag_561\n      jump\t// in\n    tag_775:\n        /* \"#utility.yul\":21698:21771   */\n      swap2\n      pop\n        /* \"#utility.yul\":21654:21781   */\n      pop\n        /* \"#utility.yul\":21439:21788   */\n      swap3\n      swap2\n      pop\n      pop\n      jump\t// out\n        /* \"#utility.yul\":21794:21974   */\n    tag_386:\n        /* \"#utility.yul\":21842:21919   */\n      0x4e487b7100000000000000000000000000000000000000000000000000000000\n        /* \"#utility.yul\":21839:21840   */\n      0x00\n        /* \"#utility.yul\":21832:21920   */\n      mstore\n        /* \"#utility.yul\":21939:21943   */\n      0x12\n        /* \"#utility.yul\":21936:21937   */\n      0x04\n        /* \"#utility.yul\":21929:21944   */\n      mstore\n        /* \"#utility.yul\":21963:21967   */\n      0x24\n        /* \"#utility.yul\":21960:21961   */\n      0x00\n        /* \"#utility.yul\":21953:21968   */\n      revert\n        /* \"#utility.yul\":21980:22174   */\n    tag_481:\n        /* \"#utility.yul\":22020:22024   */\n      0x00\n        /* \"#utility.yul\":22040:22060   */\n      tag_778\n        /* \"#utility.yul\":22058:22059   */\n      dup3\n        /* \"#utility.yul\":22040:22060   */\n      tag_522\n      jump\t// in\n    tag_778:\n        /* \"#utility.yul\":22035:22060   */\n      swap2\n      pop\n        /* \"#utility.yul\":22074:22094   */\n      tag_779\n        /* \"#utility.yul\":22092:22093   */\n      dup4\n        /* \"#utility.yul\":22074:22094   */\n      tag_522\n      jump\t// in\n    tag_779:\n        /* \"#utility.yul\":22069:22094   */\n      swap3\n      pop\n        /* \"#utility.yul\":22118:22119   */\n      dup3\n        /* \"#utility.yul\":22115:22116   */\n      dup3\n        /* \"#utility.yul\":22111:22120   */\n      sub\n        /* \"#utility.yul\":22103:22120   */\n      swap1\n      pop\n        /* \"#utility.yul\":22142:22143   */\n      dup2\n        /* \"#utility.yul\":22136:22140   */\n      dup2\n        /* \"#utility.yul\":22133:22144   */\n      gt\n        /* \"#utility.yul\":22130:22167   */\n      iszero\n      tag_780\n      jumpi\n        /* \"#utility.yul\":22147:22165   */\n      tag_781\n      tag_557\n      jump\t// in\n    tag_781:\n        /* \"#utility.yul\":22130:22167   */\n    tag_780:\n        /* \"#utility.yul\":21980:22174   */\n      swap3\n      swap2\n      pop\n      pop\n      jump\t// out\n        /* \"#utility.yul\":22180:22360   */\n    tag_490:\n        /* \"#utility.yul\":22228:22305   */\n      0x4e487b7100000000000000000000000000000000000000000000000000000000\n        /* \"#utility.yul\":22225:22226   */\n      0x00\n        /* \"#utility.yul\":22218:22306   */\n      mstore\n        /* \"#utility.yul\":22325:22329   */\n      0x31\n        /* \"#utility.yul\":22322:22323   */\n      0x04\n        /* \"#utility.yul\":22315:22330   */\n      mstore\n        /* \"#utility.yul\":22349:22353   */\n      0x24\n        /* \"#utility.yul\":22346:22347   */\n      0x00\n        /* \"#utility.yul\":22339:22354   */\n      revert\n    stop\n    data_bad8c5b7513efa3484aff4751176e1559e99e0aac6100695fa19afecc4f7431d 697066733a2f2f516d62736552544a5753734c666873695777754232523745744e39335478666f614d7a31533546587473464555422f\n\n    auxdata: 0xa264697066735822122045a4663ee3983b3091ebd8b0d636c28d60c5f27b99255199f0c8a4a79e0c429464736f6c634300081a0033\n}\n",
				"bytecode": {
					"linkReferences": {},
					"object": "60806040526107d0600c555f600e5f6101000a81548160ff0219169083151502179055505f600e60016101000a81548160ff021916908315150217905550348015610048575f80fd5b50336040518060400160405280600681526020017f476f7261796100000000000000000000000000000000000000000000000000008152506040518060400160405280600381526020017f4752590000000000000000000000000000000000000000000000000000000000815250815f90816100c49190610474565b5080600190816100d49190610474565b5050505f600a5f6101000a81548160ff0219169083151502179055505f73ffffffffffffffffffffffffffffffffffffffff168173ffffffffffffffffffffffffffffffffffffffff1603610160575f6040517f1e4fbdf70000000000000000000000000000000000000000000000000000000081526004016101579190610582565b60405180910390fd5b61016f8161017560201b60201c565b5061059b565b5f600a60019054906101000a900473ffffffffffffffffffffffffffffffffffffffff16905081600a60016101000a81548173ffffffffffffffffffffffffffffffffffffffff021916908373ffffffffffffffffffffffffffffffffffffffff1602179055508173ffffffffffffffffffffffffffffffffffffffff168173ffffffffffffffffffffffffffffffffffffffff167f8be0079c531659141344cd1fd0a4f28419497f9722a3daafe3b4186f6b6457e060405160405180910390a35050565b5f81519050919050565b7f4e487b71000000000000000000000000000000000000000000000000000000005f52604160045260245ffd5b7f4e487b71000000000000000000000000000000000000000000000000000000005f52602260045260245ffd5b5f60028204905060018216806102b557607f821691505b6020821081036102c8576102c7610271565b5b50919050565b5f819050815f5260205f209050919050565b5f6020601f8301049050919050565b5f82821b905092915050565b5f6008830261032a7fffffffffffffffffffffffffffffffffffffffffffffffffffffffffffffffff826102ef565b61033486836102ef565b95508019841693508086168417925050509392505050565b5f819050919050565b5f819050919050565b5f61037861037361036e8461034c565b610355565b61034c565b9050919050565b5f819050919050565b6103918361035e565b6103a561039d8261037f565b8484546102fb565b825550505050565b5f90565b6103b96103ad565b6103c4818484610388565b505050565b5b818110156103e7576103dc5f826103b1565b6001810190506103ca565b5050565b601f82111561042c576103fd816102ce565b610406846102e0565b81016020851015610415578190505b610429610421856102e0565b8301826103c9565b50505b505050565b5f82821c905092915050565b5f61044c5f1984600802610431565b1980831691505092915050565b5f610464838361043d565b9150826002028217905092915050565b61047d8261023a565b67ffffffffffffffff81111561049657610495610244565b5b6104a0825461029e565b6104ab8282856103eb565b5f60209050601f8311600181146104dc575f84156104ca578287015190505b6104d48582610459565b86555061053b565b601f1984166104ea866102ce565b5f5b82811015610511578489015182556001820191506020850194506020810190506104ec565b8683101561052e578489015161052a601f89168261043d565b8355505b6001600288020188555050505b505050505050565b5f73ffffffffffffffffffffffffffffffffffffffff82169050919050565b5f61056c82610543565b9050919050565b61057c81610562565b82525050565b5f6020820190506105955f830184610573565b92915050565b6131e4806105a85f395ff3fe6080604052600436106101c1575f3560e01c806351cff8d9116100f65780638da5cb5b11610094578063c87b56dd11610063578063c87b56dd146105d1578063d5abeb011461060d578063e985e9c514610637578063f2fde38b14610673576101c1565b80638da5cb5b1461052d57806395d89b4114610557578063a22cb46514610581578063b88d4fde146105a9576101c1565b80636447c35d116100d05780636447c35d1461049d57806370a08231146104c5578063715018a6146105015780638456cb5914610517576101c1565b806351cff8d91461040f5780635c975abb146104375780636352211e14610461576101c1565b806326092b83116101635780632f745c591161013d5780632f745c59146103595780633f4ba83a1461039557806342842e0e146103ab5780634f6ccce7146103d3576101c1565b806326092b83146102eb5780632848aeaf146102f55780632f48de7914610331576101c1565b8063095ea7b31161019f578063095ea7b314610267578063102a6a731461028f57806318160ddd1461029957806323b872dd146102c3576101c1565b806301ffc9a7146101c557806306fdde0314610201578063081812fc1461022b575b5f80fd5b3480156101d0575f80fd5b506101eb60048036038101906101e6919061266a565b61069b565b6040516101f891906126af565b60405180910390f35b34801561020c575f80fd5b506102156106ac565b6040516102229190612738565b60405180910390f35b348015610236575f80fd5b50610251600480360381019061024c919061278b565b61073b565b60405161025e91906127f5565b60405180910390f35b348015610272575f80fd5b5061028d60048036038101906102889190612838565b610756565b005b61029761076c565b005b3480156102a4575f80fd5b506102ad610897565b6040516102ba9190612885565b60405180910390f35b3480156102ce575f80fd5b506102e960048036038101906102e4919061289e565b6108a3565b005b6102f36109a2565b005b348015610300575f80fd5b5061031b600480360381019061031691906128ee565b610a43565b60405161032891906126af565b60405180910390f35b34801561033c575f80fd5b5061035760048036038101906103529190612943565b610a60565b005b348015610364575f80fd5b5061037f600480360381019061037a9190612838565b610a9f565b60405161038c9190612885565b60405180910390f35b3480156103a0575f80fd5b506103a9610b43565b005b3480156103b6575f80fd5b506103d160048036038101906103cc919061289e565b610b55565b005b3480156103de575f80fd5b506103f960048036038101906103f4919061278b565b610b74565b6040516104069190612885565b60405180910390f35b34801561041a575f80fd5b50610435600480360381019061043091906128ee565b610be6565b005b348015610442575f80fd5b5061044b610c35565b60405161045891906126af565b60405180910390f35b34801561046c575f80fd5b506104876004803603810190610482919061278b565b610c4a565b60405161049491906127f5565b60405180910390f35b3480156104a8575f80fd5b506104c360048036038101906104be91906129e2565b610c5b565b005b3480156104d0575f80fd5b506104eb60048036038101906104e691906128ee565b610cfe565b6040516104f89190612885565b60405180910390f35b34801561050c575f80fd5b50610515610db4565b005b348015610522575f80fd5b5061052b610dc7565b005b348015610538575f80fd5b50610541610dd9565b60405161054e91906127f5565b60405180910390f35b348015610562575f80fd5b5061056b610e02565b6040516105789190612738565b60405180910390f35b34801561058c575f80fd5b506105a760048036038101906105a29190612a2d565b610e92565b005b3480156105b4575f80fd5b506105cf60048036038101906105ca9190612b93565b610ea8565b005b3480156105dc575f80fd5b506105f760048036038101906105f2919061278b565b610ec5565b6040516106049190612738565b60405180910390f35b348015610618575f80fd5b50610621610f2b565b60405161062e9190612885565b60405180910390f35b348015610642575f80fd5b5061065d60048036038101906106589190612c13565b610f31565b60405161066a91906126af565b60405180910390f35b34801561067e575f80fd5b50610699600480360381019061069491906128ee565b610fbf565b005b5f6106a582611043565b9050919050565b60605f80546106ba90612c7e565b80601f01602080910402602001604051908101604052809291908181526020018280546106e690612c7e565b80156107315780601f1061070857610100808354040283529160200191610731565b820191905f5260205f20905b81548152906001019060200180831161071457829003601f168201915b5050505050905090565b5f610745826110bc565b5061074f82611142565b9050919050565b610768828261076361117b565b611182565b5050565b600e60019054906101000a900460ff166107bb576040517f08c379a00000000000000000000000000000000000000000000000000000000081526004016107b290612cf8565b60405180910390fd5b600d5f3373ffffffffffffffffffffffffffffffffffffffff1673ffffffffffffffffffffffffffffffffffffffff1681526020019081526020015f205f9054906101000a900460ff16610844576040517f08c379a000000000000000000000000000000000000000000000000000000000815260040161083b90612d60565b60405180910390fd5b66038d7ea4c68000341461088d576040517f08c379a000000000000000000000000000000000000000000000000000000000815260040161088490612dc8565b60405180910390fd5b610895611194565b565b5f600880549050905090565b5f73ffffffffffffffffffffffffffffffffffffffff168273ffffffffffffffffffffffffffffffffffffffff1603610913575f6040517f64a0ae9200000000000000000000000000000000000000000000000000000000815260040161090a91906127f5565b60405180910390fd5b5f610926838361092161117b565b611205565b90508373ffffffffffffffffffffffffffffffffffffffff168173ffffffffffffffffffffffffffffffffffffffff161461099c578382826040517f64283d7b00000000000000000000000000000000000000000000000000000000815260040161099393929190612de6565b60405180910390fd5b50505050565b600e5f9054906101000a900460ff166109f0576040517f08c379a00000000000000000000000000000000000000000000000000000000081526004016109e790612e65565b60405180910390fd5b662386f26fc100003414610a39576040517f08c379a0000000000000000000000000000000000000000000000000000000008152600401610a3090612dc8565b60405180910390fd5b610a41611194565b565b600d602052805f5260405f205f915054906101000a900460ff1681565b610a6861121a565b81600e5f6101000a81548160ff02191690831515021790555080600e60016101000a81548160ff0219169083151502179055505050565b5f610aa983610cfe565b8210610aee5782826040517fa57d13dc000000000000000000000000000000000000000000000000000000008152600401610ae5929190612e83565b60405180910390fd5b60065f8473ffffffffffffffffffffffffffffffffffffffff1673ffffffffffffffffffffffffffffffffffffffff1681526020019081526020015f205f8381526020019081526020015f2054905092915050565b610b4b61121a565b610b536112a1565b565b610b6f83838360405180602001604052805f815250610ea8565b505050565b5f610b7d610897565b8210610bc2575f826040517fa57d13dc000000000000000000000000000000000000000000000000000000008152600401610bb9929190612e83565b60405180910390fd5b60088281548110610bd657610bd5612eaa565b5b905f5260205f2001549050919050565b610bee61121a565b8073ffffffffffffffffffffffffffffffffffffffff166108fc4790811502906040515f60405180830381858888f19350505050158015610c31573d5f803e3d5ffd5b5050565b5f600a5f9054906101000a900460ff16905090565b5f610c54826110bc565b9050919050565b610c6361121a565b5f5b82829050811015610cf9576001600d5f858585818110610c8857610c87612eaa565b5b9050602002016020810190610c9d91906128ee565b73ffffffffffffffffffffffffffffffffffffffff1673ffffffffffffffffffffffffffffffffffffffff1681526020019081526020015f205f6101000a81548160ff0219169083151502179055508080600101915050610c65565b505050565b5f8073ffffffffffffffffffffffffffffffffffffffff168273ffffffffffffffffffffffffffffffffffffffff1603610d6f575f6040517f89c62b64000000000000000000000000000000000000000000000000000000008152600401610d6691906127f5565b60405180910390fd5b60035f8373ffffffffffffffffffffffffffffffffffffffff1673ffffffffffffffffffffffffffffffffffffffff1681526020019081526020015f20549050919050565b610dbc61121a565b610dc55f611302565b565b610dcf61121a565b610dd76113c7565b565b5f600a60019054906101000a900473ffffffffffffffffffffffffffffffffffffffff16905090565b606060018054610e1190612c7e565b80601f0160208091040260200160405190810160405280929190818152602001828054610e3d90612c7e565b8015610e885780601f10610e5f57610100808354040283529160200191610e88565b820191905f5260205f20905b815481529060010190602001808311610e6b57829003601f168201915b5050505050905090565b610ea4610e9d61117b565b8383611429565b5050565b610eb38484846108a3565b610ebf84848484611592565b50505050565b6060610ed0826110bc565b505f610eda611744565b90505f815111610ef85760405180602001604052805f815250610f23565b80610f0284611764565b604051602001610f13929190612f11565b6040516020818303038152906040525b915050919050565b600c5481565b5f60055f8473ffffffffffffffffffffffffffffffffffffffff1673ffffffffffffffffffffffffffffffffffffffff1681526020019081526020015f205f8373ffffffffffffffffffffffffffffffffffffffff1673ffffffffffffffffffffffffffffffffffffffff1681526020019081526020015f205f9054906101000a900460ff16905092915050565b610fc761121a565b5f73ffffffffffffffffffffffffffffffffffffffff168173ffffffffffffffffffffffffffffffffffffffff1603611037575f6040517f1e4fbdf700000000000000000000000000000000000000000000000000000000815260040161102e91906127f5565b60405180910390fd5b61104081611302565b50565b5f7f780e9d63000000000000000000000000000000000000000000000000000000007bffffffffffffffffffffffffffffffffffffffffffffffffffffffff1916827bffffffffffffffffffffffffffffffffffffffffffffffffffffffff191614806110b557506110b48261182e565b5b9050919050565b5f806110c78361190f565b90505f73ffffffffffffffffffffffffffffffffffffffff168173ffffffffffffffffffffffffffffffffffffffff160361113957826040517f7e2732890000000000000000000000000000000000000000000000000000000081526004016111309190612885565b60405180910390fd5b80915050919050565b5f60045f8381526020019081526020015f205f9054906101000a900473ffffffffffffffffffffffffffffffffffffffff169050919050565b5f33905090565b61118f8383836001611948565b505050565b600c5461119f610897565b106111df576040517f08c379a00000000000000000000000000000000000000000000000000000000081526004016111d690612f7e565b60405180910390fd5b5f600b5f8154809291906111f290612fc9565b9190505590506112023382611b07565b50565b5f611211848484611b24565b90509392505050565b61122261117b565b73ffffffffffffffffffffffffffffffffffffffff16611240610dd9565b73ffffffffffffffffffffffffffffffffffffffff161461129f5761126361117b565b6040517f118cdaa700000000000000000000000000000000000000000000000000000000815260040161129691906127f5565b60405180910390fd5b565b6112a9611b41565b5f600a5f6101000a81548160ff0219169083151502179055507f5db9ee0a495bf2e6ff9c91a7834c1ba4fdd244a5e8aa4e537bd38aeae4b073aa6112eb61117b565b6040516112f891906127f5565b60405180910390a1565b5f600a60019054906101000a900473ffffffffffffffffffffffffffffffffffffffff16905081600a60016101000a81548173ffffffffffffffffffffffffffffffffffffffff021916908373ffffffffffffffffffffffffffffffffffffffff1602179055508173ffffffffffffffffffffffffffffffffffffffff168173ffffffffffffffffffffffffffffffffffffffff167f8be0079c531659141344cd1fd0a4f28419497f9722a3daafe3b4186f6b6457e060405160405180910390a35050565b6113cf611b81565b6001600a5f6101000a81548160ff0219169083151502179055507f62e78cea01bee320cd4e420270b5ea74000d11b0c9f74754ebdbfc544b05a25861141261117b565b60405161141f91906127f5565b60405180910390a1565b5f73ffffffffffffffffffffffffffffffffffffffff168273ffffffffffffffffffffffffffffffffffffffff160361149957816040517f5b08ba1800000000000000000000000000000000000000000000000000000000815260040161149091906127f5565b60405180910390fd5b8060055f8573ffffffffffffffffffffffffffffffffffffffff1673ffffffffffffffffffffffffffffffffffffffff1681526020019081526020015f205f8473ffffffffffffffffffffffffffffffffffffffff1673ffffffffffffffffffffffffffffffffffffffff1681526020019081526020015f205f6101000a81548160ff0219169083151502179055508173ffffffffffffffffffffffffffffffffffffffff168373ffffffffffffffffffffffffffffffffffffffff167f17307eab39ab6107e8899845ad3d59bd9653f200f220920489ca2b5937696c318360405161158591906126af565b60405180910390a3505050565b5f8373ffffffffffffffffffffffffffffffffffffffff163b111561173e578273ffffffffffffffffffffffffffffffffffffffff1663150b7a026115d561117b565b8685856040518563ffffffff1660e01b81526004016115f79493929190613062565b6020604051808303815f875af192505050801561163257506040513d601f19601f8201168201806040525081019061162f91906130c0565b60015b6116b3573d805f8114611660576040519150601f19603f3d011682016040523d82523d5f602084013e611665565b606091505b505f8151036116ab57836040517f64a0ae920000000000000000000000000000000000000000000000000000000081526004016116a291906127f5565b60405180910390fd5b805181602001fd5b63150b7a0260e01b7bffffffffffffffffffffffffffffffffffffffffffffffffffffffff1916817bffffffffffffffffffffffffffffffffffffffffffffffffffffffff19161461173c57836040517f64a0ae9200000000000000000000000000000000000000000000000000000000815260040161173391906127f5565b60405180910390fd5b505b50505050565b606060405180606001604052806036815260200161317960369139905090565b60605f600161177284611bc2565b0190505f8167ffffffffffffffff8111156117905761178f612a6f565b5b6040519080825280601f01601f1916602001820160405280156117c25781602001600182028036833780820191505090505b5090505f82602001820190505b600115611823578080600190039150507f3031323334353637383961626364656600000000000000000000000000000000600a86061a8153600a8581611818576118176130eb565b5b0494505f85036117cf575b819350505050919050565b5f7f80ac58cd000000000000000000000000000000000000000000000000000000007bffffffffffffffffffffffffffffffffffffffffffffffffffffffff1916827bffffffffffffffffffffffffffffffffffffffffffffffffffffffff191614806118f857507f5b5e139f000000000000000000000000000000000000000000000000000000007bffffffffffffffffffffffffffffffffffffffffffffffffffffffff1916827bffffffffffffffffffffffffffffffffffffffffffffffffffffffff1916145b80611908575061190782611d13565b5b9050919050565b5f60025f8381526020019081526020015f205f9054906101000a900473ffffffffffffffffffffffffffffffffffffffff169050919050565b808061198057505f73ffffffffffffffffffffffffffffffffffffffff168273ffffffffffffffffffffffffffffffffffffffff1614155b15611ab2575f61198f846110bc565b90505f73ffffffffffffffffffffffffffffffffffffffff168373ffffffffffffffffffffffffffffffffffffffff16141580156119f957508273ffffffffffffffffffffffffffffffffffffffff168173ffffffffffffffffffffffffffffffffffffffff1614155b8015611a0c5750611a0a8184610f31565b155b15611a4e57826040517fa9fbf51f000000000000000000000000000000000000000000000000000000008152600401611a4591906127f5565b60405180910390fd5b8115611ab057838573ffffffffffffffffffffffffffffffffffffffff168273ffffffffffffffffffffffffffffffffffffffff167f8c5be1e5ebec7d5bd14f71427d1e84f3dd0314c0f7b2291e5b200ac8c7c3b92560405160405180910390a45b505b8360045f8581526020019081526020015f205f6101000a81548173ffffffffffffffffffffffffffffffffffffffff021916908373ffffffffffffffffffffffffffffffffffffffff16021790555050505050565b611b20828260405180602001604052805f815250611d7c565b5050565b5f611b2d611b81565b611b38848484611d97565b90509392505050565b611b49610c35565b611b7f576040517f8dfc202b00000000000000000000000000000000000000000000000000000000815260040160405180910390fd5b565b611b89610c35565b15611bc0576040517fd93c066500000000000000000000000000000000000000000000000000000000815260040160405180910390fd5b565b5f805f90507a184f03e93ff9f4daa797ed6e38ed64bf6a1f0100000000000000008310611c1e577a184f03e93ff9f4daa797ed6e38ed64bf6a1f0100000000000000008381611c1457611c136130eb565b5b0492506040810190505b6d04ee2d6d415b85acef81000000008310611c5b576d04ee2d6d415b85acef81000000008381611c5157611c506130eb565b5b0492506020810190505b662386f26fc100008310611c8a57662386f26fc100008381611c8057611c7f6130eb565b5b0492506010810190505b6305f5e1008310611cb3576305f5e1008381611ca957611ca86130eb565b5b0492506008810190505b6127108310611cd8576127108381611cce57611ccd6130eb565b5b0492506004810190505b60648310611cfb5760648381611cf157611cf06130eb565b5b0492506002810190505b600a8310611d0a576001810190505b80915050919050565b5f7f01ffc9a7000000000000000000000000000000000000000000000000000000007bffffffffffffffffffffffffffffffffffffffffffffffffffffffff1916827bffffffffffffffffffffffffffffffffffffffffffffffffffffffff1916149050919050565b611d868383611eb1565b611d925f848484611592565b505050565b5f80611da4858585611fa4565b90505f73ffffffffffffffffffffffffffffffffffffffff168173ffffffffffffffffffffffffffffffffffffffff1603611de757611de2846121af565b611e26565b8473ffffffffffffffffffffffffffffffffffffffff168173ffffffffffffffffffffffffffffffffffffffff1614611e2557611e2481856121f3565b5b5b5f73ffffffffffffffffffffffffffffffffffffffff168573ffffffffffffffffffffffffffffffffffffffff1603611e6757611e628461233d565b611ea6565b8473ffffffffffffffffffffffffffffffffffffffff168173ffffffffffffffffffffffffffffffffffffffff1614611ea557611ea485856123fd565b5b5b809150509392505050565b5f73ffffffffffffffffffffffffffffffffffffffff168273ffffffffffffffffffffffffffffffffffffffff1603611f21575f6040517f64a0ae92000000000000000000000000000000000000000000000000000000008152600401611f1891906127f5565b60405180910390fd5b5f611f2d83835f611205565b90505f73ffffffffffffffffffffffffffffffffffffffff168173ffffffffffffffffffffffffffffffffffffffff1614611f9f575f6040517f73c6ac6e000000000000000000000000000000000000000000000000000000008152600401611f9691906127f5565b60405180910390fd5b505050565b5f80611faf8461190f565b90505f73ffffffffffffffffffffffffffffffffffffffff168373ffffffffffffffffffffffffffffffffffffffff1614611ff057611fef818486612481565b5b5f73ffffffffffffffffffffffffffffffffffffffff168173ffffffffffffffffffffffffffffffffffffffff161461207b5761202f5f855f80611948565b600160035f8373ffffffffffffffffffffffffffffffffffffffff1673ffffffffffffffffffffffffffffffffffffffff1681526020019081526020015f205f82825403925050819055505b5f73ffffffffffffffffffffffffffffffffffffffff168573ffffffffffffffffffffffffffffffffffffffff16146120fa57600160035f8773ffffffffffffffffffffffffffffffffffffffff1673ffffffffffffffffffffffffffffffffffffffff1681526020019081526020015f205f82825401925050819055505b8460025f8681526020019081526020015f205f6101000a81548173ffffffffffffffffffffffffffffffffffffffff021916908373ffffffffffffffffffffffffffffffffffffffff160217905550838573ffffffffffffffffffffffffffffffffffffffff168273ffffffffffffffffffffffffffffffffffffffff167fddf252ad1be2c89b69c2b068fc378daa952ba7f163c4a11628f55a4df523b3ef60405160405180910390a4809150509392505050565b60088054905060095f8381526020019081526020015f2081905550600881908060018154018082558091505060019003905f5260205f20015f909190919091505550565b5f6121fd83610cfe565b90505f60075f8481526020019081526020015f205490508181146122d4575f60065f8673ffffffffffffffffffffffffffffffffffffffff1673ffffffffffffffffffffffffffffffffffffffff1681526020019081526020015f205f8481526020019081526020015f205490508060065f8773ffffffffffffffffffffffffffffffffffffffff1673ffffffffffffffffffffffffffffffffffffffff1681526020019081526020015f205f8481526020019081526020015f20819055508160075f8381526020019081526020015f2081905550505b60075f8481526020019081526020015f205f905560065f8573ffffffffffffffffffffffffffffffffffffffff1673ffffffffffffffffffffffffffffffffffffffff1681526020019081526020015f205f8381526020019081526020015f205f905550505050565b5f60016008805490506123509190613118565b90505f60095f8481526020019081526020015f205490505f6008838154811061237c5761237b612eaa565b5b905f5260205f2001549050806008838154811061239c5761239b612eaa565b5b905f5260205f2001819055508160095f8381526020019081526020015f208190555060095f8581526020019081526020015f205f905560088054806123e4576123e361314b565b5b600190038181905f5260205f20015f9055905550505050565b5f600161240984610cfe565b6124139190613118565b90508160065f8573ffffffffffffffffffffffffffffffffffffffff1673ffffffffffffffffffffffffffffffffffffffff1681526020019081526020015f205f8381526020019081526020015f20819055508060075f8481526020019081526020015f2081905550505050565b61248c838383612544565b61253f575f73ffffffffffffffffffffffffffffffffffffffff168373ffffffffffffffffffffffffffffffffffffffff160361250057806040517f7e2732890000000000000000000000000000000000000000000000000000000081526004016124f79190612885565b60405180910390fd5b81816040517f177e802f000000000000000000000000000000000000000000000000000000008152600401612536929190612e83565b60405180910390fd5b505050565b5f8073ffffffffffffffffffffffffffffffffffffffff168373ffffffffffffffffffffffffffffffffffffffff16141580156125fb57508273ffffffffffffffffffffffffffffffffffffffff168473ffffffffffffffffffffffffffffffffffffffff1614806125bc57506125bb8484610f31565b5b806125fa57508273ffffffffffffffffffffffffffffffffffffffff166125e283611142565b73ffffffffffffffffffffffffffffffffffffffff16145b5b90509392505050565b5f604051905090565b5f80fd5b5f80fd5b5f7fffffffff0000000000000000000000000000000000000000000000000000000082169050919050565b61264981612615565b8114612653575f80fd5b50565b5f8135905061266481612640565b92915050565b5f6020828403121561267f5761267e61260d565b5b5f61268c84828501612656565b91505092915050565b5f8115159050919050565b6126a981612695565b82525050565b5f6020820190506126c25f8301846126a0565b92915050565b5f81519050919050565b5f82825260208201905092915050565b8281835e5f83830152505050565b5f601f19601f8301169050919050565b5f61270a826126c8565b61271481856126d2565b93506127248185602086016126e2565b61272d816126f0565b840191505092915050565b5f6020820190508181035f8301526127508184612700565b905092915050565b5f819050919050565b61276a81612758565b8114612774575f80fd5b50565b5f8135905061278581612761565b92915050565b5f602082840312156127a05761279f61260d565b5b5f6127ad84828501612777565b91505092915050565b5f73ffffffffffffffffffffffffffffffffffffffff82169050919050565b5f6127df826127b6565b9050919050565b6127ef816127d5565b82525050565b5f6020820190506128085f8301846127e6565b92915050565b612817816127d5565b8114612821575f80fd5b50565b5f813590506128328161280e565b92915050565b5f806040838503121561284e5761284d61260d565b5b5f61285b85828601612824565b925050602061286c85828601612777565b9150509250929050565b61287f81612758565b82525050565b5f6020820190506128985f830184612876565b92915050565b5f805f606084860312156128b5576128b461260d565b5b5f6128c286828701612824565b93505060206128d386828701612824565b92505060406128e486828701612777565b9150509250925092565b5f602082840312156129035761290261260d565b5b5f61291084828501612824565b91505092915050565b61292281612695565b811461292c575f80fd5b50565b5f8135905061293d81612919565b92915050565b5f80604083850312156129595761295861260d565b5b5f6129668582860161292f565b92505060206129778582860161292f565b9150509250929050565b5f80fd5b5f80fd5b5f80fd5b5f8083601f8401126129a2576129a1612981565b5b8235905067ffffffffffffffff8111156129bf576129be612985565b5b6020830191508360208202830111156129db576129da612989565b5b9250929050565b5f80602083850312156129f8576129f761260d565b5b5f83013567ffffffffffffffff811115612a1557612a14612611565b5b612a218582860161298d565b92509250509250929050565b5f8060408385031215612a4357612a4261260d565b5b5f612a5085828601612824565b9250506020612a618582860161292f565b9150509250929050565b5f80fd5b7f4e487b71000000000000000000000000000000000000000000000000000000005f52604160045260245ffd5b612aa5826126f0565b810181811067ffffffffffffffff82111715612ac457612ac3612a6f565b5b80604052505050565b5f612ad6612604565b9050612ae28282612a9c565b919050565b5f67ffffffffffffffff821115612b0157612b00612a6f565b5b612b0a826126f0565b9050602081019050919050565b828183375f83830152505050565b5f612b37612b3284612ae7565b612acd565b905082815260208101848484011115612b5357612b52612a6b565b5b612b5e848285612b17565b509392505050565b5f82601f830112612b7a57612b79612981565b5b8135612b8a848260208601612b25565b91505092915050565b5f805f8060808587031215612bab57612baa61260d565b5b5f612bb887828801612824565b9450506020612bc987828801612824565b9350506040612bda87828801612777565b925050606085013567ffffffffffffffff811115612bfb57612bfa612611565b5b612c0787828801612b66565b91505092959194509250565b5f8060408385031215612c2957612c2861260d565b5b5f612c3685828601612824565b9250506020612c4785828601612824565b9150509250929050565b7f4e487b71000000000000000000000000000000000000000000000000000000005f52602260045260245ffd5b5f6002820490506001821680612c9557607f821691505b602082108103612ca857612ca7612c51565b5b50919050565b7f616c6c6f774c697374206d696e74206973206e6f74206f70656e0000000000005f82015250565b5f612ce2601a836126d2565b9150612ced82612cae565b602082019050919050565b5f6020820190508181035f830152612d0f81612cd6565b9050919050565b7f4e6f7420416c6c6f7765640000000000000000000000000000000000000000005f82015250565b5f612d4a600b836126d2565b9150612d5582612d16565b602082019050919050565b5f6020820190508181035f830152612d7781612d3e565b9050919050565b7f4e6f7420456e6f7567682056616c7565000000000000000000000000000000005f82015250565b5f612db26010836126d2565b9150612dbd82612d7e565b602082019050919050565b5f6020820190508181035f830152612ddf81612da6565b9050919050565b5f606082019050612df95f8301866127e6565b612e066020830185612876565b612e1360408301846127e6565b949350505050565b7f7075626c69634d696e74206973206e6f74206f70656e000000000000000000005f82015250565b5f612e4f6016836126d2565b9150612e5a82612e1b565b602082019050919050565b5f6020820190508181035f830152612e7c81612e43565b9050919050565b5f604082019050612e965f8301856127e6565b612ea36020830184612876565b9392505050565b7f4e487b71000000000000000000000000000000000000000000000000000000005f52603260045260245ffd5b5f81905092915050565b5f612eeb826126c8565b612ef58185612ed7565b9350612f058185602086016126e2565b80840191505092915050565b5f612f1c8285612ee1565b9150612f288284612ee1565b91508190509392505050565b7f576520536f6c64204f75742121000000000000000000000000000000000000005f82015250565b5f612f68600d836126d2565b9150612f7382612f34565b602082019050919050565b5f6020820190508181035f830152612f9581612f5c565b9050919050565b7f4e487b71000000000000000000000000000000000000000000000000000000005f52601160045260245ffd5b5f612fd382612758565b91507fffffffffffffffffffffffffffffffffffffffffffffffffffffffffffffffff820361300557613004612f9c565b5b600182019050919050565b5f81519050919050565b5f82825260208201905092915050565b5f61303482613010565b61303e818561301a565b935061304e8185602086016126e2565b613057816126f0565b840191505092915050565b5f6080820190506130755f8301876127e6565b61308260208301866127e6565b61308f6040830185612876565b81810360608301526130a1818461302a565b905095945050505050565b5f815190506130ba81612640565b92915050565b5f602082840312156130d5576130d461260d565b5b5f6130e2848285016130ac565b91505092915050565b7f4e487b71000000000000000000000000000000000000000000000000000000005f52601260045260245ffd5b5f61312282612758565b915061312d83612758565b925082820390508181111561314557613144612f9c565b5b92915050565b7f4e487b71000000000000000000000000000000000000000000000000000000005f52603160045260245ffdfe697066733a2f2f516d62736552544a5753734c666873695777754232523745744e39335478666f614d7a31533546587473464555422fa264697066735822122045a4663ee3983b3091ebd8b0d636c28d60c5f27b99255199f0c8a4a79e0c429464736f6c634300081a0033",
					"opcodes": "PUSH1 0x80 PUSH1 0x40 MSTORE PUSH2 0x7D0 PUSH1 0xC SSTORE PUSH0 PUSH1 0xE PUSH0 PUSH2 0x100 EXP DUP2 SLOAD DUP2 PUSH1 0xFF MUL NOT AND SWAP1 DUP4 ISZERO ISZERO MUL OR SWAP1 SSTORE POP PUSH0 PUSH1 0xE PUSH1 0x1 PUSH2 0x100 EXP DUP2 SLOAD DUP2 PUSH1 0xFF MUL NOT AND SWAP1 DUP4 ISZERO ISZERO MUL OR SWAP1 SSTORE POP CALLVALUE DUP1 ISZERO PUSH2 0x48 JUMPI PUSH0 DUP1 REVERT JUMPDEST POP CALLER PUSH1 0x40 MLOAD DUP1 PUSH1 0x40 ADD PUSH1 0x40 MSTORE DUP1 PUSH1 0x6 DUP2 MSTORE PUSH1 0x20 ADD PUSH32 0x476F726179610000000000000000000000000000000000000000000000000000 DUP2 MSTORE POP PUSH1 0x40 MLOAD DUP1 PUSH1 0x40 ADD PUSH1 0x40 MSTORE DUP1 PUSH1 0x3 DUP2 MSTORE PUSH1 0x20 ADD PUSH32 0x4752590000000000000000000000000000000000000000000000000000000000 DUP2 MSTORE POP DUP2 PUSH0 SWAP1 DUP2 PUSH2 0xC4 SWAP2 SWAP1 PUSH2 0x474 JUMP JUMPDEST POP DUP1 PUSH1 0x1 SWAP1 DUP2 PUSH2 0xD4 SWAP2 SWAP1 PUSH2 0x474 JUMP JUMPDEST POP POP POP PUSH0 PUSH1 0xA PUSH0 PUSH2 0x100 EXP DUP2 SLOAD DUP2 PUSH1 0xFF MUL NOT AND SWAP1 DUP4 ISZERO ISZERO MUL OR SWAP1 SSTORE POP PUSH0 PUSH20 0xFFFFFFFFFFFFFFFFFFFFFFFFFFFFFFFFFFFFFFFF AND DUP2 PUSH20 0xFFFFFFFFFFFFFFFFFFFFFFFFFFFFFFFFFFFFFFFF AND SUB PUSH2 0x160 JUMPI PUSH0 PUSH1 0x40 MLOAD PUSH32 0x1E4FBDF700000000000000000000000000000000000000000000000000000000 DUP2 MSTORE PUSH1 0x4 ADD PUSH2 0x157 SWAP2 SWAP1 PUSH2 0x582 JUMP JUMPDEST PUSH1 0x40 MLOAD DUP1 SWAP2 SUB SWAP1 REVERT JUMPDEST PUSH2 0x16F DUP2 PUSH2 0x175 PUSH1 0x20 SHL PUSH1 0x20 SHR JUMP JUMPDEST POP PUSH2 0x59B JUMP JUMPDEST PUSH0 PUSH1 0xA PUSH1 0x1 SWAP1 SLOAD SWAP1 PUSH2 0x100 EXP SWAP1 DIV PUSH20 0xFFFFFFFFFFFFFFFFFFFFFFFFFFFFFFFFFFFFFFFF AND SWAP1 POP DUP2 PUSH1 0xA PUSH1 0x1 PUSH2 0x100 EXP DUP2 SLOAD DUP2 PUSH20 0xFFFFFFFFFFFFFFFFFFFFFFFFFFFFFFFFFFFFFFFF MUL NOT AND SWAP1 DUP4 PUSH20 0xFFFFFFFFFFFFFFFFFFFFFFFFFFFFFFFFFFFFFFFF AND MUL OR SWAP1 SSTORE POP DUP2 PUSH20 0xFFFFFFFFFFFFFFFFFFFFFFFFFFFFFFFFFFFFFFFF AND DUP2 PUSH20 0xFFFFFFFFFFFFFFFFFFFFFFFFFFFFFFFFFFFFFFFF AND PUSH32 0x8BE0079C531659141344CD1FD0A4F28419497F9722A3DAAFE3B4186F6B6457E0 PUSH1 0x40 MLOAD PUSH1 0x40 MLOAD DUP1 SWAP2 SUB SWAP1 LOG3 POP POP JUMP JUMPDEST PUSH0 DUP2 MLOAD SWAP1 POP SWAP2 SWAP1 POP JUMP JUMPDEST PUSH32 0x4E487B7100000000000000000000000000000000000000000000000000000000 PUSH0 MSTORE PUSH1 0x41 PUSH1 0x4 MSTORE PUSH1 0x24 PUSH0 REVERT JUMPDEST PUSH32 0x4E487B7100000000000000000000000000000000000000000000000000000000 PUSH0 MSTORE PUSH1 0x22 PUSH1 0x4 MSTORE PUSH1 0x24 PUSH0 REVERT JUMPDEST PUSH0 PUSH1 0x2 DUP3 DIV SWAP1 POP PUSH1 0x1 DUP3 AND DUP1 PUSH2 0x2B5 JUMPI PUSH1 0x7F DUP3 AND SWAP2 POP JUMPDEST PUSH1 0x20 DUP3 LT DUP2 SUB PUSH2 0x2C8 JUMPI PUSH2 0x2C7 PUSH2 0x271 JUMP JUMPDEST JUMPDEST POP SWAP2 SWAP1 POP JUMP JUMPDEST PUSH0 DUP2 SWAP1 POP DUP2 PUSH0 MSTORE PUSH1 0x20 PUSH0 KECCAK256 SWAP1 POP SWAP2 SWAP1 POP JUMP JUMPDEST PUSH0 PUSH1 0x20 PUSH1 0x1F DUP4 ADD DIV SWAP1 POP SWAP2 SWAP1 POP JUMP JUMPDEST PUSH0 DUP3 DUP3 SHL SWAP1 POP SWAP3 SWAP2 POP POP JUMP JUMPDEST PUSH0 PUSH1 0x8 DUP4 MUL PUSH2 0x32A PUSH32 0xFFFFFFFFFFFFFFFFFFFFFFFFFFFFFFFFFFFFFFFFFFFFFFFFFFFFFFFFFFFFFFFF DUP3 PUSH2 0x2EF JUMP JUMPDEST PUSH2 0x334 DUP7 DUP4 PUSH2 0x2EF JUMP JUMPDEST SWAP6 POP DUP1 NOT DUP5 AND SWAP4 POP DUP1 DUP7 AND DUP5 OR SWAP3 POP POP POP SWAP4 SWAP3 POP POP POP JUMP JUMPDEST PUSH0 DUP2 SWAP1 POP SWAP2 SWAP1 POP JUMP JUMPDEST PUSH0 DUP2 SWAP1 POP SWAP2 SWAP1 POP JUMP JUMPDEST PUSH0 PUSH2 0x378 PUSH2 0x373 PUSH2 0x36E DUP5 PUSH2 0x34C JUMP JUMPDEST PUSH2 0x355 JUMP JUMPDEST PUSH2 0x34C JUMP JUMPDEST SWAP1 POP SWAP2 SWAP1 POP JUMP JUMPDEST PUSH0 DUP2 SWAP1 POP SWAP2 SWAP1 POP JUMP JUMPDEST PUSH2 0x391 DUP4 PUSH2 0x35E JUMP JUMPDEST PUSH2 0x3A5 PUSH2 0x39D DUP3 PUSH2 0x37F JUMP JUMPDEST DUP5 DUP5 SLOAD PUSH2 0x2FB JUMP JUMPDEST DUP3 SSTORE POP POP POP POP JUMP JUMPDEST PUSH0 SWAP1 JUMP JUMPDEST PUSH2 0x3B9 PUSH2 0x3AD JUMP JUMPDEST PUSH2 0x3C4 DUP2 DUP5 DUP5 PUSH2 0x388 JUMP JUMPDEST POP POP POP JUMP JUMPDEST JUMPDEST DUP2 DUP2 LT ISZERO PUSH2 0x3E7 JUMPI PUSH2 0x3DC PUSH0 DUP3 PUSH2 0x3B1 JUMP JUMPDEST PUSH1 0x1 DUP2 ADD SWAP1 POP PUSH2 0x3CA JUMP JUMPDEST POP POP JUMP JUMPDEST PUSH1 0x1F DUP3 GT ISZERO PUSH2 0x42C JUMPI PUSH2 0x3FD DUP2 PUSH2 0x2CE JUMP JUMPDEST PUSH2 0x406 DUP5 PUSH2 0x2E0 JUMP JUMPDEST DUP2 ADD PUSH1 0x20 DUP6 LT ISZERO PUSH2 0x415 JUMPI DUP2 SWAP1 POP JUMPDEST PUSH2 0x429 PUSH2 0x421 DUP6 PUSH2 0x2E0 JUMP JUMPDEST DUP4 ADD DUP3 PUSH2 0x3C9 JUMP JUMPDEST POP POP JUMPDEST POP POP POP JUMP JUMPDEST PUSH0 DUP3 DUP3 SHR SWAP1 POP SWAP3 SWAP2 POP POP JUMP JUMPDEST PUSH0 PUSH2 0x44C PUSH0 NOT DUP5 PUSH1 0x8 MUL PUSH2 0x431 JUMP JUMPDEST NOT DUP1 DUP4 AND SWAP2 POP POP SWAP3 SWAP2 POP POP JUMP JUMPDEST PUSH0 PUSH2 0x464 DUP4 DUP4 PUSH2 0x43D JUMP JUMPDEST SWAP2 POP DUP3 PUSH1 0x2 MUL DUP3 OR SWAP1 POP SWAP3 SWAP2 POP POP JUMP JUMPDEST PUSH2 0x47D DUP3 PUSH2 0x23A JUMP JUMPDEST PUSH8 0xFFFFFFFFFFFFFFFF DUP2 GT ISZERO PUSH2 0x496 JUMPI PUSH2 0x495 PUSH2 0x244 JUMP JUMPDEST JUMPDEST PUSH2 0x4A0 DUP3 SLOAD PUSH2 0x29E JUMP JUMPDEST PUSH2 0x4AB DUP3 DUP3 DUP6 PUSH2 0x3EB JUMP JUMPDEST PUSH0 PUSH1 0x20 SWAP1 POP PUSH1 0x1F DUP4 GT PUSH1 0x1 DUP2 EQ PUSH2 0x4DC JUMPI PUSH0 DUP5 ISZERO PUSH2 0x4CA JUMPI DUP3 DUP8 ADD MLOAD SWAP1 POP JUMPDEST PUSH2 0x4D4 DUP6 DUP3 PUSH2 0x459 JUMP JUMPDEST DUP7 SSTORE POP PUSH2 0x53B JUMP JUMPDEST PUSH1 0x1F NOT DUP5 AND PUSH2 0x4EA DUP7 PUSH2 0x2CE JUMP JUMPDEST PUSH0 JUMPDEST DUP3 DUP2 LT ISZERO PUSH2 0x511 JUMPI DUP5 DUP10 ADD MLOAD DUP3 SSTORE PUSH1 0x1 DUP3 ADD SWAP2 POP PUSH1 0x20 DUP6 ADD SWAP5 POP PUSH1 0x20 DUP2 ADD SWAP1 POP PUSH2 0x4EC JUMP JUMPDEST DUP7 DUP4 LT ISZERO PUSH2 0x52E JUMPI DUP5 DUP10 ADD MLOAD PUSH2 0x52A PUSH1 0x1F DUP10 AND DUP3 PUSH2 0x43D JUMP JUMPDEST DUP4 SSTORE POP JUMPDEST PUSH1 0x1 PUSH1 0x2 DUP9 MUL ADD DUP9 SSTORE POP POP POP JUMPDEST POP POP POP POP POP POP JUMP JUMPDEST PUSH0 PUSH20 0xFFFFFFFFFFFFFFFFFFFFFFFFFFFFFFFFFFFFFFFF DUP3 AND SWAP1 POP SWAP2 SWAP1 POP JUMP JUMPDEST PUSH0 PUSH2 0x56C DUP3 PUSH2 0x543 JUMP JUMPDEST SWAP1 POP SWAP2 SWAP1 POP JUMP JUMPDEST PUSH2 0x57C DUP2 PUSH2 0x562 JUMP JUMPDEST DUP3 MSTORE POP POP JUMP JUMPDEST PUSH0 PUSH1 0x20 DUP3 ADD SWAP1 POP PUSH2 0x595 PUSH0 DUP4 ADD DUP5 PUSH2 0x573 JUMP JUMPDEST SWAP3 SWAP2 POP POP JUMP JUMPDEST PUSH2 0x31E4 DUP1 PUSH2 0x5A8 PUSH0 CODECOPY PUSH0 RETURN INVALID PUSH1 0x80 PUSH1 0x40 MSTORE PUSH1 0x4 CALLDATASIZE LT PUSH2 0x1C1 JUMPI PUSH0 CALLDATALOAD PUSH1 0xE0 SHR DUP1 PUSH4 0x51CFF8D9 GT PUSH2 0xF6 JUMPI DUP1 PUSH4 0x8DA5CB5B GT PUSH2 0x94 JUMPI DUP1 PUSH4 0xC87B56DD GT PUSH2 0x63 JUMPI DUP1 PUSH4 0xC87B56DD EQ PUSH2 0x5D1 JUMPI DUP1 PUSH4 0xD5ABEB01 EQ PUSH2 0x60D JUMPI DUP1 PUSH4 0xE985E9C5 EQ PUSH2 0x637 JUMPI DUP1 PUSH4 0xF2FDE38B EQ PUSH2 0x673 JUMPI PUSH2 0x1C1 JUMP JUMPDEST DUP1 PUSH4 0x8DA5CB5B EQ PUSH2 0x52D JUMPI DUP1 PUSH4 0x95D89B41 EQ PUSH2 0x557 JUMPI DUP1 PUSH4 0xA22CB465 EQ PUSH2 0x581 JUMPI DUP1 PUSH4 0xB88D4FDE EQ PUSH2 0x5A9 JUMPI PUSH2 0x1C1 JUMP JUMPDEST DUP1 PUSH4 0x6447C35D GT PUSH2 0xD0 JUMPI DUP1 PUSH4 0x6447C35D EQ PUSH2 0x49D JUMPI DUP1 PUSH4 0x70A08231 EQ PUSH2 0x4C5 JUMPI DUP1 PUSH4 0x715018A6 EQ PUSH2 0x501 JUMPI DUP1 PUSH4 0x8456CB59 EQ PUSH2 0x517 JUMPI PUSH2 0x1C1 JUMP JUMPDEST DUP1 PUSH4 0x51CFF8D9 EQ PUSH2 0x40F JUMPI DUP1 PUSH4 0x5C975ABB EQ PUSH2 0x437 JUMPI DUP1 PUSH4 0x6352211E EQ PUSH2 0x461 JUMPI PUSH2 0x1C1 JUMP JUMPDEST DUP1 PUSH4 0x26092B83 GT PUSH2 0x163 JUMPI DUP1 PUSH4 0x2F745C59 GT PUSH2 0x13D JUMPI DUP1 PUSH4 0x2F745C59 EQ PUSH2 0x359 JUMPI DUP1 PUSH4 0x3F4BA83A EQ PUSH2 0x395 JUMPI DUP1 PUSH4 0x42842E0E EQ PUSH2 0x3AB JUMPI DUP1 PUSH4 0x4F6CCCE7 EQ PUSH2 0x3D3 JUMPI PUSH2 0x1C1 JUMP JUMPDEST DUP1 PUSH4 0x26092B83 EQ PUSH2 0x2EB JUMPI DUP1 PUSH4 0x2848AEAF EQ PUSH2 0x2F5 JUMPI DUP1 PUSH4 0x2F48DE79 EQ PUSH2 0x331 JUMPI PUSH2 0x1C1 JUMP JUMPDEST DUP1 PUSH4 0x95EA7B3 GT PUSH2 0x19F JUMPI DUP1 PUSH4 0x95EA7B3 EQ PUSH2 0x267 JUMPI DUP1 PUSH4 0x102A6A73 EQ PUSH2 0x28F JUMPI DUP1 PUSH4 0x18160DDD EQ PUSH2 0x299 JUMPI DUP1 PUSH4 0x23B872DD EQ PUSH2 0x2C3 JUMPI PUSH2 0x1C1 JUMP JUMPDEST DUP1 PUSH4 0x1FFC9A7 EQ PUSH2 0x1C5 JUMPI DUP1 PUSH4 0x6FDDE03 EQ PUSH2 0x201 JUMPI DUP1 PUSH4 0x81812FC EQ PUSH2 0x22B JUMPI JUMPDEST PUSH0 DUP1 REVERT JUMPDEST CALLVALUE DUP1 ISZERO PUSH2 0x1D0 JUMPI PUSH0 DUP1 REVERT JUMPDEST POP PUSH2 0x1EB PUSH1 0x4 DUP1 CALLDATASIZE SUB DUP2 ADD SWAP1 PUSH2 0x1E6 SWAP2 SWAP1 PUSH2 0x266A JUMP JUMPDEST PUSH2 0x69B JUMP JUMPDEST PUSH1 0x40 MLOAD PUSH2 0x1F8 SWAP2 SWAP1 PUSH2 0x26AF JUMP JUMPDEST PUSH1 0x40 MLOAD DUP1 SWAP2 SUB SWAP1 RETURN JUMPDEST CALLVALUE DUP1 ISZERO PUSH2 0x20C JUMPI PUSH0 DUP1 REVERT JUMPDEST POP PUSH2 0x215 PUSH2 0x6AC JUMP JUMPDEST PUSH1 0x40 MLOAD PUSH2 0x222 SWAP2 SWAP1 PUSH2 0x2738 JUMP JUMPDEST PUSH1 0x40 MLOAD DUP1 SWAP2 SUB SWAP1 RETURN JUMPDEST CALLVALUE DUP1 ISZERO PUSH2 0x236 JUMPI PUSH0 DUP1 REVERT JUMPDEST POP PUSH2 0x251 PUSH1 0x4 DUP1 CALLDATASIZE SUB DUP2 ADD SWAP1 PUSH2 0x24C SWAP2 SWAP1 PUSH2 0x278B JUMP JUMPDEST PUSH2 0x73B JUMP JUMPDEST PUSH1 0x40 MLOAD PUSH2 0x25E SWAP2 SWAP1 PUSH2 0x27F5 JUMP JUMPDEST PUSH1 0x40 MLOAD DUP1 SWAP2 SUB SWAP1 RETURN JUMPDEST CALLVALUE DUP1 ISZERO PUSH2 0x272 JUMPI PUSH0 DUP1 REVERT JUMPDEST POP PUSH2 0x28D PUSH1 0x4 DUP1 CALLDATASIZE SUB DUP2 ADD SWAP1 PUSH2 0x288 SWAP2 SWAP1 PUSH2 0x2838 JUMP JUMPDEST PUSH2 0x756 JUMP JUMPDEST STOP JUMPDEST PUSH2 0x297 PUSH2 0x76C JUMP JUMPDEST STOP JUMPDEST CALLVALUE DUP1 ISZERO PUSH2 0x2A4 JUMPI PUSH0 DUP1 REVERT JUMPDEST POP PUSH2 0x2AD PUSH2 0x897 JUMP JUMPDEST PUSH1 0x40 MLOAD PUSH2 0x2BA SWAP2 SWAP1 PUSH2 0x2885 JUMP JUMPDEST PUSH1 0x40 MLOAD DUP1 SWAP2 SUB SWAP1 RETURN JUMPDEST CALLVALUE DUP1 ISZERO PUSH2 0x2CE JUMPI PUSH0 DUP1 REVERT JUMPDEST POP PUSH2 0x2E9 PUSH1 0x4 DUP1 CALLDATASIZE SUB DUP2 ADD SWAP1 PUSH2 0x2E4 SWAP2 SWAP1 PUSH2 0x289E JUMP JUMPDEST PUSH2 0x8A3 JUMP JUMPDEST STOP JUMPDEST PUSH2 0x2F3 PUSH2 0x9A2 JUMP JUMPDEST STOP JUMPDEST CALLVALUE DUP1 ISZERO PUSH2 0x300 JUMPI PUSH0 DUP1 REVERT JUMPDEST POP PUSH2 0x31B PUSH1 0x4 DUP1 CALLDATASIZE SUB DUP2 ADD SWAP1 PUSH2 0x316 SWAP2 SWAP1 PUSH2 0x28EE JUMP JUMPDEST PUSH2 0xA43 JUMP JUMPDEST PUSH1 0x40 MLOAD PUSH2 0x328 SWAP2 SWAP1 PUSH2 0x26AF JUMP JUMPDEST PUSH1 0x40 MLOAD DUP1 SWAP2 SUB SWAP1 RETURN JUMPDEST CALLVALUE DUP1 ISZERO PUSH2 0x33C JUMPI PUSH0 DUP1 REVERT JUMPDEST POP PUSH2 0x357 PUSH1 0x4 DUP1 CALLDATASIZE SUB DUP2 ADD SWAP1 PUSH2 0x352 SWAP2 SWAP1 PUSH2 0x2943 JUMP JUMPDEST PUSH2 0xA60 JUMP JUMPDEST STOP JUMPDEST CALLVALUE DUP1 ISZERO PUSH2 0x364 JUMPI PUSH0 DUP1 REVERT JUMPDEST POP PUSH2 0x37F PUSH1 0x4 DUP1 CALLDATASIZE SUB DUP2 ADD SWAP1 PUSH2 0x37A SWAP2 SWAP1 PUSH2 0x2838 JUMP JUMPDEST PUSH2 0xA9F JUMP JUMPDEST PUSH1 0x40 MLOAD PUSH2 0x38C SWAP2 SWAP1 PUSH2 0x2885 JUMP JUMPDEST PUSH1 0x40 MLOAD DUP1 SWAP2 SUB SWAP1 RETURN JUMPDEST CALLVALUE DUP1 ISZERO PUSH2 0x3A0 JUMPI PUSH0 DUP1 REVERT JUMPDEST POP PUSH2 0x3A9 PUSH2 0xB43 JUMP JUMPDEST STOP JUMPDEST CALLVALUE DUP1 ISZERO PUSH2 0x3B6 JUMPI PUSH0 DUP1 REVERT JUMPDEST POP PUSH2 0x3D1 PUSH1 0x4 DUP1 CALLDATASIZE SUB DUP2 ADD SWAP1 PUSH2 0x3CC SWAP2 SWAP1 PUSH2 0x289E JUMP JUMPDEST PUSH2 0xB55 JUMP JUMPDEST STOP JUMPDEST CALLVALUE DUP1 ISZERO PUSH2 0x3DE JUMPI PUSH0 DUP1 REVERT JUMPDEST POP PUSH2 0x3F9 PUSH1 0x4 DUP1 CALLDATASIZE SUB DUP2 ADD SWAP1 PUSH2 0x3F4 SWAP2 SWAP1 PUSH2 0x278B JUMP JUMPDEST PUSH2 0xB74 JUMP JUMPDEST PUSH1 0x40 MLOAD PUSH2 0x406 SWAP2 SWAP1 PUSH2 0x2885 JUMP JUMPDEST PUSH1 0x40 MLOAD DUP1 SWAP2 SUB SWAP1 RETURN JUMPDEST CALLVALUE DUP1 ISZERO PUSH2 0x41A JUMPI PUSH0 DUP1 REVERT JUMPDEST POP PUSH2 0x435 PUSH1 0x4 DUP1 CALLDATASIZE SUB DUP2 ADD SWAP1 PUSH2 0x430 SWAP2 SWAP1 PUSH2 0x28EE JUMP JUMPDEST PUSH2 0xBE6 JUMP JUMPDEST STOP JUMPDEST CALLVALUE DUP1 ISZERO PUSH2 0x442 JUMPI PUSH0 DUP1 REVERT JUMPDEST POP PUSH2 0x44B PUSH2 0xC35 JUMP JUMPDEST PUSH1 0x40 MLOAD PUSH2 0x458 SWAP2 SWAP1 PUSH2 0x26AF JUMP JUMPDEST PUSH1 0x40 MLOAD DUP1 SWAP2 SUB SWAP1 RETURN JUMPDEST CALLVALUE DUP1 ISZERO PUSH2 0x46C JUMPI PUSH0 DUP1 REVERT JUMPDEST POP PUSH2 0x487 PUSH1 0x4 DUP1 CALLDATASIZE SUB DUP2 ADD SWAP1 PUSH2 0x482 SWAP2 SWAP1 PUSH2 0x278B JUMP JUMPDEST PUSH2 0xC4A JUMP JUMPDEST PUSH1 0x40 MLOAD PUSH2 0x494 SWAP2 SWAP1 PUSH2 0x27F5 JUMP JUMPDEST PUSH1 0x40 MLOAD DUP1 SWAP2 SUB SWAP1 RETURN JUMPDEST CALLVALUE DUP1 ISZERO PUSH2 0x4A8 JUMPI PUSH0 DUP1 REVERT JUMPDEST POP PUSH2 0x4C3 PUSH1 0x4 DUP1 CALLDATASIZE SUB DUP2 ADD SWAP1 PUSH2 0x4BE SWAP2 SWAP1 PUSH2 0x29E2 JUMP JUMPDEST PUSH2 0xC5B JUMP JUMPDEST STOP JUMPDEST CALLVALUE DUP1 ISZERO PUSH2 0x4D0 JUMPI PUSH0 DUP1 REVERT JUMPDEST POP PUSH2 0x4EB PUSH1 0x4 DUP1 CALLDATASIZE SUB DUP2 ADD SWAP1 PUSH2 0x4E6 SWAP2 SWAP1 PUSH2 0x28EE JUMP JUMPDEST PUSH2 0xCFE JUMP JUMPDEST PUSH1 0x40 MLOAD PUSH2 0x4F8 SWAP2 SWAP1 PUSH2 0x2885 JUMP JUMPDEST PUSH1 0x40 MLOAD DUP1 SWAP2 SUB SWAP1 RETURN JUMPDEST CALLVALUE DUP1 ISZERO PUSH2 0x50C JUMPI PUSH0 DUP1 REVERT JUMPDEST POP PUSH2 0x515 PUSH2 0xDB4 JUMP JUMPDEST STOP JUMPDEST CALLVALUE DUP1 ISZERO PUSH2 0x522 JUMPI PUSH0 DUP1 REVERT JUMPDEST POP PUSH2 0x52B PUSH2 0xDC7 JUMP JUMPDEST STOP JUMPDEST CALLVALUE DUP1 ISZERO PUSH2 0x538 JUMPI PUSH0 DUP1 REVERT JUMPDEST POP PUSH2 0x541 PUSH2 0xDD9 JUMP JUMPDEST PUSH1 0x40 MLOAD PUSH2 0x54E SWAP2 SWAP1 PUSH2 0x27F5 JUMP JUMPDEST PUSH1 0x40 MLOAD DUP1 SWAP2 SUB SWAP1 RETURN JUMPDEST CALLVALUE DUP1 ISZERO PUSH2 0x562 JUMPI PUSH0 DUP1 REVERT JUMPDEST POP PUSH2 0x56B PUSH2 0xE02 JUMP JUMPDEST PUSH1 0x40 MLOAD PUSH2 0x578 SWAP2 SWAP1 PUSH2 0x2738 JUMP JUMPDEST PUSH1 0x40 MLOAD DUP1 SWAP2 SUB SWAP1 RETURN JUMPDEST CALLVALUE DUP1 ISZERO PUSH2 0x58C JUMPI PUSH0 DUP1 REVERT JUMPDEST POP PUSH2 0x5A7 PUSH1 0x4 DUP1 CALLDATASIZE SUB DUP2 ADD SWAP1 PUSH2 0x5A2 SWAP2 SWAP1 PUSH2 0x2A2D JUMP JUMPDEST PUSH2 0xE92 JUMP JUMPDEST STOP JUMPDEST CALLVALUE DUP1 ISZERO PUSH2 0x5B4 JUMPI PUSH0 DUP1 REVERT JUMPDEST POP PUSH2 0x5CF PUSH1 0x4 DUP1 CALLDATASIZE SUB DUP2 ADD SWAP1 PUSH2 0x5CA SWAP2 SWAP1 PUSH2 0x2B93 JUMP JUMPDEST PUSH2 0xEA8 JUMP JUMPDEST STOP JUMPDEST CALLVALUE DUP1 ISZERO PUSH2 0x5DC JUMPI PUSH0 DUP1 REVERT JUMPDEST POP PUSH2 0x5F7 PUSH1 0x4 DUP1 CALLDATASIZE SUB DUP2 ADD SWAP1 PUSH2 0x5F2 SWAP2 SWAP1 PUSH2 0x278B JUMP JUMPDEST PUSH2 0xEC5 JUMP JUMPDEST PUSH1 0x40 MLOAD PUSH2 0x604 SWAP2 SWAP1 PUSH2 0x2738 JUMP JUMPDEST PUSH1 0x40 MLOAD DUP1 SWAP2 SUB SWAP1 RETURN JUMPDEST CALLVALUE DUP1 ISZERO PUSH2 0x618 JUMPI PUSH0 DUP1 REVERT JUMPDEST POP PUSH2 0x621 PUSH2 0xF2B JUMP JUMPDEST PUSH1 0x40 MLOAD PUSH2 0x62E SWAP2 SWAP1 PUSH2 0x2885 JUMP JUMPDEST PUSH1 0x40 MLOAD DUP1 SWAP2 SUB SWAP1 RETURN JUMPDEST CALLVALUE DUP1 ISZERO PUSH2 0x642 JUMPI PUSH0 DUP1 REVERT JUMPDEST POP PUSH2 0x65D PUSH1 0x4 DUP1 CALLDATASIZE SUB DUP2 ADD SWAP1 PUSH2 0x658 SWAP2 SWAP1 PUSH2 0x2C13 JUMP JUMPDEST PUSH2 0xF31 JUMP JUMPDEST PUSH1 0x40 MLOAD PUSH2 0x66A SWAP2 SWAP1 PUSH2 0x26AF JUMP JUMPDEST PUSH1 0x40 MLOAD DUP1 SWAP2 SUB SWAP1 RETURN JUMPDEST CALLVALUE DUP1 ISZERO PUSH2 0x67E JUMPI PUSH0 DUP1 REVERT JUMPDEST POP PUSH2 0x699 PUSH1 0x4 DUP1 CALLDATASIZE SUB DUP2 ADD SWAP1 PUSH2 0x694 SWAP2 SWAP1 PUSH2 0x28EE JUMP JUMPDEST PUSH2 0xFBF JUMP JUMPDEST STOP JUMPDEST PUSH0 PUSH2 0x6A5 DUP3 PUSH2 0x1043 JUMP JUMPDEST SWAP1 POP SWAP2 SWAP1 POP JUMP JUMPDEST PUSH1 0x60 PUSH0 DUP1 SLOAD PUSH2 0x6BA SWAP1 PUSH2 0x2C7E JUMP JUMPDEST DUP1 PUSH1 0x1F ADD PUSH1 0x20 DUP1 SWAP2 DIV MUL PUSH1 0x20 ADD PUSH1 0x40 MLOAD SWAP1 DUP2 ADD PUSH1 0x40 MSTORE DUP1 SWAP3 SWAP2 SWAP1 DUP2 DUP2 MSTORE PUSH1 0x20 ADD DUP3 DUP1 SLOAD PUSH2 0x6E6 SWAP1 PUSH2 0x2C7E JUMP JUMPDEST DUP1 ISZERO PUSH2 0x731 JUMPI DUP1 PUSH1 0x1F LT PUSH2 0x708 JUMPI PUSH2 0x100 DUP1 DUP4 SLOAD DIV MUL DUP4 MSTORE SWAP2 PUSH1 0x20 ADD SWAP2 PUSH2 0x731 JUMP JUMPDEST DUP3 ADD SWAP2 SWAP1 PUSH0 MSTORE PUSH1 0x20 PUSH0 KECCAK256 SWAP1 JUMPDEST DUP2 SLOAD DUP2 MSTORE SWAP1 PUSH1 0x1 ADD SWAP1 PUSH1 0x20 ADD DUP1 DUP4 GT PUSH2 0x714 JUMPI DUP3 SWAP1 SUB PUSH1 0x1F AND DUP3 ADD SWAP2 JUMPDEST POP POP POP POP POP SWAP1 POP SWAP1 JUMP JUMPDEST PUSH0 PUSH2 0x745 DUP3 PUSH2 0x10BC JUMP JUMPDEST POP PUSH2 0x74F DUP3 PUSH2 0x1142 JUMP JUMPDEST SWAP1 POP SWAP2 SWAP1 POP JUMP JUMPDEST PUSH2 0x768 DUP3 DUP3 PUSH2 0x763 PUSH2 0x117B JUMP JUMPDEST PUSH2 0x1182 JUMP JUMPDEST POP POP JUMP JUMPDEST PUSH1 0xE PUSH1 0x1 SWAP1 SLOAD SWAP1 PUSH2 0x100 EXP SWAP1 DIV PUSH1 0xFF AND PUSH2 0x7BB JUMPI PUSH1 0x40 MLOAD PUSH32 0x8C379A000000000000000000000000000000000000000000000000000000000 DUP2 MSTORE PUSH1 0x4 ADD PUSH2 0x7B2 SWAP1 PUSH2 0x2CF8 JUMP JUMPDEST PUSH1 0x40 MLOAD DUP1 SWAP2 SUB SWAP1 REVERT JUMPDEST PUSH1 0xD PUSH0 CALLER PUSH20 0xFFFFFFFFFFFFFFFFFFFFFFFFFFFFFFFFFFFFFFFF AND PUSH20 0xFFFFFFFFFFFFFFFFFFFFFFFFFFFFFFFFFFFFFFFF AND DUP2 MSTORE PUSH1 0x20 ADD SWAP1 DUP2 MSTORE PUSH1 0x20 ADD PUSH0 KECCAK256 PUSH0 SWAP1 SLOAD SWAP1 PUSH2 0x100 EXP SWAP1 DIV PUSH1 0xFF AND PUSH2 0x844 JUMPI PUSH1 0x40 MLOAD PUSH32 0x8C379A000000000000000000000000000000000000000000000000000000000 DUP2 MSTORE PUSH1 0x4 ADD PUSH2 0x83B SWAP1 PUSH2 0x2D60 JUMP JUMPDEST PUSH1 0x40 MLOAD DUP1 SWAP2 SUB SWAP1 REVERT JUMPDEST PUSH7 0x38D7EA4C68000 CALLVALUE EQ PUSH2 0x88D JUMPI PUSH1 0x40 MLOAD PUSH32 0x8C379A000000000000000000000000000000000000000000000000000000000 DUP2 MSTORE PUSH1 0x4 ADD PUSH2 0x884 SWAP1 PUSH2 0x2DC8 JUMP JUMPDEST PUSH1 0x40 MLOAD DUP1 SWAP2 SUB SWAP1 REVERT JUMPDEST PUSH2 0x895 PUSH2 0x1194 JUMP JUMPDEST JUMP JUMPDEST PUSH0 PUSH1 0x8 DUP1 SLOAD SWAP1 POP SWAP1 POP SWAP1 JUMP JUMPDEST PUSH0 PUSH20 0xFFFFFFFFFFFFFFFFFFFFFFFFFFFFFFFFFFFFFFFF AND DUP3 PUSH20 0xFFFFFFFFFFFFFFFFFFFFFFFFFFFFFFFFFFFFFFFF AND SUB PUSH2 0x913 JUMPI PUSH0 PUSH1 0x40 MLOAD PUSH32 0x64A0AE9200000000000000000000000000000000000000000000000000000000 DUP2 MSTORE PUSH1 0x4 ADD PUSH2 0x90A SWAP2 SWAP1 PUSH2 0x27F5 JUMP JUMPDEST PUSH1 0x40 MLOAD DUP1 SWAP2 SUB SWAP1 REVERT JUMPDEST PUSH0 PUSH2 0x926 DUP4 DUP4 PUSH2 0x921 PUSH2 0x117B JUMP JUMPDEST PUSH2 0x1205 JUMP JUMPDEST SWAP1 POP DUP4 PUSH20 0xFFFFFFFFFFFFFFFFFFFFFFFFFFFFFFFFFFFFFFFF AND DUP2 PUSH20 0xFFFFFFFFFFFFFFFFFFFFFFFFFFFFFFFFFFFFFFFF AND EQ PUSH2 0x99C JUMPI DUP4 DUP3 DUP3 PUSH1 0x40 MLOAD PUSH32 0x64283D7B00000000000000000000000000000000000000000000000000000000 DUP2 MSTORE PUSH1 0x4 ADD PUSH2 0x993 SWAP4 SWAP3 SWAP2 SWAP1 PUSH2 0x2DE6 JUMP JUMPDEST PUSH1 0x40 MLOAD DUP1 SWAP2 SUB SWAP1 REVERT JUMPDEST POP POP POP POP JUMP JUMPDEST PUSH1 0xE PUSH0 SWAP1 SLOAD SWAP1 PUSH2 0x100 EXP SWAP1 DIV PUSH1 0xFF AND PUSH2 0x9F0 JUMPI PUSH1 0x40 MLOAD PUSH32 0x8C379A000000000000000000000000000000000000000000000000000000000 DUP2 MSTORE PUSH1 0x4 ADD PUSH2 0x9E7 SWAP1 PUSH2 0x2E65 JUMP JUMPDEST PUSH1 0x40 MLOAD DUP1 SWAP2 SUB SWAP1 REVERT JUMPDEST PUSH7 0x2386F26FC10000 CALLVALUE EQ PUSH2 0xA39 JUMPI PUSH1 0x40 MLOAD PUSH32 0x8C379A000000000000000000000000000000000000000000000000000000000 DUP2 MSTORE PUSH1 0x4 ADD PUSH2 0xA30 SWAP1 PUSH2 0x2DC8 JUMP JUMPDEST PUSH1 0x40 MLOAD DUP1 SWAP2 SUB SWAP1 REVERT JUMPDEST PUSH2 0xA41 PUSH2 0x1194 JUMP JUMPDEST JUMP JUMPDEST PUSH1 0xD PUSH1 0x20 MSTORE DUP1 PUSH0 MSTORE PUSH1 0x40 PUSH0 KECCAK256 PUSH0 SWAP2 POP SLOAD SWAP1 PUSH2 0x100 EXP SWAP1 DIV PUSH1 0xFF AND DUP2 JUMP JUMPDEST PUSH2 0xA68 PUSH2 0x121A JUMP JUMPDEST DUP2 PUSH1 0xE PUSH0 PUSH2 0x100 EXP DUP2 SLOAD DUP2 PUSH1 0xFF MUL NOT AND SWAP1 DUP4 ISZERO ISZERO MUL OR SWAP1 SSTORE POP DUP1 PUSH1 0xE PUSH1 0x1 PUSH2 0x100 EXP DUP2 SLOAD DUP2 PUSH1 0xFF MUL NOT AND SWAP1 DUP4 ISZERO ISZERO MUL OR SWAP1 SSTORE POP POP POP JUMP JUMPDEST PUSH0 PUSH2 0xAA9 DUP4 PUSH2 0xCFE JUMP JUMPDEST DUP3 LT PUSH2 0xAEE JUMPI DUP3 DUP3 PUSH1 0x40 MLOAD PUSH32 0xA57D13DC00000000000000000000000000000000000000000000000000000000 DUP2 MSTORE PUSH1 0x4 ADD PUSH2 0xAE5 SWAP3 SWAP2 SWAP1 PUSH2 0x2E83 JUMP JUMPDEST PUSH1 0x40 MLOAD DUP1 SWAP2 SUB SWAP1 REVERT JUMPDEST PUSH1 0x6 PUSH0 DUP5 PUSH20 0xFFFFFFFFFFFFFFFFFFFFFFFFFFFFFFFFFFFFFFFF AND PUSH20 0xFFFFFFFFFFFFFFFFFFFFFFFFFFFFFFFFFFFFFFFF AND DUP2 MSTORE PUSH1 0x20 ADD SWAP1 DUP2 MSTORE PUSH1 0x20 ADD PUSH0 KECCAK256 PUSH0 DUP4 DUP2 MSTORE PUSH1 0x20 ADD SWAP1 DUP2 MSTORE PUSH1 0x20 ADD PUSH0 KECCAK256 SLOAD SWAP1 POP SWAP3 SWAP2 POP POP JUMP JUMPDEST PUSH2 0xB4B PUSH2 0x121A JUMP JUMPDEST PUSH2 0xB53 PUSH2 0x12A1 JUMP JUMPDEST JUMP JUMPDEST PUSH2 0xB6F DUP4 DUP4 DUP4 PUSH1 0x40 MLOAD DUP1 PUSH1 0x20 ADD PUSH1 0x40 MSTORE DUP1 PUSH0 DUP2 MSTORE POP PUSH2 0xEA8 JUMP JUMPDEST POP POP POP JUMP JUMPDEST PUSH0 PUSH2 0xB7D PUSH2 0x897 JUMP JUMPDEST DUP3 LT PUSH2 0xBC2 JUMPI PUSH0 DUP3 PUSH1 0x40 MLOAD PUSH32 0xA57D13DC00000000000000000000000000000000000000000000000000000000 DUP2 MSTORE PUSH1 0x4 ADD PUSH2 0xBB9 SWAP3 SWAP2 SWAP1 PUSH2 0x2E83 JUMP JUMPDEST PUSH1 0x40 MLOAD DUP1 SWAP2 SUB SWAP1 REVERT JUMPDEST PUSH1 0x8 DUP3 DUP2 SLOAD DUP2 LT PUSH2 0xBD6 JUMPI PUSH2 0xBD5 PUSH2 0x2EAA JUMP JUMPDEST JUMPDEST SWAP1 PUSH0 MSTORE PUSH1 0x20 PUSH0 KECCAK256 ADD SLOAD SWAP1 POP SWAP2 SWAP1 POP JUMP JUMPDEST PUSH2 0xBEE PUSH2 0x121A JUMP JUMPDEST DUP1 PUSH20 0xFFFFFFFFFFFFFFFFFFFFFFFFFFFFFFFFFFFFFFFF AND PUSH2 0x8FC SELFBALANCE SWAP1 DUP2 ISZERO MUL SWAP1 PUSH1 0x40 MLOAD PUSH0 PUSH1 0x40 MLOAD DUP1 DUP4 SUB DUP2 DUP6 DUP9 DUP9 CALL SWAP4 POP POP POP POP ISZERO DUP1 ISZERO PUSH2 0xC31 JUMPI RETURNDATASIZE PUSH0 DUP1 RETURNDATACOPY RETURNDATASIZE PUSH0 REVERT JUMPDEST POP POP JUMP JUMPDEST PUSH0 PUSH1 0xA PUSH0 SWAP1 SLOAD SWAP1 PUSH2 0x100 EXP SWAP1 DIV PUSH1 0xFF AND SWAP1 POP SWAP1 JUMP JUMPDEST PUSH0 PUSH2 0xC54 DUP3 PUSH2 0x10BC JUMP JUMPDEST SWAP1 POP SWAP2 SWAP1 POP JUMP JUMPDEST PUSH2 0xC63 PUSH2 0x121A JUMP JUMPDEST PUSH0 JUMPDEST DUP3 DUP3 SWAP1 POP DUP2 LT ISZERO PUSH2 0xCF9 JUMPI PUSH1 0x1 PUSH1 0xD PUSH0 DUP6 DUP6 DUP6 DUP2 DUP2 LT PUSH2 0xC88 JUMPI PUSH2 0xC87 PUSH2 0x2EAA JUMP JUMPDEST JUMPDEST SWAP1 POP PUSH1 0x20 MUL ADD PUSH1 0x20 DUP2 ADD SWAP1 PUSH2 0xC9D SWAP2 SWAP1 PUSH2 0x28EE JUMP JUMPDEST PUSH20 0xFFFFFFFFFFFFFFFFFFFFFFFFFFFFFFFFFFFFFFFF AND PUSH20 0xFFFFFFFFFFFFFFFFFFFFFFFFFFFFFFFFFFFFFFFF AND DUP2 MSTORE PUSH1 0x20 ADD SWAP1 DUP2 MSTORE PUSH1 0x20 ADD PUSH0 KECCAK256 PUSH0 PUSH2 0x100 EXP DUP2 SLOAD DUP2 PUSH1 0xFF MUL NOT AND SWAP1 DUP4 ISZERO ISZERO MUL OR SWAP1 SSTORE POP DUP1 DUP1 PUSH1 0x1 ADD SWAP2 POP POP PUSH2 0xC65 JUMP JUMPDEST POP POP POP JUMP JUMPDEST PUSH0 DUP1 PUSH20 0xFFFFFFFFFFFFFFFFFFFFFFFFFFFFFFFFFFFFFFFF AND DUP3 PUSH20 0xFFFFFFFFFFFFFFFFFFFFFFFFFFFFFFFFFFFFFFFF AND SUB PUSH2 0xD6F JUMPI PUSH0 PUSH1 0x40 MLOAD PUSH32 0x89C62B6400000000000000000000000000000000000000000000000000000000 DUP2 MSTORE PUSH1 0x4 ADD PUSH2 0xD66 SWAP2 SWAP1 PUSH2 0x27F5 JUMP JUMPDEST PUSH1 0x40 MLOAD DUP1 SWAP2 SUB SWAP1 REVERT JUMPDEST PUSH1 0x3 PUSH0 DUP4 PUSH20 0xFFFFFFFFFFFFFFFFFFFFFFFFFFFFFFFFFFFFFFFF AND PUSH20 0xFFFFFFFFFFFFFFFFFFFFFFFFFFFFFFFFFFFFFFFF AND DUP2 MSTORE PUSH1 0x20 ADD SWAP1 DUP2 MSTORE PUSH1 0x20 ADD PUSH0 KECCAK256 SLOAD SWAP1 POP SWAP2 SWAP1 POP JUMP JUMPDEST PUSH2 0xDBC PUSH2 0x121A JUMP JUMPDEST PUSH2 0xDC5 PUSH0 PUSH2 0x1302 JUMP JUMPDEST JUMP JUMPDEST PUSH2 0xDCF PUSH2 0x121A JUMP JUMPDEST PUSH2 0xDD7 PUSH2 0x13C7 JUMP JUMPDEST JUMP JUMPDEST PUSH0 PUSH1 0xA PUSH1 0x1 SWAP1 SLOAD SWAP1 PUSH2 0x100 EXP SWAP1 DIV PUSH20 0xFFFFFFFFFFFFFFFFFFFFFFFFFFFFFFFFFFFFFFFF AND SWAP1 POP SWAP1 JUMP JUMPDEST PUSH1 0x60 PUSH1 0x1 DUP1 SLOAD PUSH2 0xE11 SWAP1 PUSH2 0x2C7E JUMP JUMPDEST DUP1 PUSH1 0x1F ADD PUSH1 0x20 DUP1 SWAP2 DIV MUL PUSH1 0x20 ADD PUSH1 0x40 MLOAD SWAP1 DUP2 ADD PUSH1 0x40 MSTORE DUP1 SWAP3 SWAP2 SWAP1 DUP2 DUP2 MSTORE PUSH1 0x20 ADD DUP3 DUP1 SLOAD PUSH2 0xE3D SWAP1 PUSH2 0x2C7E JUMP JUMPDEST DUP1 ISZERO PUSH2 0xE88 JUMPI DUP1 PUSH1 0x1F LT PUSH2 0xE5F JUMPI PUSH2 0x100 DUP1 DUP4 SLOAD DIV MUL DUP4 MSTORE SWAP2 PUSH1 0x20 ADD SWAP2 PUSH2 0xE88 JUMP JUMPDEST DUP3 ADD SWAP2 SWAP1 PUSH0 MSTORE PUSH1 0x20 PUSH0 KECCAK256 SWAP1 JUMPDEST DUP2 SLOAD DUP2 MSTORE SWAP1 PUSH1 0x1 ADD SWAP1 PUSH1 0x20 ADD DUP1 DUP4 GT PUSH2 0xE6B JUMPI DUP3 SWAP1 SUB PUSH1 0x1F AND DUP3 ADD SWAP2 JUMPDEST POP POP POP POP POP SWAP1 POP SWAP1 JUMP JUMPDEST PUSH2 0xEA4 PUSH2 0xE9D PUSH2 0x117B JUMP JUMPDEST DUP4 DUP4 PUSH2 0x1429 JUMP JUMPDEST POP POP JUMP JUMPDEST PUSH2 0xEB3 DUP5 DUP5 DUP5 PUSH2 0x8A3 JUMP JUMPDEST PUSH2 0xEBF DUP5 DUP5 DUP5 DUP5 PUSH2 0x1592 JUMP JUMPDEST POP POP POP POP JUMP JUMPDEST PUSH1 0x60 PUSH2 0xED0 DUP3 PUSH2 0x10BC JUMP JUMPDEST POP PUSH0 PUSH2 0xEDA PUSH2 0x1744 JUMP JUMPDEST SWAP1 POP PUSH0 DUP2 MLOAD GT PUSH2 0xEF8 JUMPI PUSH1 0x40 MLOAD DUP1 PUSH1 0x20 ADD PUSH1 0x40 MSTORE DUP1 PUSH0 DUP2 MSTORE POP PUSH2 0xF23 JUMP JUMPDEST DUP1 PUSH2 0xF02 DUP5 PUSH2 0x1764 JUMP JUMPDEST PUSH1 0x40 MLOAD PUSH1 0x20 ADD PUSH2 0xF13 SWAP3 SWAP2 SWAP1 PUSH2 0x2F11 JUMP JUMPDEST PUSH1 0x40 MLOAD PUSH1 0x20 DUP2 DUP4 SUB SUB DUP2 MSTORE SWAP1 PUSH1 0x40 MSTORE JUMPDEST SWAP2 POP POP SWAP2 SWAP1 POP JUMP JUMPDEST PUSH1 0xC SLOAD DUP2 JUMP JUMPDEST PUSH0 PUSH1 0x5 PUSH0 DUP5 PUSH20 0xFFFFFFFFFFFFFFFFFFFFFFFFFFFFFFFFFFFFFFFF AND PUSH20 0xFFFFFFFFFFFFFFFFFFFFFFFFFFFFFFFFFFFFFFFF AND DUP2 MSTORE PUSH1 0x20 ADD SWAP1 DUP2 MSTORE PUSH1 0x20 ADD PUSH0 KECCAK256 PUSH0 DUP4 PUSH20 0xFFFFFFFFFFFFFFFFFFFFFFFFFFFFFFFFFFFFFFFF AND PUSH20 0xFFFFFFFFFFFFFFFFFFFFFFFFFFFFFFFFFFFFFFFF AND DUP2 MSTORE PUSH1 0x20 ADD SWAP1 DUP2 MSTORE PUSH1 0x20 ADD PUSH0 KECCAK256 PUSH0 SWAP1 SLOAD SWAP1 PUSH2 0x100 EXP SWAP1 DIV PUSH1 0xFF AND SWAP1 POP SWAP3 SWAP2 POP POP JUMP JUMPDEST PUSH2 0xFC7 PUSH2 0x121A JUMP JUMPDEST PUSH0 PUSH20 0xFFFFFFFFFFFFFFFFFFFFFFFFFFFFFFFFFFFFFFFF AND DUP2 PUSH20 0xFFFFFFFFFFFFFFFFFFFFFFFFFFFFFFFFFFFFFFFF AND SUB PUSH2 0x1037 JUMPI PUSH0 PUSH1 0x40 MLOAD PUSH32 0x1E4FBDF700000000000000000000000000000000000000000000000000000000 DUP2 MSTORE PUSH1 0x4 ADD PUSH2 0x102E SWAP2 SWAP1 PUSH2 0x27F5 JUMP JUMPDEST PUSH1 0x40 MLOAD DUP1 SWAP2 SUB SWAP1 REVERT JUMPDEST PUSH2 0x1040 DUP2 PUSH2 0x1302 JUMP JUMPDEST POP JUMP JUMPDEST PUSH0 PUSH32 0x780E9D6300000000000000000000000000000000000000000000000000000000 PUSH28 0xFFFFFFFFFFFFFFFFFFFFFFFFFFFFFFFFFFFFFFFFFFFFFFFFFFFFFFFF NOT AND DUP3 PUSH28 0xFFFFFFFFFFFFFFFFFFFFFFFFFFFFFFFFFFFFFFFFFFFFFFFFFFFFFFFF NOT AND EQ DUP1 PUSH2 0x10B5 JUMPI POP PUSH2 0x10B4 DUP3 PUSH2 0x182E JUMP JUMPDEST JUMPDEST SWAP1 POP SWAP2 SWAP1 POP JUMP JUMPDEST PUSH0 DUP1 PUSH2 0x10C7 DUP4 PUSH2 0x190F JUMP JUMPDEST SWAP1 POP PUSH0 PUSH20 0xFFFFFFFFFFFFFFFFFFFFFFFFFFFFFFFFFFFFFFFF AND DUP2 PUSH20 0xFFFFFFFFFFFFFFFFFFFFFFFFFFFFFFFFFFFFFFFF AND SUB PUSH2 0x1139 JUMPI DUP3 PUSH1 0x40 MLOAD PUSH32 0x7E27328900000000000000000000000000000000000000000000000000000000 DUP2 MSTORE PUSH1 0x4 ADD PUSH2 0x1130 SWAP2 SWAP1 PUSH2 0x2885 JUMP JUMPDEST PUSH1 0x40 MLOAD DUP1 SWAP2 SUB SWAP1 REVERT JUMPDEST DUP1 SWAP2 POP POP SWAP2 SWAP1 POP JUMP JUMPDEST PUSH0 PUSH1 0x4 PUSH0 DUP4 DUP2 MSTORE PUSH1 0x20 ADD SWAP1 DUP2 MSTORE PUSH1 0x20 ADD PUSH0 KECCAK256 PUSH0 SWAP1 SLOAD SWAP1 PUSH2 0x100 EXP SWAP1 DIV PUSH20 0xFFFFFFFFFFFFFFFFFFFFFFFFFFFFFFFFFFFFFFFF AND SWAP1 POP SWAP2 SWAP1 POP JUMP JUMPDEST PUSH0 CALLER SWAP1 POP SWAP1 JUMP JUMPDEST PUSH2 0x118F DUP4 DUP4 DUP4 PUSH1 0x1 PUSH2 0x1948 JUMP JUMPDEST POP POP POP JUMP JUMPDEST PUSH1 0xC SLOAD PUSH2 0x119F PUSH2 0x897 JUMP JUMPDEST LT PUSH2 0x11DF JUMPI PUSH1 0x40 MLOAD PUSH32 0x8C379A000000000000000000000000000000000000000000000000000000000 DUP2 MSTORE PUSH1 0x4 ADD PUSH2 0x11D6 SWAP1 PUSH2 0x2F7E JUMP JUMPDEST PUSH1 0x40 MLOAD DUP1 SWAP2 SUB SWAP1 REVERT JUMPDEST PUSH0 PUSH1 0xB PUSH0 DUP2 SLOAD DUP1 SWAP3 SWAP2 SWAP1 PUSH2 0x11F2 SWAP1 PUSH2 0x2FC9 JUMP JUMPDEST SWAP2 SWAP1 POP SSTORE SWAP1 POP PUSH2 0x1202 CALLER DUP3 PUSH2 0x1B07 JUMP JUMPDEST POP JUMP JUMPDEST PUSH0 PUSH2 0x1211 DUP5 DUP5 DUP5 PUSH2 0x1B24 JUMP JUMPDEST SWAP1 POP SWAP4 SWAP3 POP POP POP JUMP JUMPDEST PUSH2 0x1222 PUSH2 0x117B JUMP JUMPDEST PUSH20 0xFFFFFFFFFFFFFFFFFFFFFFFFFFFFFFFFFFFFFFFF AND PUSH2 0x1240 PUSH2 0xDD9 JUMP JUMPDEST PUSH20 0xFFFFFFFFFFFFFFFFFFFFFFFFFFFFFFFFFFFFFFFF AND EQ PUSH2 0x129F JUMPI PUSH2 0x1263 PUSH2 0x117B JUMP JUMPDEST PUSH1 0x40 MLOAD PUSH32 0x118CDAA700000000000000000000000000000000000000000000000000000000 DUP2 MSTORE PUSH1 0x4 ADD PUSH2 0x1296 SWAP2 SWAP1 PUSH2 0x27F5 JUMP JUMPDEST PUSH1 0x40 MLOAD DUP1 SWAP2 SUB SWAP1 REVERT JUMPDEST JUMP JUMPDEST PUSH2 0x12A9 PUSH2 0x1B41 JUMP JUMPDEST PUSH0 PUSH1 0xA PUSH0 PUSH2 0x100 EXP DUP2 SLOAD DUP2 PUSH1 0xFF MUL NOT AND SWAP1 DUP4 ISZERO ISZERO MUL OR SWAP1 SSTORE POP PUSH32 0x5DB9EE0A495BF2E6FF9C91A7834C1BA4FDD244A5E8AA4E537BD38AEAE4B073AA PUSH2 0x12EB PUSH2 0x117B JUMP JUMPDEST PUSH1 0x40 MLOAD PUSH2 0x12F8 SWAP2 SWAP1 PUSH2 0x27F5 JUMP JUMPDEST PUSH1 0x40 MLOAD DUP1 SWAP2 SUB SWAP1 LOG1 JUMP JUMPDEST PUSH0 PUSH1 0xA PUSH1 0x1 SWAP1 SLOAD SWAP1 PUSH2 0x100 EXP SWAP1 DIV PUSH20 0xFFFFFFFFFFFFFFFFFFFFFFFFFFFFFFFFFFFFFFFF AND SWAP1 POP DUP2 PUSH1 0xA PUSH1 0x1 PUSH2 0x100 EXP DUP2 SLOAD DUP2 PUSH20 0xFFFFFFFFFFFFFFFFFFFFFFFFFFFFFFFFFFFFFFFF MUL NOT AND SWAP1 DUP4 PUSH20 0xFFFFFFFFFFFFFFFFFFFFFFFFFFFFFFFFFFFFFFFF AND MUL OR SWAP1 SSTORE POP DUP2 PUSH20 0xFFFFFFFFFFFFFFFFFFFFFFFFFFFFFFFFFFFFFFFF AND DUP2 PUSH20 0xFFFFFFFFFFFFFFFFFFFFFFFFFFFFFFFFFFFFFFFF AND PUSH32 0x8BE0079C531659141344CD1FD0A4F28419497F9722A3DAAFE3B4186F6B6457E0 PUSH1 0x40 MLOAD PUSH1 0x40 MLOAD DUP1 SWAP2 SUB SWAP1 LOG3 POP POP JUMP JUMPDEST PUSH2 0x13CF PUSH2 0x1B81 JUMP JUMPDEST PUSH1 0x1 PUSH1 0xA PUSH0 PUSH2 0x100 EXP DUP2 SLOAD DUP2 PUSH1 0xFF MUL NOT AND SWAP1 DUP4 ISZERO ISZERO MUL OR SWAP1 SSTORE POP PUSH32 0x62E78CEA01BEE320CD4E420270B5EA74000D11B0C9F74754EBDBFC544B05A258 PUSH2 0x1412 PUSH2 0x117B JUMP JUMPDEST PUSH1 0x40 MLOAD PUSH2 0x141F SWAP2 SWAP1 PUSH2 0x27F5 JUMP JUMPDEST PUSH1 0x40 MLOAD DUP1 SWAP2 SUB SWAP1 LOG1 JUMP JUMPDEST PUSH0 PUSH20 0xFFFFFFFFFFFFFFFFFFFFFFFFFFFFFFFFFFFFFFFF AND DUP3 PUSH20 0xFFFFFFFFFFFFFFFFFFFFFFFFFFFFFFFFFFFFFFFF AND SUB PUSH2 0x1499 JUMPI DUP2 PUSH1 0x40 MLOAD PUSH32 0x5B08BA1800000000000000000000000000000000000000000000000000000000 DUP2 MSTORE PUSH1 0x4 ADD PUSH2 0x1490 SWAP2 SWAP1 PUSH2 0x27F5 JUMP JUMPDEST PUSH1 0x40 MLOAD DUP1 SWAP2 SUB SWAP1 REVERT JUMPDEST DUP1 PUSH1 0x5 PUSH0 DUP6 PUSH20 0xFFFFFFFFFFFFFFFFFFFFFFFFFFFFFFFFFFFFFFFF AND PUSH20 0xFFFFFFFFFFFFFFFFFFFFFFFFFFFFFFFFFFFFFFFF AND DUP2 MSTORE PUSH1 0x20 ADD SWAP1 DUP2 MSTORE PUSH1 0x20 ADD PUSH0 KECCAK256 PUSH0 DUP5 PUSH20 0xFFFFFFFFFFFFFFFFFFFFFFFFFFFFFFFFFFFFFFFF AND PUSH20 0xFFFFFFFFFFFFFFFFFFFFFFFFFFFFFFFFFFFFFFFF AND DUP2 MSTORE PUSH1 0x20 ADD SWAP1 DUP2 MSTORE PUSH1 0x20 ADD PUSH0 KECCAK256 PUSH0 PUSH2 0x100 EXP DUP2 SLOAD DUP2 PUSH1 0xFF MUL NOT AND SWAP1 DUP4 ISZERO ISZERO MUL OR SWAP1 SSTORE POP DUP2 PUSH20 0xFFFFFFFFFFFFFFFFFFFFFFFFFFFFFFFFFFFFFFFF AND DUP4 PUSH20 0xFFFFFFFFFFFFFFFFFFFFFFFFFFFFFFFFFFFFFFFF AND PUSH32 0x17307EAB39AB6107E8899845AD3D59BD9653F200F220920489CA2B5937696C31 DUP4 PUSH1 0x40 MLOAD PUSH2 0x1585 SWAP2 SWAP1 PUSH2 0x26AF JUMP JUMPDEST PUSH1 0x40 MLOAD DUP1 SWAP2 SUB SWAP1 LOG3 POP POP POP JUMP JUMPDEST PUSH0 DUP4 PUSH20 0xFFFFFFFFFFFFFFFFFFFFFFFFFFFFFFFFFFFFFFFF AND EXTCODESIZE GT ISZERO PUSH2 0x173E JUMPI DUP3 PUSH20 0xFFFFFFFFFFFFFFFFFFFFFFFFFFFFFFFFFFFFFFFF AND PUSH4 0x150B7A02 PUSH2 0x15D5 PUSH2 0x117B JUMP JUMPDEST DUP7 DUP6 DUP6 PUSH1 0x40 MLOAD DUP6 PUSH4 0xFFFFFFFF AND PUSH1 0xE0 SHL DUP2 MSTORE PUSH1 0x4 ADD PUSH2 0x15F7 SWAP5 SWAP4 SWAP3 SWAP2 SWAP1 PUSH2 0x3062 JUMP JUMPDEST PUSH1 0x20 PUSH1 0x40 MLOAD DUP1 DUP4 SUB DUP2 PUSH0 DUP8 GAS CALL SWAP3 POP POP POP DUP1 ISZERO PUSH2 0x1632 JUMPI POP PUSH1 0x40 MLOAD RETURNDATASIZE PUSH1 0x1F NOT PUSH1 0x1F DUP3 ADD AND DUP3 ADD DUP1 PUSH1 0x40 MSTORE POP DUP2 ADD SWAP1 PUSH2 0x162F SWAP2 SWAP1 PUSH2 0x30C0 JUMP JUMPDEST PUSH1 0x1 JUMPDEST PUSH2 0x16B3 JUMPI RETURNDATASIZE DUP1 PUSH0 DUP2 EQ PUSH2 0x1660 JUMPI PUSH1 0x40 MLOAD SWAP2 POP PUSH1 0x1F NOT PUSH1 0x3F RETURNDATASIZE ADD AND DUP3 ADD PUSH1 0x40 MSTORE RETURNDATASIZE DUP3 MSTORE RETURNDATASIZE PUSH0 PUSH1 0x20 DUP5 ADD RETURNDATACOPY PUSH2 0x1665 JUMP JUMPDEST PUSH1 0x60 SWAP2 POP JUMPDEST POP PUSH0 DUP2 MLOAD SUB PUSH2 0x16AB JUMPI DUP4 PUSH1 0x40 MLOAD PUSH32 0x64A0AE9200000000000000000000000000000000000000000000000000000000 DUP2 MSTORE PUSH1 0x4 ADD PUSH2 0x16A2 SWAP2 SWAP1 PUSH2 0x27F5 JUMP JUMPDEST PUSH1 0x40 MLOAD DUP1 SWAP2 SUB SWAP1 REVERT JUMPDEST DUP1 MLOAD DUP2 PUSH1 0x20 ADD REVERT JUMPDEST PUSH4 0x150B7A02 PUSH1 0xE0 SHL PUSH28 0xFFFFFFFFFFFFFFFFFFFFFFFFFFFFFFFFFFFFFFFFFFFFFFFFFFFFFFFF NOT AND DUP2 PUSH28 0xFFFFFFFFFFFFFFFFFFFFFFFFFFFFFFFFFFFFFFFFFFFFFFFFFFFFFFFF NOT AND EQ PUSH2 0x173C JUMPI DUP4 PUSH1 0x40 MLOAD PUSH32 0x64A0AE9200000000000000000000000000000000000000000000000000000000 DUP2 MSTORE PUSH1 0x4 ADD PUSH2 0x1733 SWAP2 SWAP1 PUSH2 0x27F5 JUMP JUMPDEST PUSH1 0x40 MLOAD DUP1 SWAP2 SUB SWAP1 REVERT JUMPDEST POP JUMPDEST POP POP POP POP JUMP JUMPDEST PUSH1 0x60 PUSH1 0x40 MLOAD DUP1 PUSH1 0x60 ADD PUSH1 0x40 MSTORE DUP1 PUSH1 0x36 DUP2 MSTORE PUSH1 0x20 ADD PUSH2 0x3179 PUSH1 0x36 SWAP2 CODECOPY SWAP1 POP SWAP1 JUMP JUMPDEST PUSH1 0x60 PUSH0 PUSH1 0x1 PUSH2 0x1772 DUP5 PUSH2 0x1BC2 JUMP JUMPDEST ADD SWAP1 POP PUSH0 DUP2 PUSH8 0xFFFFFFFFFFFFFFFF DUP2 GT ISZERO PUSH2 0x1790 JUMPI PUSH2 0x178F PUSH2 0x2A6F JUMP JUMPDEST JUMPDEST PUSH1 0x40 MLOAD SWAP1 DUP1 DUP3 MSTORE DUP1 PUSH1 0x1F ADD PUSH1 0x1F NOT AND PUSH1 0x20 ADD DUP3 ADD PUSH1 0x40 MSTORE DUP1 ISZERO PUSH2 0x17C2 JUMPI DUP2 PUSH1 0x20 ADD PUSH1 0x1 DUP3 MUL DUP1 CALLDATASIZE DUP4 CALLDATACOPY DUP1 DUP3 ADD SWAP2 POP POP SWAP1 POP JUMPDEST POP SWAP1 POP PUSH0 DUP3 PUSH1 0x20 ADD DUP3 ADD SWAP1 POP JUMPDEST PUSH1 0x1 ISZERO PUSH2 0x1823 JUMPI DUP1 DUP1 PUSH1 0x1 SWAP1 SUB SWAP2 POP POP PUSH32 0x3031323334353637383961626364656600000000000000000000000000000000 PUSH1 0xA DUP7 MOD BYTE DUP2 MSTORE8 PUSH1 0xA DUP6 DUP2 PUSH2 0x1818 JUMPI PUSH2 0x1817 PUSH2 0x30EB JUMP JUMPDEST JUMPDEST DIV SWAP5 POP PUSH0 DUP6 SUB PUSH2 0x17CF JUMPI JUMPDEST DUP2 SWAP4 POP POP POP POP SWAP2 SWAP1 POP JUMP JUMPDEST PUSH0 PUSH32 0x80AC58CD00000000000000000000000000000000000000000000000000000000 PUSH28 0xFFFFFFFFFFFFFFFFFFFFFFFFFFFFFFFFFFFFFFFFFFFFFFFFFFFFFFFF NOT AND DUP3 PUSH28 0xFFFFFFFFFFFFFFFFFFFFFFFFFFFFFFFFFFFFFFFFFFFFFFFFFFFFFFFF NOT AND EQ DUP1 PUSH2 0x18F8 JUMPI POP PUSH32 0x5B5E139F00000000000000000000000000000000000000000000000000000000 PUSH28 0xFFFFFFFFFFFFFFFFFFFFFFFFFFFFFFFFFFFFFFFFFFFFFFFFFFFFFFFF NOT AND DUP3 PUSH28 0xFFFFFFFFFFFFFFFFFFFFFFFFFFFFFFFFFFFFFFFFFFFFFFFFFFFFFFFF NOT AND EQ JUMPDEST DUP1 PUSH2 0x1908 JUMPI POP PUSH2 0x1907 DUP3 PUSH2 0x1D13 JUMP JUMPDEST JUMPDEST SWAP1 POP SWAP2 SWAP1 POP JUMP JUMPDEST PUSH0 PUSH1 0x2 PUSH0 DUP4 DUP2 MSTORE PUSH1 0x20 ADD SWAP1 DUP2 MSTORE PUSH1 0x20 ADD PUSH0 KECCAK256 PUSH0 SWAP1 SLOAD SWAP1 PUSH2 0x100 EXP SWAP1 DIV PUSH20 0xFFFFFFFFFFFFFFFFFFFFFFFFFFFFFFFFFFFFFFFF AND SWAP1 POP SWAP2 SWAP1 POP JUMP JUMPDEST DUP1 DUP1 PUSH2 0x1980 JUMPI POP PUSH0 PUSH20 0xFFFFFFFFFFFFFFFFFFFFFFFFFFFFFFFFFFFFFFFF AND DUP3 PUSH20 0xFFFFFFFFFFFFFFFFFFFFFFFFFFFFFFFFFFFFFFFF AND EQ ISZERO JUMPDEST ISZERO PUSH2 0x1AB2 JUMPI PUSH0 PUSH2 0x198F DUP5 PUSH2 0x10BC JUMP JUMPDEST SWAP1 POP PUSH0 PUSH20 0xFFFFFFFFFFFFFFFFFFFFFFFFFFFFFFFFFFFFFFFF AND DUP4 PUSH20 0xFFFFFFFFFFFFFFFFFFFFFFFFFFFFFFFFFFFFFFFF AND EQ ISZERO DUP1 ISZERO PUSH2 0x19F9 JUMPI POP DUP3 PUSH20 0xFFFFFFFFFFFFFFFFFFFFFFFFFFFFFFFFFFFFFFFF AND DUP2 PUSH20 0xFFFFFFFFFFFFFFFFFFFFFFFFFFFFFFFFFFFFFFFF AND EQ ISZERO JUMPDEST DUP1 ISZERO PUSH2 0x1A0C JUMPI POP PUSH2 0x1A0A DUP2 DUP5 PUSH2 0xF31 JUMP JUMPDEST ISZERO JUMPDEST ISZERO PUSH2 0x1A4E JUMPI DUP3 PUSH1 0x40 MLOAD PUSH32 0xA9FBF51F00000000000000000000000000000000000000000000000000000000 DUP2 MSTORE PUSH1 0x4 ADD PUSH2 0x1A45 SWAP2 SWAP1 PUSH2 0x27F5 JUMP JUMPDEST PUSH1 0x40 MLOAD DUP1 SWAP2 SUB SWAP1 REVERT JUMPDEST DUP2 ISZERO PUSH2 0x1AB0 JUMPI DUP4 DUP6 PUSH20 0xFFFFFFFFFFFFFFFFFFFFFFFFFFFFFFFFFFFFFFFF AND DUP3 PUSH20 0xFFFFFFFFFFFFFFFFFFFFFFFFFFFFFFFFFFFFFFFF AND PUSH32 0x8C5BE1E5EBEC7D5BD14F71427D1E84F3DD0314C0F7B2291E5B200AC8C7C3B925 PUSH1 0x40 MLOAD PUSH1 0x40 MLOAD DUP1 SWAP2 SUB SWAP1 LOG4 JUMPDEST POP JUMPDEST DUP4 PUSH1 0x4 PUSH0 DUP6 DUP2 MSTORE PUSH1 0x20 ADD SWAP1 DUP2 MSTORE PUSH1 0x20 ADD PUSH0 KECCAK256 PUSH0 PUSH2 0x100 EXP DUP2 SLOAD DUP2 PUSH20 0xFFFFFFFFFFFFFFFFFFFFFFFFFFFFFFFFFFFFFFFF MUL NOT AND SWAP1 DUP4 PUSH20 0xFFFFFFFFFFFFFFFFFFFFFFFFFFFFFFFFFFFFFFFF AND MUL OR SWAP1 SSTORE POP POP POP POP POP JUMP JUMPDEST PUSH2 0x1B20 DUP3 DUP3 PUSH1 0x40 MLOAD DUP1 PUSH1 0x20 ADD PUSH1 0x40 MSTORE DUP1 PUSH0 DUP2 MSTORE POP PUSH2 0x1D7C JUMP JUMPDEST POP POP JUMP JUMPDEST PUSH0 PUSH2 0x1B2D PUSH2 0x1B81 JUMP JUMPDEST PUSH2 0x1B38 DUP5 DUP5 DUP5 PUSH2 0x1D97 JUMP JUMPDEST SWAP1 POP SWAP4 SWAP3 POP POP POP JUMP JUMPDEST PUSH2 0x1B49 PUSH2 0xC35 JUMP JUMPDEST PUSH2 0x1B7F JUMPI PUSH1 0x40 MLOAD PUSH32 0x8DFC202B00000000000000000000000000000000000000000000000000000000 DUP2 MSTORE PUSH1 0x4 ADD PUSH1 0x40 MLOAD DUP1 SWAP2 SUB SWAP1 REVERT JUMPDEST JUMP JUMPDEST PUSH2 0x1B89 PUSH2 0xC35 JUMP JUMPDEST ISZERO PUSH2 0x1BC0 JUMPI PUSH1 0x40 MLOAD PUSH32 0xD93C066500000000000000000000000000000000000000000000000000000000 DUP2 MSTORE PUSH1 0x4 ADD PUSH1 0x40 MLOAD DUP1 SWAP2 SUB SWAP1 REVERT JUMPDEST JUMP JUMPDEST PUSH0 DUP1 PUSH0 SWAP1 POP PUSH27 0x184F03E93FF9F4DAA797ED6E38ED64BF6A1F010000000000000000 DUP4 LT PUSH2 0x1C1E JUMPI PUSH27 0x184F03E93FF9F4DAA797ED6E38ED64BF6A1F010000000000000000 DUP4 DUP2 PUSH2 0x1C14 JUMPI PUSH2 0x1C13 PUSH2 0x30EB JUMP JUMPDEST JUMPDEST DIV SWAP3 POP PUSH1 0x40 DUP2 ADD SWAP1 POP JUMPDEST PUSH14 0x4EE2D6D415B85ACEF8100000000 DUP4 LT PUSH2 0x1C5B JUMPI PUSH14 0x4EE2D6D415B85ACEF8100000000 DUP4 DUP2 PUSH2 0x1C51 JUMPI PUSH2 0x1C50 PUSH2 0x30EB JUMP JUMPDEST JUMPDEST DIV SWAP3 POP PUSH1 0x20 DUP2 ADD SWAP1 POP JUMPDEST PUSH7 0x2386F26FC10000 DUP4 LT PUSH2 0x1C8A JUMPI PUSH7 0x2386F26FC10000 DUP4 DUP2 PUSH2 0x1C80 JUMPI PUSH2 0x1C7F PUSH2 0x30EB JUMP JUMPDEST JUMPDEST DIV SWAP3 POP PUSH1 0x10 DUP2 ADD SWAP1 POP JUMPDEST PUSH4 0x5F5E100 DUP4 LT PUSH2 0x1CB3 JUMPI PUSH4 0x5F5E100 DUP4 DUP2 PUSH2 0x1CA9 JUMPI PUSH2 0x1CA8 PUSH2 0x30EB JUMP JUMPDEST JUMPDEST DIV SWAP3 POP PUSH1 0x8 DUP2 ADD SWAP1 POP JUMPDEST PUSH2 0x2710 DUP4 LT PUSH2 0x1CD8 JUMPI PUSH2 0x2710 DUP4 DUP2 PUSH2 0x1CCE JUMPI PUSH2 0x1CCD PUSH2 0x30EB JUMP JUMPDEST JUMPDEST DIV SWAP3 POP PUSH1 0x4 DUP2 ADD SWAP1 POP JUMPDEST PUSH1 0x64 DUP4 LT PUSH2 0x1CFB JUMPI PUSH1 0x64 DUP4 DUP2 PUSH2 0x1CF1 JUMPI PUSH2 0x1CF0 PUSH2 0x30EB JUMP JUMPDEST JUMPDEST DIV SWAP3 POP PUSH1 0x2 DUP2 ADD SWAP1 POP JUMPDEST PUSH1 0xA DUP4 LT PUSH2 0x1D0A JUMPI PUSH1 0x1 DUP2 ADD SWAP1 POP JUMPDEST DUP1 SWAP2 POP POP SWAP2 SWAP1 POP JUMP JUMPDEST PUSH0 PUSH32 0x1FFC9A700000000000000000000000000000000000000000000000000000000 PUSH28 0xFFFFFFFFFFFFFFFFFFFFFFFFFFFFFFFFFFFFFFFFFFFFFFFFFFFFFFFF NOT AND DUP3 PUSH28 0xFFFFFFFFFFFFFFFFFFFFFFFFFFFFFFFFFFFFFFFFFFFFFFFFFFFFFFFF NOT AND EQ SWAP1 POP SWAP2 SWAP1 POP JUMP JUMPDEST PUSH2 0x1D86 DUP4 DUP4 PUSH2 0x1EB1 JUMP JUMPDEST PUSH2 0x1D92 PUSH0 DUP5 DUP5 DUP5 PUSH2 0x1592 JUMP JUMPDEST POP POP POP JUMP JUMPDEST PUSH0 DUP1 PUSH2 0x1DA4 DUP6 DUP6 DUP6 PUSH2 0x1FA4 JUMP JUMPDEST SWAP1 POP PUSH0 PUSH20 0xFFFFFFFFFFFFFFFFFFFFFFFFFFFFFFFFFFFFFFFF AND DUP2 PUSH20 0xFFFFFFFFFFFFFFFFFFFFFFFFFFFFFFFFFFFFFFFF AND SUB PUSH2 0x1DE7 JUMPI PUSH2 0x1DE2 DUP5 PUSH2 0x21AF JUMP JUMPDEST PUSH2 0x1E26 JUMP JUMPDEST DUP5 PUSH20 0xFFFFFFFFFFFFFFFFFFFFFFFFFFFFFFFFFFFFFFFF AND DUP2 PUSH20 0xFFFFFFFFFFFFFFFFFFFFFFFFFFFFFFFFFFFFFFFF AND EQ PUSH2 0x1E25 JUMPI PUSH2 0x1E24 DUP2 DUP6 PUSH2 0x21F3 JUMP JUMPDEST JUMPDEST JUMPDEST PUSH0 PUSH20 0xFFFFFFFFFFFFFFFFFFFFFFFFFFFFFFFFFFFFFFFF AND DUP6 PUSH20 0xFFFFFFFFFFFFFFFFFFFFFFFFFFFFFFFFFFFFFFFF AND SUB PUSH2 0x1E67 JUMPI PUSH2 0x1E62 DUP5 PUSH2 0x233D JUMP JUMPDEST PUSH2 0x1EA6 JUMP JUMPDEST DUP5 PUSH20 0xFFFFFFFFFFFFFFFFFFFFFFFFFFFFFFFFFFFFFFFF AND DUP2 PUSH20 0xFFFFFFFFFFFFFFFFFFFFFFFFFFFFFFFFFFFFFFFF AND EQ PUSH2 0x1EA5 JUMPI PUSH2 0x1EA4 DUP6 DUP6 PUSH2 0x23FD JUMP JUMPDEST JUMPDEST JUMPDEST DUP1 SWAP2 POP POP SWAP4 SWAP3 POP POP POP JUMP JUMPDEST PUSH0 PUSH20 0xFFFFFFFFFFFFFFFFFFFFFFFFFFFFFFFFFFFFFFFF AND DUP3 PUSH20 0xFFFFFFFFFFFFFFFFFFFFFFFFFFFFFFFFFFFFFFFF AND SUB PUSH2 0x1F21 JUMPI PUSH0 PUSH1 0x40 MLOAD PUSH32 0x64A0AE9200000000000000000000000000000000000000000000000000000000 DUP2 MSTORE PUSH1 0x4 ADD PUSH2 0x1F18 SWAP2 SWAP1 PUSH2 0x27F5 JUMP JUMPDEST PUSH1 0x40 MLOAD DUP1 SWAP2 SUB SWAP1 REVERT JUMPDEST PUSH0 PUSH2 0x1F2D DUP4 DUP4 PUSH0 PUSH2 0x1205 JUMP JUMPDEST SWAP1 POP PUSH0 PUSH20 0xFFFFFFFFFFFFFFFFFFFFFFFFFFFFFFFFFFFFFFFF AND DUP2 PUSH20 0xFFFFFFFFFFFFFFFFFFFFFFFFFFFFFFFFFFFFFFFF AND EQ PUSH2 0x1F9F JUMPI PUSH0 PUSH1 0x40 MLOAD PUSH32 0x73C6AC6E00000000000000000000000000000000000000000000000000000000 DUP2 MSTORE PUSH1 0x4 ADD PUSH2 0x1F96 SWAP2 SWAP1 PUSH2 0x27F5 JUMP JUMPDEST PUSH1 0x40 MLOAD DUP1 SWAP2 SUB SWAP1 REVERT JUMPDEST POP POP POP JUMP JUMPDEST PUSH0 DUP1 PUSH2 0x1FAF DUP5 PUSH2 0x190F JUMP JUMPDEST SWAP1 POP PUSH0 PUSH20 0xFFFFFFFFFFFFFFFFFFFFFFFFFFFFFFFFFFFFFFFF AND DUP4 PUSH20 0xFFFFFFFFFFFFFFFFFFFFFFFFFFFFFFFFFFFFFFFF AND EQ PUSH2 0x1FF0 JUMPI PUSH2 0x1FEF DUP2 DUP5 DUP7 PUSH2 0x2481 JUMP JUMPDEST JUMPDEST PUSH0 PUSH20 0xFFFFFFFFFFFFFFFFFFFFFFFFFFFFFFFFFFFFFFFF AND DUP2 PUSH20 0xFFFFFFFFFFFFFFFFFFFFFFFFFFFFFFFFFFFFFFFF AND EQ PUSH2 0x207B JUMPI PUSH2 0x202F PUSH0 DUP6 PUSH0 DUP1 PUSH2 0x1948 JUMP JUMPDEST PUSH1 0x1 PUSH1 0x3 PUSH0 DUP4 PUSH20 0xFFFFFFFFFFFFFFFFFFFFFFFFFFFFFFFFFFFFFFFF AND PUSH20 0xFFFFFFFFFFFFFFFFFFFFFFFFFFFFFFFFFFFFFFFF AND DUP2 MSTORE PUSH1 0x20 ADD SWAP1 DUP2 MSTORE PUSH1 0x20 ADD PUSH0 KECCAK256 PUSH0 DUP3 DUP3 SLOAD SUB SWAP3 POP POP DUP2 SWAP1 SSTORE POP JUMPDEST PUSH0 PUSH20 0xFFFFFFFFFFFFFFFFFFFFFFFFFFFFFFFFFFFFFFFF AND DUP6 PUSH20 0xFFFFFFFFFFFFFFFFFFFFFFFFFFFFFFFFFFFFFFFF AND EQ PUSH2 0x20FA JUMPI PUSH1 0x1 PUSH1 0x3 PUSH0 DUP8 PUSH20 0xFFFFFFFFFFFFFFFFFFFFFFFFFFFFFFFFFFFFFFFF AND PUSH20 0xFFFFFFFFFFFFFFFFFFFFFFFFFFFFFFFFFFFFFFFF AND DUP2 MSTORE PUSH1 0x20 ADD SWAP1 DUP2 MSTORE PUSH1 0x20 ADD PUSH0 KECCAK256 PUSH0 DUP3 DUP3 SLOAD ADD SWAP3 POP POP DUP2 SWAP1 SSTORE POP JUMPDEST DUP5 PUSH1 0x2 PUSH0 DUP7 DUP2 MSTORE PUSH1 0x20 ADD SWAP1 DUP2 MSTORE PUSH1 0x20 ADD PUSH0 KECCAK256 PUSH0 PUSH2 0x100 EXP DUP2 SLOAD DUP2 PUSH20 0xFFFFFFFFFFFFFFFFFFFFFFFFFFFFFFFFFFFFFFFF MUL NOT AND SWAP1 DUP4 PUSH20 0xFFFFFFFFFFFFFFFFFFFFFFFFFFFFFFFFFFFFFFFF AND MUL OR SWAP1 SSTORE POP DUP4 DUP6 PUSH20 0xFFFFFFFFFFFFFFFFFFFFFFFFFFFFFFFFFFFFFFFF AND DUP3 PUSH20 0xFFFFFFFFFFFFFFFFFFFFFFFFFFFFFFFFFFFFFFFF AND PUSH32 0xDDF252AD1BE2C89B69C2B068FC378DAA952BA7F163C4A11628F55A4DF523B3EF PUSH1 0x40 MLOAD PUSH1 0x40 MLOAD DUP1 SWAP2 SUB SWAP1 LOG4 DUP1 SWAP2 POP POP SWAP4 SWAP3 POP POP POP JUMP JUMPDEST PUSH1 0x8 DUP1 SLOAD SWAP1 POP PUSH1 0x9 PUSH0 DUP4 DUP2 MSTORE PUSH1 0x20 ADD SWAP1 DUP2 MSTORE PUSH1 0x20 ADD PUSH0 KECCAK256 DUP2 SWAP1 SSTORE POP PUSH1 0x8 DUP2 SWAP1 DUP1 PUSH1 0x1 DUP2 SLOAD ADD DUP1 DUP3 SSTORE DUP1 SWAP2 POP POP PUSH1 0x1 SWAP1 SUB SWAP1 PUSH0 MSTORE PUSH1 0x20 PUSH0 KECCAK256 ADD PUSH0 SWAP1 SWAP2 SWAP1 SWAP2 SWAP1 SWAP2 POP SSTORE POP JUMP JUMPDEST PUSH0 PUSH2 0x21FD DUP4 PUSH2 0xCFE JUMP JUMPDEST SWAP1 POP PUSH0 PUSH1 0x7 PUSH0 DUP5 DUP2 MSTORE PUSH1 0x20 ADD SWAP1 DUP2 MSTORE PUSH1 0x20 ADD PUSH0 KECCAK256 SLOAD SWAP1 POP DUP2 DUP2 EQ PUSH2 0x22D4 JUMPI PUSH0 PUSH1 0x6 PUSH0 DUP7 PUSH20 0xFFFFFFFFFFFFFFFFFFFFFFFFFFFFFFFFFFFFFFFF AND PUSH20 0xFFFFFFFFFFFFFFFFFFFFFFFFFFFFFFFFFFFFFFFF AND DUP2 MSTORE PUSH1 0x20 ADD SWAP1 DUP2 MSTORE PUSH1 0x20 ADD PUSH0 KECCAK256 PUSH0 DUP5 DUP2 MSTORE PUSH1 0x20 ADD SWAP1 DUP2 MSTORE PUSH1 0x20 ADD PUSH0 KECCAK256 SLOAD SWAP1 POP DUP1 PUSH1 0x6 PUSH0 DUP8 PUSH20 0xFFFFFFFFFFFFFFFFFFFFFFFFFFFFFFFFFFFFFFFF AND PUSH20 0xFFFFFFFFFFFFFFFFFFFFFFFFFFFFFFFFFFFFFFFF AND DUP2 MSTORE PUSH1 0x20 ADD SWAP1 DUP2 MSTORE PUSH1 0x20 ADD PUSH0 KECCAK256 PUSH0 DUP5 DUP2 MSTORE PUSH1 0x20 ADD SWAP1 DUP2 MSTORE PUSH1 0x20 ADD PUSH0 KECCAK256 DUP2 SWAP1 SSTORE POP DUP2 PUSH1 0x7 PUSH0 DUP4 DUP2 MSTORE PUSH1 0x20 ADD SWAP1 DUP2 MSTORE PUSH1 0x20 ADD PUSH0 KECCAK256 DUP2 SWAP1 SSTORE POP POP JUMPDEST PUSH1 0x7 PUSH0 DUP5 DUP2 MSTORE PUSH1 0x20 ADD SWAP1 DUP2 MSTORE PUSH1 0x20 ADD PUSH0 KECCAK256 PUSH0 SWAP1 SSTORE PUSH1 0x6 PUSH0 DUP6 PUSH20 0xFFFFFFFFFFFFFFFFFFFFFFFFFFFFFFFFFFFFFFFF AND PUSH20 0xFFFFFFFFFFFFFFFFFFFFFFFFFFFFFFFFFFFFFFFF AND DUP2 MSTORE PUSH1 0x20 ADD SWAP1 DUP2 MSTORE PUSH1 0x20 ADD PUSH0 KECCAK256 PUSH0 DUP4 DUP2 MSTORE PUSH1 0x20 ADD SWAP1 DUP2 MSTORE PUSH1 0x20 ADD PUSH0 KECCAK256 PUSH0 SWAP1 SSTORE POP POP POP POP JUMP JUMPDEST PUSH0 PUSH1 0x1 PUSH1 0x8 DUP1 SLOAD SWAP1 POP PUSH2 0x2350 SWAP2 SWAP1 PUSH2 0x3118 JUMP JUMPDEST SWAP1 POP PUSH0 PUSH1 0x9 PUSH0 DUP5 DUP2 MSTORE PUSH1 0x20 ADD SWAP1 DUP2 MSTORE PUSH1 0x20 ADD PUSH0 KECCAK256 SLOAD SWAP1 POP PUSH0 PUSH1 0x8 DUP4 DUP2 SLOAD DUP2 LT PUSH2 0x237C JUMPI PUSH2 0x237B PUSH2 0x2EAA JUMP JUMPDEST JUMPDEST SWAP1 PUSH0 MSTORE PUSH1 0x20 PUSH0 KECCAK256 ADD SLOAD SWAP1 POP DUP1 PUSH1 0x8 DUP4 DUP2 SLOAD DUP2 LT PUSH2 0x239C JUMPI PUSH2 0x239B PUSH2 0x2EAA JUMP JUMPDEST JUMPDEST SWAP1 PUSH0 MSTORE PUSH1 0x20 PUSH0 KECCAK256 ADD DUP2 SWAP1 SSTORE POP DUP2 PUSH1 0x9 PUSH0 DUP4 DUP2 MSTORE PUSH1 0x20 ADD SWAP1 DUP2 MSTORE PUSH1 0x20 ADD PUSH0 KECCAK256 DUP2 SWAP1 SSTORE POP PUSH1 0x9 PUSH0 DUP6 DUP2 MSTORE PUSH1 0x20 ADD SWAP1 DUP2 MSTORE PUSH1 0x20 ADD PUSH0 KECCAK256 PUSH0 SWAP1 SSTORE PUSH1 0x8 DUP1 SLOAD DUP1 PUSH2 0x23E4 JUMPI PUSH2 0x23E3 PUSH2 0x314B JUMP JUMPDEST JUMPDEST PUSH1 0x1 SWAP1 SUB DUP2 DUP2 SWAP1 PUSH0 MSTORE PUSH1 0x20 PUSH0 KECCAK256 ADD PUSH0 SWAP1 SSTORE SWAP1 SSTORE POP POP POP POP JUMP JUMPDEST PUSH0 PUSH1 0x1 PUSH2 0x2409 DUP5 PUSH2 0xCFE JUMP JUMPDEST PUSH2 0x2413 SWAP2 SWAP1 PUSH2 0x3118 JUMP JUMPDEST SWAP1 POP DUP2 PUSH1 0x6 PUSH0 DUP6 PUSH20 0xFFFFFFFFFFFFFFFFFFFFFFFFFFFFFFFFFFFFFFFF AND PUSH20 0xFFFFFFFFFFFFFFFFFFFFFFFFFFFFFFFFFFFFFFFF AND DUP2 MSTORE PUSH1 0x20 ADD SWAP1 DUP2 MSTORE PUSH1 0x20 ADD PUSH0 KECCAK256 PUSH0 DUP4 DUP2 MSTORE PUSH1 0x20 ADD SWAP1 DUP2 MSTORE PUSH1 0x20 ADD PUSH0 KECCAK256 DUP2 SWAP1 SSTORE POP DUP1 PUSH1 0x7 PUSH0 DUP5 DUP2 MSTORE PUSH1 0x20 ADD SWAP1 DUP2 MSTORE PUSH1 0x20 ADD PUSH0 KECCAK256 DUP2 SWAP1 SSTORE POP POP POP POP JUMP JUMPDEST PUSH2 0x248C DUP4 DUP4 DUP4 PUSH2 0x2544 JUMP JUMPDEST PUSH2 0x253F JUMPI PUSH0 PUSH20 0xFFFFFFFFFFFFFFFFFFFFFFFFFFFFFFFFFFFFFFFF AND DUP4 PUSH20 0xFFFFFFFFFFFFFFFFFFFFFFFFFFFFFFFFFFFFFFFF AND SUB PUSH2 0x2500 JUMPI DUP1 PUSH1 0x40 MLOAD PUSH32 0x7E27328900000000000000000000000000000000000000000000000000000000 DUP2 MSTORE PUSH1 0x4 ADD PUSH2 0x24F7 SWAP2 SWAP1 PUSH2 0x2885 JUMP JUMPDEST PUSH1 0x40 MLOAD DUP1 SWAP2 SUB SWAP1 REVERT JUMPDEST DUP2 DUP2 PUSH1 0x40 MLOAD PUSH32 0x177E802F00000000000000000000000000000000000000000000000000000000 DUP2 MSTORE PUSH1 0x4 ADD PUSH2 0x2536 SWAP3 SWAP2 SWAP1 PUSH2 0x2E83 JUMP JUMPDEST PUSH1 0x40 MLOAD DUP1 SWAP2 SUB SWAP1 REVERT JUMPDEST POP POP POP JUMP JUMPDEST PUSH0 DUP1 PUSH20 0xFFFFFFFFFFFFFFFFFFFFFFFFFFFFFFFFFFFFFFFF AND DUP4 PUSH20 0xFFFFFFFFFFFFFFFFFFFFFFFFFFFFFFFFFFFFFFFF AND EQ ISZERO DUP1 ISZERO PUSH2 0x25FB JUMPI POP DUP3 PUSH20 0xFFFFFFFFFFFFFFFFFFFFFFFFFFFFFFFFFFFFFFFF AND DUP5 PUSH20 0xFFFFFFFFFFFFFFFFFFFFFFFFFFFFFFFFFFFFFFFF AND EQ DUP1 PUSH2 0x25BC JUMPI POP PUSH2 0x25BB DUP5 DUP5 PUSH2 0xF31 JUMP JUMPDEST JUMPDEST DUP1 PUSH2 0x25FA JUMPI POP DUP3 PUSH20 0xFFFFFFFFFFFFFFFFFFFFFFFFFFFFFFFFFFFFFFFF AND PUSH2 0x25E2 DUP4 PUSH2 0x1142 JUMP JUMPDEST PUSH20 0xFFFFFFFFFFFFFFFFFFFFFFFFFFFFFFFFFFFFFFFF AND EQ JUMPDEST JUMPDEST SWAP1 POP SWAP4 SWAP3 POP POP POP JUMP JUMPDEST PUSH0 PUSH1 0x40 MLOAD SWAP1 POP SWAP1 JUMP JUMPDEST PUSH0 DUP1 REVERT JUMPDEST PUSH0 DUP1 REVERT JUMPDEST PUSH0 PUSH32 0xFFFFFFFF00000000000000000000000000000000000000000000000000000000 DUP3 AND SWAP1 POP SWAP2 SWAP1 POP JUMP JUMPDEST PUSH2 0x2649 DUP2 PUSH2 0x2615 JUMP JUMPDEST DUP2 EQ PUSH2 0x2653 JUMPI PUSH0 DUP1 REVERT JUMPDEST POP JUMP JUMPDEST PUSH0 DUP2 CALLDATALOAD SWAP1 POP PUSH2 0x2664 DUP2 PUSH2 0x2640 JUMP JUMPDEST SWAP3 SWAP2 POP POP JUMP JUMPDEST PUSH0 PUSH1 0x20 DUP3 DUP5 SUB SLT ISZERO PUSH2 0x267F JUMPI PUSH2 0x267E PUSH2 0x260D JUMP JUMPDEST JUMPDEST PUSH0 PUSH2 0x268C DUP5 DUP3 DUP6 ADD PUSH2 0x2656 JUMP JUMPDEST SWAP2 POP POP SWAP3 SWAP2 POP POP JUMP JUMPDEST PUSH0 DUP2 ISZERO ISZERO SWAP1 POP SWAP2 SWAP1 POP JUMP JUMPDEST PUSH2 0x26A9 DUP2 PUSH2 0x2695 JUMP JUMPDEST DUP3 MSTORE POP POP JUMP JUMPDEST PUSH0 PUSH1 0x20 DUP3 ADD SWAP1 POP PUSH2 0x26C2 PUSH0 DUP4 ADD DUP5 PUSH2 0x26A0 JUMP JUMPDEST SWAP3 SWAP2 POP POP JUMP JUMPDEST PUSH0 DUP2 MLOAD SWAP1 POP SWAP2 SWAP1 POP JUMP JUMPDEST PUSH0 DUP3 DUP3 MSTORE PUSH1 0x20 DUP3 ADD SWAP1 POP SWAP3 SWAP2 POP POP JUMP JUMPDEST DUP3 DUP2 DUP4 MCOPY PUSH0 DUP4 DUP4 ADD MSTORE POP POP POP JUMP JUMPDEST PUSH0 PUSH1 0x1F NOT PUSH1 0x1F DUP4 ADD AND SWAP1 POP SWAP2 SWAP1 POP JUMP JUMPDEST PUSH0 PUSH2 0x270A DUP3 PUSH2 0x26C8 JUMP JUMPDEST PUSH2 0x2714 DUP2 DUP6 PUSH2 0x26D2 JUMP JUMPDEST SWAP4 POP PUSH2 0x2724 DUP2 DUP6 PUSH1 0x20 DUP7 ADD PUSH2 0x26E2 JUMP JUMPDEST PUSH2 0x272D DUP2 PUSH2 0x26F0 JUMP JUMPDEST DUP5 ADD SWAP2 POP POP SWAP3 SWAP2 POP POP JUMP JUMPDEST PUSH0 PUSH1 0x20 DUP3 ADD SWAP1 POP DUP2 DUP2 SUB PUSH0 DUP4 ADD MSTORE PUSH2 0x2750 DUP2 DUP5 PUSH2 0x2700 JUMP JUMPDEST SWAP1 POP SWAP3 SWAP2 POP POP JUMP JUMPDEST PUSH0 DUP2 SWAP1 POP SWAP2 SWAP1 POP JUMP JUMPDEST PUSH2 0x276A DUP2 PUSH2 0x2758 JUMP JUMPDEST DUP2 EQ PUSH2 0x2774 JUMPI PUSH0 DUP1 REVERT JUMPDEST POP JUMP JUMPDEST PUSH0 DUP2 CALLDATALOAD SWAP1 POP PUSH2 0x2785 DUP2 PUSH2 0x2761 JUMP JUMPDEST SWAP3 SWAP2 POP POP JUMP JUMPDEST PUSH0 PUSH1 0x20 DUP3 DUP5 SUB SLT ISZERO PUSH2 0x27A0 JUMPI PUSH2 0x279F PUSH2 0x260D JUMP JUMPDEST JUMPDEST PUSH0 PUSH2 0x27AD DUP5 DUP3 DUP6 ADD PUSH2 0x2777 JUMP JUMPDEST SWAP2 POP POP SWAP3 SWAP2 POP POP JUMP JUMPDEST PUSH0 PUSH20 0xFFFFFFFFFFFFFFFFFFFFFFFFFFFFFFFFFFFFFFFF DUP3 AND SWAP1 POP SWAP2 SWAP1 POP JUMP JUMPDEST PUSH0 PUSH2 0x27DF DUP3 PUSH2 0x27B6 JUMP JUMPDEST SWAP1 POP SWAP2 SWAP1 POP JUMP JUMPDEST PUSH2 0x27EF DUP2 PUSH2 0x27D5 JUMP JUMPDEST DUP3 MSTORE POP POP JUMP JUMPDEST PUSH0 PUSH1 0x20 DUP3 ADD SWAP1 POP PUSH2 0x2808 PUSH0 DUP4 ADD DUP5 PUSH2 0x27E6 JUMP JUMPDEST SWAP3 SWAP2 POP POP JUMP JUMPDEST PUSH2 0x2817 DUP2 PUSH2 0x27D5 JUMP JUMPDEST DUP2 EQ PUSH2 0x2821 JUMPI PUSH0 DUP1 REVERT JUMPDEST POP JUMP JUMPDEST PUSH0 DUP2 CALLDATALOAD SWAP1 POP PUSH2 0x2832 DUP2 PUSH2 0x280E JUMP JUMPDEST SWAP3 SWAP2 POP POP JUMP JUMPDEST PUSH0 DUP1 PUSH1 0x40 DUP4 DUP6 SUB SLT ISZERO PUSH2 0x284E JUMPI PUSH2 0x284D PUSH2 0x260D JUMP JUMPDEST JUMPDEST PUSH0 PUSH2 0x285B DUP6 DUP3 DUP7 ADD PUSH2 0x2824 JUMP JUMPDEST SWAP3 POP POP PUSH1 0x20 PUSH2 0x286C DUP6 DUP3 DUP7 ADD PUSH2 0x2777 JUMP JUMPDEST SWAP2 POP POP SWAP3 POP SWAP3 SWAP1 POP JUMP JUMPDEST PUSH2 0x287F DUP2 PUSH2 0x2758 JUMP JUMPDEST DUP3 MSTORE POP POP JUMP JUMPDEST PUSH0 PUSH1 0x20 DUP3 ADD SWAP1 POP PUSH2 0x2898 PUSH0 DUP4 ADD DUP5 PUSH2 0x2876 JUMP JUMPDEST SWAP3 SWAP2 POP POP JUMP JUMPDEST PUSH0 DUP1 PUSH0 PUSH1 0x60 DUP5 DUP7 SUB SLT ISZERO PUSH2 0x28B5 JUMPI PUSH2 0x28B4 PUSH2 0x260D JUMP JUMPDEST JUMPDEST PUSH0 PUSH2 0x28C2 DUP7 DUP3 DUP8 ADD PUSH2 0x2824 JUMP JUMPDEST SWAP4 POP POP PUSH1 0x20 PUSH2 0x28D3 DUP7 DUP3 DUP8 ADD PUSH2 0x2824 JUMP JUMPDEST SWAP3 POP POP PUSH1 0x40 PUSH2 0x28E4 DUP7 DUP3 DUP8 ADD PUSH2 0x2777 JUMP JUMPDEST SWAP2 POP POP SWAP3 POP SWAP3 POP SWAP3 JUMP JUMPDEST PUSH0 PUSH1 0x20 DUP3 DUP5 SUB SLT ISZERO PUSH2 0x2903 JUMPI PUSH2 0x2902 PUSH2 0x260D JUMP JUMPDEST JUMPDEST PUSH0 PUSH2 0x2910 DUP5 DUP3 DUP6 ADD PUSH2 0x2824 JUMP JUMPDEST SWAP2 POP POP SWAP3 SWAP2 POP POP JUMP JUMPDEST PUSH2 0x2922 DUP2 PUSH2 0x2695 JUMP JUMPDEST DUP2 EQ PUSH2 0x292C JUMPI PUSH0 DUP1 REVERT JUMPDEST POP JUMP JUMPDEST PUSH0 DUP2 CALLDATALOAD SWAP1 POP PUSH2 0x293D DUP2 PUSH2 0x2919 JUMP JUMPDEST SWAP3 SWAP2 POP POP JUMP JUMPDEST PUSH0 DUP1 PUSH1 0x40 DUP4 DUP6 SUB SLT ISZERO PUSH2 0x2959 JUMPI PUSH2 0x2958 PUSH2 0x260D JUMP JUMPDEST JUMPDEST PUSH0 PUSH2 0x2966 DUP6 DUP3 DUP7 ADD PUSH2 0x292F JUMP JUMPDEST SWAP3 POP POP PUSH1 0x20 PUSH2 0x2977 DUP6 DUP3 DUP7 ADD PUSH2 0x292F JUMP JUMPDEST SWAP2 POP POP SWAP3 POP SWAP3 SWAP1 POP JUMP JUMPDEST PUSH0 DUP1 REVERT JUMPDEST PUSH0 DUP1 REVERT JUMPDEST PUSH0 DUP1 REVERT JUMPDEST PUSH0 DUP1 DUP4 PUSH1 0x1F DUP5 ADD SLT PUSH2 0x29A2 JUMPI PUSH2 0x29A1 PUSH2 0x2981 JUMP JUMPDEST JUMPDEST DUP3 CALLDATALOAD SWAP1 POP PUSH8 0xFFFFFFFFFFFFFFFF DUP2 GT ISZERO PUSH2 0x29BF JUMPI PUSH2 0x29BE PUSH2 0x2985 JUMP JUMPDEST JUMPDEST PUSH1 0x20 DUP4 ADD SWAP2 POP DUP4 PUSH1 0x20 DUP3 MUL DUP4 ADD GT ISZERO PUSH2 0x29DB JUMPI PUSH2 0x29DA PUSH2 0x2989 JUMP JUMPDEST JUMPDEST SWAP3 POP SWAP3 SWAP1 POP JUMP JUMPDEST PUSH0 DUP1 PUSH1 0x20 DUP4 DUP6 SUB SLT ISZERO PUSH2 0x29F8 JUMPI PUSH2 0x29F7 PUSH2 0x260D JUMP JUMPDEST JUMPDEST PUSH0 DUP4 ADD CALLDATALOAD PUSH8 0xFFFFFFFFFFFFFFFF DUP2 GT ISZERO PUSH2 0x2A15 JUMPI PUSH2 0x2A14 PUSH2 0x2611 JUMP JUMPDEST JUMPDEST PUSH2 0x2A21 DUP6 DUP3 DUP7 ADD PUSH2 0x298D JUMP JUMPDEST SWAP3 POP SWAP3 POP POP SWAP3 POP SWAP3 SWAP1 POP JUMP JUMPDEST PUSH0 DUP1 PUSH1 0x40 DUP4 DUP6 SUB SLT ISZERO PUSH2 0x2A43 JUMPI PUSH2 0x2A42 PUSH2 0x260D JUMP JUMPDEST JUMPDEST PUSH0 PUSH2 0x2A50 DUP6 DUP3 DUP7 ADD PUSH2 0x2824 JUMP JUMPDEST SWAP3 POP POP PUSH1 0x20 PUSH2 0x2A61 DUP6 DUP3 DUP7 ADD PUSH2 0x292F JUMP JUMPDEST SWAP2 POP POP SWAP3 POP SWAP3 SWAP1 POP JUMP JUMPDEST PUSH0 DUP1 REVERT JUMPDEST PUSH32 0x4E487B7100000000000000000000000000000000000000000000000000000000 PUSH0 MSTORE PUSH1 0x41 PUSH1 0x4 MSTORE PUSH1 0x24 PUSH0 REVERT JUMPDEST PUSH2 0x2AA5 DUP3 PUSH2 0x26F0 JUMP JUMPDEST DUP2 ADD DUP2 DUP2 LT PUSH8 0xFFFFFFFFFFFFFFFF DUP3 GT OR ISZERO PUSH2 0x2AC4 JUMPI PUSH2 0x2AC3 PUSH2 0x2A6F JUMP JUMPDEST JUMPDEST DUP1 PUSH1 0x40 MSTORE POP POP POP JUMP JUMPDEST PUSH0 PUSH2 0x2AD6 PUSH2 0x2604 JUMP JUMPDEST SWAP1 POP PUSH2 0x2AE2 DUP3 DUP3 PUSH2 0x2A9C JUMP JUMPDEST SWAP2 SWAP1 POP JUMP JUMPDEST PUSH0 PUSH8 0xFFFFFFFFFFFFFFFF DUP3 GT ISZERO PUSH2 0x2B01 JUMPI PUSH2 0x2B00 PUSH2 0x2A6F JUMP JUMPDEST JUMPDEST PUSH2 0x2B0A DUP3 PUSH2 0x26F0 JUMP JUMPDEST SWAP1 POP PUSH1 0x20 DUP2 ADD SWAP1 POP SWAP2 SWAP1 POP JUMP JUMPDEST DUP3 DUP2 DUP4 CALLDATACOPY PUSH0 DUP4 DUP4 ADD MSTORE POP POP POP JUMP JUMPDEST PUSH0 PUSH2 0x2B37 PUSH2 0x2B32 DUP5 PUSH2 0x2AE7 JUMP JUMPDEST PUSH2 0x2ACD JUMP JUMPDEST SWAP1 POP DUP3 DUP2 MSTORE PUSH1 0x20 DUP2 ADD DUP5 DUP5 DUP5 ADD GT ISZERO PUSH2 0x2B53 JUMPI PUSH2 0x2B52 PUSH2 0x2A6B JUMP JUMPDEST JUMPDEST PUSH2 0x2B5E DUP5 DUP3 DUP6 PUSH2 0x2B17 JUMP JUMPDEST POP SWAP4 SWAP3 POP POP POP JUMP JUMPDEST PUSH0 DUP3 PUSH1 0x1F DUP4 ADD SLT PUSH2 0x2B7A JUMPI PUSH2 0x2B79 PUSH2 0x2981 JUMP JUMPDEST JUMPDEST DUP2 CALLDATALOAD PUSH2 0x2B8A DUP5 DUP3 PUSH1 0x20 DUP7 ADD PUSH2 0x2B25 JUMP JUMPDEST SWAP2 POP POP SWAP3 SWAP2 POP POP JUMP JUMPDEST PUSH0 DUP1 PUSH0 DUP1 PUSH1 0x80 DUP6 DUP8 SUB SLT ISZERO PUSH2 0x2BAB JUMPI PUSH2 0x2BAA PUSH2 0x260D JUMP JUMPDEST JUMPDEST PUSH0 PUSH2 0x2BB8 DUP8 DUP3 DUP9 ADD PUSH2 0x2824 JUMP JUMPDEST SWAP5 POP POP PUSH1 0x20 PUSH2 0x2BC9 DUP8 DUP3 DUP9 ADD PUSH2 0x2824 JUMP JUMPDEST SWAP4 POP POP PUSH1 0x40 PUSH2 0x2BDA DUP8 DUP3 DUP9 ADD PUSH2 0x2777 JUMP JUMPDEST SWAP3 POP POP PUSH1 0x60 DUP6 ADD CALLDATALOAD PUSH8 0xFFFFFFFFFFFFFFFF DUP2 GT ISZERO PUSH2 0x2BFB JUMPI PUSH2 0x2BFA PUSH2 0x2611 JUMP JUMPDEST JUMPDEST PUSH2 0x2C07 DUP8 DUP3 DUP9 ADD PUSH2 0x2B66 JUMP JUMPDEST SWAP2 POP POP SWAP3 SWAP6 SWAP2 SWAP5 POP SWAP3 POP JUMP JUMPDEST PUSH0 DUP1 PUSH1 0x40 DUP4 DUP6 SUB SLT ISZERO PUSH2 0x2C29 JUMPI PUSH2 0x2C28 PUSH2 0x260D JUMP JUMPDEST JUMPDEST PUSH0 PUSH2 0x2C36 DUP6 DUP3 DUP7 ADD PUSH2 0x2824 JUMP JUMPDEST SWAP3 POP POP PUSH1 0x20 PUSH2 0x2C47 DUP6 DUP3 DUP7 ADD PUSH2 0x2824 JUMP JUMPDEST SWAP2 POP POP SWAP3 POP SWAP3 SWAP1 POP JUMP JUMPDEST PUSH32 0x4E487B7100000000000000000000000000000000000000000000000000000000 PUSH0 MSTORE PUSH1 0x22 PUSH1 0x4 MSTORE PUSH1 0x24 PUSH0 REVERT JUMPDEST PUSH0 PUSH1 0x2 DUP3 DIV SWAP1 POP PUSH1 0x1 DUP3 AND DUP1 PUSH2 0x2C95 JUMPI PUSH1 0x7F DUP3 AND SWAP2 POP JUMPDEST PUSH1 0x20 DUP3 LT DUP2 SUB PUSH2 0x2CA8 JUMPI PUSH2 0x2CA7 PUSH2 0x2C51 JUMP JUMPDEST JUMPDEST POP SWAP2 SWAP1 POP JUMP JUMPDEST PUSH32 0x616C6C6F774C697374206D696E74206973206E6F74206F70656E000000000000 PUSH0 DUP3 ADD MSTORE POP JUMP JUMPDEST PUSH0 PUSH2 0x2CE2 PUSH1 0x1A DUP4 PUSH2 0x26D2 JUMP JUMPDEST SWAP2 POP PUSH2 0x2CED DUP3 PUSH2 0x2CAE JUMP JUMPDEST PUSH1 0x20 DUP3 ADD SWAP1 POP SWAP2 SWAP1 POP JUMP JUMPDEST PUSH0 PUSH1 0x20 DUP3 ADD SWAP1 POP DUP2 DUP2 SUB PUSH0 DUP4 ADD MSTORE PUSH2 0x2D0F DUP2 PUSH2 0x2CD6 JUMP JUMPDEST SWAP1 POP SWAP2 SWAP1 POP JUMP JUMPDEST PUSH32 0x4E6F7420416C6C6F776564000000000000000000000000000000000000000000 PUSH0 DUP3 ADD MSTORE POP JUMP JUMPDEST PUSH0 PUSH2 0x2D4A PUSH1 0xB DUP4 PUSH2 0x26D2 JUMP JUMPDEST SWAP2 POP PUSH2 0x2D55 DUP3 PUSH2 0x2D16 JUMP JUMPDEST PUSH1 0x20 DUP3 ADD SWAP1 POP SWAP2 SWAP1 POP JUMP JUMPDEST PUSH0 PUSH1 0x20 DUP3 ADD SWAP1 POP DUP2 DUP2 SUB PUSH0 DUP4 ADD MSTORE PUSH2 0x2D77 DUP2 PUSH2 0x2D3E JUMP JUMPDEST SWAP1 POP SWAP2 SWAP1 POP JUMP JUMPDEST PUSH32 0x4E6F7420456E6F7567682056616C756500000000000000000000000000000000 PUSH0 DUP3 ADD MSTORE POP JUMP JUMPDEST PUSH0 PUSH2 0x2DB2 PUSH1 0x10 DUP4 PUSH2 0x26D2 JUMP JUMPDEST SWAP2 POP PUSH2 0x2DBD DUP3 PUSH2 0x2D7E JUMP JUMPDEST PUSH1 0x20 DUP3 ADD SWAP1 POP SWAP2 SWAP1 POP JUMP JUMPDEST PUSH0 PUSH1 0x20 DUP3 ADD SWAP1 POP DUP2 DUP2 SUB PUSH0 DUP4 ADD MSTORE PUSH2 0x2DDF DUP2 PUSH2 0x2DA6 JUMP JUMPDEST SWAP1 POP SWAP2 SWAP1 POP JUMP JUMPDEST PUSH0 PUSH1 0x60 DUP3 ADD SWAP1 POP PUSH2 0x2DF9 PUSH0 DUP4 ADD DUP7 PUSH2 0x27E6 JUMP JUMPDEST PUSH2 0x2E06 PUSH1 0x20 DUP4 ADD DUP6 PUSH2 0x2876 JUMP JUMPDEST PUSH2 0x2E13 PUSH1 0x40 DUP4 ADD DUP5 PUSH2 0x27E6 JUMP JUMPDEST SWAP5 SWAP4 POP POP POP POP JUMP JUMPDEST PUSH32 0x7075626C69634D696E74206973206E6F74206F70656E00000000000000000000 PUSH0 DUP3 ADD MSTORE POP JUMP JUMPDEST PUSH0 PUSH2 0x2E4F PUSH1 0x16 DUP4 PUSH2 0x26D2 JUMP JUMPDEST SWAP2 POP PUSH2 0x2E5A DUP3 PUSH2 0x2E1B JUMP JUMPDEST PUSH1 0x20 DUP3 ADD SWAP1 POP SWAP2 SWAP1 POP JUMP JUMPDEST PUSH0 PUSH1 0x20 DUP3 ADD SWAP1 POP DUP2 DUP2 SUB PUSH0 DUP4 ADD MSTORE PUSH2 0x2E7C DUP2 PUSH2 0x2E43 JUMP JUMPDEST SWAP1 POP SWAP2 SWAP1 POP JUMP JUMPDEST PUSH0 PUSH1 0x40 DUP3 ADD SWAP1 POP PUSH2 0x2E96 PUSH0 DUP4 ADD DUP6 PUSH2 0x27E6 JUMP JUMPDEST PUSH2 0x2EA3 PUSH1 0x20 DUP4 ADD DUP5 PUSH2 0x2876 JUMP JUMPDEST SWAP4 SWAP3 POP POP POP JUMP JUMPDEST PUSH32 0x4E487B7100000000000000000000000000000000000000000000000000000000 PUSH0 MSTORE PUSH1 0x32 PUSH1 0x4 MSTORE PUSH1 0x24 PUSH0 REVERT JUMPDEST PUSH0 DUP2 SWAP1 POP SWAP3 SWAP2 POP POP JUMP JUMPDEST PUSH0 PUSH2 0x2EEB DUP3 PUSH2 0x26C8 JUMP JUMPDEST PUSH2 0x2EF5 DUP2 DUP6 PUSH2 0x2ED7 JUMP JUMPDEST SWAP4 POP PUSH2 0x2F05 DUP2 DUP6 PUSH1 0x20 DUP7 ADD PUSH2 0x26E2 JUMP JUMPDEST DUP1 DUP5 ADD SWAP2 POP POP SWAP3 SWAP2 POP POP JUMP JUMPDEST PUSH0 PUSH2 0x2F1C DUP3 DUP6 PUSH2 0x2EE1 JUMP JUMPDEST SWAP2 POP PUSH2 0x2F28 DUP3 DUP5 PUSH2 0x2EE1 JUMP JUMPDEST SWAP2 POP DUP2 SWAP1 POP SWAP4 SWAP3 POP POP POP JUMP JUMPDEST PUSH32 0x576520536F6C64204F7574212100000000000000000000000000000000000000 PUSH0 DUP3 ADD MSTORE POP JUMP JUMPDEST PUSH0 PUSH2 0x2F68 PUSH1 0xD DUP4 PUSH2 0x26D2 JUMP JUMPDEST SWAP2 POP PUSH2 0x2F73 DUP3 PUSH2 0x2F34 JUMP JUMPDEST PUSH1 0x20 DUP3 ADD SWAP1 POP SWAP2 SWAP1 POP JUMP JUMPDEST PUSH0 PUSH1 0x20 DUP3 ADD SWAP1 POP DUP2 DUP2 SUB PUSH0 DUP4 ADD MSTORE PUSH2 0x2F95 DUP2 PUSH2 0x2F5C JUMP JUMPDEST SWAP1 POP SWAP2 SWAP1 POP JUMP JUMPDEST PUSH32 0x4E487B7100000000000000000000000000000000000000000000000000000000 PUSH0 MSTORE PUSH1 0x11 PUSH1 0x4 MSTORE PUSH1 0x24 PUSH0 REVERT JUMPDEST PUSH0 PUSH2 0x2FD3 DUP3 PUSH2 0x2758 JUMP JUMPDEST SWAP2 POP PUSH32 0xFFFFFFFFFFFFFFFFFFFFFFFFFFFFFFFFFFFFFFFFFFFFFFFFFFFFFFFFFFFFFFFF DUP3 SUB PUSH2 0x3005 JUMPI PUSH2 0x3004 PUSH2 0x2F9C JUMP JUMPDEST JUMPDEST PUSH1 0x1 DUP3 ADD SWAP1 POP SWAP2 SWAP1 POP JUMP JUMPDEST PUSH0 DUP2 MLOAD SWAP1 POP SWAP2 SWAP1 POP JUMP JUMPDEST PUSH0 DUP3 DUP3 MSTORE PUSH1 0x20 DUP3 ADD SWAP1 POP SWAP3 SWAP2 POP POP JUMP JUMPDEST PUSH0 PUSH2 0x3034 DUP3 PUSH2 0x3010 JUMP JUMPDEST PUSH2 0x303E DUP2 DUP6 PUSH2 0x301A JUMP JUMPDEST SWAP4 POP PUSH2 0x304E DUP2 DUP6 PUSH1 0x20 DUP7 ADD PUSH2 0x26E2 JUMP JUMPDEST PUSH2 0x3057 DUP2 PUSH2 0x26F0 JUMP JUMPDEST DUP5 ADD SWAP2 POP POP SWAP3 SWAP2 POP POP JUMP JUMPDEST PUSH0 PUSH1 0x80 DUP3 ADD SWAP1 POP PUSH2 0x3075 PUSH0 DUP4 ADD DUP8 PUSH2 0x27E6 JUMP JUMPDEST PUSH2 0x3082 PUSH1 0x20 DUP4 ADD DUP7 PUSH2 0x27E6 JUMP JUMPDEST PUSH2 0x308F PUSH1 0x40 DUP4 ADD DUP6 PUSH2 0x2876 JUMP JUMPDEST DUP2 DUP2 SUB PUSH1 0x60 DUP4 ADD MSTORE PUSH2 0x30A1 DUP2 DUP5 PUSH2 0x302A JUMP JUMPDEST SWAP1 POP SWAP6 SWAP5 POP POP POP POP POP JUMP JUMPDEST PUSH0 DUP2 MLOAD SWAP1 POP PUSH2 0x30BA DUP2 PUSH2 0x2640 JUMP JUMPDEST SWAP3 SWAP2 POP POP JUMP JUMPDEST PUSH0 PUSH1 0x20 DUP3 DUP5 SUB SLT ISZERO PUSH2 0x30D5 JUMPI PUSH2 0x30D4 PUSH2 0x260D JUMP JUMPDEST JUMPDEST PUSH0 PUSH2 0x30E2 DUP5 DUP3 DUP6 ADD PUSH2 0x30AC JUMP JUMPDEST SWAP2 POP POP SWAP3 SWAP2 POP POP JUMP JUMPDEST PUSH32 0x4E487B7100000000000000000000000000000000000000000000000000000000 PUSH0 MSTORE PUSH1 0x12 PUSH1 0x4 MSTORE PUSH1 0x24 PUSH0 REVERT JUMPDEST PUSH0 PUSH2 0x3122 DUP3 PUSH2 0x2758 JUMP JUMPDEST SWAP2 POP PUSH2 0x312D DUP4 PUSH2 0x2758 JUMP JUMPDEST SWAP3 POP DUP3 DUP3 SUB SWAP1 POP DUP2 DUP2 GT ISZERO PUSH2 0x3145 JUMPI PUSH2 0x3144 PUSH2 0x2F9C JUMP JUMPDEST JUMPDEST SWAP3 SWAP2 POP POP JUMP JUMPDEST PUSH32 0x4E487B7100000000000000000000000000000000000000000000000000000000 PUSH0 MSTORE PUSH1 0x31 PUSH1 0x4 MSTORE PUSH1 0x24 PUSH0 REVERT INVALID PUSH10 0x7066733A2F2F516D6273 PUSH6 0x52544A575373 0x4C PUSH7 0x68736957777542 ORIGIN MSTORE CALLDATACOPY GASLIMIT PUSH21 0x4E39335478666F614D7A3153354658747346455542 0x2F LOG2 PUSH5 0x6970667358 0x22 SLT KECCAK256 GASLIMIT LOG4 PUSH7 0x3EE3983B3091EB 0xD8 0xB0 0xD6 CALLDATASIZE 0xC2 DUP14 PUSH1 0xC5 CALLCODE PUSH28 0x99255199F0C8A4A79E0C429464736F6C634300081A00330000000000 "
				},
				"gasEstimates": {
					"creation": {
						"codeDepositCost": "2554400",
						"executionCost": "infinite",
						"totalCost": "infinite"
					},
					"external": {
						"allowList(address)": "2901",
						"allowListMint()": "infinite",
						"approve(address,uint256)": "infinite",
						"balanceOf(address)": "infinite",
						"editMintWindows(bool,bool)": "infinite",
						"getApproved(uint256)": "infinite",
						"isApprovedForAll(address,address)": "infinite",
						"maxSupply()": "2491",
						"name()": "infinite",
						"owner()": "2611",
						"ownerOf(uint256)": "infinite",
						"pause()": "infinite",
						"paused()": "2541",
						"publicMint()": "infinite",
						"renounceOwnership()": "infinite",
						"safeTransferFrom(address,address,uint256)": "infinite",
						"safeTransferFrom(address,address,uint256,bytes)": "infinite",
						"setAllowList(address[])": "infinite",
						"setApprovalForAll(address,bool)": "infinite",
						"supportsInterface(bytes4)": "940",
						"symbol()": "infinite",
						"tokenByIndex(uint256)": "infinite",
						"tokenOfOwnerByIndex(address,uint256)": "infinite",
						"tokenURI(uint256)": "infinite",
						"totalSupply()": "2530",
						"transferFrom(address,address,uint256)": "infinite",
						"transferOwnership(address)": "infinite",
						"unpause()": "infinite",
						"withdraw(address)": "infinite"
					},
					"internal": {
						"_baseURI()": "infinite",
						"_increaseBalance(address,uint128)": "infinite",
						"_update(address,uint256,address)": "infinite",
						"internalMint()": "infinite"
					}
				},
				"methodIdentifiers": {
					"allowList(address)": "2848aeaf",
					"allowListMint()": "102a6a73",
					"approve(address,uint256)": "095ea7b3",
					"balanceOf(address)": "70a08231",
					"editMintWindows(bool,bool)": "2f48de79",
					"getApproved(uint256)": "081812fc",
					"isApprovedForAll(address,address)": "e985e9c5",
					"maxSupply()": "d5abeb01",
					"name()": "06fdde03",
					"owner()": "8da5cb5b",
					"ownerOf(uint256)": "6352211e",
					"pause()": "8456cb59",
					"paused()": "5c975abb",
					"publicMint()": "26092b83",
					"renounceOwnership()": "715018a6",
					"safeTransferFrom(address,address,uint256)": "42842e0e",
					"safeTransferFrom(address,address,uint256,bytes)": "b88d4fde",
					"setAllowList(address[])": "6447c35d",
					"setApprovalForAll(address,bool)": "a22cb465",
					"supportsInterface(bytes4)": "01ffc9a7",
					"symbol()": "95d89b41",
					"tokenByIndex(uint256)": "4f6ccce7",
					"tokenOfOwnerByIndex(address,uint256)": "2f745c59",
					"tokenURI(uint256)": "c87b56dd",
					"totalSupply()": "18160ddd",
					"transferFrom(address,address,uint256)": "23b872dd",
					"transferOwnership(address)": "f2fde38b",
					"unpause()": "3f4ba83a",
					"withdraw(address)": "51cff8d9"
				}
			},
			"storageLayout": {
				"storage": [
					{
						"astId": 317,
						"contract": "contracts/ERC720.sol:Goraya",
						"label": "_name",
						"offset": 0,
						"slot": "0",
						"type": "t_string_storage"
					},
					{
						"astId": 319,
						"contract": "contracts/ERC720.sol:Goraya",
						"label": "_symbol",
						"offset": 0,
						"slot": "1",
						"type": "t_string_storage"
					},
					{
						"astId": 323,
						"contract": "contracts/ERC720.sol:Goraya",
						"label": "_owners",
						"offset": 0,
						"slot": "2",
						"type": "t_mapping(t_uint256,t_address)"
					},
					{
						"astId": 327,
						"contract": "contracts/ERC720.sol:Goraya",
						"label": "_balances",
						"offset": 0,
						"slot": "3",
						"type": "t_mapping(t_address,t_uint256)"
					},
					{
						"astId": 331,
						"contract": "contracts/ERC720.sol:Goraya",
						"label": "_tokenApprovals",
						"offset": 0,
						"slot": "4",
						"type": "t_mapping(t_uint256,t_address)"
					},
					{
						"astId": 337,
						"contract": "contracts/ERC720.sol:Goraya",
						"label": "_operatorApprovals",
						"offset": 0,
						"slot": "5",
						"type": "t_mapping(t_address,t_mapping(t_address,t_bool))"
					},
					{
						"astId": 1447,
						"contract": "contracts/ERC720.sol:Goraya",
						"label": "_ownedTokens",
						"offset": 0,
						"slot": "6",
						"type": "t_mapping(t_address,t_mapping(t_uint256,t_uint256))"
					},
					{
						"astId": 1451,
						"contract": "contracts/ERC720.sol:Goraya",
						"label": "_ownedTokensIndex",
						"offset": 0,
						"slot": "7",
						"type": "t_mapping(t_uint256,t_uint256)"
					},
					{
						"astId": 1454,
						"contract": "contracts/ERC720.sol:Goraya",
						"label": "_allTokens",
						"offset": 0,
						"slot": "8",
						"type": "t_array(t_uint256)dyn_storage"
					},
					{
						"astId": 1458,
						"contract": "contracts/ERC720.sol:Goraya",
						"label": "_allTokensIndex",
						"offset": 0,
						"slot": "9",
						"type": "t_mapping(t_uint256,t_uint256)"
					},
					{
						"astId": 1946,
						"contract": "contracts/ERC720.sol:Goraya",
						"label": "_paused",
						"offset": 0,
						"slot": "10",
						"type": "t_bool"
					},
					{
						"astId": 8,
						"contract": "contracts/ERC720.sol:Goraya",
						"label": "_owner",
						"offset": 1,
						"slot": "10",
						"type": "t_address"
					},
					{
						"astId": 3520,
						"contract": "contracts/ERC720.sol:Goraya",
						"label": "_nextTokenId",
						"offset": 0,
						"slot": "11",
						"type": "t_uint256"
					},
					{
						"astId": 3523,
						"contract": "contracts/ERC720.sol:Goraya",
						"label": "maxSupply",
						"offset": 0,
						"slot": "12",
						"type": "t_uint256"
					},
					{
						"astId": 3527,
						"contract": "contracts/ERC720.sol:Goraya",
						"label": "allowList",
						"offset": 0,
						"slot": "13",
						"type": "t_mapping(t_address,t_bool)"
					},
					{
						"astId": 3530,
						"contract": "contracts/ERC720.sol:Goraya",
						"label": "publicMintOpen",
						"offset": 0,
						"slot": "14",
						"type": "t_bool"
					},
					{
						"astId": 3533,
						"contract": "contracts/ERC720.sol:Goraya",
						"label": "allowListMintOpen",
						"offset": 1,
						"slot": "14",
						"type": "t_bool"
					}
				],
				"types": {
					"t_address": {
						"encoding": "inplace",
						"label": "address",
						"numberOfBytes": "20"
					},
					"t_array(t_uint256)dyn_storage": {
						"base": "t_uint256",
						"encoding": "dynamic_array",
						"label": "uint256[]",
						"numberOfBytes": "32"
					},
					"t_bool": {
						"encoding": "inplace",
						"label": "bool",
						"numberOfBytes": "1"
					},
					"t_mapping(t_address,t_bool)": {
						"encoding": "mapping",
						"key": "t_address",
						"label": "mapping(address => bool)",
						"numberOfBytes": "32",
						"value": "t_bool"
					},
					"t_mapping(t_address,t_mapping(t_address,t_bool))": {
						"encoding": "mapping",
						"key": "t_address",
						"label": "mapping(address => mapping(address => bool))",
						"numberOfBytes": "32",
						"value": "t_mapping(t_address,t_bool)"
					},
					"t_mapping(t_address,t_mapping(t_uint256,t_uint256))": {
						"encoding": "mapping",
						"key": "t_address",
						"label": "mapping(address => mapping(uint256 => uint256))",
						"numberOfBytes": "32",
						"value": "t_mapping(t_uint256,t_uint256)"
					},
					"t_mapping(t_address,t_uint256)": {
						"encoding": "mapping",
						"key": "t_address",
						"label": "mapping(address => uint256)",
						"numberOfBytes": "32",
						"value": "t_uint256"
					},
					"t_mapping(t_uint256,t_address)": {
						"encoding": "mapping",
						"key": "t_uint256",
						"label": "mapping(uint256 => address)",
						"numberOfBytes": "32",
						"value": "t_address"
					},
					"t_mapping(t_uint256,t_uint256)": {
						"encoding": "mapping",
						"key": "t_uint256",
						"label": "mapping(uint256 => uint256)",
						"numberOfBytes": "32",
						"value": "t_uint256"
					},
					"t_string_storage": {
						"encoding": "bytes",
						"label": "string",
						"numberOfBytes": "32"
					},
					"t_uint256": {
						"encoding": "inplace",
						"label": "uint256",
						"numberOfBytes": "32"
					}
				}
			},
			"userdoc": {
				"kind": "user",
				"methods": {},
				"version": 1
			}
		}
	}
}