{
	"data": {
		"bytecode": {
			"linkReferences": {},
			"object": "60806040526107d0600c555f600e5f6101000a81548160ff0219169083151502179055505f600e60016101000a81548160ff021916908315150217905550348015610048575f80fd5b50336040518060400160405280600681526020017f476f7261796100000000000000000000000000000000000000000000000000008152506040518060400160405280600381526020017f4752590000000000000000000000000000000000000000000000000000000000815250815f90816100c49190610474565b5080600190816100d49190610474565b5050505f600a5f6101000a81548160ff0219169083151502179055505f73ffffffffffffffffffffffffffffffffffffffff168173ffffffffffffffffffffffffffffffffffffffff1603610160575f6040517f1e4fbdf70000000000000000000000000000000000000000000000000000000081526004016101579190610582565b60405180910390fd5b61016f8161017560201b60201c565b5061059b565b5f600a60019054906101000a900473ffffffffffffffffffffffffffffffffffffffff16905081600a60016101000a81548173ffffffffffffffffffffffffffffffffffffffff021916908373ffffffffffffffffffffffffffffffffffffffff1602179055508173ffffffffffffffffffffffffffffffffffffffff168173ffffffffffffffffffffffffffffffffffffffff167f8be0079c531659141344cd1fd0a4f28419497f9722a3daafe3b4186f6b6457e060405160405180910390a35050565b5f81519050919050565b7f4e487b71000000000000000000000000000000000000000000000000000000005f52604160045260245ffd5b7f4e487b71000000000000000000000000000000000000000000000000000000005f52602260045260245ffd5b5f60028204905060018216806102b557607f821691505b6020821081036102c8576102c7610271565b5b50919050565b5f819050815f5260205f209050919050565b5f6020601f8301049050919050565b5f82821b905092915050565b5f6008830261032a7fffffffffffffffffffffffffffffffffffffffffffffffffffffffffffffffff826102ef565b61033486836102ef565b95508019841693508086168417925050509392505050565b5f819050919050565b5f819050919050565b5f61037861037361036e8461034c565b610355565b61034c565b9050919050565b5f819050919050565b6103918361035e565b6103a561039d8261037f565b8484546102fb565b825550505050565b5f90565b6103b96103ad565b6103c4818484610388565b505050565b5b818110156103e7576103dc5f826103b1565b6001810190506103ca565b5050565b601f82111561042c576103fd816102ce565b610406846102e0565b81016020851015610415578190505b610429610421856102e0565b8301826103c9565b50505b505050565b5f82821c905092915050565b5f61044c5f1984600802610431565b1980831691505092915050565b5f610464838361043d565b9150826002028217905092915050565b61047d8261023a565b67ffffffffffffffff81111561049657610495610244565b5b6104a0825461029e565b6104ab8282856103eb565b5f60209050601f8311600181146104dc575f84156104ca578287015190505b6104d48582610459565b86555061053b565b601f1984166104ea866102ce565b5f5b82811015610511578489015182556001820191506020850194506020810190506104ec565b8683101561052e578489015161052a601f89168261043d565b8355505b6001600288020188555050505b505050505050565b5f73ffffffffffffffffffffffffffffffffffffffff82169050919050565b5f61056c82610543565b9050919050565b61057c81610562565b82525050565b5f6020820190506105955f830184610573565b92915050565b6131e4806105a85f395ff3fe6080604052600436106101c1575f3560e01c806351cff8d9116100f65780638da5cb5b11610094578063c87b56dd11610063578063c87b56dd146105d1578063d5abeb011461060d578063e985e9c514610637578063f2fde38b14610673576101c1565b80638da5cb5b1461052d57806395d89b4114610557578063a22cb46514610581578063b88d4fde146105a9576101c1565b80636447c35d116100d05780636447c35d1461049d57806370a08231146104c5578063715018a6146105015780638456cb5914610517576101c1565b806351cff8d91461040f5780635c975abb146104375780636352211e14610461576101c1565b806326092b83116101635780632f745c591161013d5780632f745c59146103595780633f4ba83a1461039557806342842e0e146103ab5780634f6ccce7146103d3576101c1565b806326092b83146102eb5780632848aeaf146102f55780632f48de7914610331576101c1565b8063095ea7b31161019f578063095ea7b314610267578063102a6a731461028f57806318160ddd1461029957806323b872dd146102c3576101c1565b806301ffc9a7146101c557806306fdde0314610201578063081812fc1461022b575b5f80fd5b3480156101d0575f80fd5b506101eb60048036038101906101e6919061266a565b61069b565b6040516101f891906126af565b60405180910390f35b34801561020c575f80fd5b506102156106ac565b6040516102229190612738565b60405180910390f35b348015610236575f80fd5b50610251600480360381019061024c919061278b565b61073b565b60405161025e91906127f5565b60405180910390f35b348015610272575f80fd5b5061028d60048036038101906102889190612838565b610756565b005b61029761076c565b005b3480156102a4575f80fd5b506102ad610897565b6040516102ba9190612885565b60405180910390f35b3480156102ce575f80fd5b506102e960048036038101906102e4919061289e565b6108a3565b005b6102f36109a2565b005b348015610300575f80fd5b5061031b600480360381019061031691906128ee565b610a43565b60405161032891906126af565b60405180910390f35b34801561033c575f80fd5b5061035760048036038101906103529190612943565b610a60565b005b348015610364575f80fd5b5061037f600480360381019061037a9190612838565b610a9f565b60405161038c9190612885565b60405180910390f35b3480156103a0575f80fd5b506103a9610b43565b005b3480156103b6575f80fd5b506103d160048036038101906103cc919061289e565b610b55565b005b3480156103de575f80fd5b506103f960048036038101906103f4919061278b565b610b74565b6040516104069190612885565b60405180910390f35b34801561041a575f80fd5b50610435600480360381019061043091906128ee565b610be6565b005b348015610442575f80fd5b5061044b610c35565b60405161045891906126af565b60405180910390f35b34801561046c575f80fd5b506104876004803603810190610482919061278b565b610c4a565b60405161049491906127f5565b60405180910390f35b3480156104a8575f80fd5b506104c360048036038101906104be91906129e2565b610c5b565b005b3480156104d0575f80fd5b506104eb60048036038101906104e691906128ee565b610cfe565b6040516104f89190612885565b60405180910390f35b34801561050c575f80fd5b50610515610db4565b005b348015610522575f80fd5b5061052b610dc7565b005b348015610538575f80fd5b50610541610dd9565b60405161054e91906127f5565b60405180910390f35b348015610562575f80fd5b5061056b610e02565b6040516105789190612738565b60405180910390f35b34801561058c575f80fd5b506105a760048036038101906105a29190612a2d565b610e92565b005b3480156105b4575f80fd5b506105cf60048036038101906105ca9190612b93565b610ea8565b005b3480156105dc575f80fd5b506105f760048036038101906105f2919061278b565b610ec5565b6040516106049190612738565b60405180910390f35b348015610618575f80fd5b50610621610f2b565b60405161062e9190612885565b60405180910390f35b348015610642575f80fd5b5061065d60048036038101906106589190612c13565b610f31565b60405161066a91906126af565b60405180910390f35b34801561067e575f80fd5b50610699600480360381019061069491906128ee565b610fbf565b005b5f6106a582611043565b9050919050565b60605f80546106ba90612c7e565b80601f01602080910402602001604051908101604052809291908181526020018280546106e690612c7e565b80156107315780601f1061070857610100808354040283529160200191610731565b820191905f5260205f20905b81548152906001019060200180831161071457829003601f168201915b5050505050905090565b5f610745826110bc565b5061074f82611142565b9050919050565b610768828261076361117b565b611182565b5050565b600e60019054906101000a900460ff166107bb576040517f08c379a00000000000000000000000000000000000000000000000000000000081526004016107b290612cf8565b60405180910390fd5b600d5f3373ffffffffffffffffffffffffffffffffffffffff1673ffffffffffffffffffffffffffffffffffffffff1681526020019081526020015f205f9054906101000a900460ff16610844576040517f08c379a000000000000000000000000000000000000000000000000000000000815260040161083b90612d60565b60405180910390fd5b66038d7ea4c68000341461088d576040517f08c379a000000000000000000000000000000000000000000000000000000000815260040161088490612dc8565b60405180910390fd5b610895611194565b565b5f600880549050905090565b5f73ffffffffffffffffffffffffffffffffffffffff168273ffffffffffffffffffffffffffffffffffffffff1603610913575f6040517f64a0ae9200000000000000000000000000000000000000000000000000000000815260040161090a91906127f5565b60405180910390fd5b5f610926838361092161117b565b611205565b90508373ffffffffffffffffffffffffffffffffffffffff168173ffffffffffffffffffffffffffffffffffffffff161461099c578382826040517f64283d7b00000000000000000000000000000000000000000000000000000000815260040161099393929190612de6565b60405180910390fd5b50505050565b600e5f9054906101000a900460ff166109f0576040517f08c379a00000000000000000000000000000000000000000000000000000000081526004016109e790612e65565b60405180910390fd5b662386f26fc100003414610a39576040517f08c379a0000000000000000000000000000000000000000000000000000000008152600401610a3090612dc8565b60405180910390fd5b610a41611194565b565b600d602052805f5260405f205f915054906101000a900460ff1681565b610a6861121a565b81600e5f6101000a81548160ff02191690831515021790555080600e60016101000a81548160ff0219169083151502179055505050565b5f610aa983610cfe565b8210610aee5782826040517fa57d13dc000000000000000000000000000000000000000000000000000000008152600401610ae5929190612e83565b60405180910390fd5b60065f8473ffffffffffffffffffffffffffffffffffffffff1673ffffffffffffffffffffffffffffffffffffffff1681526020019081526020015f205f8381526020019081526020015f2054905092915050565b610b4b61121a565b610b536112a1565b565b610b6f83838360405180602001604052805f815250610ea8565b505050565b5f610b7d610897565b8210610bc2575f826040517fa57d13dc000000000000000000000000000000000000000000000000000000008152600401610bb9929190612e83565b60405180910390fd5b60088281548110610bd657610bd5612eaa565b5b905f5260205f2001549050919050565b610bee61121a565b8073ffffffffffffffffffffffffffffffffffffffff166108fc4790811502906040515f60405180830381858888f19350505050158015610c31573d5f803e3d5ffd5b5050565b5f600a5f9054906101000a900460ff16905090565b5f610c54826110bc565b9050919050565b610c6361121a565b5f5b82829050811015610cf9576001600d5f858585818110610c8857610c87612eaa565b5b9050602002016020810190610c9d91906128ee565b73ffffffffffffffffffffffffffffffffffffffff1673ffffffffffffffffffffffffffffffffffffffff1681526020019081526020015f205f6101000a81548160ff0219169083151502179055508080600101915050610c65565b505050565b5f8073ffffffffffffffffffffffffffffffffffffffff168273ffffffffffffffffffffffffffffffffffffffff1603610d6f575f6040517f89c62b64000000000000000000000000000000000000000000000000000000008152600401610d6691906127f5565b60405180910390fd5b60035f8373ffffffffffffffffffffffffffffffffffffffff1673ffffffffffffffffffffffffffffffffffffffff1681526020019081526020015f20549050919050565b610dbc61121a565b610dc55f611302565b565b610dcf61121a565b610dd76113c7565b565b5f600a60019054906101000a900473ffffffffffffffffffffffffffffffffffffffff16905090565b606060018054610e1190612c7e565b80601f0160208091040260200160405190810160405280929190818152602001828054610e3d90612c7e565b8015610e885780601f10610e5f57610100808354040283529160200191610e88565b820191905f5260205f20905b815481529060010190602001808311610e6b57829003601f168201915b5050505050905090565b610ea4610e9d61117b565b8383611429565b5050565b610eb38484846108a3565b610ebf84848484611592565b50505050565b6060610ed0826110bc565b505f610eda611744565b90505f815111610ef85760405180602001604052805f815250610f23565b80610f0284611764565b604051602001610f13929190612f11565b6040516020818303038152906040525b915050919050565b600c5481565b5f60055f8473ffffffffffffffffffffffffffffffffffffffff1673ffffffffffffffffffffffffffffffffffffffff1681526020019081526020015f205f8373ffffffffffffffffffffffffffffffffffffffff1673ffffffffffffffffffffffffffffffffffffffff1681526020019081526020015f205f9054906101000a900460ff16905092915050565b610fc761121a565b5f73ffffffffffffffffffffffffffffffffffffffff168173ffffffffffffffffffffffffffffffffffffffff1603611037575f6040517f1e4fbdf700000000000000000000000000000000000000000000000000000000815260040161102e91906127f5565b60405180910390fd5b61104081611302565b50565b5f7f780e9d63000000000000000000000000000000000000000000000000000000007bffffffffffffffffffffffffffffffffffffffffffffffffffffffff1916827bffffffffffffffffffffffffffffffffffffffffffffffffffffffff191614806110b557506110b48261182e565b5b9050919050565b5f806110c78361190f565b90505f73ffffffffffffffffffffffffffffffffffffffff168173ffffffffffffffffffffffffffffffffffffffff160361113957826040517f7e2732890000000000000000000000000000000000000000000000000000000081526004016111309190612885565b60405180910390fd5b80915050919050565b5f60045f8381526020019081526020015f205f9054906101000a900473ffffffffffffffffffffffffffffffffffffffff169050919050565b5f33905090565b61118f8383836001611948565b505050565b600c5461119f610897565b106111df576040517f08c379a00000000000000000000000000000000000000000000000000000000081526004016111d690612f7e565b60405180910390fd5b5f600b5f8154809291906111f290612fc9565b9190505590506112023382611b07565b50565b5f611211848484611b24565b90509392505050565b61122261117b565b73ffffffffffffffffffffffffffffffffffffffff16611240610dd9565b73ffffffffffffffffffffffffffffffffffffffff161461129f5761126361117b565b6040517f118cdaa700000000000000000000000000000000000000000000000000000000815260040161129691906127f5565b60405180910390fd5b565b6112a9611b41565b5f600a5f6101000a81548160ff0219169083151502179055507f5db9ee0a495bf2e6ff9c91a7834c1ba4fdd244a5e8aa4e537bd38aeae4b073aa6112eb61117b565b6040516112f891906127f5565b60405180910390a1565b5f600a60019054906101000a900473ffffffffffffffffffffffffffffffffffffffff16905081600a60016101000a81548173ffffffffffffffffffffffffffffffffffffffff021916908373ffffffffffffffffffffffffffffffffffffffff1602179055508173ffffffffffffffffffffffffffffffffffffffff168173ffffffffffffffffffffffffffffffffffffffff167f8be0079c531659141344cd1fd0a4f28419497f9722a3daafe3b4186f6b6457e060405160405180910390a35050565b6113cf611b81565b6001600a5f6101000a81548160ff0219169083151502179055507f62e78cea01bee320cd4e420270b5ea74000d11b0c9f74754ebdbfc544b05a25861141261117b565b60405161141f91906127f5565b60405180910390a1565b5f73ffffffffffffffffffffffffffffffffffffffff168273ffffffffffffffffffffffffffffffffffffffff160361149957816040517f5b08ba1800000000000000000000000000000000000000000000000000000000815260040161149091906127f5565b60405180910390fd5b8060055f8573ffffffffffffffffffffffffffffffffffffffff1673ffffffffffffffffffffffffffffffffffffffff1681526020019081526020015f205f8473ffffffffffffffffffffffffffffffffffffffff1673ffffffffffffffffffffffffffffffffffffffff1681526020019081526020015f205f6101000a81548160ff0219169083151502179055508173ffffffffffffffffffffffffffffffffffffffff168373ffffffffffffffffffffffffffffffffffffffff167f17307eab39ab6107e8899845ad3d59bd9653f200f220920489ca2b5937696c318360405161158591906126af565b60405180910390a3505050565b5f8373ffffffffffffffffffffffffffffffffffffffff163b111561173e578273ffffffffffffffffffffffffffffffffffffffff1663150b7a026115d561117b565b8685856040518563ffffffff1660e01b81526004016115f79493929190613062565b6020604051808303815f875af192505050801561163257506040513d601f19601f8201168201806040525081019061162f91906130c0565b60015b6116b3573d805f8114611660576040519150601f19603f3d011682016040523d82523d5f602084013e611665565b606091505b505f8151036116ab57836040517f64a0ae920000000000000000000000000000000000000000000000000000000081526004016116a291906127f5565b60405180910390fd5b805181602001fd5b63150b7a0260e01b7bffffffffffffffffffffffffffffffffffffffffffffffffffffffff1916817bffffffffffffffffffffffffffffffffffffffffffffffffffffffff19161461173c57836040517f64a0ae9200000000000000000000000000000000000000000000000000000000815260040161173391906127f5565b60405180910390fd5b505b50505050565b606060405180606001604052806036815260200161317960369139905090565b60605f600161177284611bc2565b0190505f8167ffffffffffffffff8111156117905761178f612a6f565b5b6040519080825280601f01601f1916602001820160405280156117c25781602001600182028036833780820191505090505b5090505f82602001820190505b600115611823578080600190039150507f3031323334353637383961626364656600000000000000000000000000000000600a86061a8153600a8581611818576118176130eb565b5b0494505f85036117cf575b819350505050919050565b5f7f80ac58cd000000000000000000000000000000000000000000000000000000007bffffffffffffffffffffffffffffffffffffffffffffffffffffffff1916827bffffffffffffffffffffffffffffffffffffffffffffffffffffffff191614806118f857507f5b5e139f000000000000000000000000000000000000000000000000000000007bffffffffffffffffffffffffffffffffffffffffffffffffffffffff1916827bffffffffffffffffffffffffffffffffffffffffffffffffffffffff1916145b80611908575061190782611d13565b5b9050919050565b5f60025f8381526020019081526020015f205f9054906101000a900473ffffffffffffffffffffffffffffffffffffffff169050919050565b808061198057505f73ffffffffffffffffffffffffffffffffffffffff168273ffffffffffffffffffffffffffffffffffffffff1614155b15611ab2575f61198f846110bc565b90505f73ffffffffffffffffffffffffffffffffffffffff168373ffffffffffffffffffffffffffffffffffffffff16141580156119f957508273ffffffffffffffffffffffffffffffffffffffff168173ffffffffffffffffffffffffffffffffffffffff1614155b8015611a0c5750611a0a8184610f31565b155b15611a4e57826040517fa9fbf51f000000000000000000000000000000000000000000000000000000008152600401611a4591906127f5565b60405180910390fd5b8115611ab057838573ffffffffffffffffffffffffffffffffffffffff168273ffffffffffffffffffffffffffffffffffffffff167f8c5be1e5ebec7d5bd14f71427d1e84f3dd0314c0f7b2291e5b200ac8c7c3b92560405160405180910390a45b505b8360045f8581526020019081526020015f205f6101000a81548173ffffffffffffffffffffffffffffffffffffffff021916908373ffffffffffffffffffffffffffffffffffffffff16021790555050505050565b611b20828260405180602001604052805f815250611d7c565b5050565b5f611b2d611b81565b611b38848484611d97565b90509392505050565b611b49610c35565b611b7f576040517f8dfc202b00000000000000000000000000000000000000000000000000000000815260040160405180910390fd5b565b611b89610c35565b15611bc0576040517fd93c066500000000000000000000000000000000000000000000000000000000815260040160405180910390fd5b565b5f805f90507a184f03e93ff9f4daa797ed6e38ed64bf6a1f0100000000000000008310611c1e577a184f03e93ff9f4daa797ed6e38ed64bf6a1f0100000000000000008381611c1457611c136130eb565b5b0492506040810190505b6d04ee2d6d415b85acef81000000008310611c5b576d04ee2d6d415b85acef81000000008381611c5157611c506130eb565b5b0492506020810190505b662386f26fc100008310611c8a57662386f26fc100008381611c8057611c7f6130eb565b5b0492506010810190505b6305f5e1008310611cb3576305f5e1008381611ca957611ca86130eb565b5b0492506008810190505b6127108310611cd8576127108381611cce57611ccd6130eb565b5b0492506004810190505b60648310611cfb5760648381611cf157611cf06130eb565b5b0492506002810190505b600a8310611d0a576001810190505b80915050919050565b5f7f01ffc9a7000000000000000000000000000000000000000000000000000000007bffffffffffffffffffffffffffffffffffffffffffffffffffffffff1916827bffffffffffffffffffffffffffffffffffffffffffffffffffffffff1916149050919050565b611d868383611eb1565b611d925f848484611592565b505050565b5f80611da4858585611fa4565b90505f73ffffffffffffffffffffffffffffffffffffffff168173ffffffffffffffffffffffffffffffffffffffff1603611de757611de2846121af565b611e26565b8473ffffffffffffffffffffffffffffffffffffffff168173ffffffffffffffffffffffffffffffffffffffff1614611e2557611e2481856121f3565b5b5b5f73ffffffffffffffffffffffffffffffffffffffff168573ffffffffffffffffffffffffffffffffffffffff1603611e6757611e628461233d565b611ea6565b8473ffffffffffffffffffffffffffffffffffffffff168173ffffffffffffffffffffffffffffffffffffffff1614611ea557611ea485856123fd565b5b5b809150509392505050565b5f73ffffffffffffffffffffffffffffffffffffffff168273ffffffffffffffffffffffffffffffffffffffff1603611f21575f6040517f64a0ae92000000000000000000000000000000000000000000000000000000008152600401611f1891906127f5565b60405180910390fd5b5f611f2d83835f611205565b90505f73ffffffffffffffffffffffffffffffffffffffff168173ffffffffffffffffffffffffffffffffffffffff1614611f9f575f6040517f73c6ac6e000000000000000000000000000000000000000000000000000000008152600401611f9691906127f5565b60405180910390fd5b505050565b5f80611faf8461190f565b90505f73ffffffffffffffffffffffffffffffffffffffff168373ffffffffffffffffffffffffffffffffffffffff1614611ff057611fef818486612481565b5b5f73ffffffffffffffffffffffffffffffffffffffff168173ffffffffffffffffffffffffffffffffffffffff161461207b5761202f5f855f80611948565b600160035f8373ffffffffffffffffffffffffffffffffffffffff1673ffffffffffffffffffffffffffffffffffffffff1681526020019081526020015f205f82825403925050819055505b5f73ffffffffffffffffffffffffffffffffffffffff168573ffffffffffffffffffffffffffffffffffffffff16146120fa57600160035f8773ffffffffffffffffffffffffffffffffffffffff1673ffffffffffffffffffffffffffffffffffffffff1681526020019081526020015f205f82825401925050819055505b8460025f8681526020019081526020015f205f6101000a81548173ffffffffffffffffffffffffffffffffffffffff021916908373ffffffffffffffffffffffffffffffffffffffff160217905550838573ffffffffffffffffffffffffffffffffffffffff168273ffffffffffffffffffffffffffffffffffffffff167fddf252ad1be2c89b69c2b068fc378daa952ba7f163c4a11628f55a4df523b3ef60405160405180910390a4809150509392505050565b60088054905060095f8381526020019081526020015f2081905550600881908060018154018082558091505060019003905f5260205f20015f909190919091505550565b5f6121fd83610cfe565b90505f60075f8481526020019081526020015f205490508181146122d4575f60065f8673ffffffffffffffffffffffffffffffffffffffff1673ffffffffffffffffffffffffffffffffffffffff1681526020019081526020015f205f8481526020019081526020015f205490508060065f8773ffffffffffffffffffffffffffffffffffffffff1673ffffffffffffffffffffffffffffffffffffffff1681526020019081526020015f205f8481526020019081526020015f20819055508160075f8381526020019081526020015f2081905550505b60075f8481526020019081526020015f205f905560065f8573ffffffffffffffffffffffffffffffffffffffff1673ffffffffffffffffffffffffffffffffffffffff1681526020019081526020015f205f8381526020019081526020015f205f905550505050565b5f60016008805490506123509190613118565b90505f60095f8481526020019081526020015f205490505f6008838154811061237c5761237b612eaa565b5b905f5260205f2001549050806008838154811061239c5761239b612eaa565b5b905f5260205f2001819055508160095f8381526020019081526020015f208190555060095f8581526020019081526020015f205f905560088054806123e4576123e361314b565b5b600190038181905f5260205f20015f9055905550505050565b5f600161240984610cfe565b6124139190613118565b90508160065f8573ffffffffffffffffffffffffffffffffffffffff1673ffffffffffffffffffffffffffffffffffffffff1681526020019081526020015f205f8381526020019081526020015f20819055508060075f8481526020019081526020015f2081905550505050565b61248c838383612544565b61253f575f73ffffffffffffffffffffffffffffffffffffffff168373ffffffffffffffffffffffffffffffffffffffff160361250057806040517f7e2732890000000000000000000000000000000000000000000000000000000081526004016124f79190612885565b60405180910390fd5b81816040517f177e802f000000000000000000000000000000000000000000000000000000008152600401612536929190612e83565b60405180910390fd5b505050565b5f8073ffffffffffffffffffffffffffffffffffffffff168373ffffffffffffffffffffffffffffffffffffffff16141580156125fb57508273ffffffffffffffffffffffffffffffffffffffff168473ffffffffffffffffffffffffffffffffffffffff1614806125bc57506125bb8484610f31565b5b806125fa57508273ffffffffffffffffffffffffffffffffffffffff166125e283611142565b73ffffffffffffffffffffffffffffffffffffffff16145b5b90509392505050565b5f604051905090565b5f80fd5b5f80fd5b5f7fffffffff0000000000000000000000000000000000000000000000000000000082169050919050565b61264981612615565b8114612653575f80fd5b50565b5f8135905061266481612640565b92915050565b5f6020828403121561267f5761267e61260d565b5b5f61268c84828501612656565b91505092915050565b5f8115159050919050565b6126a981612695565b82525050565b5f6020820190506126c25f8301846126a0565b92915050565b5f81519050919050565b5f82825260208201905092915050565b8281835e5f83830152505050565b5f601f19601f8301169050919050565b5f61270a826126c8565b61271481856126d2565b93506127248185602086016126e2565b61272d816126f0565b840191505092915050565b5f6020820190508181035f8301526127508184612700565b905092915050565b5f819050919050565b61276a81612758565b8114612774575f80fd5b50565b5f8135905061278581612761565b92915050565b5f602082840312156127a05761279f61260d565b5b5f6127ad84828501612777565b91505092915050565b5f73ffffffffffffffffffffffffffffffffffffffff82169050919050565b5f6127df826127b6565b9050919050565b6127ef816127d5565b82525050565b5f6020820190506128085f8301846127e6565b92915050565b612817816127d5565b8114612821575f80fd5b50565b5f813590506128328161280e565b92915050565b5f806040838503121561284e5761284d61260d565b5b5f61285b85828601612824565b925050602061286c85828601612777565b9150509250929050565b61287f81612758565b82525050565b5f6020820190506128985f830184612876565b92915050565b5f805f606084860312156128b5576128b461260d565b5b5f6128c286828701612824565b93505060206128d386828701612824565b92505060406128e486828701612777565b9150509250925092565b5f602082840312156129035761290261260d565b5b5f61291084828501612824565b91505092915050565b61292281612695565b811461292c575f80fd5b50565b5f8135905061293d81612919565b92915050565b5f80604083850312156129595761295861260d565b5b5f6129668582860161292f565b92505060206129778582860161292f565b9150509250929050565b5f80fd5b5f80fd5b5f80fd5b5f8083601f8401126129a2576129a1612981565b5b8235905067ffffffffffffffff8111156129bf576129be612985565b5b6020830191508360208202830111156129db576129da612989565b5b9250929050565b5f80602083850312156129f8576129f761260d565b5b5f83013567ffffffffffffffff811115612a1557612a14612611565b5b612a218582860161298d565b92509250509250929050565b5f8060408385031215612a4357612a4261260d565b5b5f612a5085828601612824565b9250506020612a618582860161292f565b9150509250929050565b5f80fd5b7f4e487b71000000000000000000000000000000000000000000000000000000005f52604160045260245ffd5b612aa5826126f0565b810181811067ffffffffffffffff82111715612ac457612ac3612a6f565b5b80604052505050565b5f612ad6612604565b9050612ae28282612a9c565b919050565b5f67ffffffffffffffff821115612b0157612b00612a6f565b5b612b0a826126f0565b9050602081019050919050565b828183375f83830152505050565b5f612b37612b3284612ae7565b612acd565b905082815260208101848484011115612b5357612b52612a6b565b5b612b5e848285612b17565b509392505050565b5f82601f830112612b7a57612b79612981565b5b8135612b8a848260208601612b25565b91505092915050565b5f805f8060808587031215612bab57612baa61260d565b5b5f612bb887828801612824565b9450506020612bc987828801612824565b9350506040612bda87828801612777565b925050606085013567ffffffffffffffff811115612bfb57612bfa612611565b5b612c0787828801612b66565b91505092959194509250565b5f8060408385031215612c2957612c2861260d565b5b5f612c3685828601612824565b9250506020612c4785828601612824565b9150509250929050565b7f4e487b71000000000000000000000000000000000000000000000000000000005f52602260045260245ffd5b5f6002820490506001821680612c9557607f821691505b602082108103612ca857612ca7612c51565b5b50919050565b7f616c6c6f774c697374206d696e74206973206e6f74206f70656e0000000000005f82015250565b5f612ce2601a836126d2565b9150612ced82612cae565b602082019050919050565b5f6020820190508181035f830152612d0f81612cd6565b9050919050565b7f4e6f7420416c6c6f7765640000000000000000000000000000000000000000005f82015250565b5f612d4a600b836126d2565b9150612d5582612d16565b602082019050919050565b5f6020820190508181035f830152612d7781612d3e565b9050919050565b7f4e6f7420456e6f7567682056616c7565000000000000000000000000000000005f82015250565b5f612db26010836126d2565b9150612dbd82612d7e565b602082019050919050565b5f6020820190508181035f830152612ddf81612da6565b9050919050565b5f606082019050612df95f8301866127e6565b612e066020830185612876565b612e1360408301846127e6565b949350505050565b7f7075626c69634d696e74206973206e6f74206f70656e000000000000000000005f82015250565b5f612e4f6016836126d2565b9150612e5a82612e1b565b602082019050919050565b5f6020820190508181035f830152612e7c81612e43565b9050919050565b5f604082019050612e965f8301856127e6565b612ea36020830184612876565b9392505050565b7f4e487b71000000000000000000000000000000000000000000000000000000005f52603260045260245ffd5b5f81905092915050565b5f612eeb826126c8565b612ef58185612ed7565b9350612f058185602086016126e2565b80840191505092915050565b5f612f1c8285612ee1565b9150612f288284612ee1565b91508190509392505050565b7f576520536f6c64204f75742121000000000000000000000000000000000000005f82015250565b5f612f68600d836126d2565b9150612f7382612f34565b602082019050919050565b5f6020820190508181035f830152612f9581612f5c565b9050919050565b7f4e487b71000000000000000000000000000000000000000000000000000000005f52601160045260245ffd5b5f612fd382612758565b91507fffffffffffffffffffffffffffffffffffffffffffffffffffffffffffffffff820361300557613004612f9c565b5b600182019050919050565b5f81519050919050565b5f82825260208201905092915050565b5f61303482613010565b61303e818561301a565b935061304e8185602086016126e2565b613057816126f0565b840191505092915050565b5f6080820190506130755f8301876127e6565b61308260208301866127e6565b61308f6040830185612876565b81810360608301526130a1818461302a565b905095945050505050565b5f815190506130ba81612640565b92915050565b5f602082840312156130d5576130d461260d565b5b5f6130e2848285016130ac565b91505092915050565b7f4e487b71000000000000000000000000000000000000000000000000000000005f52601260045260245ffd5b5f61312282612758565b915061312d83612758565b925082820390508181111561314557613144612f9c565b5b92915050565b7f4e487b71000000000000000000000000000000000000000000000000000000005f52603160045260245ffdfe697066733a2f2f516d62736552544a5753734c666873695777754232523745744e39335478666f614d7a31533546587473464555422fa264697066735822122045a4663ee3983b3091ebd8b0d636c28d60c5f27b99255199f0c8a4a79e0c429464736f6c634300081a0033",
			"opcodes": "PUSH1 0x80 PUSH1 0x40 MSTORE PUSH2 0x7D0 PUSH1 0xC SSTORE PUSH0 PUSH1 0xE PUSH0 PUSH2 0x100 EXP DUP2 SLOAD DUP2 PUSH1 0xFF MUL NOT AND SWAP1 DUP4 ISZERO ISZERO MUL OR SWAP1 SSTORE POP PUSH0 PUSH1 0xE PUSH1 0x1 PUSH2 0x100 EXP DUP2 SLOAD DUP2 PUSH1 0xFF MUL NOT AND SWAP1 DUP4 ISZERO ISZERO MUL OR SWAP1 SSTORE POP CALLVALUE DUP1 ISZERO PUSH2 0x48 JUMPI PUSH0 DUP1 REVERT JUMPDEST POP CALLER PUSH1 0x40 MLOAD DUP1 PUSH1 0x40 ADD PUSH1 0x40 MSTORE DUP1 PUSH1 0x6 DUP2 MSTORE PUSH1 0x20 ADD PUSH32 0x476F726179610000000000000000000000000000000000000000000000000000 DUP2 MSTORE POP PUSH1 0x40 MLOAD DUP1 PUSH1 0x40 ADD PUSH1 0x40 MSTORE DUP1 PUSH1 0x3 DUP2 MSTORE PUSH1 0x20 ADD PUSH32 0x4752590000000000000000000000000000000000000000000000000000000000 DUP2 MSTORE POP DUP2 PUSH0 SWAP1 DUP2 PUSH2 0xC4 SWAP2 SWAP1 PUSH2 0x474 JUMP JUMPDEST POP DUP1 PUSH1 0x1 SWAP1 DUP2 PUSH2 0xD4 SWAP2 SWAP1 PUSH2 0x474 JUMP JUMPDEST POP POP POP PUSH0 PUSH1 0xA PUSH0 PUSH2 0x100 EXP DUP2 SLOAD DUP2 PUSH1 0xFF MUL NOT AND SWAP1 DUP4 ISZERO ISZERO MUL OR SWAP1 SSTORE POP PUSH0 PUSH20 0xFFFFFFFFFFFFFFFFFFFFFFFFFFFFFFFFFFFFFFFF AND DUP2 PUSH20 0xFFFFFFFFFFFFFFFFFFFFFFFFFFFFFFFFFFFFFFFF AND SUB PUSH2 0x160 JUMPI PUSH0 PUSH1 0x40 MLOAD PUSH32 0x1E4FBDF700000000000000000000000000000000000000000000000000000000 DUP2 MSTORE PUSH1 0x4 ADD PUSH2 0x157 SWAP2 SWAP1 PUSH2 0x582 JUMP JUMPDEST PUSH1 0x40 MLOAD DUP1 SWAP2 SUB SWAP1 REVERT JUMPDEST PUSH2 0x16F DUP2 PUSH2 0x175 PUSH1 0x20 SHL PUSH1 0x20 SHR JUMP JUMPDEST POP PUSH2 0x59B JUMP JUMPDEST PUSH0 PUSH1 0xA PUSH1 0x1 SWAP1 SLOAD SWAP1 PUSH2 0x100 EXP SWAP1 DIV PUSH20 0xFFFFFFFFFFFFFFFFFFFFFFFFFFFFFFFFFFFFFFFF AND SWAP1 POP DUP2 PUSH1 0xA PUSH1 0x1 PUSH2 0x100 EXP DUP2 SLOAD DUP2 PUSH20 0xFFFFFFFFFFFFFFFFFFFFFFFFFFFFFFFFFFFFFFFF MUL NOT AND SWAP1 DUP4 PUSH20 0xFFFFFFFFFFFFFFFFFFFFFFFFFFFFFFFFFFFFFFFF AND MUL OR SWAP1 SSTORE POP DUP2 PUSH20 0xFFFFFFFFFFFFFFFFFFFFFFFFFFFFFFFFFFFFFFFF AND DUP2 PUSH20 0xFFFFFFFFFFFFFFFFFFFFFFFFFFFFFFFFFFFFFFFF AND PUSH32 0x8BE0079C531659141344CD1FD0A4F28419497F9722A3DAAFE3B4186F6B6457E0 PUSH1 0x40 MLOAD PUSH1 0x40 MLOAD DUP1 SWAP2 SUB SWAP1 LOG3 POP POP JUMP JUMPDEST PUSH0 DUP2 MLOAD SWAP1 POP SWAP2 SWAP1 POP JUMP JUMPDEST PUSH32 0x4E487B7100000000000000000000000000000000000000000000000000000000 PUSH0 MSTORE PUSH1 0x41 PUSH1 0x4 MSTORE PUSH1 0x24 PUSH0 REVERT JUMPDEST PUSH32 0x4E487B7100000000000000000000000000000000000000000000000000000000 PUSH0 MSTORE PUSH1 0x22 PUSH1 0x4 MSTORE PUSH1 0x24 PUSH0 REVERT JUMPDEST PUSH0 PUSH1 0x2 DUP3 DIV SWAP1 POP PUSH1 0x1 DUP3 AND DUP1 PUSH2 0x2B5 JUMPI PUSH1 0x7F DUP3 AND SWAP2 POP JUMPDEST PUSH1 0x20 DUP3 LT DUP2 SUB PUSH2 0x2C8 JUMPI PUSH2 0x2C7 PUSH2 0x271 JUMP JUMPDEST JUMPDEST POP SWAP2 SWAP1 POP JUMP JUMPDEST PUSH0 DUP2 SWAP1 POP DUP2 PUSH0 MSTORE PUSH1 0x20 PUSH0 KECCAK256 SWAP1 POP SWAP2 SWAP1 POP JUMP JUMPDEST PUSH0 PUSH1 0x20 PUSH1 0x1F DUP4 ADD DIV SWAP1 POP SWAP2 SWAP1 POP JUMP JUMPDEST PUSH0 DUP3 DUP3 SHL SWAP1 POP SWAP3 SWAP2 POP POP JUMP JUMPDEST PUSH0 PUSH1 0x8 DUP4 MUL PUSH2 0x32A PUSH32 0xFFFFFFFFFFFFFFFFFFFFFFFFFFFFFFFFFFFFFFFFFFFFFFFFFFFFFFFFFFFFFFFF DUP3 PUSH2 0x2EF JUMP JUMPDEST PUSH2 0x334 DUP7 DUP4 PUSH2 0x2EF JUMP JUMPDEST SWAP6 POP DUP1 NOT DUP5 AND SWAP4 POP DUP1 DUP7 AND DUP5 OR SWAP3 POP POP POP SWAP4 SWAP3 POP POP POP JUMP JUMPDEST PUSH0 DUP2 SWAP1 POP SWAP2 SWAP1 POP JUMP JUMPDEST PUSH0 DUP2 SWAP1 POP SWAP2 SWAP1 POP JUMP JUMPDEST PUSH0 PUSH2 0x378 PUSH2 0x373 PUSH2 0x36E DUP5 PUSH2 0x34C JUMP JUMPDEST PUSH2 0x355 JUMP JUMPDEST PUSH2 0x34C JUMP JUMPDEST SWAP1 POP SWAP2 SWAP1 POP JUMP JUMPDEST PUSH0 DUP2 SWAP1 POP SWAP2 SWAP1 POP JUMP JUMPDEST PUSH2 0x391 DUP4 PUSH2 0x35E JUMP JUMPDEST PUSH2 0x3A5 PUSH2 0x39D DUP3 PUSH2 0x37F JUMP JUMPDEST DUP5 DUP5 SLOAD PUSH2 0x2FB JUMP JUMPDEST DUP3 SSTORE POP POP POP POP JUMP JUMPDEST PUSH0 SWAP1 JUMP JUMPDEST PUSH2 0x3B9 PUSH2 0x3AD JUMP JUMPDEST PUSH2 0x3C4 DUP2 DUP5 DUP5 PUSH2 0x388 JUMP JUMPDEST POP POP POP JUMP JUMPDEST JUMPDEST DUP2 DUP2 LT ISZERO PUSH2 0x3E7 JUMPI PUSH2 0x3DC PUSH0 DUP3 PUSH2 0x3B1 JUMP JUMPDEST PUSH1 0x1 DUP2 ADD SWAP1 POP PUSH2 0x3CA JUMP JUMPDEST POP POP JUMP JUMPDEST PUSH1 0x1F DUP3 GT ISZERO PUSH2 0x42C JUMPI PUSH2 0x3FD DUP2 PUSH2 0x2CE JUMP JUMPDEST PUSH2 0x406 DUP5 PUSH2 0x2E0 JUMP JUMPDEST DUP2 ADD PUSH1 0x20 DUP6 LT ISZERO PUSH2 0x415 JUMPI DUP2 SWAP1 POP JUMPDEST PUSH2 0x429 PUSH2 0x421 DUP6 PUSH2 0x2E0 JUMP JUMPDEST DUP4 ADD DUP3 PUSH2 0x3C9 JUMP JUMPDEST POP POP JUMPDEST POP POP POP JUMP JUMPDEST PUSH0 DUP3 DUP3 SHR SWAP1 POP SWAP3 SWAP2 POP POP JUMP JUMPDEST PUSH0 PUSH2 0x44C PUSH0 NOT DUP5 PUSH1 0x8 MUL PUSH2 0x431 JUMP JUMPDEST NOT DUP1 DUP4 AND SWAP2 POP POP SWAP3 SWAP2 POP POP JUMP JUMPDEST PUSH0 PUSH2 0x464 DUP4 DUP4 PUSH2 0x43D JUMP JUMPDEST SWAP2 POP DUP3 PUSH1 0x2 MUL DUP3 OR SWAP1 POP SWAP3 SWAP2 POP POP JUMP JUMPDEST PUSH2 0x47D DUP3 PUSH2 0x23A JUMP JUMPDEST PUSH8 0xFFFFFFFFFFFFFFFF DUP2 GT ISZERO PUSH2 0x496 JUMPI PUSH2 0x495 PUSH2 0x244 JUMP JUMPDEST JUMPDEST PUSH2 0x4A0 DUP3 SLOAD PUSH2 0x29E JUMP JUMPDEST PUSH2 0x4AB DUP3 DUP3 DUP6 PUSH2 0x3EB JUMP JUMPDEST PUSH0 PUSH1 0x20 SWAP1 POP PUSH1 0x1F DUP4 GT PUSH1 0x1 DUP2 EQ PUSH2 0x4DC JUMPI PUSH0 DUP5 ISZERO PUSH2 0x4CA JUMPI DUP3 DUP8 ADD MLOAD SWAP1 POP JUMPDEST PUSH2 0x4D4 DUP6 DUP3 PUSH2 0x459 JUMP JUMPDEST DUP7 SSTORE POP PUSH2 0x53B JUMP JUMPDEST PUSH1 0x1F NOT DUP5 AND PUSH2 0x4EA DUP7 PUSH2 0x2CE JUMP JUMPDEST PUSH0 JUMPDEST DUP3 DUP2 LT ISZERO PUSH2 0x511 JUMPI DUP5 DUP10 ADD MLOAD DUP3 SSTORE PUSH1 0x1 DUP3 ADD SWAP2 POP PUSH1 0x20 DUP6 ADD SWAP5 POP PUSH1 0x20 DUP2 ADD SWAP1 POP PUSH2 0x4EC JUMP JUMPDEST DUP7 DUP4 LT ISZERO PUSH2 0x52E JUMPI DUP5 DUP10 ADD MLOAD PUSH2 0x52A PUSH1 0x1F DUP10 AND DUP3 PUSH2 0x43D JUMP JUMPDEST DUP4 SSTORE POP JUMPDEST PUSH1 0x1 PUSH1 0x2 DUP9 MUL ADD DUP9 SSTORE POP POP POP JUMPDEST POP POP POP POP POP POP JUMP JUMPDEST PUSH0 PUSH20 0xFFFFFFFFFFFFFFFFFFFFFFFFFFFFFFFFFFFFFFFF DUP3 AND SWAP1 POP SWAP2 SWAP1 POP JUMP JUMPDEST PUSH0 PUSH2 0x56C DUP3 PUSH2 0x543 JUMP JUMPDEST SWAP1 POP SWAP2 SWAP1 POP JUMP JUMPDEST PUSH2 0x57C DUP2 PUSH2 0x562 JUMP JUMPDEST DUP3 MSTORE POP POP JUMP JUMPDEST PUSH0 PUSH1 0x20 DUP3 ADD SWAP1 POP PUSH2 0x595 PUSH0 DUP4 ADD DUP5 PUSH2 0x573 JUMP JUMPDEST SWAP3 SWAP2 POP POP JUMP JUMPDEST PUSH2 0x31E4 DUP1 PUSH2 0x5A8 PUSH0 CODECOPY PUSH0 RETURN INVALID PUSH1 0x80 PUSH1 0x40 MSTORE PUSH1 0x4 CALLDATASIZE LT PUSH2 0x1C1 JUMPI PUSH0 CALLDATALOAD PUSH1 0xE0 SHR DUP1 PUSH4 0x51CFF8D9 GT PUSH2 0xF6 JUMPI DUP1 PUSH4 0x8DA5CB5B GT PUSH2 0x94 JUMPI DUP1 PUSH4 0xC87B56DD GT PUSH2 0x63 JUMPI DUP1 PUSH4 0xC87B56DD EQ PUSH2 0x5D1 JUMPI DUP1 PUSH4 0xD5ABEB01 EQ PUSH2 0x60D JUMPI DUP1 PUSH4 0xE985E9C5 EQ PUSH2 0x637 JUMPI DUP1 PUSH4 0xF2FDE38B EQ PUSH2 0x673 JUMPI PUSH2 0x1C1 JUMP JUMPDEST DUP1 PUSH4 0x8DA5CB5B EQ PUSH2 0x52D JUMPI DUP1 PUSH4 0x95D89B41 EQ PUSH2 0x557 JUMPI DUP1 PUSH4 0xA22CB465 EQ PUSH2 0x581 JUMPI DUP1 PUSH4 0xB88D4FDE EQ PUSH2 0x5A9 JUMPI PUSH2 0x1C1 JUMP JUMPDEST DUP1 PUSH4 0x6447C35D GT PUSH2 0xD0 JUMPI DUP1 PUSH4 0x6447C35D EQ PUSH2 0x49D JUMPI DUP1 PUSH4 0x70A08231 EQ PUSH2 0x4C5 JUMPI DUP1 PUSH4 0x715018A6 EQ PUSH2 0x501 JUMPI DUP1 PUSH4 0x8456CB59 EQ PUSH2 0x517 JUMPI PUSH2 0x1C1 JUMP JUMPDEST DUP1 PUSH4 0x51CFF8D9 EQ PUSH2 0x40F JUMPI DUP1 PUSH4 0x5C975ABB EQ PUSH2 0x437 JUMPI DUP1 PUSH4 0x6352211E EQ PUSH2 0x461 JUMPI PUSH2 0x1C1 JUMP JUMPDEST DUP1 PUSH4 0x26092B83 GT PUSH2 0x163 JUMPI DUP1 PUSH4 0x2F745C59 GT PUSH2 0x13D JUMPI DUP1 PUSH4 0x2F745C59 EQ PUSH2 0x359 JUMPI DUP1 PUSH4 0x3F4BA83A EQ PUSH2 0x395 JUMPI DUP1 PUSH4 0x42842E0E EQ PUSH2 0x3AB JUMPI DUP1 PUSH4 0x4F6CCCE7 EQ PUSH2 0x3D3 JUMPI PUSH2 0x1C1 JUMP JUMPDEST DUP1 PUSH4 0x26092B83 EQ PUSH2 0x2EB JUMPI DUP1 PUSH4 0x2848AEAF EQ PUSH2 0x2F5 JUMPI DUP1 PUSH4 0x2F48DE79 EQ PUSH2 0x331 JUMPI PUSH2 0x1C1 JUMP JUMPDEST DUP1 PUSH4 0x95EA7B3 GT PUSH2 0x19F JUMPI DUP1 PUSH4 0x95EA7B3 EQ PUSH2 0x267 JUMPI DUP1 PUSH4 0x102A6A73 EQ PUSH2 0x28F JUMPI DUP1 PUSH4 0x18160DDD EQ PUSH2 0x299 JUMPI DUP1 PUSH4 0x23B872DD EQ PUSH2 0x2C3 JUMPI PUSH2 0x1C1 JUMP JUMPDEST DUP1 PUSH4 0x1FFC9A7 EQ PUSH2 0x1C5 JUMPI DUP1 PUSH4 0x6FDDE03 EQ PUSH2 0x201 JUMPI DUP1 PUSH4 0x81812FC EQ PUSH2 0x22B JUMPI JUMPDEST PUSH0 DUP1 REVERT JUMPDEST CALLVALUE DUP1 ISZERO PUSH2 0x1D0 JUMPI PUSH0 DUP1 REVERT JUMPDEST POP PUSH2 0x1EB PUSH1 0x4 DUP1 CALLDATASIZE SUB DUP2 ADD SWAP1 PUSH2 0x1E6 SWAP2 SWAP1 PUSH2 0x266A JUMP JUMPDEST PUSH2 0x69B JUMP JUMPDEST PUSH1 0x40 MLOAD PUSH2 0x1F8 SWAP2 SWAP1 PUSH2 0x26AF JUMP JUMPDEST PUSH1 0x40 MLOAD DUP1 SWAP2 SUB SWAP1 RETURN JUMPDEST CALLVALUE DUP1 ISZERO PUSH2 0x20C JUMPI PUSH0 DUP1 REVERT JUMPDEST POP PUSH2 0x215 PUSH2 0x6AC JUMP JUMPDEST PUSH1 0x40 MLOAD PUSH2 0x222 SWAP2 SWAP1 PUSH2 0x2738 JUMP JUMPDEST PUSH1 0x40 MLOAD DUP1 SWAP2 SUB SWAP1 RETURN JUMPDEST CALLVALUE DUP1 ISZERO PUSH2 0x236 JUMPI PUSH0 DUP1 REVERT JUMPDEST POP PUSH2 0x251 PUSH1 0x4 DUP1 CALLDATASIZE SUB DUP2 ADD SWAP1 PUSH2 0x24C SWAP2 SWAP1 PUSH2 0x278B JUMP JUMPDEST PUSH2 0x73B JUMP JUMPDEST PUSH1 0x40 MLOAD PUSH2 0x25E SWAP2 SWAP1 PUSH2 0x27F5 JUMP JUMPDEST PUSH1 0x40 MLOAD DUP1 SWAP2 SUB SWAP1 RETURN JUMPDEST CALLVALUE DUP1 ISZERO PUSH2 0x272 JUMPI PUSH0 DUP1 REVERT JUMPDEST POP PUSH2 0x28D PUSH1 0x4 DUP1 CALLDATASIZE SUB DUP2 ADD SWAP1 PUSH2 0x288 SWAP2 SWAP1 PUSH2 0x2838 JUMP JUMPDEST PUSH2 0x756 JUMP JUMPDEST STOP JUMPDEST PUSH2 0x297 PUSH2 0x76C JUMP JUMPDEST STOP JUMPDEST CALLVALUE DUP1 ISZERO PUSH2 0x2A4 JUMPI PUSH0 DUP1 REVERT JUMPDEST POP PUSH2 0x2AD PUSH2 0x897 JUMP JUMPDEST PUSH1 0x40 MLOAD PUSH2 0x2BA SWAP2 SWAP1 PUSH2 0x2885 JUMP JUMPDEST PUSH1 0x40 MLOAD DUP1 SWAP2 SUB SWAP1 RETURN JUMPDEST CALLVALUE DUP1 ISZERO PUSH2 0x2CE JUMPI PUSH0 DUP1 REVERT JUMPDEST POP PUSH2 0x2E9 PUSH1 0x4 DUP1 CALLDATASIZE SUB DUP2 ADD SWAP1 PUSH2 0x2E4 SWAP2 SWAP1 PUSH2 0x289E JUMP JUMPDEST PUSH2 0x8A3 JUMP JUMPDEST STOP JUMPDEST PUSH2 0x2F3 PUSH2 0x9A2 JUMP JUMPDEST STOP JUMPDEST CALLVALUE DUP1 ISZERO PUSH2 0x300 JUMPI PUSH0 DUP1 REVERT JUMPDEST POP PUSH2 0x31B PUSH1 0x4 DUP1 CALLDATASIZE SUB DUP2 ADD SWAP1 PUSH2 0x316 SWAP2 SWAP1 PUSH2 0x28EE JUMP JUMPDEST PUSH2 0xA43 JUMP JUMPDEST PUSH1 0x40 MLOAD PUSH2 0x328 SWAP2 SWAP1 PUSH2 0x26AF JUMP JUMPDEST PUSH1 0x40 MLOAD DUP1 SWAP2 SUB SWAP1 RETURN JUMPDEST CALLVALUE DUP1 ISZERO PUSH2 0x33C JUMPI PUSH0 DUP1 REVERT JUMPDEST POP PUSH2 0x357 PUSH1 0x4 DUP1 CALLDATASIZE SUB DUP2 ADD SWAP1 PUSH2 0x352 SWAP2 SWAP1 PUSH2 0x2943 JUMP JUMPDEST PUSH2 0xA60 JUMP JUMPDEST STOP JUMPDEST CALLVALUE DUP1 ISZERO PUSH2 0x364 JUMPI PUSH0 DUP1 REVERT JUMPDEST POP PUSH2 0x37F PUSH1 0x4 DUP1 CALLDATASIZE SUB DUP2 ADD SWAP1 PUSH2 0x37A SWAP2 SWAP1 PUSH2 0x2838 JUMP JUMPDEST PUSH2 0xA9F JUMP JUMPDEST PUSH1 0x40 MLOAD PUSH2 0x38C SWAP2 SWAP1 PUSH2 0x2885 JUMP JUMPDEST PUSH1 0x40 MLOAD DUP1 SWAP2 SUB SWAP1 RETURN JUMPDEST CALLVALUE DUP1 ISZERO PUSH2 0x3A0 JUMPI PUSH0 DUP1 REVERT JUMPDEST POP PUSH2 0x3A9 PUSH2 0xB43 JUMP JUMPDEST STOP JUMPDEST CALLVALUE DUP1 ISZERO PUSH2 0x3B6 JUMPI PUSH0 DUP1 REVERT JUMPDEST POP PUSH2 0x3D1 PUSH1 0x4 DUP1 CALLDATASIZE SUB DUP2 ADD SWAP1 PUSH2 0x3CC SWAP2 SWAP1 PUSH2 0x289E JUMP JUMPDEST PUSH2 0xB55 JUMP JUMPDEST STOP JUMPDEST CALLVALUE DUP1 ISZERO PUSH2 0x3DE JUMPI PUSH0 DUP1 REVERT JUMPDEST POP PUSH2 0x3F9 PUSH1 0x4 DUP1 CALLDATASIZE SUB DUP2 ADD SWAP1 PUSH2 0x3F4 SWAP2 SWAP1 PUSH2 0x278B JUMP JUMPDEST PUSH2 0xB74 JUMP JUMPDEST PUSH1 0x40 MLOAD PUSH2 0x406 SWAP2 SWAP1 PUSH2 0x2885 JUMP JUMPDEST PUSH1 0x40 MLOAD DUP1 SWAP2 SUB SWAP1 RETURN JUMPDEST CALLVALUE DUP1 ISZERO PUSH2 0x41A JUMPI PUSH0 DUP1 REVERT JUMPDEST POP PUSH2 0x435 PUSH1 0x4 DUP1 CALLDATASIZE SUB DUP2 ADD SWAP1 PUSH2 0x430 SWAP2 SWAP1 PUSH2 0x28EE JUMP JUMPDEST PUSH2 0xBE6 JUMP JUMPDEST STOP JUMPDEST CALLVALUE DUP1 ISZERO PUSH2 0x442 JUMPI PUSH0 DUP1 REVERT JUMPDEST POP PUSH2 0x44B PUSH2 0xC35 JUMP JUMPDEST PUSH1 0x40 MLOAD PUSH2 0x458 SWAP2 SWAP1 PUSH2 0x26AF JUMP JUMPDEST PUSH1 0x40 MLOAD DUP1 SWAP2 SUB SWAP1 RETURN JUMPDEST CALLVALUE DUP1 ISZERO PUSH2 0x46C JUMPI PUSH0 DUP1 REVERT JUMPDEST POP PUSH2 0x487 PUSH1 0x4 DUP1 CALLDATASIZE SUB DUP2 ADD SWAP1 PUSH2 0x482 SWAP2 SWAP1 PUSH2 0x278B JUMP JUMPDEST PUSH2 0xC4A JUMP JUMPDEST PUSH1 0x40 MLOAD PUSH2 0x494 SWAP2 SWAP1 PUSH2 0x27F5 JUMP JUMPDEST PUSH1 0x40 MLOAD DUP1 SWAP2 SUB SWAP1 RETURN JUMPDEST CALLVALUE DUP1 ISZERO PUSH2 0x4A8 JUMPI PUSH0 DUP1 REVERT JUMPDEST POP PUSH2 0x4C3 PUSH1 0x4 DUP1 CALLDATASIZE SUB DUP2 ADD SWAP1 PUSH2 0x4BE SWAP2 SWAP1 PUSH2 0x29E2 JUMP JUMPDEST PUSH2 0xC5B JUMP JUMPDEST STOP JUMPDEST CALLVALUE DUP1 ISZERO PUSH2 0x4D0 JUMPI PUSH0 DUP1 REVERT JUMPDEST POP PUSH2 0x4EB PUSH1 0x4 DUP1 CALLDATASIZE SUB DUP2 ADD SWAP1 PUSH2 0x4E6 SWAP2 SWAP1 PUSH2 0x28EE JUMP JUMPDEST PUSH2 0xCFE JUMP JUMPDEST PUSH1 0x40 MLOAD PUSH2 0x4F8 SWAP2 SWAP1 PUSH2 0x2885 JUMP JUMPDEST PUSH1 0x40 MLOAD DUP1 SWAP2 SUB SWAP1 RETURN JUMPDEST CALLVALUE DUP1 ISZERO PUSH2 0x50C JUMPI PUSH0 DUP1 REVERT JUMPDEST POP PUSH2 0x515 PUSH2 0xDB4 JUMP JUMPDEST STOP JUMPDEST CALLVALUE DUP1 ISZERO PUSH2 0x522 JUMPI PUSH0 DUP1 REVERT JUMPDEST POP PUSH2 0x52B PUSH2 0xDC7 JUMP JUMPDEST STOP JUMPDEST CALLVALUE DUP1 ISZERO PUSH2 0x538 JUMPI PUSH0 DUP1 REVERT JUMPDEST POP PUSH2 0x541 PUSH2 0xDD9 JUMP JUMPDEST PUSH1 0x40 MLOAD PUSH2 0x54E SWAP2 SWAP1 PUSH2 0x27F5 JUMP JUMPDEST PUSH1 0x40 MLOAD DUP1 SWAP2 SUB SWAP1 RETURN JUMPDEST CALLVALUE DUP1 ISZERO PUSH2 0x562 JUMPI PUSH0 DUP1 REVERT JUMPDEST POP PUSH2 0x56B PUSH2 0xE02 JUMP JUMPDEST PUSH1 0x40 MLOAD PUSH2 0x578 SWAP2 SWAP1 PUSH2 0x2738 JUMP JUMPDEST PUSH1 0x40 MLOAD DUP1 SWAP2 SUB SWAP1 RETURN JUMPDEST CALLVALUE DUP1 ISZERO PUSH2 0x58C JUMPI PUSH0 DUP1 REVERT JUMPDEST POP PUSH2 0x5A7 PUSH1 0x4 DUP1 CALLDATASIZE SUB DUP2 ADD SWAP1 PUSH2 0x5A2 SWAP2 SWAP1 PUSH2 0x2A2D JUMP JUMPDEST PUSH2 0xE92 JUMP JUMPDEST STOP JUMPDEST CALLVALUE DUP1 ISZERO PUSH2 0x5B4 JUMPI PUSH0 DUP1 REVERT JUMPDEST POP PUSH2 0x5CF PUSH1 0x4 DUP1 CALLDATASIZE SUB DUP2 ADD SWAP1 PUSH2 0x5CA SWAP2 SWAP1 PUSH2 0x2B93 JUMP JUMPDEST PUSH2 0xEA8 JUMP JUMPDEST STOP JUMPDEST CALLVALUE DUP1 ISZERO PUSH2 0x5DC JUMPI PUSH0 DUP1 REVERT JUMPDEST POP PUSH2 0x5F7 PUSH1 0x4 DUP1 CALLDATASIZE SUB DUP2 ADD SWAP1 PUSH2 0x5F2 SWAP2 SWAP1 PUSH2 0x278B JUMP JUMPDEST PUSH2 0xEC5 JUMP JUMPDEST PUSH1 0x40 MLOAD PUSH2 0x604 SWAP2 SWAP1 PUSH2 0x2738 JUMP JUMPDEST PUSH1 0x40 MLOAD DUP1 SWAP2 SUB SWAP1 RETURN JUMPDEST CALLVALUE DUP1 ISZERO PUSH2 0x618 JUMPI PUSH0 DUP1 REVERT JUMPDEST POP PUSH2 0x621 PUSH2 0xF2B JUMP JUMPDEST PUSH1 0x40 MLOAD PUSH2 0x62E SWAP2 SWAP1 PUSH2 0x2885 JUMP JUMPDEST PUSH1 0x40 MLOAD DUP1 SWAP2 SUB SWAP1 RETURN JUMPDEST CALLVALUE DUP1 ISZERO PUSH2 0x642 JUMPI PUSH0 DUP1 REVERT JUMPDEST POP PUSH2 0x65D PUSH1 0x4 DUP1 CALLDATASIZE SUB DUP2 ADD SWAP1 PUSH2 0x658 SWAP2 SWAP1 PUSH2 0x2C13 JUMP JUMPDEST PUSH2 0xF31 JUMP JUMPDEST PUSH1 0x40 MLOAD PUSH2 0x66A SWAP2 SWAP1 PUSH2 0x26AF JUMP JUMPDEST PUSH1 0x40 MLOAD DUP1 SWAP2 SUB SWAP1 RETURN JUMPDEST CALLVALUE DUP1 ISZERO PUSH2 0x67E JUMPI PUSH0 DUP1 REVERT JUMPDEST POP PUSH2 0x699 PUSH1 0x4 DUP1 CALLDATASIZE SUB DUP2 ADD SWAP1 PUSH2 0x694 SWAP2 SWAP1 PUSH2 0x28EE JUMP JUMPDEST PUSH2 0xFBF JUMP JUMPDEST STOP JUMPDEST PUSH0 PUSH2 0x6A5 DUP3 PUSH2 0x1043 JUMP JUMPDEST SWAP1 POP SWAP2 SWAP1 POP JUMP JUMPDEST PUSH1 0x60 PUSH0 DUP1 SLOAD PUSH2 0x6BA SWAP1 PUSH2 0x2C7E JUMP JUMPDEST DUP1 PUSH1 0x1F ADD PUSH1 0x20 DUP1 SWAP2 DIV MUL PUSH1 0x20 ADD PUSH1 0x40 MLOAD SWAP1 DUP2 ADD PUSH1 0x40 MSTORE DUP1 SWAP3 SWAP2 SWAP1 DUP2 DUP2 MSTORE PUSH1 0x20 ADD DUP3 DUP1 SLOAD PUSH2 0x6E6 SWAP1 PUSH2 0x2C7E JUMP JUMPDEST DUP1 ISZERO PUSH2 0x731 JUMPI DUP1 PUSH1 0x1F LT PUSH2 0x708 JUMPI PUSH2 0x100 DUP1 DUP4 SLOAD DIV MUL DUP4 MSTORE SWAP2 PUSH1 0x20 ADD SWAP2 PUSH2 0x731 JUMP JUMPDEST DUP3 ADD SWAP2 SWAP1 PUSH0 MSTORE PUSH1 0x20 PUSH0 KECCAK256 SWAP1 JUMPDEST DUP2 SLOAD DUP2 MSTORE SWAP1 PUSH1 0x1 ADD SWAP1 PUSH1 0x20 ADD DUP1 DUP4 GT PUSH2 0x714 JUMPI DUP3 SWAP1 SUB PUSH1 0x1F AND DUP3 ADD SWAP2 JUMPDEST POP POP POP POP POP SWAP1 POP SWAP1 JUMP JUMPDEST PUSH0 PUSH2 0x745 DUP3 PUSH2 0x10BC JUMP JUMPDEST POP PUSH2 0x74F DUP3 PUSH2 0x1142 JUMP JUMPDEST SWAP1 POP SWAP2 SWAP1 POP JUMP JUMPDEST PUSH2 0x768 DUP3 DUP3 PUSH2 0x763 PUSH2 0x117B JUMP JUMPDEST PUSH2 0x1182 JUMP JUMPDEST POP POP JUMP JUMPDEST PUSH1 0xE PUSH1 0x1 SWAP1 SLOAD SWAP1 PUSH2 0x100 EXP SWAP1 DIV PUSH1 0xFF AND PUSH2 0x7BB JUMPI PUSH1 0x40 MLOAD PUSH32 0x8C379A000000000000000000000000000000000000000000000000000000000 DUP2 MSTORE PUSH1 0x4 ADD PUSH2 0x7B2 SWAP1 PUSH2 0x2CF8 JUMP JUMPDEST PUSH1 0x40 MLOAD DUP1 SWAP2 SUB SWAP1 REVERT JUMPDEST PUSH1 0xD PUSH0 CALLER PUSH20 0xFFFFFFFFFFFFFFFFFFFFFFFFFFFFFFFFFFFFFFFF AND PUSH20 0xFFFFFFFFFFFFFFFFFFFFFFFFFFFFFFFFFFFFFFFF AND DUP2 MSTORE PUSH1 0x20 ADD SWAP1 DUP2 MSTORE PUSH1 0x20 ADD PUSH0 KECCAK256 PUSH0 SWAP1 SLOAD SWAP1 PUSH2 0x100 EXP SWAP1 DIV PUSH1 0xFF AND PUSH2 0x844 JUMPI PUSH1 0x40 MLOAD PUSH32 0x8C379A000000000000000000000000000000000000000000000000000000000 DUP2 MSTORE PUSH1 0x4 ADD PUSH2 0x83B SWAP1 PUSH2 0x2D60 JUMP JUMPDEST PUSH1 0x40 MLOAD DUP1 SWAP2 SUB SWAP1 REVERT JUMPDEST PUSH7 0x38D7EA4C68000 CALLVALUE EQ PUSH2 0x88D JUMPI PUSH1 0x40 MLOAD PUSH32 0x8C379A000000000000000000000000000000000000000000000000000000000 DUP2 MSTORE PUSH1 0x4 ADD PUSH2 0x884 SWAP1 PUSH2 0x2DC8 JUMP JUMPDEST PUSH1 0x40 MLOAD DUP1 SWAP2 SUB SWAP1 REVERT JUMPDEST PUSH2 0x895 PUSH2 0x1194 JUMP JUMPDEST JUMP JUMPDEST PUSH0 PUSH1 0x8 DUP1 SLOAD SWAP1 POP SWAP1 POP SWAP1 JUMP JUMPDEST PUSH0 PUSH20 0xFFFFFFFFFFFFFFFFFFFFFFFFFFFFFFFFFFFFFFFF AND DUP3 PUSH20 0xFFFFFFFFFFFFFFFFFFFFFFFFFFFFFFFFFFFFFFFF AND SUB PUSH2 0x913 JUMPI PUSH0 PUSH1 0x40 MLOAD PUSH32 0x64A0AE9200000000000000000000000000000000000000000000000000000000 DUP2 MSTORE PUSH1 0x4 ADD PUSH2 0x90A SWAP2 SWAP1 PUSH2 0x27F5 JUMP JUMPDEST PUSH1 0x40 MLOAD DUP1 SWAP2 SUB SWAP1 REVERT JUMPDEST PUSH0 PUSH2 0x926 DUP4 DUP4 PUSH2 0x921 PUSH2 0x117B JUMP JUMPDEST PUSH2 0x1205 JUMP JUMPDEST SWAP1 POP DUP4 PUSH20 0xFFFFFFFFFFFFFFFFFFFFFFFFFFFFFFFFFFFFFFFF AND DUP2 PUSH20 0xFFFFFFFFFFFFFFFFFFFFFFFFFFFFFFFFFFFFFFFF AND EQ PUSH2 0x99C JUMPI DUP4 DUP3 DUP3 PUSH1 0x40 MLOAD PUSH32 0x64283D7B00000000000000000000000000000000000000000000000000000000 DUP2 MSTORE PUSH1 0x4 ADD PUSH2 0x993 SWAP4 SWAP3 SWAP2 SWAP1 PUSH2 0x2DE6 JUMP JUMPDEST PUSH1 0x40 MLOAD DUP1 SWAP2 SUB SWAP1 REVERT JUMPDEST POP POP POP POP JUMP JUMPDEST PUSH1 0xE PUSH0 SWAP1 SLOAD SWAP1 PUSH2 0x100 EXP SWAP1 DIV PUSH1 0xFF AND PUSH2 0x9F0 JUMPI PUSH1 0x40 MLOAD PUSH32 0x8C379A000000000000000000000000000000000000000000000000000000000 DUP2 MSTORE PUSH1 0x4 ADD PUSH2 0x9E7 SWAP1 PUSH2 0x2E65 JUMP JUMPDEST PUSH1 0x40 MLOAD DUP1 SWAP2 SUB SWAP1 REVERT JUMPDEST PUSH7 0x2386F26FC10000 CALLVALUE EQ PUSH2 0xA39 JUMPI PUSH1 0x40 MLOAD PUSH32 0x8C379A000000000000000000000000000000000000000000000000000000000 DUP2 MSTORE PUSH1 0x4 ADD PUSH2 0xA30 SWAP1 PUSH2 0x2DC8 JUMP JUMPDEST PUSH1 0x40 MLOAD DUP1 SWAP2 SUB SWAP1 REVERT JUMPDEST PUSH2 0xA41 PUSH2 0x1194 JUMP JUMPDEST JUMP JUMPDEST PUSH1 0xD PUSH1 0x20 MSTORE DUP1 PUSH0 MSTORE PUSH1 0x40 PUSH0 KECCAK256 PUSH0 SWAP2 POP SLOAD SWAP1 PUSH2 0x100 EXP SWAP1 DIV PUSH1 0xFF AND DUP2 JUMP JUMPDEST PUSH2 0xA68 PUSH2 0x121A JUMP JUMPDEST DUP2 PUSH1 0xE PUSH0 PUSH2 0x100 EXP DUP2 SLOAD DUP2 PUSH1 0xFF MUL NOT AND SWAP1 DUP4 ISZERO ISZERO MUL OR SWAP1 SSTORE POP DUP1 PUSH1 0xE PUSH1 0x1 PUSH2 0x100 EXP DUP2 SLOAD DUP2 PUSH1 0xFF MUL NOT AND SWAP1 DUP4 ISZERO ISZERO MUL OR SWAP1 SSTORE POP POP POP JUMP JUMPDEST PUSH0 PUSH2 0xAA9 DUP4 PUSH2 0xCFE JUMP JUMPDEST DUP3 LT PUSH2 0xAEE JUMPI DUP3 DUP3 PUSH1 0x40 MLOAD PUSH32 0xA57D13DC00000000000000000000000000000000000000000000000000000000 DUP2 MSTORE PUSH1 0x4 ADD PUSH2 0xAE5 SWAP3 SWAP2 SWAP1 PUSH2 0x2E83 JUMP JUMPDEST PUSH1 0x40 MLOAD DUP1 SWAP2 SUB SWAP1 REVERT JUMPDEST PUSH1 0x6 PUSH0 DUP5 PUSH20 0xFFFFFFFFFFFFFFFFFFFFFFFFFFFFFFFFFFFFFFFF AND PUSH20 0xFFFFFFFFFFFFFFFFFFFFFFFFFFFFFFFFFFFFFFFF AND DUP2 MSTORE PUSH1 0x20 ADD SWAP1 DUP2 MSTORE PUSH1 0x20 ADD PUSH0 KECCAK256 PUSH0 DUP4 DUP2 MSTORE PUSH1 0x20 ADD SWAP1 DUP2 MSTORE PUSH1 0x20 ADD PUSH0 KECCAK256 SLOAD SWAP1 POP SWAP3 SWAP2 POP POP JUMP JUMPDEST PUSH2 0xB4B PUSH2 0x121A JUMP JUMPDEST PUSH2 0xB53 PUSH2 0x12A1 JUMP JUMPDEST JUMP JUMPDEST PUSH2 0xB6F DUP4 DUP4 DUP4 PUSH1 0x40 MLOAD DUP1 PUSH1 0x20 ADD PUSH1 0x40 MSTORE DUP1 PUSH0 DUP2 MSTORE POP PUSH2 0xEA8 JUMP JUMPDEST POP POP POP JUMP JUMPDEST PUSH0 PUSH2 0xB7D PUSH2 0x897 JUMP JUMPDEST DUP3 LT PUSH2 0xBC2 JUMPI PUSH0 DUP3 PUSH1 0x40 MLOAD PUSH32 0xA57D13DC00000000000000000000000000000000000000000000000000000000 DUP2 MSTORE PUSH1 0x4 ADD PUSH2 0xBB9 SWAP3 SWAP2 SWAP1 PUSH2 0x2E83 JUMP JUMPDEST PUSH1 0x40 MLOAD DUP1 SWAP2 SUB SWAP1 REVERT JUMPDEST PUSH1 0x8 DUP3 DUP2 SLOAD DUP2 LT PUSH2 0xBD6 JUMPI PUSH2 0xBD5 PUSH2 0x2EAA JUMP JUMPDEST JUMPDEST SWAP1 PUSH0 MSTORE PUSH1 0x20 PUSH0 KECCAK256 ADD SLOAD SWAP1 POP SWAP2 SWAP1 POP JUMP JUMPDEST PUSH2 0xBEE PUSH2 0x121A JUMP JUMPDEST DUP1 PUSH20 0xFFFFFFFFFFFFFFFFFFFFFFFFFFFFFFFFFFFFFFFF AND PUSH2 0x8FC SELFBALANCE SWAP1 DUP2 ISZERO MUL SWAP1 PUSH1 0x40 MLOAD PUSH0 PUSH1 0x40 MLOAD DUP1 DUP4 SUB DUP2 DUP6 DUP9 DUP9 CALL SWAP4 POP POP POP POP ISZERO DUP1 ISZERO PUSH2 0xC31 JUMPI RETURNDATASIZE PUSH0 DUP1 RETURNDATACOPY RETURNDATASIZE PUSH0 REVERT JUMPDEST POP POP JUMP JUMPDEST PUSH0 PUSH1 0xA PUSH0 SWAP1 SLOAD SWAP1 PUSH2 0x100 EXP SWAP1 DIV PUSH1 0xFF AND SWAP1 POP SWAP1 JUMP JUMPDEST PUSH0 PUSH2 0xC54 DUP3 PUSH2 0x10BC JUMP JUMPDEST SWAP1 POP SWAP2 SWAP1 POP JUMP JUMPDEST PUSH2 0xC63 PUSH2 0x121A JUMP JUMPDEST PUSH0 JUMPDEST DUP3 DUP3 SWAP1 POP DUP2 LT ISZERO PUSH2 0xCF9 JUMPI PUSH1 0x1 PUSH1 0xD PUSH0 DUP6 DUP6 DUP6 DUP2 DUP2 LT PUSH2 0xC88 JUMPI PUSH2 0xC87 PUSH2 0x2EAA JUMP JUMPDEST JUMPDEST SWAP1 POP PUSH1 0x20 MUL ADD PUSH1 0x20 DUP2 ADD SWAP1 PUSH2 0xC9D SWAP2 SWAP1 PUSH2 0x28EE JUMP JUMPDEST PUSH20 0xFFFFFFFFFFFFFFFFFFFFFFFFFFFFFFFFFFFFFFFF AND PUSH20 0xFFFFFFFFFFFFFFFFFFFFFFFFFFFFFFFFFFFFFFFF AND DUP2 MSTORE PUSH1 0x20 ADD SWAP1 DUP2 MSTORE PUSH1 0x20 ADD PUSH0 KECCAK256 PUSH0 PUSH2 0x100 EXP DUP2 SLOAD DUP2 PUSH1 0xFF MUL NOT AND SWAP1 DUP4 ISZERO ISZERO MUL OR SWAP1 SSTORE POP DUP1 DUP1 PUSH1 0x1 ADD SWAP2 POP POP PUSH2 0xC65 JUMP JUMPDEST POP POP POP JUMP JUMPDEST PUSH0 DUP1 PUSH20 0xFFFFFFFFFFFFFFFFFFFFFFFFFFFFFFFFFFFFFFFF AND DUP3 PUSH20 0xFFFFFFFFFFFFFFFFFFFFFFFFFFFFFFFFFFFFFFFF AND SUB PUSH2 0xD6F JUMPI PUSH0 PUSH1 0x40 MLOAD PUSH32 0x89C62B6400000000000000000000000000000000000000000000000000000000 DUP2 MSTORE PUSH1 0x4 ADD PUSH2 0xD66 SWAP2 SWAP1 PUSH2 0x27F5 JUMP JUMPDEST PUSH1 0x40 MLOAD DUP1 SWAP2 SUB SWAP1 REVERT JUMPDEST PUSH1 0x3 PUSH0 DUP4 PUSH20 0xFFFFFFFFFFFFFFFFFFFFFFFFFFFFFFFFFFFFFFFF AND PUSH20 0xFFFFFFFFFFFFFFFFFFFFFFFFFFFFFFFFFFFFFFFF AND DUP2 MSTORE PUSH1 0x20 ADD SWAP1 DUP2 MSTORE PUSH1 0x20 ADD PUSH0 KECCAK256 SLOAD SWAP1 POP SWAP2 SWAP1 POP JUMP JUMPDEST PUSH2 0xDBC PUSH2 0x121A JUMP JUMPDEST PUSH2 0xDC5 PUSH0 PUSH2 0x1302 JUMP JUMPDEST JUMP JUMPDEST PUSH2 0xDCF PUSH2 0x121A JUMP JUMPDEST PUSH2 0xDD7 PUSH2 0x13C7 JUMP JUMPDEST JUMP JUMPDEST PUSH0 PUSH1 0xA PUSH1 0x1 SWAP1 SLOAD SWAP1 PUSH2 0x100 EXP SWAP1 DIV PUSH20 0xFFFFFFFFFFFFFFFFFFFFFFFFFFFFFFFFFFFFFFFF AND SWAP1 POP SWAP1 JUMP JUMPDEST PUSH1 0x60 PUSH1 0x1 DUP1 SLOAD PUSH2 0xE11 SWAP1 PUSH2 0x2C7E JUMP JUMPDEST DUP1 PUSH1 0x1F ADD PUSH1 0x20 DUP1 SWAP2 DIV MUL PUSH1 0x20 ADD PUSH1 0x40 MLOAD SWAP1 DUP2 ADD PUSH1 0x40 MSTORE DUP1 SWAP3 SWAP2 SWAP1 DUP2 DUP2 MSTORE PUSH1 0x20 ADD DUP3 DUP1 SLOAD PUSH2 0xE3D SWAP1 PUSH2 0x2C7E JUMP JUMPDEST DUP1 ISZERO PUSH2 0xE88 JUMPI DUP1 PUSH1 0x1F LT PUSH2 0xE5F JUMPI PUSH2 0x100 DUP1 DUP4 SLOAD DIV MUL DUP4 MSTORE SWAP2 PUSH1 0x20 ADD SWAP2 PUSH2 0xE88 JUMP JUMPDEST DUP3 ADD SWAP2 SWAP1 PUSH0 MSTORE PUSH1 0x20 PUSH0 KECCAK256 SWAP1 JUMPDEST DUP2 SLOAD DUP2 MSTORE SWAP1 PUSH1 0x1 ADD SWAP1 PUSH1 0x20 ADD DUP1 DUP4 GT PUSH2 0xE6B JUMPI DUP3 SWAP1 SUB PUSH1 0x1F AND DUP3 ADD SWAP2 JUMPDEST POP POP POP POP POP SWAP1 POP SWAP1 JUMP JUMPDEST PUSH2 0xEA4 PUSH2 0xE9D PUSH2 0x117B JUMP JUMPDEST DUP4 DUP4 PUSH2 0x1429 JUMP JUMPDEST POP POP JUMP JUMPDEST PUSH2 0xEB3 DUP5 DUP5 DUP5 PUSH2 0x8A3 JUMP JUMPDEST PUSH2 0xEBF DUP5 DUP5 DUP5 DUP5 PUSH2 0x1592 JUMP JUMPDEST POP POP POP POP JUMP JUMPDEST PUSH1 0x60 PUSH2 0xED0 DUP3 PUSH2 0x10BC JUMP JUMPDEST POP PUSH0 PUSH2 0xEDA PUSH2 0x1744 JUMP JUMPDEST SWAP1 POP PUSH0 DUP2 MLOAD GT PUSH2 0xEF8 JUMPI PUSH1 0x40 MLOAD DUP1 PUSH1 0x20 ADD PUSH1 0x40 MSTORE DUP1 PUSH0 DUP2 MSTORE POP PUSH2 0xF23 JUMP JUMPDEST DUP1 PUSH2 0xF02 DUP5 PUSH2 0x1764 JUMP JUMPDEST PUSH1 0x40 MLOAD PUSH1 0x20 ADD PUSH2 0xF13 SWAP3 SWAP2 SWAP1 PUSH2 0x2F11 JUMP JUMPDEST PUSH1 0x40 MLOAD PUSH1 0x20 DUP2 DUP4 SUB SUB DUP2 MSTORE SWAP1 PUSH1 0x40 MSTORE JUMPDEST SWAP2 POP POP SWAP2 SWAP1 POP JUMP JUMPDEST PUSH1 0xC SLOAD DUP2 JUMP JUMPDEST PUSH0 PUSH1 0x5 PUSH0 DUP5 PUSH20 0xFFFFFFFFFFFFFFFFFFFFFFFFFFFFFFFFFFFFFFFF AND PUSH20 0xFFFFFFFFFFFFFFFFFFFFFFFFFFFFFFFFFFFFFFFF AND DUP2 MSTORE PUSH1 0x20 ADD SWAP1 DUP2 MSTORE PUSH1 0x20 ADD PUSH0 KECCAK256 PUSH0 DUP4 PUSH20 0xFFFFFFFFFFFFFFFFFFFFFFFFFFFFFFFFFFFFFFFF AND PUSH20 0xFFFFFFFFFFFFFFFFFFFFFFFFFFFFFFFFFFFFFFFF AND DUP2 MSTORE PUSH1 0x20 ADD SWAP1 DUP2 MSTORE PUSH1 0x20 ADD PUSH0 KECCAK256 PUSH0 SWAP1 SLOAD SWAP1 PUSH2 0x100 EXP SWAP1 DIV PUSH1 0xFF AND SWAP1 POP SWAP3 SWAP2 POP POP JUMP JUMPDEST PUSH2 0xFC7 PUSH2 0x121A JUMP JUMPDEST PUSH0 PUSH20 0xFFFFFFFFFFFFFFFFFFFFFFFFFFFFFFFFFFFFFFFF AND DUP2 PUSH20 0xFFFFFFFFFFFFFFFFFFFFFFFFFFFFFFFFFFFFFFFF AND SUB PUSH2 0x1037 JUMPI PUSH0 PUSH1 0x40 MLOAD PUSH32 0x1E4FBDF700000000000000000000000000000000000000000000000000000000 DUP2 MSTORE PUSH1 0x4 ADD PUSH2 0x102E SWAP2 SWAP1 PUSH2 0x27F5 JUMP JUMPDEST PUSH1 0x40 MLOAD DUP1 SWAP2 SUB SWAP1 REVERT JUMPDEST PUSH2 0x1040 DUP2 PUSH2 0x1302 JUMP JUMPDEST POP JUMP JUMPDEST PUSH0 PUSH32 0x780E9D6300000000000000000000000000000000000000000000000000000000 PUSH28 0xFFFFFFFFFFFFFFFFFFFFFFFFFFFFFFFFFFFFFFFFFFFFFFFFFFFFFFFF NOT AND DUP3 PUSH28 0xFFFFFFFFFFFFFFFFFFFFFFFFFFFFFFFFFFFFFFFFFFFFFFFFFFFFFFFF NOT AND EQ DUP1 PUSH2 0x10B5 JUMPI POP PUSH2 0x10B4 DUP3 PUSH2 0x182E JUMP JUMPDEST JUMPDEST SWAP1 POP SWAP2 SWAP1 POP JUMP JUMPDEST PUSH0 DUP1 PUSH2 0x10C7 DUP4 PUSH2 0x190F JUMP JUMPDEST SWAP1 POP PUSH0 PUSH20 0xFFFFFFFFFFFFFFFFFFFFFFFFFFFFFFFFFFFFFFFF AND DUP2 PUSH20 0xFFFFFFFFFFFFFFFFFFFFFFFFFFFFFFFFFFFFFFFF AND SUB PUSH2 0x1139 JUMPI DUP3 PUSH1 0x40 MLOAD PUSH32 0x7E27328900000000000000000000000000000000000000000000000000000000 DUP2 MSTORE PUSH1 0x4 ADD PUSH2 0x1130 SWAP2 SWAP1 PUSH2 0x2885 JUMP JUMPDEST PUSH1 0x40 MLOAD DUP1 SWAP2 SUB SWAP1 REVERT JUMPDEST DUP1 SWAP2 POP POP SWAP2 SWAP1 POP JUMP JUMPDEST PUSH0 PUSH1 0x4 PUSH0 DUP4 DUP2 MSTORE PUSH1 0x20 ADD SWAP1 DUP2 MSTORE PUSH1 0x20 ADD PUSH0 KECCAK256 PUSH0 SWAP1 SLOAD SWAP1 PUSH2 0x100 EXP SWAP1 DIV PUSH20 0xFFFFFFFFFFFFFFFFFFFFFFFFFFFFFFFFFFFFFFFF AND SWAP1 POP SWAP2 SWAP1 POP JUMP JUMPDEST PUSH0 CALLER SWAP1 POP SWAP1 JUMP JUMPDEST PUSH2 0x118F DUP4 DUP4 DUP4 PUSH1 0x1 PUSH2 0x1948 JUMP JUMPDEST POP POP POP JUMP JUMPDEST PUSH1 0xC SLOAD PUSH2 0x119F PUSH2 0x897 JUMP JUMPDEST LT PUSH2 0x11DF JUMPI PUSH1 0x40 MLOAD PUSH32 0x8C379A000000000000000000000000000000000000000000000000000000000 DUP2 MSTORE PUSH1 0x4 ADD PUSH2 0x11D6 SWAP1 PUSH2 0x2F7E JUMP JUMPDEST PUSH1 0x40 MLOAD DUP1 SWAP2 SUB SWAP1 REVERT JUMPDEST PUSH0 PUSH1 0xB PUSH0 DUP2 SLOAD DUP1 SWAP3 SWAP2 SWAP1 PUSH2 0x11F2 SWAP1 PUSH2 0x2FC9 JUMP JUMPDEST SWAP2 SWAP1 POP SSTORE SWAP1 POP PUSH2 0x1202 CALLER DUP3 PUSH2 0x1B07 JUMP JUMPDEST POP JUMP JUMPDEST PUSH0 PUSH2 0x1211 DUP5 DUP5 DUP5 PUSH2 0x1B24 JUMP JUMPDEST SWAP1 POP SWAP4 SWAP3 POP POP POP JUMP JUMPDEST PUSH2 0x1222 PUSH2 0x117B JUMP JUMPDEST PUSH20 0xFFFFFFFFFFFFFFFFFFFFFFFFFFFFFFFFFFFFFFFF AND PUSH2 0x1240 PUSH2 0xDD9 JUMP JUMPDEST PUSH20 0xFFFFFFFFFFFFFFFFFFFFFFFFFFFFFFFFFFFFFFFF AND EQ PUSH2 0x129F JUMPI PUSH2 0x1263 PUSH2 0x117B JUMP JUMPDEST PUSH1 0x40 MLOAD PUSH32 0x118CDAA700000000000000000000000000000000000000000000000000000000 DUP2 MSTORE PUSH1 0x4 ADD PUSH2 0x1296 SWAP2 SWAP1 PUSH2 0x27F5 JUMP JUMPDEST PUSH1 0x40 MLOAD DUP1 SWAP2 SUB SWAP1 REVERT JUMPDEST JUMP JUMPDEST PUSH2 0x12A9 PUSH2 0x1B41 JUMP JUMPDEST PUSH0 PUSH1 0xA PUSH0 PUSH2 0x100 EXP DUP2 SLOAD DUP2 PUSH1 0xFF MUL NOT AND SWAP1 DUP4 ISZERO ISZERO MUL OR SWAP1 SSTORE POP PUSH32 0x5DB9EE0A495BF2E6FF9C91A7834C1BA4FDD244A5E8AA4E537BD38AEAE4B073AA PUSH2 0x12EB PUSH2 0x117B JUMP JUMPDEST PUSH1 0x40 MLOAD PUSH2 0x12F8 SWAP2 SWAP1 PUSH2 0x27F5 JUMP JUMPDEST PUSH1 0x40 MLOAD DUP1 SWAP2 SUB SWAP1 LOG1 JUMP JUMPDEST PUSH0 PUSH1 0xA PUSH1 0x1 SWAP1 SLOAD SWAP1 PUSH2 0x100 EXP SWAP1 DIV PUSH20 0xFFFFFFFFFFFFFFFFFFFFFFFFFFFFFFFFFFFFFFFF AND SWAP1 POP DUP2 PUSH1 0xA PUSH1 0x1 PUSH2 0x100 EXP DUP2 SLOAD DUP2 PUSH20 0xFFFFFFFFFFFFFFFFFFFFFFFFFFFFFFFFFFFFFFFF MUL NOT AND SWAP1 DUP4 PUSH20 0xFFFFFFFFFFFFFFFFFFFFFFFFFFFFFFFFFFFFFFFF AND MUL OR SWAP1 SSTORE POP DUP2 PUSH20 0xFFFFFFFFFFFFFFFFFFFFFFFFFFFFFFFFFFFFFFFF AND DUP2 PUSH20 0xFFFFFFFFFFFFFFFFFFFFFFFFFFFFFFFFFFFFFFFF AND PUSH32 0x8BE0079C531659141344CD1FD0A4F28419497F9722A3DAAFE3B4186F6B6457E0 PUSH1 0x40 MLOAD PUSH1 0x40 MLOAD DUP1 SWAP2 SUB SWAP1 LOG3 POP POP JUMP JUMPDEST PUSH2 0x13CF PUSH2 0x1B81 JUMP JUMPDEST PUSH1 0x1 PUSH1 0xA PUSH0 PUSH2 0x100 EXP DUP2 SLOAD DUP2 PUSH1 0xFF MUL NOT AND SWAP1 DUP4 ISZERO ISZERO MUL OR SWAP1 SSTORE POP PUSH32 0x62E78CEA01BEE320CD4E420270B5EA74000D11B0C9F74754EBDBFC544B05A258 PUSH2 0x1412 PUSH2 0x117B JUMP JUMPDEST PUSH1 0x40 MLOAD PUSH2 0x141F SWAP2 SWAP1 PUSH2 0x27F5 JUMP JUMPDEST PUSH1 0x40 MLOAD DUP1 SWAP2 SUB SWAP1 LOG1 JUMP JUMPDEST PUSH0 PUSH20 0xFFFFFFFFFFFFFFFFFFFFFFFFFFFFFFFFFFFFFFFF AND DUP3 PUSH20 0xFFFFFFFFFFFFFFFFFFFFFFFFFFFFFFFFFFFFFFFF AND SUB PUSH2 0x1499 JUMPI DUP2 PUSH1 0x40 MLOAD PUSH32 0x5B08BA1800000000000000000000000000000000000000000000000000000000 DUP2 MSTORE PUSH1 0x4 ADD PUSH2 0x1490 SWAP2 SWAP1 PUSH2 0x27F5 JUMP JUMPDEST PUSH1 0x40 MLOAD DUP1 SWAP2 SUB SWAP1 REVERT JUMPDEST DUP1 PUSH1 0x5 PUSH0 DUP6 PUSH20 0xFFFFFFFFFFFFFFFFFFFFFFFFFFFFFFFFFFFFFFFF AND PUSH20 0xFFFFFFFFFFFFFFFFFFFFFFFFFFFFFFFFFFFFFFFF AND DUP2 MSTORE PUSH1 0x20 ADD SWAP1 DUP2 MSTORE PUSH1 0x20 ADD PUSH0 KECCAK256 PUSH0 DUP5 PUSH20 0xFFFFFFFFFFFFFFFFFFFFFFFFFFFFFFFFFFFFFFFF AND PUSH20 0xFFFFFFFFFFFFFFFFFFFFFFFFFFFFFFFFFFFFFFFF AND DUP2 MSTORE PUSH1 0x20 ADD SWAP1 DUP2 MSTORE PUSH1 0x20 ADD PUSH0 KECCAK256 PUSH0 PUSH2 0x100 EXP DUP2 SLOAD DUP2 PUSH1 0xFF MUL NOT AND SWAP1 DUP4 ISZERO ISZERO MUL OR SWAP1 SSTORE POP DUP2 PUSH20 0xFFFFFFFFFFFFFFFFFFFFFFFFFFFFFFFFFFFFFFFF AND DUP4 PUSH20 0xFFFFFFFFFFFFFFFFFFFFFFFFFFFFFFFFFFFFFFFF AND PUSH32 0x17307EAB39AB6107E8899845AD3D59BD9653F200F220920489CA2B5937696C31 DUP4 PUSH1 0x40 MLOAD PUSH2 0x1585 SWAP2 SWAP1 PUSH2 0x26AF JUMP JUMPDEST PUSH1 0x40 MLOAD DUP1 SWAP2 SUB SWAP1 LOG3 POP POP POP JUMP JUMPDEST PUSH0 DUP4 PUSH20 0xFFFFFFFFFFFFFFFFFFFFFFFFFFFFFFFFFFFFFFFF AND EXTCODESIZE GT ISZERO PUSH2 0x173E JUMPI DUP3 PUSH20 0xFFFFFFFFFFFFFFFFFFFFFFFFFFFFFFFFFFFFFFFF AND PUSH4 0x150B7A02 PUSH2 0x15D5 PUSH2 0x117B JUMP JUMPDEST DUP7 DUP6 DUP6 PUSH1 0x40 MLOAD DUP6 PUSH4 0xFFFFFFFF AND PUSH1 0xE0 SHL DUP2 MSTORE PUSH1 0x4 ADD PUSH2 0x15F7 SWAP5 SWAP4 SWAP3 SWAP2 SWAP1 PUSH2 0x3062 JUMP JUMPDEST PUSH1 0x20 PUSH1 0x40 MLOAD DUP1 DUP4 SUB DUP2 PUSH0 DUP8 GAS CALL SWAP3 POP POP POP DUP1 ISZERO PUSH2 0x1632 JUMPI POP PUSH1 0x40 MLOAD RETURNDATASIZE PUSH1 0x1F NOT PUSH1 0x1F DUP3 ADD AND DUP3 ADD DUP1 PUSH1 0x40 MSTORE POP DUP2 ADD SWAP1 PUSH2 0x162F SWAP2 SWAP1 PUSH2 0x30C0 JUMP JUMPDEST PUSH1 0x1 JUMPDEST PUSH2 0x16B3 JUMPI RETURNDATASIZE DUP1 PUSH0 DUP2 EQ PUSH2 0x1660 JUMPI PUSH1 0x40 MLOAD SWAP2 POP PUSH1 0x1F NOT PUSH1 0x3F RETURNDATASIZE ADD AND DUP3 ADD PUSH1 0x40 MSTORE RETURNDATASIZE DUP3 MSTORE RETURNDATASIZE PUSH0 PUSH1 0x20 DUP5 ADD RETURNDATACOPY PUSH2 0x1665 JUMP JUMPDEST PUSH1 0x60 SWAP2 POP JUMPDEST POP PUSH0 DUP2 MLOAD SUB PUSH2 0x16AB JUMPI DUP4 PUSH1 0x40 MLOAD PUSH32 0x64A0AE9200000000000000000000000000000000000000000000000000000000 DUP2 MSTORE PUSH1 0x4 ADD PUSH2 0x16A2 SWAP2 SWAP1 PUSH2 0x27F5 JUMP JUMPDEST PUSH1 0x40 MLOAD DUP1 SWAP2 SUB SWAP1 REVERT JUMPDEST DUP1 MLOAD DUP2 PUSH1 0x20 ADD REVERT JUMPDEST PUSH4 0x150B7A02 PUSH1 0xE0 SHL PUSH28 0xFFFFFFFFFFFFFFFFFFFFFFFFFFFFFFFFFFFFFFFFFFFFFFFFFFFFFFFF NOT AND DUP2 PUSH28 0xFFFFFFFFFFFFFFFFFFFFFFFFFFFFFFFFFFFFFFFFFFFFFFFFFFFFFFFF NOT AND EQ PUSH2 0x173C JUMPI DUP4 PUSH1 0x40 MLOAD PUSH32 0x64A0AE9200000000000000000000000000000000000000000000000000000000 DUP2 MSTORE PUSH1 0x4 ADD PUSH2 0x1733 SWAP2 SWAP1 PUSH2 0x27F5 JUMP JUMPDEST PUSH1 0x40 MLOAD DUP1 SWAP2 SUB SWAP1 REVERT JUMPDEST POP JUMPDEST POP POP POP POP JUMP JUMPDEST PUSH1 0x60 PUSH1 0x40 MLOAD DUP1 PUSH1 0x60 ADD PUSH1 0x40 MSTORE DUP1 PUSH1 0x36 DUP2 MSTORE PUSH1 0x20 ADD PUSH2 0x3179 PUSH1 0x36 SWAP2 CODECOPY SWAP1 POP SWAP1 JUMP JUMPDEST PUSH1 0x60 PUSH0 PUSH1 0x1 PUSH2 0x1772 DUP5 PUSH2 0x1BC2 JUMP JUMPDEST ADD SWAP1 POP PUSH0 DUP2 PUSH8 0xFFFFFFFFFFFFFFFF DUP2 GT ISZERO PUSH2 0x1790 JUMPI PUSH2 0x178F PUSH2 0x2A6F JUMP JUMPDEST JUMPDEST PUSH1 0x40 MLOAD SWAP1 DUP1 DUP3 MSTORE DUP1 PUSH1 0x1F ADD PUSH1 0x1F NOT AND PUSH1 0x20 ADD DUP3 ADD PUSH1 0x40 MSTORE DUP1 ISZERO PUSH2 0x17C2 JUMPI DUP2 PUSH1 0x20 ADD PUSH1 0x1 DUP3 MUL DUP1 CALLDATASIZE DUP4 CALLDATACOPY DUP1 DUP3 ADD SWAP2 POP POP SWAP1 POP JUMPDEST POP SWAP1 POP PUSH0 DUP3 PUSH1 0x20 ADD DUP3 ADD SWAP1 POP JUMPDEST PUSH1 0x1 ISZERO PUSH2 0x1823 JUMPI DUP1 DUP1 PUSH1 0x1 SWAP1 SUB SWAP2 POP POP PUSH32 0x3031323334353637383961626364656600000000000000000000000000000000 PUSH1 0xA DUP7 MOD BYTE DUP2 MSTORE8 PUSH1 0xA DUP6 DUP2 PUSH2 0x1818 JUMPI PUSH2 0x1817 PUSH2 0x30EB JUMP JUMPDEST JUMPDEST DIV SWAP5 POP PUSH0 DUP6 SUB PUSH2 0x17CF JUMPI JUMPDEST DUP2 SWAP4 POP POP POP POP SWAP2 SWAP1 POP JUMP JUMPDEST PUSH0 PUSH32 0x80AC58CD00000000000000000000000000000000000000000000000000000000 PUSH28 0xFFFFFFFFFFFFFFFFFFFFFFFFFFFFFFFFFFFFFFFFFFFFFFFFFFFFFFFF NOT AND DUP3 PUSH28 0xFFFFFFFFFFFFFFFFFFFFFFFFFFFFFFFFFFFFFFFFFFFFFFFFFFFFFFFF NOT AND EQ DUP1 PUSH2 0x18F8 JUMPI POP PUSH32 0x5B5E139F00000000000000000000000000000000000000000000000000000000 PUSH28 0xFFFFFFFFFFFFFFFFFFFFFFFFFFFFFFFFFFFFFFFFFFFFFFFFFFFFFFFF NOT AND DUP3 PUSH28 0xFFFFFFFFFFFFFFFFFFFFFFFFFFFFFFFFFFFFFFFFFFFFFFFFFFFFFFFF NOT AND EQ JUMPDEST DUP1 PUSH2 0x1908 JUMPI POP PUSH2 0x1907 DUP3 PUSH2 0x1D13 JUMP JUMPDEST JUMPDEST SWAP1 POP SWAP2 SWAP1 POP JUMP JUMPDEST PUSH0 PUSH1 0x2 PUSH0 DUP4 DUP2 MSTORE PUSH1 0x20 ADD SWAP1 DUP2 MSTORE PUSH1 0x20 ADD PUSH0 KECCAK256 PUSH0 SWAP1 SLOAD SWAP1 PUSH2 0x100 EXP SWAP1 DIV PUSH20 0xFFFFFFFFFFFFFFFFFFFFFFFFFFFFFFFFFFFFFFFF AND SWAP1 POP SWAP2 SWAP1 POP JUMP JUMPDEST DUP1 DUP1 PUSH2 0x1980 JUMPI POP PUSH0 PUSH20 0xFFFFFFFFFFFFFFFFFFFFFFFFFFFFFFFFFFFFFFFF AND DUP3 PUSH20 0xFFFFFFFFFFFFFFFFFFFFFFFFFFFFFFFFFFFFFFFF AND EQ ISZERO JUMPDEST ISZERO PUSH2 0x1AB2 JUMPI PUSH0 PUSH2 0x198F DUP5 PUSH2 0x10BC JUMP JUMPDEST SWAP1 POP PUSH0 PUSH20 0xFFFFFFFFFFFFFFFFFFFFFFFFFFFFFFFFFFFFFFFF AND DUP4 PUSH20 0xFFFFFFFFFFFFFFFFFFFFFFFFFFFFFFFFFFFFFFFF AND EQ ISZERO DUP1 ISZERO PUSH2 0x19F9 JUMPI POP DUP3 PUSH20 0xFFFFFFFFFFFFFFFFFFFFFFFFFFFFFFFFFFFFFFFF AND DUP2 PUSH20 0xFFFFFFFFFFFFFFFFFFFFFFFFFFFFFFFFFFFFFFFF AND EQ ISZERO JUMPDEST DUP1 ISZERO PUSH2 0x1A0C JUMPI POP PUSH2 0x1A0A DUP2 DUP5 PUSH2 0xF31 JUMP JUMPDEST ISZERO JUMPDEST ISZERO PUSH2 0x1A4E JUMPI DUP3 PUSH1 0x40 MLOAD PUSH32 0xA9FBF51F00000000000000000000000000000000000000000000000000000000 DUP2 MSTORE PUSH1 0x4 ADD PUSH2 0x1A45 SWAP2 SWAP1 PUSH2 0x27F5 JUMP JUMPDEST PUSH1 0x40 MLOAD DUP1 SWAP2 SUB SWAP1 REVERT JUMPDEST DUP2 ISZERO PUSH2 0x1AB0 JUMPI DUP4 DUP6 PUSH20 0xFFFFFFFFFFFFFFFFFFFFFFFFFFFFFFFFFFFFFFFF AND DUP3 PUSH20 0xFFFFFFFFFFFFFFFFFFFFFFFFFFFFFFFFFFFFFFFF AND PUSH32 0x8C5BE1E5EBEC7D5BD14F71427D1E84F3DD0314C0F7B2291E5B200AC8C7C3B925 PUSH1 0x40 MLOAD PUSH1 0x40 MLOAD DUP1 SWAP2 SUB SWAP1 LOG4 JUMPDEST POP JUMPDEST DUP4 PUSH1 0x4 PUSH0 DUP6 DUP2 MSTORE PUSH1 0x20 ADD SWAP1 DUP2 MSTORE PUSH1 0x20 ADD PUSH0 KECCAK256 PUSH0 PUSH2 0x100 EXP DUP2 SLOAD DUP2 PUSH20 0xFFFFFFFFFFFFFFFFFFFFFFFFFFFFFFFFFFFFFFFF MUL NOT AND SWAP1 DUP4 PUSH20 0xFFFFFFFFFFFFFFFFFFFFFFFFFFFFFFFFFFFFFFFF AND MUL OR SWAP1 SSTORE POP POP POP POP POP JUMP JUMPDEST PUSH2 0x1B20 DUP3 DUP3 PUSH1 0x40 MLOAD DUP1 PUSH1 0x20 ADD PUSH1 0x40 MSTORE DUP1 PUSH0 DUP2 MSTORE POP PUSH2 0x1D7C JUMP JUMPDEST POP POP JUMP JUMPDEST PUSH0 PUSH2 0x1B2D PUSH2 0x1B81 JUMP JUMPDEST PUSH2 0x1B38 DUP5 DUP5 DUP5 PUSH2 0x1D97 JUMP JUMPDEST SWAP1 POP SWAP4 SWAP3 POP POP POP JUMP JUMPDEST PUSH2 0x1B49 PUSH2 0xC35 JUMP JUMPDEST PUSH2 0x1B7F JUMPI PUSH1 0x40 MLOAD PUSH32 0x8DFC202B00000000000000000000000000000000000000000000000000000000 DUP2 MSTORE PUSH1 0x4 ADD PUSH1 0x40 MLOAD DUP1 SWAP2 SUB SWAP1 REVERT JUMPDEST JUMP JUMPDEST PUSH2 0x1B89 PUSH2 0xC35 JUMP JUMPDEST ISZERO PUSH2 0x1BC0 JUMPI PUSH1 0x40 MLOAD PUSH32 0xD93C066500000000000000000000000000000000000000000000000000000000 DUP2 MSTORE PUSH1 0x4 ADD PUSH1 0x40 MLOAD DUP1 SWAP2 SUB SWAP1 REVERT JUMPDEST JUMP JUMPDEST PUSH0 DUP1 PUSH0 SWAP1 POP PUSH27 0x184F03E93FF9F4DAA797ED6E38ED64BF6A1F010000000000000000 DUP4 LT PUSH2 0x1C1E JUMPI PUSH27 0x184F03E93FF9F4DAA797ED6E38ED64BF6A1F010000000000000000 DUP4 DUP2 PUSH2 0x1C14 JUMPI PUSH2 0x1C13 PUSH2 0x30EB JUMP JUMPDEST JUMPDEST DIV SWAP3 POP PUSH1 0x40 DUP2 ADD SWAP1 POP JUMPDEST PUSH14 0x4EE2D6D415B85ACEF8100000000 DUP4 LT PUSH2 0x1C5B JUMPI PUSH14 0x4EE2D6D415B85ACEF8100000000 DUP4 DUP2 PUSH2 0x1C51 JUMPI PUSH2 0x1C50 PUSH2 0x30EB JUMP JUMPDEST JUMPDEST DIV SWAP3 POP PUSH1 0x20 DUP2 ADD SWAP1 POP JUMPDEST PUSH7 0x2386F26FC10000 DUP4 LT PUSH2 0x1C8A JUMPI PUSH7 0x2386F26FC10000 DUP4 DUP2 PUSH2 0x1C80 JUMPI PUSH2 0x1C7F PUSH2 0x30EB JUMP JUMPDEST JUMPDEST DIV SWAP3 POP PUSH1 0x10 DUP2 ADD SWAP1 POP JUMPDEST PUSH4 0x5F5E100 DUP4 LT PUSH2 0x1CB3 JUMPI PUSH4 0x5F5E100 DUP4 DUP2 PUSH2 0x1CA9 JUMPI PUSH2 0x1CA8 PUSH2 0x30EB JUMP JUMPDEST JUMPDEST DIV SWAP3 POP PUSH1 0x8 DUP2 ADD SWAP1 POP JUMPDEST PUSH2 0x2710 DUP4 LT PUSH2 0x1CD8 JUMPI PUSH2 0x2710 DUP4 DUP2 PUSH2 0x1CCE JUMPI PUSH2 0x1CCD PUSH2 0x30EB JUMP JUMPDEST JUMPDEST DIV SWAP3 POP PUSH1 0x4 DUP2 ADD SWAP1 POP JUMPDEST PUSH1 0x64 DUP4 LT PUSH2 0x1CFB JUMPI PUSH1 0x64 DUP4 DUP2 PUSH2 0x1CF1 JUMPI PUSH2 0x1CF0 PUSH2 0x30EB JUMP JUMPDEST JUMPDEST DIV SWAP3 POP PUSH1 0x2 DUP2 ADD SWAP1 POP JUMPDEST PUSH1 0xA DUP4 LT PUSH2 0x1D0A JUMPI PUSH1 0x1 DUP2 ADD SWAP1 POP JUMPDEST DUP1 SWAP2 POP POP SWAP2 SWAP1 POP JUMP JUMPDEST PUSH0 PUSH32 0x1FFC9A700000000000000000000000000000000000000000000000000000000 PUSH28 0xFFFFFFFFFFFFFFFFFFFFFFFFFFFFFFFFFFFFFFFFFFFFFFFFFFFFFFFF NOT AND DUP3 PUSH28 0xFFFFFFFFFFFFFFFFFFFFFFFFFFFFFFFFFFFFFFFFFFFFFFFFFFFFFFFF NOT AND EQ SWAP1 POP SWAP2 SWAP1 POP JUMP JUMPDEST PUSH2 0x1D86 DUP4 DUP4 PUSH2 0x1EB1 JUMP JUMPDEST PUSH2 0x1D92 PUSH0 DUP5 DUP5 DUP5 PUSH2 0x1592 JUMP JUMPDEST POP POP POP JUMP JUMPDEST PUSH0 DUP1 PUSH2 0x1DA4 DUP6 DUP6 DUP6 PUSH2 0x1FA4 JUMP JUMPDEST SWAP1 POP PUSH0 PUSH20 0xFFFFFFFFFFFFFFFFFFFFFFFFFFFFFFFFFFFFFFFF AND DUP2 PUSH20 0xFFFFFFFFFFFFFFFFFFFFFFFFFFFFFFFFFFFFFFFF AND SUB PUSH2 0x1DE7 JUMPI PUSH2 0x1DE2 DUP5 PUSH2 0x21AF JUMP JUMPDEST PUSH2 0x1E26 JUMP JUMPDEST DUP5 PUSH20 0xFFFFFFFFFFFFFFFFFFFFFFFFFFFFFFFFFFFFFFFF AND DUP2 PUSH20 0xFFFFFFFFFFFFFFFFFFFFFFFFFFFFFFFFFFFFFFFF AND EQ PUSH2 0x1E25 JUMPI PUSH2 0x1E24 DUP2 DUP6 PUSH2 0x21F3 JUMP JUMPDEST JUMPDEST JUMPDEST PUSH0 PUSH20 0xFFFFFFFFFFFFFFFFFFFFFFFFFFFFFFFFFFFFFFFF AND DUP6 PUSH20 0xFFFFFFFFFFFFFFFFFFFFFFFFFFFFFFFFFFFFFFFF AND SUB PUSH2 0x1E67 JUMPI PUSH2 0x1E62 DUP5 PUSH2 0x233D JUMP JUMPDEST PUSH2 0x1EA6 JUMP JUMPDEST DUP5 PUSH20 0xFFFFFFFFFFFFFFFFFFFFFFFFFFFFFFFFFFFFFFFF AND DUP2 PUSH20 0xFFFFFFFFFFFFFFFFFFFFFFFFFFFFFFFFFFFFFFFF AND EQ PUSH2 0x1EA5 JUMPI PUSH2 0x1EA4 DUP6 DUP6 PUSH2 0x23FD JUMP JUMPDEST JUMPDEST JUMPDEST DUP1 SWAP2 POP POP SWAP4 SWAP3 POP POP POP JUMP JUMPDEST PUSH0 PUSH20 0xFFFFFFFFFFFFFFFFFFFFFFFFFFFFFFFFFFFFFFFF AND DUP3 PUSH20 0xFFFFFFFFFFFFFFFFFFFFFFFFFFFFFFFFFFFFFFFF AND SUB PUSH2 0x1F21 JUMPI PUSH0 PUSH1 0x40 MLOAD PUSH32 0x64A0AE9200000000000000000000000000000000000000000000000000000000 DUP2 MSTORE PUSH1 0x4 ADD PUSH2 0x1F18 SWAP2 SWAP1 PUSH2 0x27F5 JUMP JUMPDEST PUSH1 0x40 MLOAD DUP1 SWAP2 SUB SWAP1 REVERT JUMPDEST PUSH0 PUSH2 0x1F2D DUP4 DUP4 PUSH0 PUSH2 0x1205 JUMP JUMPDEST SWAP1 POP PUSH0 PUSH20 0xFFFFFFFFFFFFFFFFFFFFFFFFFFFFFFFFFFFFFFFF AND DUP2 PUSH20 0xFFFFFFFFFFFFFFFFFFFFFFFFFFFFFFFFFFFFFFFF AND EQ PUSH2 0x1F9F JUMPI PUSH0 PUSH1 0x40 MLOAD PUSH32 0x73C6AC6E00000000000000000000000000000000000000000000000000000000 DUP2 MSTORE PUSH1 0x4 ADD PUSH2 0x1F96 SWAP2 SWAP1 PUSH2 0x27F5 JUMP JUMPDEST PUSH1 0x40 MLOAD DUP1 SWAP2 SUB SWAP1 REVERT JUMPDEST POP POP POP JUMP JUMPDEST PUSH0 DUP1 PUSH2 0x1FAF DUP5 PUSH2 0x190F JUMP JUMPDEST SWAP1 POP PUSH0 PUSH20 0xFFFFFFFFFFFFFFFFFFFFFFFFFFFFFFFFFFFFFFFF AND DUP4 PUSH20 0xFFFFFFFFFFFFFFFFFFFFFFFFFFFFFFFFFFFFFFFF AND EQ PUSH2 0x1FF0 JUMPI PUSH2 0x1FEF DUP2 DUP5 DUP7 PUSH2 0x2481 JUMP JUMPDEST JUMPDEST PUSH0 PUSH20 0xFFFFFFFFFFFFFFFFFFFFFFFFFFFFFFFFFFFFFFFF AND DUP2 PUSH20 0xFFFFFFFFFFFFFFFFFFFFFFFFFFFFFFFFFFFFFFFF AND EQ PUSH2 0x207B JUMPI PUSH2 0x202F PUSH0 DUP6 PUSH0 DUP1 PUSH2 0x1948 JUMP JUMPDEST PUSH1 0x1 PUSH1 0x3 PUSH0 DUP4 PUSH20 0xFFFFFFFFFFFFFFFFFFFFFFFFFFFFFFFFFFFFFFFF AND PUSH20 0xFFFFFFFFFFFFFFFFFFFFFFFFFFFFFFFFFFFFFFFF AND DUP2 MSTORE PUSH1 0x20 ADD SWAP1 DUP2 MSTORE PUSH1 0x20 ADD PUSH0 KECCAK256 PUSH0 DUP3 DUP3 SLOAD SUB SWAP3 POP POP DUP2 SWAP1 SSTORE POP JUMPDEST PUSH0 PUSH20 0xFFFFFFFFFFFFFFFFFFFFFFFFFFFFFFFFFFFFFFFF AND DUP6 PUSH20 0xFFFFFFFFFFFFFFFFFFFFFFFFFFFFFFFFFFFFFFFF AND EQ PUSH2 0x20FA JUMPI PUSH1 0x1 PUSH1 0x3 PUSH0 DUP8 PUSH20 0xFFFFFFFFFFFFFFFFFFFFFFFFFFFFFFFFFFFFFFFF AND PUSH20 0xFFFFFFFFFFFFFFFFFFFFFFFFFFFFFFFFFFFFFFFF AND DUP2 MSTORE PUSH1 0x20 ADD SWAP1 DUP2 MSTORE PUSH1 0x20 ADD PUSH0 KECCAK256 PUSH0 DUP3 DUP3 SLOAD ADD SWAP3 POP POP DUP2 SWAP1 SSTORE POP JUMPDEST DUP5 PUSH1 0x2 PUSH0 DUP7 DUP2 MSTORE PUSH1 0x20 ADD SWAP1 DUP2 MSTORE PUSH1 0x20 ADD PUSH0 KECCAK256 PUSH0 PUSH2 0x100 EXP DUP2 SLOAD DUP2 PUSH20 0xFFFFFFFFFFFFFFFFFFFFFFFFFFFFFFFFFFFFFFFF MUL NOT AND SWAP1 DUP4 PUSH20 0xFFFFFFFFFFFFFFFFFFFFFFFFFFFFFFFFFFFFFFFF AND MUL OR SWAP1 SSTORE POP DUP4 DUP6 PUSH20 0xFFFFFFFFFFFFFFFFFFFFFFFFFFFFFFFFFFFFFFFF AND DUP3 PUSH20 0xFFFFFFFFFFFFFFFFFFFFFFFFFFFFFFFFFFFFFFFF AND PUSH32 0xDDF252AD1BE2C89B69C2B068FC378DAA952BA7F163C4A11628F55A4DF523B3EF PUSH1 0x40 MLOAD PUSH1 0x40 MLOAD DUP1 SWAP2 SUB SWAP1 LOG4 DUP1 SWAP2 POP POP SWAP4 SWAP3 POP POP POP JUMP JUMPDEST PUSH1 0x8 DUP1 SLOAD SWAP1 POP PUSH1 0x9 PUSH0 DUP4 DUP2 MSTORE PUSH1 0x20 ADD SWAP1 DUP2 MSTORE PUSH1 0x20 ADD PUSH0 KECCAK256 DUP2 SWAP1 SSTORE POP PUSH1 0x8 DUP2 SWAP1 DUP1 PUSH1 0x1 DUP2 SLOAD ADD DUP1 DUP3 SSTORE DUP1 SWAP2 POP POP PUSH1 0x1 SWAP1 SUB SWAP1 PUSH0 MSTORE PUSH1 0x20 PUSH0 KECCAK256 ADD PUSH0 SWAP1 SWAP2 SWAP1 SWAP2 SWAP1 SWAP2 POP SSTORE POP JUMP JUMPDEST PUSH0 PUSH2 0x21FD DUP4 PUSH2 0xCFE JUMP JUMPDEST SWAP1 POP PUSH0 PUSH1 0x7 PUSH0 DUP5 DUP2 MSTORE PUSH1 0x20 ADD SWAP1 DUP2 MSTORE PUSH1 0x20 ADD PUSH0 KECCAK256 SLOAD SWAP1 POP DUP2 DUP2 EQ PUSH2 0x22D4 JUMPI PUSH0 PUSH1 0x6 PUSH0 DUP7 PUSH20 0xFFFFFFFFFFFFFFFFFFFFFFFFFFFFFFFFFFFFFFFF AND PUSH20 0xFFFFFFFFFFFFFFFFFFFFFFFFFFFFFFFFFFFFFFFF AND DUP2 MSTORE PUSH1 0x20 ADD SWAP1 DUP2 MSTORE PUSH1 0x20 ADD PUSH0 KECCAK256 PUSH0 DUP5 DUP2 MSTORE PUSH1 0x20 ADD SWAP1 DUP2 MSTORE PUSH1 0x20 ADD PUSH0 KECCAK256 SLOAD SWAP1 POP DUP1 PUSH1 0x6 PUSH0 DUP8 PUSH20 0xFFFFFFFFFFFFFFFFFFFFFFFFFFFFFFFFFFFFFFFF AND PUSH20 0xFFFFFFFFFFFFFFFFFFFFFFFFFFFFFFFFFFFFFFFF AND DUP2 MSTORE PUSH1 0x20 ADD SWAP1 DUP2 MSTORE PUSH1 0x20 ADD PUSH0 KECCAK256 PUSH0 DUP5 DUP2 MSTORE PUSH1 0x20 ADD SWAP1 DUP2 MSTORE PUSH1 0x20 ADD PUSH0 KECCAK256 DUP2 SWAP1 SSTORE POP DUP2 PUSH1 0x7 PUSH0 DUP4 DUP2 MSTORE PUSH1 0x20 ADD SWAP1 DUP2 MSTORE PUSH1 0x20 ADD PUSH0 KECCAK256 DUP2 SWAP1 SSTORE POP POP JUMPDEST PUSH1 0x7 PUSH0 DUP5 DUP2 MSTORE PUSH1 0x20 ADD SWAP1 DUP2 MSTORE PUSH1 0x20 ADD PUSH0 KECCAK256 PUSH0 SWAP1 SSTORE PUSH1 0x6 PUSH0 DUP6 PUSH20 0xFFFFFFFFFFFFFFFFFFFFFFFFFFFFFFFFFFFFFFFF AND PUSH20 0xFFFFFFFFFFFFFFFFFFFFFFFFFFFFFFFFFFFFFFFF AND DUP2 MSTORE PUSH1 0x20 ADD SWAP1 DUP2 MSTORE PUSH1 0x20 ADD PUSH0 KECCAK256 PUSH0 DUP4 DUP2 MSTORE PUSH1 0x20 ADD SWAP1 DUP2 MSTORE PUSH1 0x20 ADD PUSH0 KECCAK256 PUSH0 SWAP1 SSTORE POP POP POP POP JUMP JUMPDEST PUSH0 PUSH1 0x1 PUSH1 0x8 DUP1 SLOAD SWAP1 POP PUSH2 0x2350 SWAP2 SWAP1 PUSH2 0x3118 JUMP JUMPDEST SWAP1 POP PUSH0 PUSH1 0x9 PUSH0 DUP5 DUP2 MSTORE PUSH1 0x20 ADD SWAP1 DUP2 MSTORE PUSH1 0x20 ADD PUSH0 KECCAK256 SLOAD SWAP1 POP PUSH0 PUSH1 0x8 DUP4 DUP2 SLOAD DUP2 LT PUSH2 0x237C JUMPI PUSH2 0x237B PUSH2 0x2EAA JUMP JUMPDEST JUMPDEST SWAP1 PUSH0 MSTORE PUSH1 0x20 PUSH0 KECCAK256 ADD SLOAD SWAP1 POP DUP1 PUSH1 0x8 DUP4 DUP2 SLOAD DUP2 LT PUSH2 0x239C JUMPI PUSH2 0x239B PUSH2 0x2EAA JUMP JUMPDEST JUMPDEST SWAP1 PUSH0 MSTORE PUSH1 0x20 PUSH0 KECCAK256 ADD DUP2 SWAP1 SSTORE POP DUP2 PUSH1 0x9 PUSH0 DUP4 DUP2 MSTORE PUSH1 0x20 ADD SWAP1 DUP2 MSTORE PUSH1 0x20 ADD PUSH0 KECCAK256 DUP2 SWAP1 SSTORE POP PUSH1 0x9 PUSH0 DUP6 DUP2 MSTORE PUSH1 0x20 ADD SWAP1 DUP2 MSTORE PUSH1 0x20 ADD PUSH0 KECCAK256 PUSH0 SWAP1 SSTORE PUSH1 0x8 DUP1 SLOAD DUP1 PUSH2 0x23E4 JUMPI PUSH2 0x23E3 PUSH2 0x314B JUMP JUMPDEST JUMPDEST PUSH1 0x1 SWAP1 SUB DUP2 DUP2 SWAP1 PUSH0 MSTORE PUSH1 0x20 PUSH0 KECCAK256 ADD PUSH0 SWAP1 SSTORE SWAP1 SSTORE POP POP POP POP JUMP JUMPDEST PUSH0 PUSH1 0x1 PUSH2 0x2409 DUP5 PUSH2 0xCFE JUMP JUMPDEST PUSH2 0x2413 SWAP2 SWAP1 PUSH2 0x3118 JUMP JUMPDEST SWAP1 POP DUP2 PUSH1 0x6 PUSH0 DUP6 PUSH20 0xFFFFFFFFFFFFFFFFFFFFFFFFFFFFFFFFFFFFFFFF AND PUSH20 0xFFFFFFFFFFFFFFFFFFFFFFFFFFFFFFFFFFFFFFFF AND DUP2 MSTORE PUSH1 0x20 ADD SWAP1 DUP2 MSTORE PUSH1 0x20 ADD PUSH0 KECCAK256 PUSH0 DUP4 DUP2 MSTORE PUSH1 0x20 ADD SWAP1 DUP2 MSTORE PUSH1 0x20 ADD PUSH0 KECCAK256 DUP2 SWAP1 SSTORE POP DUP1 PUSH1 0x7 PUSH0 DUP5 DUP2 MSTORE PUSH1 0x20 ADD SWAP1 DUP2 MSTORE PUSH1 0x20 ADD PUSH0 KECCAK256 DUP2 SWAP1 SSTORE POP POP POP POP JUMP JUMPDEST PUSH2 0x248C DUP4 DUP4 DUP4 PUSH2 0x2544 JUMP JUMPDEST PUSH2 0x253F JUMPI PUSH0 PUSH20 0xFFFFFFFFFFFFFFFFFFFFFFFFFFFFFFFFFFFFFFFF AND DUP4 PUSH20 0xFFFFFFFFFFFFFFFFFFFFFFFFFFFFFFFFFFFFFFFF AND SUB PUSH2 0x2500 JUMPI DUP1 PUSH1 0x40 MLOAD PUSH32 0x7E27328900000000000000000000000000000000000000000000000000000000 DUP2 MSTORE PUSH1 0x4 ADD PUSH2 0x24F7 SWAP2 SWAP1 PUSH2 0x2885 JUMP JUMPDEST PUSH1 0x40 MLOAD DUP1 SWAP2 SUB SWAP1 REVERT JUMPDEST DUP2 DUP2 PUSH1 0x40 MLOAD PUSH32 0x177E802F00000000000000000000000000000000000000000000000000000000 DUP2 MSTORE PUSH1 0x4 ADD PUSH2 0x2536 SWAP3 SWAP2 SWAP1 PUSH2 0x2E83 JUMP JUMPDEST PUSH1 0x40 MLOAD DUP1 SWAP2 SUB SWAP1 REVERT JUMPDEST POP POP POP JUMP JUMPDEST PUSH0 DUP1 PUSH20 0xFFFFFFFFFFFFFFFFFFFFFFFFFFFFFFFFFFFFFFFF AND DUP4 PUSH20 0xFFFFFFFFFFFFFFFFFFFFFFFFFFFFFFFFFFFFFFFF AND EQ ISZERO DUP1 ISZERO PUSH2 0x25FB JUMPI POP DUP3 PUSH20 0xFFFFFFFFFFFFFFFFFFFFFFFFFFFFFFFFFFFFFFFF AND DUP5 PUSH20 0xFFFFFFFFFFFFFFFFFFFFFFFFFFFFFFFFFFFFFFFF AND EQ DUP1 PUSH2 0x25BC JUMPI POP PUSH2 0x25BB DUP5 DUP5 PUSH2 0xF31 JUMP JUMPDEST JUMPDEST DUP1 PUSH2 0x25FA JUMPI POP DUP3 PUSH20 0xFFFFFFFFFFFFFFFFFFFFFFFFFFFFFFFFFFFFFFFF AND PUSH2 0x25E2 DUP4 PUSH2 0x1142 JUMP JUMPDEST PUSH20 0xFFFFFFFFFFFFFFFFFFFFFFFFFFFFFFFFFFFFFFFF AND EQ JUMPDEST JUMPDEST SWAP1 POP SWAP4 SWAP3 POP POP POP JUMP JUMPDEST PUSH0 PUSH1 0x40 MLOAD SWAP1 POP SWAP1 JUMP JUMPDEST PUSH0 DUP1 REVERT JUMPDEST PUSH0 DUP1 REVERT JUMPDEST PUSH0 PUSH32 0xFFFFFFFF00000000000000000000000000000000000000000000000000000000 DUP3 AND SWAP1 POP SWAP2 SWAP1 POP JUMP JUMPDEST PUSH2 0x2649 DUP2 PUSH2 0x2615 JUMP JUMPDEST DUP2 EQ PUSH2 0x2653 JUMPI PUSH0 DUP1 REVERT JUMPDEST POP JUMP JUMPDEST PUSH0 DUP2 CALLDATALOAD SWAP1 POP PUSH2 0x2664 DUP2 PUSH2 0x2640 JUMP JUMPDEST SWAP3 SWAP2 POP POP JUMP JUMPDEST PUSH0 PUSH1 0x20 DUP3 DUP5 SUB SLT ISZERO PUSH2 0x267F JUMPI PUSH2 0x267E PUSH2 0x260D JUMP JUMPDEST JUMPDEST PUSH0 PUSH2 0x268C DUP5 DUP3 DUP6 ADD PUSH2 0x2656 JUMP JUMPDEST SWAP2 POP POP SWAP3 SWAP2 POP POP JUMP JUMPDEST PUSH0 DUP2 ISZERO ISZERO SWAP1 POP SWAP2 SWAP1 POP JUMP JUMPDEST PUSH2 0x26A9 DUP2 PUSH2 0x2695 JUMP JUMPDEST DUP3 MSTORE POP POP JUMP JUMPDEST PUSH0 PUSH1 0x20 DUP3 ADD SWAP1 POP PUSH2 0x26C2 PUSH0 DUP4 ADD DUP5 PUSH2 0x26A0 JUMP JUMPDEST SWAP3 SWAP2 POP POP JUMP JUMPDEST PUSH0 DUP2 MLOAD SWAP1 POP SWAP2 SWAP1 POP JUMP JUMPDEST PUSH0 DUP3 DUP3 MSTORE PUSH1 0x20 DUP3 ADD SWAP1 POP SWAP3 SWAP2 POP POP JUMP JUMPDEST DUP3 DUP2 DUP4 MCOPY PUSH0 DUP4 DUP4 ADD MSTORE POP POP POP JUMP JUMPDEST PUSH0 PUSH1 0x1F NOT PUSH1 0x1F DUP4 ADD AND SWAP1 POP SWAP2 SWAP1 POP JUMP JUMPDEST PUSH0 PUSH2 0x270A DUP3 PUSH2 0x26C8 JUMP JUMPDEST PUSH2 0x2714 DUP2 DUP6 PUSH2 0x26D2 JUMP JUMPDEST SWAP4 POP PUSH2 0x2724 DUP2 DUP6 PUSH1 0x20 DUP7 ADD PUSH2 0x26E2 JUMP JUMPDEST PUSH2 0x272D DUP2 PUSH2 0x26F0 JUMP JUMPDEST DUP5 ADD SWAP2 POP POP SWAP3 SWAP2 POP POP JUMP JUMPDEST PUSH0 PUSH1 0x20 DUP3 ADD SWAP1 POP DUP2 DUP2 SUB PUSH0 DUP4 ADD MSTORE PUSH2 0x2750 DUP2 DUP5 PUSH2 0x2700 JUMP JUMPDEST SWAP1 POP SWAP3 SWAP2 POP POP JUMP JUMPDEST PUSH0 DUP2 SWAP1 POP SWAP2 SWAP1 POP JUMP JUMPDEST PUSH2 0x276A DUP2 PUSH2 0x2758 JUMP JUMPDEST DUP2 EQ PUSH2 0x2774 JUMPI PUSH0 DUP1 REVERT JUMPDEST POP JUMP JUMPDEST PUSH0 DUP2 CALLDATALOAD SWAP1 POP PUSH2 0x2785 DUP2 PUSH2 0x2761 JUMP JUMPDEST SWAP3 SWAP2 POP POP JUMP JUMPDEST PUSH0 PUSH1 0x20 DUP3 DUP5 SUB SLT ISZERO PUSH2 0x27A0 JUMPI PUSH2 0x279F PUSH2 0x260D JUMP JUMPDEST JUMPDEST PUSH0 PUSH2 0x27AD DUP5 DUP3 DUP6 ADD PUSH2 0x2777 JUMP JUMPDEST SWAP2 POP POP SWAP3 SWAP2 POP POP JUMP JUMPDEST PUSH0 PUSH20 0xFFFFFFFFFFFFFFFFFFFFFFFFFFFFFFFFFFFFFFFF DUP3 AND SWAP1 POP SWAP2 SWAP1 POP JUMP JUMPDEST PUSH0 PUSH2 0x27DF DUP3 PUSH2 0x27B6 JUMP JUMPDEST SWAP1 POP SWAP2 SWAP1 POP JUMP JUMPDEST PUSH2 0x27EF DUP2 PUSH2 0x27D5 JUMP JUMPDEST DUP3 MSTORE POP POP JUMP JUMPDEST PUSH0 PUSH1 0x20 DUP3 ADD SWAP1 POP PUSH2 0x2808 PUSH0 DUP4 ADD DUP5 PUSH2 0x27E6 JUMP JUMPDEST SWAP3 SWAP2 POP POP JUMP JUMPDEST PUSH2 0x2817 DUP2 PUSH2 0x27D5 JUMP JUMPDEST DUP2 EQ PUSH2 0x2821 JUMPI PUSH0 DUP1 REVERT JUMPDEST POP JUMP JUMPDEST PUSH0 DUP2 CALLDATALOAD SWAP1 POP PUSH2 0x2832 DUP2 PUSH2 0x280E JUMP JUMPDEST SWAP3 SWAP2 POP POP JUMP JUMPDEST PUSH0 DUP1 PUSH1 0x40 DUP4 DUP6 SUB SLT ISZERO PUSH2 0x284E JUMPI PUSH2 0x284D PUSH2 0x260D JUMP JUMPDEST JUMPDEST PUSH0 PUSH2 0x285B DUP6 DUP3 DUP7 ADD PUSH2 0x2824 JUMP JUMPDEST SWAP3 POP POP PUSH1 0x20 PUSH2 0x286C DUP6 DUP3 DUP7 ADD PUSH2 0x2777 JUMP JUMPDEST SWAP2 POP POP SWAP3 POP SWAP3 SWAP1 POP JUMP JUMPDEST PUSH2 0x287F DUP2 PUSH2 0x2758 JUMP JUMPDEST DUP3 MSTORE POP POP JUMP JUMPDEST PUSH0 PUSH1 0x20 DUP3 ADD SWAP1 POP PUSH2 0x2898 PUSH0 DUP4 ADD DUP5 PUSH2 0x2876 JUMP JUMPDEST SWAP3 SWAP2 POP POP JUMP JUMPDEST PUSH0 DUP1 PUSH0 PUSH1 0x60 DUP5 DUP7 SUB SLT ISZERO PUSH2 0x28B5 JUMPI PUSH2 0x28B4 PUSH2 0x260D JUMP JUMPDEST JUMPDEST PUSH0 PUSH2 0x28C2 DUP7 DUP3 DUP8 ADD PUSH2 0x2824 JUMP JUMPDEST SWAP4 POP POP PUSH1 0x20 PUSH2 0x28D3 DUP7 DUP3 DUP8 ADD PUSH2 0x2824 JUMP JUMPDEST SWAP3 POP POP PUSH1 0x40 PUSH2 0x28E4 DUP7 DUP3 DUP8 ADD PUSH2 0x2777 JUMP JUMPDEST SWAP2 POP POP SWAP3 POP SWAP3 POP SWAP3 JUMP JUMPDEST PUSH0 PUSH1 0x20 DUP3 DUP5 SUB SLT ISZERO PUSH2 0x2903 JUMPI PUSH2 0x2902 PUSH2 0x260D JUMP JUMPDEST JUMPDEST PUSH0 PUSH2 0x2910 DUP5 DUP3 DUP6 ADD PUSH2 0x2824 JUMP JUMPDEST SWAP2 POP POP SWAP3 SWAP2 POP POP JUMP JUMPDEST PUSH2 0x2922 DUP2 PUSH2 0x2695 JUMP JUMPDEST DUP2 EQ PUSH2 0x292C JUMPI PUSH0 DUP1 REVERT JUMPDEST POP JUMP JUMPDEST PUSH0 DUP2 CALLDATALOAD SWAP1 POP PUSH2 0x293D DUP2 PUSH2 0x2919 JUMP JUMPDEST SWAP3 SWAP2 POP POP JUMP JUMPDEST PUSH0 DUP1 PUSH1 0x40 DUP4 DUP6 SUB SLT ISZERO PUSH2 0x2959 JUMPI PUSH2 0x2958 PUSH2 0x260D JUMP JUMPDEST JUMPDEST PUSH0 PUSH2 0x2966 DUP6 DUP3 DUP7 ADD PUSH2 0x292F JUMP JUMPDEST SWAP3 POP POP PUSH1 0x20 PUSH2 0x2977 DUP6 DUP3 DUP7 ADD PUSH2 0x292F JUMP JUMPDEST SWAP2 POP POP SWAP3 POP SWAP3 SWAP1 POP JUMP JUMPDEST PUSH0 DUP1 REVERT JUMPDEST PUSH0 DUP1 REVERT JUMPDEST PUSH0 DUP1 REVERT JUMPDEST PUSH0 DUP1 DUP4 PUSH1 0x1F DUP5 ADD SLT PUSH2 0x29A2 JUMPI PUSH2 0x29A1 PUSH2 0x2981 JUMP JUMPDEST JUMPDEST DUP3 CALLDATALOAD SWAP1 POP PUSH8 0xFFFFFFFFFFFFFFFF DUP2 GT ISZERO PUSH2 0x29BF JUMPI PUSH2 0x29BE PUSH2 0x2985 JUMP JUMPDEST JUMPDEST PUSH1 0x20 DUP4 ADD SWAP2 POP DUP4 PUSH1 0x20 DUP3 MUL DUP4 ADD GT ISZERO PUSH2 0x29DB JUMPI PUSH2 0x29DA PUSH2 0x2989 JUMP JUMPDEST JUMPDEST SWAP3 POP SWAP3 SWAP1 POP JUMP JUMPDEST PUSH0 DUP1 PUSH1 0x20 DUP4 DUP6 SUB SLT ISZERO PUSH2 0x29F8 JUMPI PUSH2 0x29F7 PUSH2 0x260D JUMP JUMPDEST JUMPDEST PUSH0 DUP4 ADD CALLDATALOAD PUSH8 0xFFFFFFFFFFFFFFFF DUP2 GT ISZERO PUSH2 0x2A15 JUMPI PUSH2 0x2A14 PUSH2 0x2611 JUMP JUMPDEST JUMPDEST PUSH2 0x2A21 DUP6 DUP3 DUP7 ADD PUSH2 0x298D JUMP JUMPDEST SWAP3 POP SWAP3 POP POP SWAP3 POP SWAP3 SWAP1 POP JUMP JUMPDEST PUSH0 DUP1 PUSH1 0x40 DUP4 DUP6 SUB SLT ISZERO PUSH2 0x2A43 JUMPI PUSH2 0x2A42 PUSH2 0x260D JUMP JUMPDEST JUMPDEST PUSH0 PUSH2 0x2A50 DUP6 DUP3 DUP7 ADD PUSH2 0x2824 JUMP JUMPDEST SWAP3 POP POP PUSH1 0x20 PUSH2 0x2A61 DUP6 DUP3 DUP7 ADD PUSH2 0x292F JUMP JUMPDEST SWAP2 POP POP SWAP3 POP SWAP3 SWAP1 POP JUMP JUMPDEST PUSH0 DUP1 REVERT JUMPDEST PUSH32 0x4E487B7100000000000000000000000000000000000000000000000000000000 PUSH0 MSTORE PUSH1 0x41 PUSH1 0x4 MSTORE PUSH1 0x24 PUSH0 REVERT JUMPDEST PUSH2 0x2AA5 DUP3 PUSH2 0x26F0 JUMP JUMPDEST DUP2 ADD DUP2 DUP2 LT PUSH8 0xFFFFFFFFFFFFFFFF DUP3 GT OR ISZERO PUSH2 0x2AC4 JUMPI PUSH2 0x2AC3 PUSH2 0x2A6F JUMP JUMPDEST JUMPDEST DUP1 PUSH1 0x40 MSTORE POP POP POP JUMP JUMPDEST PUSH0 PUSH2 0x2AD6 PUSH2 0x2604 JUMP JUMPDEST SWAP1 POP PUSH2 0x2AE2 DUP3 DUP3 PUSH2 0x2A9C JUMP JUMPDEST SWAP2 SWAP1 POP JUMP JUMPDEST PUSH0 PUSH8 0xFFFFFFFFFFFFFFFF DUP3 GT ISZERO PUSH2 0x2B01 JUMPI PUSH2 0x2B00 PUSH2 0x2A6F JUMP JUMPDEST JUMPDEST PUSH2 0x2B0A DUP3 PUSH2 0x26F0 JUMP JUMPDEST SWAP1 POP PUSH1 0x20 DUP2 ADD SWAP1 POP SWAP2 SWAP1 POP JUMP JUMPDEST DUP3 DUP2 DUP4 CALLDATACOPY PUSH0 DUP4 DUP4 ADD MSTORE POP POP POP JUMP JUMPDEST PUSH0 PUSH2 0x2B37 PUSH2 0x2B32 DUP5 PUSH2 0x2AE7 JUMP JUMPDEST PUSH2 0x2ACD JUMP JUMPDEST SWAP1 POP DUP3 DUP2 MSTORE PUSH1 0x20 DUP2 ADD DUP5 DUP5 DUP5 ADD GT ISZERO PUSH2 0x2B53 JUMPI PUSH2 0x2B52 PUSH2 0x2A6B JUMP JUMPDEST JUMPDEST PUSH2 0x2B5E DUP5 DUP3 DUP6 PUSH2 0x2B17 JUMP JUMPDEST POP SWAP4 SWAP3 POP POP POP JUMP JUMPDEST PUSH0 DUP3 PUSH1 0x1F DUP4 ADD SLT PUSH2 0x2B7A JUMPI PUSH2 0x2B79 PUSH2 0x2981 JUMP JUMPDEST JUMPDEST DUP2 CALLDATALOAD PUSH2 0x2B8A DUP5 DUP3 PUSH1 0x20 DUP7 ADD PUSH2 0x2B25 JUMP JUMPDEST SWAP2 POP POP SWAP3 SWAP2 POP POP JUMP JUMPDEST PUSH0 DUP1 PUSH0 DUP1 PUSH1 0x80 DUP6 DUP8 SUB SLT ISZERO PUSH2 0x2BAB JUMPI PUSH2 0x2BAA PUSH2 0x260D JUMP JUMPDEST JUMPDEST PUSH0 PUSH2 0x2BB8 DUP8 DUP3 DUP9 ADD PUSH2 0x2824 JUMP JUMPDEST SWAP5 POP POP PUSH1 0x20 PUSH2 0x2BC9 DUP8 DUP3 DUP9 ADD PUSH2 0x2824 JUMP JUMPDEST SWAP4 POP POP PUSH1 0x40 PUSH2 0x2BDA DUP8 DUP3 DUP9 ADD PUSH2 0x2777 JUMP JUMPDEST SWAP3 POP POP PUSH1 0x60 DUP6 ADD CALLDATALOAD PUSH8 0xFFFFFFFFFFFFFFFF DUP2 GT ISZERO PUSH2 0x2BFB JUMPI PUSH2 0x2BFA PUSH2 0x2611 JUMP JUMPDEST JUMPDEST PUSH2 0x2C07 DUP8 DUP3 DUP9 ADD PUSH2 0x2B66 JUMP JUMPDEST SWAP2 POP POP SWAP3 SWAP6 SWAP2 SWAP5 POP SWAP3 POP JUMP JUMPDEST PUSH0 DUP1 PUSH1 0x40 DUP4 DUP6 SUB SLT ISZERO PUSH2 0x2C29 JUMPI PUSH2 0x2C28 PUSH2 0x260D JUMP JUMPDEST JUMPDEST PUSH0 PUSH2 0x2C36 DUP6 DUP3 DUP7 ADD PUSH2 0x2824 JUMP JUMPDEST SWAP3 POP POP PUSH1 0x20 PUSH2 0x2C47 DUP6 DUP3 DUP7 ADD PUSH2 0x2824 JUMP JUMPDEST SWAP2 POP POP SWAP3 POP SWAP3 SWAP1 POP JUMP JUMPDEST PUSH32 0x4E487B7100000000000000000000000000000000000000000000000000000000 PUSH0 MSTORE PUSH1 0x22 PUSH1 0x4 MSTORE PUSH1 0x24 PUSH0 REVERT JUMPDEST PUSH0 PUSH1 0x2 DUP3 DIV SWAP1 POP PUSH1 0x1 DUP3 AND DUP1 PUSH2 0x2C95 JUMPI PUSH1 0x7F DUP3 AND SWAP2 POP JUMPDEST PUSH1 0x20 DUP3 LT DUP2 SUB PUSH2 0x2CA8 JUMPI PUSH2 0x2CA7 PUSH2 0x2C51 JUMP JUMPDEST JUMPDEST POP SWAP2 SWAP1 POP JUMP JUMPDEST PUSH32 0x616C6C6F774C697374206D696E74206973206E6F74206F70656E000000000000 PUSH0 DUP3 ADD MSTORE POP JUMP JUMPDEST PUSH0 PUSH2 0x2CE2 PUSH1 0x1A DUP4 PUSH2 0x26D2 JUMP JUMPDEST SWAP2 POP PUSH2 0x2CED DUP3 PUSH2 0x2CAE JUMP JUMPDEST PUSH1 0x20 DUP3 ADD SWAP1 POP SWAP2 SWAP1 POP JUMP JUMPDEST PUSH0 PUSH1 0x20 DUP3 ADD SWAP1 POP DUP2 DUP2 SUB PUSH0 DUP4 ADD MSTORE PUSH2 0x2D0F DUP2 PUSH2 0x2CD6 JUMP JUMPDEST SWAP1 POP SWAP2 SWAP1 POP JUMP JUMPDEST PUSH32 0x4E6F7420416C6C6F776564000000000000000000000000000000000000000000 PUSH0 DUP3 ADD MSTORE POP JUMP JUMPDEST PUSH0 PUSH2 0x2D4A PUSH1 0xB DUP4 PUSH2 0x26D2 JUMP JUMPDEST SWAP2 POP PUSH2 0x2D55 DUP3 PUSH2 0x2D16 JUMP JUMPDEST PUSH1 0x20 DUP3 ADD SWAP1 POP SWAP2 SWAP1 POP JUMP JUMPDEST PUSH0 PUSH1 0x20 DUP3 ADD SWAP1 POP DUP2 DUP2 SUB PUSH0 DUP4 ADD MSTORE PUSH2 0x2D77 DUP2 PUSH2 0x2D3E JUMP JUMPDEST SWAP1 POP SWAP2 SWAP1 POP JUMP JUMPDEST PUSH32 0x4E6F7420456E6F7567682056616C756500000000000000000000000000000000 PUSH0 DUP3 ADD MSTORE POP JUMP JUMPDEST PUSH0 PUSH2 0x2DB2 PUSH1 0x10 DUP4 PUSH2 0x26D2 JUMP JUMPDEST SWAP2 POP PUSH2 0x2DBD DUP3 PUSH2 0x2D7E JUMP JUMPDEST PUSH1 0x20 DUP3 ADD SWAP1 POP SWAP2 SWAP1 POP JUMP JUMPDEST PUSH0 PUSH1 0x20 DUP3 ADD SWAP1 POP DUP2 DUP2 SUB PUSH0 DUP4 ADD MSTORE PUSH2 0x2DDF DUP2 PUSH2 0x2DA6 JUMP JUMPDEST SWAP1 POP SWAP2 SWAP1 POP JUMP JUMPDEST PUSH0 PUSH1 0x60 DUP3 ADD SWAP1 POP PUSH2 0x2DF9 PUSH0 DUP4 ADD DUP7 PUSH2 0x27E6 JUMP JUMPDEST PUSH2 0x2E06 PUSH1 0x20 DUP4 ADD DUP6 PUSH2 0x2876 JUMP JUMPDEST PUSH2 0x2E13 PUSH1 0x40 DUP4 ADD DUP5 PUSH2 0x27E6 JUMP JUMPDEST SWAP5 SWAP4 POP POP POP POP JUMP JUMPDEST PUSH32 0x7075626C69634D696E74206973206E6F74206F70656E00000000000000000000 PUSH0 DUP3 ADD MSTORE POP JUMP JUMPDEST PUSH0 PUSH2 0x2E4F PUSH1 0x16 DUP4 PUSH2 0x26D2 JUMP JUMPDEST SWAP2 POP PUSH2 0x2E5A DUP3 PUSH2 0x2E1B JUMP JUMPDEST PUSH1 0x20 DUP3 ADD SWAP1 POP SWAP2 SWAP1 POP JUMP JUMPDEST PUSH0 PUSH1 0x20 DUP3 ADD SWAP1 POP DUP2 DUP2 SUB PUSH0 DUP4 ADD MSTORE PUSH2 0x2E7C DUP2 PUSH2 0x2E43 JUMP JUMPDEST SWAP1 POP SWAP2 SWAP1 POP JUMP JUMPDEST PUSH0 PUSH1 0x40 DUP3 ADD SWAP1 POP PUSH2 0x2E96 PUSH0 DUP4 ADD DUP6 PUSH2 0x27E6 JUMP JUMPDEST PUSH2 0x2EA3 PUSH1 0x20 DUP4 ADD DUP5 PUSH2 0x2876 JUMP JUMPDEST SWAP4 SWAP3 POP POP POP JUMP JUMPDEST PUSH32 0x4E487B7100000000000000000000000000000000000000000000000000000000 PUSH0 MSTORE PUSH1 0x32 PUSH1 0x4 MSTORE PUSH1 0x24 PUSH0 REVERT JUMPDEST PUSH0 DUP2 SWAP1 POP SWAP3 SWAP2 POP POP JUMP JUMPDEST PUSH0 PUSH2 0x2EEB DUP3 PUSH2 0x26C8 JUMP JUMPDEST PUSH2 0x2EF5 DUP2 DUP6 PUSH2 0x2ED7 JUMP JUMPDEST SWAP4 POP PUSH2 0x2F05 DUP2 DUP6 PUSH1 0x20 DUP7 ADD PUSH2 0x26E2 JUMP JUMPDEST DUP1 DUP5 ADD SWAP2 POP POP SWAP3 SWAP2 POP POP JUMP JUMPDEST PUSH0 PUSH2 0x2F1C DUP3 DUP6 PUSH2 0x2EE1 JUMP JUMPDEST SWAP2 POP PUSH2 0x2F28 DUP3 DUP5 PUSH2 0x2EE1 JUMP JUMPDEST SWAP2 POP DUP2 SWAP1 POP SWAP4 SWAP3 POP POP POP JUMP JUMPDEST PUSH32 0x576520536F6C64204F7574212100000000000000000000000000000000000000 PUSH0 DUP3 ADD MSTORE POP JUMP JUMPDEST PUSH0 PUSH2 0x2F68 PUSH1 0xD DUP4 PUSH2 0x26D2 JUMP JUMPDEST SWAP2 POP PUSH2 0x2F73 DUP3 PUSH2 0x2F34 JUMP JUMPDEST PUSH1 0x20 DUP3 ADD SWAP1 POP SWAP2 SWAP1 POP JUMP JUMPDEST PUSH0 PUSH1 0x20 DUP3 ADD SWAP1 POP DUP2 DUP2 SUB PUSH0 DUP4 ADD MSTORE PUSH2 0x2F95 DUP2 PUSH2 0x2F5C JUMP JUMPDEST SWAP1 POP SWAP2 SWAP1 POP JUMP JUMPDEST PUSH32 0x4E487B7100000000000000000000000000000000000000000000000000000000 PUSH0 MSTORE PUSH1 0x11 PUSH1 0x4 MSTORE PUSH1 0x24 PUSH0 REVERT JUMPDEST PUSH0 PUSH2 0x2FD3 DUP3 PUSH2 0x2758 JUMP JUMPDEST SWAP2 POP PUSH32 0xFFFFFFFFFFFFFFFFFFFFFFFFFFFFFFFFFFFFFFFFFFFFFFFFFFFFFFFFFFFFFFFF DUP3 SUB PUSH2 0x3005 JUMPI PUSH2 0x3004 PUSH2 0x2F9C JUMP JUMPDEST JUMPDEST PUSH1 0x1 DUP3 ADD SWAP1 POP SWAP2 SWAP1 POP JUMP JUMPDEST PUSH0 DUP2 MLOAD SWAP1 POP SWAP2 SWAP1 POP JUMP JUMPDEST PUSH0 DUP3 DUP3 MSTORE PUSH1 0x20 DUP3 ADD SWAP1 POP SWAP3 SWAP2 POP POP JUMP JUMPDEST PUSH0 PUSH2 0x3034 DUP3 PUSH2 0x3010 JUMP JUMPDEST PUSH2 0x303E DUP2 DUP6 PUSH2 0x301A JUMP JUMPDEST SWAP4 POP PUSH2 0x304E DUP2 DUP6 PUSH1 0x20 DUP7 ADD PUSH2 0x26E2 JUMP JUMPDEST PUSH2 0x3057 DUP2 PUSH2 0x26F0 JUMP JUMPDEST DUP5 ADD SWAP2 POP POP SWAP3 SWAP2 POP POP JUMP JUMPDEST PUSH0 PUSH1 0x80 DUP3 ADD SWAP1 POP PUSH2 0x3075 PUSH0 DUP4 ADD DUP8 PUSH2 0x27E6 JUMP JUMPDEST PUSH2 0x3082 PUSH1 0x20 DUP4 ADD DUP7 PUSH2 0x27E6 JUMP JUMPDEST PUSH2 0x308F PUSH1 0x40 DUP4 ADD DUP6 PUSH2 0x2876 JUMP JUMPDEST DUP2 DUP2 SUB PUSH1 0x60 DUP4 ADD MSTORE PUSH2 0x30A1 DUP2 DUP5 PUSH2 0x302A JUMP JUMPDEST SWAP1 POP SWAP6 SWAP5 POP POP POP POP POP JUMP JUMPDEST PUSH0 DUP2 MLOAD SWAP1 POP PUSH2 0x30BA DUP2 PUSH2 0x2640 JUMP JUMPDEST SWAP3 SWAP2 POP POP JUMP JUMPDEST PUSH0 PUSH1 0x20 DUP3 DUP5 SUB SLT ISZERO PUSH2 0x30D5 JUMPI PUSH2 0x30D4 PUSH2 0x260D JUMP JUMPDEST JUMPDEST PUSH0 PUSH2 0x30E2 DUP5 DUP3 DUP6 ADD PUSH2 0x30AC JUMP JUMPDEST SWAP2 POP POP SWAP3 SWAP2 POP POP JUMP JUMPDEST PUSH32 0x4E487B7100000000000000000000000000000000000000000000000000000000 PUSH0 MSTORE PUSH1 0x12 PUSH1 0x4 MSTORE PUSH1 0x24 PUSH0 REVERT JUMPDEST PUSH0 PUSH2 0x3122 DUP3 PUSH2 0x2758 JUMP JUMPDEST SWAP2 POP PUSH2 0x312D DUP4 PUSH2 0x2758 JUMP JUMPDEST SWAP3 POP DUP3 DUP3 SUB SWAP1 POP DUP2 DUP2 GT ISZERO PUSH2 0x3145 JUMPI PUSH2 0x3144 PUSH2 0x2F9C JUMP JUMPDEST JUMPDEST SWAP3 SWAP2 POP POP JUMP JUMPDEST PUSH32 0x4E487B7100000000000000000000000000000000000000000000000000000000 PUSH0 MSTORE PUSH1 0x31 PUSH1 0x4 MSTORE PUSH1 0x24 PUSH0 REVERT INVALID PUSH10 0x7066733A2F2F516D6273 PUSH6 0x52544A575373 0x4C PUSH7 0x68736957777542 ORIGIN MSTORE CALLDATACOPY GASLIMIT PUSH21 0x4E39335478666F614D7A3153354658747346455542 0x2F LOG2 PUSH5 0x6970667358 0x22 SLT KECCAK256 GASLIMIT LOG4 PUSH7 0x3EE3983B3091EB 0xD8 0xB0 0xD6 CALLDATASIZE 0xC2 DUP14 PUSH1 0xC5 CALLCODE PUSH28 0x99255199F0C8A4A79E0C429464736F6C634300081A00330000000000 "
		},
		"gasEstimates": {
			"creation": {
				"codeDepositCost": "2554400",
				"executionCost": "infinite",
				"totalCost": "infinite"
			},
			"external": {
				"allowList(address)": "2901",
				"allowListMint()": "infinite",
				"approve(address,uint256)": "infinite",
				"balanceOf(address)": "infinite",
				"editMintWindows(bool,bool)": "infinite",
				"getApproved(uint256)": "infinite",
				"isApprovedForAll(address,address)": "infinite",
				"maxSupply()": "2491",
				"name()": "infinite",
				"owner()": "2611",
				"ownerOf(uint256)": "infinite",
				"pause()": "infinite",
				"paused()": "2541",
				"publicMint()": "infinite",
				"renounceOwnership()": "infinite",
				"safeTransferFrom(address,address,uint256)": "infinite",
				"safeTransferFrom(address,address,uint256,bytes)": "infinite",
				"setAllowList(address[])": "infinite",
				"setApprovalForAll(address,bool)": "infinite",
				"supportsInterface(bytes4)": "940",
				"symbol()": "infinite",
				"tokenByIndex(uint256)": "infinite",
				"tokenOfOwnerByIndex(address,uint256)": "infinite",
				"tokenURI(uint256)": "infinite",
				"totalSupply()": "2530",
				"transferFrom(address,address,uint256)": "infinite",
				"transferOwnership(address)": "infinite",
				"unpause()": "infinite",
				"withdraw(address)": "infinite"
			},
			"internal": {
				"_baseURI()": "infinite",
				"_increaseBalance(address,uint128)": "infinite",
				"_update(address,uint256,address)": "infinite",
				"internalMint()": "infinite"
			}
		},
		"methodIdentifiers": {
			"allowList(address)": "2848aeaf",
			"allowListMint()": "102a6a73",
			"approve(address,uint256)": "095ea7b3",
			"balanceOf(address)": "70a08231",
			"editMintWindows(bool,bool)": "2f48de79",
			"getApproved(uint256)": "081812fc",
			"isApprovedForAll(address,address)": "e985e9c5",
			"maxSupply()": "d5abeb01",
			"name()": "06fdde03",
			"owner()": "8da5cb5b",
			"ownerOf(uint256)": "6352211e",
			"pause()": "8456cb59",
			"paused()": "5c975abb",
			"publicMint()": "26092b83",
			"renounceOwnership()": "715018a6",
			"safeTransferFrom(address,address,uint256)": "42842e0e",
			"safeTransferFrom(address,address,uint256,bytes)": "b88d4fde",
			"setAllowList(address[])": "6447c35d",
			"setApprovalForAll(address,bool)": "a22cb465",
			"supportsInterface(bytes4)": "01ffc9a7",
			"symbol()": "95d89b41",
			"tokenByIndex(uint256)": "4f6ccce7",
			"tokenOfOwnerByIndex(address,uint256)": "2f745c59",
			"tokenURI(uint256)": "c87b56dd",
			"totalSupply()": "18160ddd",
			"transferFrom(address,address,uint256)": "23b872dd",
			"transferOwnership(address)": "f2fde38b",
			"unpause()": "3f4ba83a",
			"withdraw(address)": "51cff8d9"
		}
	},
	"abi": [
		{
			"inputs": [],
			"stateMutability": "nonpayable",
			"type": "constructor"
		},
		{
			"inputs": [],
			"name": "ERC721EnumerableForbiddenBatchMint",
			"type": "error"
		},
		{
			"inputs": [
				{
					"internalType": "address",
					"name": "sender",
					"type": "address"
				},
				{
					"internalType": "uint256",
					"name": "tokenId",
					"type": "uint256"
				},
				{
					"internalType": "address",
					"name": "owner",
					"type": "address"
				}
			],
			"name": "ERC721IncorrectOwner",
			"type": "error"
		},
		{
			"inputs": [
				{
					"internalType": "address",
					"name": "operator",
					"type": "address"
				},
				{
					"internalType": "uint256",
					"name": "tokenId",
					"type": "uint256"
				}
			],
			"name": "ERC721InsufficientApproval",
			"type": "error"
		},
		{
			"inputs": [
				{
					"internalType": "address",
					"name": "approver",
					"type": "address"
				}
			],
			"name": "ERC721InvalidApprover",
			"type": "error"
		},
		{
			"inputs": [
				{
					"internalType": "address",
					"name": "operator",
					"type": "address"
				}
			],
			"name": "ERC721InvalidOperator",
			"type": "error"
		},
		{
			"inputs": [
				{
					"internalType": "address",
					"name": "owner",
					"type": "address"
				}
			],
			"name": "ERC721InvalidOwner",
			"type": "error"
		},
		{
			"inputs": [
				{
					"internalType": "address",
					"name": "receiver",
					"type": "address"
				}
			],
			"name": "ERC721InvalidReceiver",
			"type": "error"
		},
		{
			"inputs": [
				{
					"internalType": "address",
					"name": "sender",
					"type": "address"
				}
			],
			"name": "ERC721InvalidSender",
			"type": "error"
		},
		{
			"inputs": [
				{
					"internalType": "uint256",
					"name": "tokenId",
					"type": "uint256"
				}
			],
			"name": "ERC721NonexistentToken",
			"type": "error"
		},
		{
			"inputs": [
				{
					"internalType": "address",
					"name": "owner",
					"type": "address"
				},
				{
					"internalType": "uint256",
					"name": "index",
					"type": "uint256"
				}
			],
			"name": "ERC721OutOfBoundsIndex",
			"type": "error"
		},
		{
			"inputs": [],
			"name": "EnforcedPause",
			"type": "error"
		},
		{
			"inputs": [],
			"name": "ExpectedPause",
			"type": "error"
		},
		{
			"inputs": [
				{
					"internalType": "address",
					"name": "owner",
					"type": "address"
				}
			],
			"name": "OwnableInvalidOwner",
			"type": "error"
		},
		{
			"inputs": [
				{
					"internalType": "address",
					"name": "account",
					"type": "address"
				}
			],
			"name": "OwnableUnauthorizedAccount",
			"type": "error"
		},
		{
			"anonymous": false,
			"inputs": [
				{
					"indexed": true,
					"internalType": "address",
					"name": "owner",
					"type": "address"
				},
				{
					"indexed": true,
					"internalType": "address",
					"name": "approved",
					"type": "address"
				},
				{
					"indexed": true,
					"internalType": "uint256",
					"name": "tokenId",
					"type": "uint256"
				}
			],
			"name": "Approval",
			"type": "event"
		},
		{
			"anonymous": false,
			"inputs": [
				{
					"indexed": true,
					"internalType": "address",
					"name": "owner",
					"type": "address"
				},
				{
					"indexed": true,
					"internalType": "address",
					"name": "operator",
					"type": "address"
				},
				{
					"indexed": false,
					"internalType": "bool",
					"name": "approved",
					"type": "bool"
				}
			],
			"name": "ApprovalForAll",
			"type": "event"
		},
		{
			"anonymous": false,
			"inputs": [
				{
					"indexed": true,
					"internalType": "address",
					"name": "previousOwner",
					"type": "address"
				},
				{
					"indexed": true,
					"internalType": "address",
					"name": "newOwner",
					"type": "address"
				}
			],
			"name": "OwnershipTransferred",
			"type": "event"
		},
		{
			"anonymous": false,
			"inputs": [
				{
					"indexed": false,
					"internalType": "address",
					"name": "account",
					"type": "address"
				}
			],
			"name": "Paused",
			"type": "event"
		},
		{
			"anonymous": false,
			"inputs": [
				{
					"indexed": true,
					"internalType": "address",
					"name": "from",
					"type": "address"
				},
				{
					"indexed": true,
					"internalType": "address",
					"name": "to",
					"type": "address"
				},
				{
					"indexed": true,
					"internalType": "uint256",
					"name": "tokenId",
					"type": "uint256"
				}
			],
			"name": "Transfer",
			"type": "event"
		},
		{
			"anonymous": false,
			"inputs": [
				{
					"indexed": false,
					"internalType": "address",
					"name": "account",
					"type": "address"
				}
			],
			"name": "Unpaused",
			"type": "event"
		},
		{
			"inputs": [
				{
					"internalType": "address",
					"name": "",
					"type": "address"
				}
			],
			"name": "allowList",
			"outputs": [
				{
					"internalType": "bool",
					"name": "",
					"type": "bool"
				}
			],
			"stateMutability": "view",
			"type": "function"
		},
		{
			"inputs": [],
			"name": "allowListMint",
			"outputs": [],
			"stateMutability": "payable",
			"type": "function"
		},
		{
			"inputs": [
				{
					"internalType": "address",
					"name": "to",
					"type": "address"
				},
				{
					"internalType": "uint256",
					"name": "tokenId",
					"type": "uint256"
				}
			],
			"name": "approve",
			"outputs": [],
			"stateMutability": "nonpayable",
			"type": "function"
		},
		{
			"inputs": [
				{
					"internalType": "address",
					"name": "owner",
					"type": "address"
				}
			],
			"name": "balanceOf",
			"outputs": [
				{
					"internalType": "uint256",
					"name": "",
					"type": "uint256"
				}
			],
			"stateMutability": "view",
			"type": "function"
		},
		{
			"inputs": [
				{
					"internalType": "bool",
					"name": "_publicMintOpen",
					"type": "bool"
				},
				{
					"internalType": "bool",
					"name": "_allowListMintOpen",
					"type": "bool"
				}
			],
			"name": "editMintWindows",
			"outputs": [],
			"stateMutability": "nonpayable",
			"type": "function"
		},
		{
			"inputs": [
				{
					"internalType": "uint256",
					"name": "tokenId",
					"type": "uint256"
				}
			],
			"name": "getApproved",
			"outputs": [
				{
					"internalType": "address",
					"name": "",
					"type": "address"
				}
			],
			"stateMutability": "view",
			"type": "function"
		},
		{
			"inputs": [
				{
					"internalType": "address",
					"name": "owner",
					"type": "address"
				},
				{
					"internalType": "address",
					"name": "operator",
					"type": "address"
				}
			],
			"name": "isApprovedForAll",
			"outputs": [
				{
					"internalType": "bool",
					"name": "",
					"type": "bool"
				}
			],
			"stateMutability": "view",
			"type": "function"
		},
		{
			"inputs": [],
			"name": "maxSupply",
			"outputs": [
				{
					"internalType": "uint256",
					"name": "",
					"type": "uint256"
				}
			],
			"stateMutability": "view",
			"type": "function"
		},
		{
			"inputs": [],
			"name": "name",
			"outputs": [
				{
					"internalType": "string",
					"name": "",
					"type": "string"
				}
			],
			"stateMutability": "view",
			"type": "function"
		},
		{
			"inputs": [],
			"name": "owner",
			"outputs": [
				{
					"internalType": "address",
					"name": "",
					"type": "address"
				}
			],
			"stateMutability": "view",
			"type": "function"
		},
		{
			"inputs": [
				{
					"internalType": "uint256",
					"name": "tokenId",
					"type": "uint256"
				}
			],
			"name": "ownerOf",
			"outputs": [
				{
					"internalType": "address",
					"name": "",
					"type": "address"
				}
			],
			"stateMutability": "view",
			"type": "function"
		},
		{
			"inputs": [],
			"name": "pause",
			"outputs": [],
			"stateMutability": "nonpayable",
			"type": "function"
		},
		{
			"inputs": [],
			"name": "paused",
			"outputs": [
				{
					"internalType": "bool",
					"name": "",
					"type": "bool"
				}
			],
			"stateMutability": "view",
			"type": "function"
		},
		{
			"inputs": [],
			"name": "publicMint",
			"outputs": [],
			"stateMutability": "payable",
			"type": "function"
		},
		{
			"inputs": [],
			"name": "renounceOwnership",
			"outputs": [],
			"stateMutability": "nonpayable",
			"type": "function"
		},
		{
			"inputs": [
				{
					"internalType": "address",
					"name": "from",
					"type": "address"
				},
				{
					"internalType": "address",
					"name": "to",
					"type": "address"
				},
				{
					"internalType": "uint256",
					"name": "tokenId",
					"type": "uint256"
				}
			],
			"name": "safeTransferFrom",
			"outputs": [],
			"stateMutability": "nonpayable",
			"type": "function"
		},
		{
			"inputs": [
				{
					"internalType": "address",
					"name": "from",
					"type": "address"
				},
				{
					"internalType": "address",
					"name": "to",
					"type": "address"
				},
				{
					"internalType": "uint256",
					"name": "tokenId",
					"type": "uint256"
				},
				{
					"internalType": "bytes",
					"name": "data",
					"type": "bytes"
				}
			],
			"name": "safeTransferFrom",
			"outputs": [],
			"stateMutability": "nonpayable",
			"type": "function"
		},
		{
			"inputs": [
				{
					"internalType": "address[]",
					"name": "addresses",
					"type": "address[]"
				}
			],
			"name": "setAllowList",
			"outputs": [],
			"stateMutability": "nonpayable",
			"type": "function"
		},
		{
			"inputs": [
				{
					"internalType": "address",
					"name": "operator",
					"type": "address"
				},
				{
					"internalType": "bool",
					"name": "approved",
					"type": "bool"
				}
			],
			"name": "setApprovalForAll",
			"outputs": [],
			"stateMutability": "nonpayable",
			"type": "function"
		},
		{
			"inputs": [
				{
					"internalType": "bytes4",
					"name": "interfaceId",
					"type": "bytes4"
				}
			],
			"name": "supportsInterface",
			"outputs": [
				{
					"internalType": "bool",
					"name": "",
					"type": "bool"
				}
			],
			"stateMutability": "view",
			"type": "function"
		},
		{
			"inputs": [],
			"name": "symbol",
			"outputs": [
				{
					"internalType": "string",
					"name": "",
					"type": "string"
				}
			],
			"stateMutability": "view",
			"type": "function"
		},
		{
			"inputs": [
				{
					"internalType": "uint256",
					"name": "index",
					"type": "uint256"
				}
			],
			"name": "tokenByIndex",
			"outputs": [
				{
					"internalType": "uint256",
					"name": "",
					"type": "uint256"
				}
			],
			"stateMutability": "view",
			"type": "function"
		},
		{
			"inputs": [
				{
					"internalType": "address",
					"name": "owner",
					"type": "address"
				},
				{
					"internalType": "uint256",
					"name": "index",
					"type": "uint256"
				}
			],
			"name": "tokenOfOwnerByIndex",
			"outputs": [
				{
					"internalType": "uint256",
					"name": "",
					"type": "uint256"
				}
			],
			"stateMutability": "view",
			"type": "function"
		},
		{
			"inputs": [
				{
					"internalType": "uint256",
					"name": "tokenId",
					"type": "uint256"
				}
			],
			"name": "tokenURI",
			"outputs": [
				{
					"internalType": "string",
					"name": "",
					"type": "string"
				}
			],
			"stateMutability": "view",
			"type": "function"
		},
		{
			"inputs": [],
			"name": "totalSupply",
			"outputs": [
				{
					"internalType": "uint256",
					"name": "",
					"type": "uint256"
				}
			],
			"stateMutability": "view",
			"type": "function"
		},
		{
			"inputs": [
				{
					"internalType": "address",
					"name": "from",
					"type": "address"
				},
				{
					"internalType": "address",
					"name": "to",
					"type": "address"
				},
				{
					"internalType": "uint256",
					"name": "tokenId",
					"type": "uint256"
				}
			],
			"name": "transferFrom",
			"outputs": [],
			"stateMutability": "nonpayable",
			"type": "function"
		},
		{
			"inputs": [
				{
					"internalType": "address",
					"name": "newOwner",
					"type": "address"
				}
			],
			"name": "transferOwnership",
			"outputs": [],
			"stateMutability": "nonpayable",
			"type": "function"
		},
		{
			"inputs": [],
			"name": "unpause",
			"outputs": [],
			"stateMutability": "nonpayable",
			"type": "function"
		},
		{
			"inputs": [
				{
					"internalType": "address",
					"name": "_address",
					"type": "address"
				}
			],
			"name": "withdraw",
			"outputs": [],
			"stateMutability": "nonpayable",
			"type": "function"
		}
	]
}